{
  "_format": "hh-sol-artifact-1",
  "contractName": "RewardsManager",
  "sourceName": "contracts/core/utils/RewardsManager.sol",
  "abi": [
    {
      "inputs": [
        {
          "internalType": "contract IContractRegistry",
          "name": "_contractRegistry",
          "type": "address"
        },
        {
          "internalType": "contract IUniswapV2Router02",
          "name": "_uniswapV2Router",
          "type": "address"
        }
      ],
      "stateMutability": "nonpayable",
      "type": "constructor"
    },
    {
      "anonymous": false,
      "inputs": [
        {
          "indexed": false,
          "internalType": "uint256",
          "name": "amount",
          "type": "uint256"
        }
      ],
      "name": "BeneficiaryVaultsDeposited",
      "type": "event"
    },
    {
      "anonymous": false,
      "inputs": [
        {
          "indexed": false,
          "internalType": "address",
          "name": "to",
          "type": "address"
        },
        {
          "indexed": false,
          "internalType": "uint256",
          "name": "amount",
          "type": "uint256"
        }
      ],
      "name": "InsuranceDeposited",
      "type": "event"
    },
    {
      "anonymous": false,
      "inputs": [
        {
          "indexed": false,
          "internalType": "contract IRegion",
          "name": "from",
          "type": "address"
        },
        {
          "indexed": false,
          "internalType": "contract IRegion",
          "name": "to",
          "type": "address"
        }
      ],
      "name": "RegionChanged",
      "type": "event"
    },
    {
      "anonymous": false,
      "inputs": [
        {
          "indexed": false,
          "internalType": "uint256[4]",
          "name": "splits",
          "type": "uint256[4]"
        }
      ],
      "name": "RewardSplitsUpdated",
      "type": "event"
    },
    {
      "anonymous": false,
      "inputs": [
        {
          "indexed": false,
          "internalType": "uint256",
          "name": "amount",
          "type": "uint256"
        }
      ],
      "name": "RewardsDistributed",
      "type": "event"
    },
    {
      "anonymous": false,
      "inputs": [
        {
          "indexed": false,
          "internalType": "address",
          "name": "to",
          "type": "address"
        },
        {
          "indexed": false,
          "internalType": "uint256",
          "name": "amount",
          "type": "uint256"
        }
      ],
      "name": "StakingDeposited",
      "type": "event"
    },
    {
      "anonymous": false,
      "inputs": [
        {
          "indexed": false,
          "internalType": "address",
          "name": "token",
          "type": "address"
        },
        {
          "indexed": false,
          "internalType": "uint256",
          "name": "amountIn",
          "type": "uint256"
        },
        {
          "indexed": false,
          "internalType": "uint256",
          "name": "amountOut",
          "type": "uint256"
        }
      ],
      "name": "TokenSwapped",
      "type": "event"
    },
    {
      "anonymous": false,
      "inputs": [
        {
          "indexed": false,
          "internalType": "address",
          "name": "to",
          "type": "address"
        },
        {
          "indexed": false,
          "internalType": "uint256",
          "name": "amount",
          "type": "uint256"
        }
      ],
      "name": "TreasuryDeposited",
      "type": "event"
    },
    {
      "inputs": [],
      "name": "SWAP_TIMEOUT",
      "outputs": [
        {
          "internalType": "uint256",
          "name": "",
          "type": "uint256"
        }
      ],
      "stateMutability": "view",
      "type": "function"
    },
    {
      "inputs": [],
      "name": "contractName",
      "outputs": [
        {
          "internalType": "bytes32",
          "name": "",
          "type": "bytes32"
        }
      ],
      "stateMutability": "view",
      "type": "function"
    },
    {
      "inputs": [],
      "name": "contractRegistry",
      "outputs": [
        {
          "internalType": "contract IContractRegistry",
          "name": "",
          "type": "address"
        }
      ],
      "stateMutability": "view",
      "type": "function"
    },
    {
      "inputs": [],
      "name": "distributeRewards",
      "outputs": [],
      "stateMutability": "nonpayable",
      "type": "function"
    },
    {
      "inputs": [],
      "name": "getRewardSplits",
      "outputs": [
        {
          "internalType": "uint256[4]",
          "name": "",
          "type": "uint256[4]"
        }
      ],
      "stateMutability": "view",
      "type": "function"
    },
    {
      "inputs": [
        {
          "internalType": "uint256",
          "name": "",
          "type": "uint256"
        }
      ],
      "name": "rewardSplits",
      "outputs": [
        {
          "internalType": "uint256",
          "name": "",
          "type": "uint256"
        }
      ],
      "stateMutability": "view",
      "type": "function"
    },
    {
      "inputs": [
        {
          "internalType": "uint256[4]",
          "name": "_splits",
          "type": "uint256[4]"
        }
      ],
      "name": "setRewardSplits",
      "outputs": [],
      "stateMutability": "nonpayable",
      "type": "function"
    },
    {
      "inputs": [
        {
          "internalType": "address[]",
          "name": "_path",
          "type": "address[]"
        },
        {
          "internalType": "uint256",
          "name": "_minAmountOut",
          "type": "uint256"
        }
      ],
      "name": "swapTokenForRewards",
      "outputs": [
        {
          "internalType": "uint256[]",
          "name": "",
          "type": "uint256[]"
        }
      ],
      "stateMutability": "nonpayable",
      "type": "function"
    },
    {
      "inputs": [],
      "name": "uniswapV2Router",
      "outputs": [
        {
          "internalType": "contract IUniswapV2Router02",
          "name": "",
          "type": "address"
        }
      ],
      "stateMutability": "view",
      "type": "function"
    },
    {
      "stateMutability": "payable",
      "type": "receive"
    }
  ],
  "bytecode": "0x60c06040526d2932bbb0b93239a6b0b730b3b2b960911b6080523480156200002657600080fd5b506040516200231d3803806200231d83398101604081905262000049916200033a565b6001600081815581546001600160a01b0319166001600160a01b038581169190911790925590821660a052604080518082019091526801158e460913d0000081526804563918244f4000006020808301919091529180526006909152620000d4907f54cdd369e4e8a8515e52ca72ec816c2101831ad1f18bf44102ed171459c9b4f890600262000245565b5060408051808201909152678ac7230489e8000081526804563918244f40000060208083019190915260016000526006905262000135907f3e5fec24aa4dc4e5aee2e025e51e1392c72a2500577559fae9665c6d52bd6a3190600262000245565b50604080518082019091526000808252678ac7230489e80000602080840191909152600291829052600690526200018e917f8819ef417987f8ae7a81f42cdfb18815282fe989326fbff903d13cf0e03ace299162000293565b50604080518082019091526801158e460913d0000081526804e1003b28d9280000602080830191909152600360005260069052620001f0907f75f96ab15d697e93042dc45b5c896c4b27e89bb6eaf39475c5c371cb2513f7d290600262000245565b50604080516080810182526801bc16d674ec8000008082526020820152671bc16d674ec80000918101919091526801d7d843dc3b48000060608201526200023c906002906004620002cf565b50505062000379565b826002810192821562000281579160200282015b828111156200028157825182906001600160481b031690559160200191906001019062000259565b506200028f9291506200030a565b5090565b826002810192821562000281579160200282015b828111156200028157825182906001600160401b0316905591602001919060010190620002a7565b82600481019282156200028157916020028201828111156200028157825182906001600160481b031690559160200191906001019062000259565b5b808211156200028f57600081556001016200030b565b6001600160a01b03811681146200033757600080fd5b50565b600080604083850312156200034e57600080fd5b82516200035b8162000321565b60208401519092506200036e8162000321565b809150509250929050565b60805160a051611f71620003ac6000396000818160c301528181610b710152610ba20152600061015f0152611f716000f3fe60806040526004361061007a5760003560e01c806308b8c19a146100865780631694505e146100b157806329fc1bcc146100f257806353732cad146101145780636f4a2cd01461013857806375d0c0dc1461014d5780638b620cff14610181578063abf410e5146101a1578063f5f38361146101c157600080fd5b3661008157005b600080fd5b34801561009257600080fd5b5061009b6101ee565b6040516100a891906119ed565b60405180910390f35b3480156100bd57600080fd5b506100e57f000000000000000000000000000000000000000000000000000000000000000081565b6040516100a89190611a1e565b3480156100fe57600080fd5b5061011261010d366004611a32565b610229565b005b34801561012057600080fd5b5061012a61025881565b6040519081526020016100a8565b34801561014457600080fd5b506101126104bb565b34801561015957600080fd5b5061012a7f000000000000000000000000000000000000000000000000000000000000000081565b34801561018d57600080fd5b5061012a61019c366004611a5a565b6107e3565b3480156101ad57600080fd5b506001546100e5906001600160a01b031681565b3480156101cd57600080fd5b506101e16101dc366004611a73565b6107fa565b6040516100a89190611aee565b6101f661197c565b6040805160808101918290529060029060049082845b81548152602001906001019080831161020c575050505050905090565b600154604051631c2d8fb360e31b81527f15fa0125f52e5705da1148bfcf00974823c4381bee4314203ede255f9477b73e60048201526001600160a01b039091169063e16c7d9890602401602060405180830381865afa158015610291573d6000803e3d6000fd5b505050506040513d601f19601f820116820180604052508101906102b59190611b4a565b60405163d09a20c560e01b81527fd0a4ad96d49edb1c33461cebc6fb2609190f32c904e3c3f5877edb4488dee91e60048201523360248201526001600160a01b03919091169063d09a20c59060440160006040518083038186803b15801561031c57600080fd5b505afa158015610330573d6000803e3d6000fd5b505050506000805b60048160ff1610156104235760ff81166000818152600660205260409020549084906004811061036a5761036a611b67565b6020020135101580156103a9575060ff8116600081815260066020526040902060010154908490600481106103a1576103a1611b67565b602002013511155b6103ea5760405162461bcd60e51b815260206004820152600d60248201526c125b9d985b1a59081cdc1b1a5d609a1b60448201526064015b60405180910390fd5b828160ff16600481106103ff576103ff611b67565b60200201358261040f9190611b93565b91508061041b81611bac565b915050610338565b508068056bc75e2d63100000146104725760405162461bcd60e51b8152602060048201526013602482015272125b9d985b1a59081cdc1b1a5d081d1bdd185b606a1b60448201526064016103e1565b61047f600283600461199a565b507f8526975e8f19dfdda4e91ec2ccc03f20d0fba43d603541708603f0fa4767dcd4826040516104af9190611bcb565b60405180910390a15050565b6104c3610d00565b600154604051631c2d8fb360e31b81527f35ed2e1befd3b2dcf1ec7a6834437fa3212881ed81fd3a13dc97c3438896e1ba60048201526001600160a01b039091169063e16c7d9890602401602060405180830381865afa15801561052b573d6000803e3d6000fd5b505050506040513d601f19601f8201168201806040525081019061054f9190611b4a565b60405163c4b405bb60e01b8152600160048201523360248201526001600160a01b03919091169063c4b405bb90604401600060405180830381600087803b15801561059957600080fd5b505af11580156105ad573d6000803e3d6000fd5b5050600154604051631c2d8fb360e31b8152600080516020611f1c8339815191526004820152600093506001600160a01b03909116915063e16c7d9890602401602060405180830381865afa15801561060a573d6000803e3d6000fd5b505050506040513d601f19601f8201168201806040525081019061062e9190611b4a565b6001600160a01b03166370a08231306040518263ffffffff1660e01b81526004016106599190611a1e565b602060405180830381865afa158015610676573d6000803e3d6000fd5b505050506040513d601f19601f8201168201806040525081019061069a9190611bda565b9050600081116106dd5760405162461bcd60e51b815260206004820152600e60248201526d4e6f20504f502062616c616e636560901b60448201526064016103e1565b600068056bc75e2d6310000060028201546106f89084611bf3565b6107029190611c0a565b9050600068056bc75e2d631000006002600101546107209085611bf3565b61072a9190611c0a565b9050600068056bc75e2d6310000060028001546107479086611bf3565b6107519190611c0a565b9050600068056bc75e2d6310000060026003015461076f9087611bf3565b6107799190611c0a565b905061078484610d59565b61078d83610f57565b6107968261110c565b61079f816112c1565b6040518581527f6d1c76d614228b523baa4dcd9539e2c713b54ff4ab3ff2d1627e7f6cd32be4429060200160405180910390a150505050506107e16001600055565b565b600281600481106107f357600080fd5b0154905081565b6060610804610d00565b600154604051631c2d8fb360e31b81527f35ed2e1befd3b2dcf1ec7a6834437fa3212881ed81fd3a13dc97c3438896e1ba60048201526001600160a01b039091169063e16c7d9890602401602060405180830381865afa15801561086c573d6000803e3d6000fd5b505050506040513d601f19601f820116820180604052508101906108909190611b4a565b60405163c4b405bb60e01b8152600060048201523360248201526001600160a01b03919091169063c4b405bb90604401600060405180830381600087803b1580156108da57600080fd5b505af11580156108ee573d6000803e3d6000fd5b505050600284101590506109385760405162461bcd60e51b8152602060048201526011602482015270092dcecc2d8d2c840e6eec2e040e0c2e8d607b1b60448201526064016103e1565b600082116109795760405162461bcd60e51b815260206004820152600e60248201526d125b9d985b1a5908185b5bdd5b9d60921b60448201526064016103e1565b600154604051631c2d8fb360e31b8152600080516020611f1c83398151915260048201526001600160a01b039091169063e16c7d9890602401602060405180830381865afa1580156109cf573d6000803e3d6000fd5b505050506040513d601f19601f820116820180604052508101906109f39190611b4a565b6001600160a01b03168484610a09600182611c2c565b818110610a1857610a18611b67565b9050602002016020810190610a2d9190611c3f565b6001600160a01b031614610a7e5760405162461bcd60e51b81526020600482015260186024820152770a09ea040daeae6e840c4ca40d8c2e6e840d2dc40e0c2e8d60431b60448201526064016103e1565b600084846000818110610a9357610a93611b67565b9050602002016020810190610aa89190611c3f565b90506000816001600160a01b03166370a08231306040518263ffffffff1660e01b8152600401610ad89190611a1e565b602060405180830381865afa158015610af5573d6000803e3d6000fd5b505050506040513d601f19601f82011682018060405250810190610b199190611bda565b905060008111610b625760405162461bcd60e51b81526020600482015260146024820152734e6f20737761707061626c652062616c616e636560601b60448201526064016103e1565b610b966001600160a01b0383167f000000000000000000000000000000000000000000000000000000000000000083611534565b60006001600160a01b037f0000000000000000000000000000000000000000000000000000000000000000166338ed173983878a8a30610bd861025842611b93565b6040518763ffffffff1660e01b8152600401610bf996959493929190611c5c565b6000604051808303816000875af1158015610c18573d6000803e3d6000fd5b505050506040513d6000823e601f3d908101601f19168201604052610c409190810190611d3a565b90507fd5a1cd88ddd329cc1ddf861a21708efa9ef3136b88e1420c21f91ef6f95ad02487876000818110610c7657610c76611b67565b9050602002016020810190610c8b9190611c3f565b82600081518110610c9e57610c9e611b67565b602002602001015183600181518110610cb957610cb9611b67565b602090810291909101810151604080516001600160a01b0390951685529184019290925282015260600160405180910390a192505050610cf96001600055565b9392505050565b600260005403610d525760405162461bcd60e51b815260206004820152601f60248201527f5265656e7472616e637947756172643a207265656e7472616e742063616c6c0060448201526064016103e1565b6002600055565b80600003610d645750565b600154604051631c2d8fb360e31b81527f1df41cd916959d1163dc8f0671a666ea8a3e434c13e40faef527133b5d16703460048201526000916001600160a01b03169063e16c7d9890602401602060405180830381865afa158015610dcd573d6000803e3d6000fd5b505050506040513d601f19601f82011682018060405250810190610df19190611b4a565b600154604051631c2d8fb360e31b8152600080516020611f1c8339815191526004820152919250610e889183916000916001600160a01b039091169063e16c7d98906024015b602060405180830381865afa158015610e54573d6000803e3d6000fd5b505050506040513d601f19601f82011682018060405250810190610e789190611b4a565b6001600160a01b03169190611611565b600154604051631c2d8fb360e31b8152600080516020611f1c8339815191526004820152610ecc91839185916001600160a01b03169063e16c7d9890602401610e37565b604051633c6b16ab60e01b8152600481018390526001600160a01b03821690633c6b16ab90602401600060405180830381600087803b158015610f0e57600080fd5b505af1158015610f22573d6000803e3d6000fd5b505050507f6340a0e6b8ea35da618479a712fc50894736e440f8adf9c52f61e62b52b1d97a81836040516104af929190611dc5565b80600003610f625750565b600154604051631c2d8fb360e31b81527f6efca2866b731ee4984990bacad4cde10f1ef764fb54a5206bdfd291695b1a9b60048201526000916001600160a01b03169063e16c7d9890602401602060405180830381865afa158015610fcb573d6000803e3d6000fd5b505050506040513d601f19601f82011682018060405250810190610fef9190611b4a565b600154604051631c2d8fb360e31b8152600080516020611f1c83398151915260048201529192506001600160a01b03169063e16c7d9890602401602060405180830381865afa158015611046573d6000803e3d6000fd5b505050506040513d601f19601f8201168201806040525081019061106a9190611b4a565b6001600160a01b031663a9059cbb82846040518363ffffffff1660e01b8152600401611097929190611dc5565b6020604051808303816000875af11580156110b6573d6000803e3d6000fd5b505050506040513d601f19601f820116820180604052508101906110da9190611dde565b507f8283e6b33f7f1cfc32820a5fd82cd9e5224d98c14133977f1e7902ce920e51ce81836040516104af929190611dc5565b806000036111175750565b600154604051631c2d8fb360e31b81527f3e32c6f6a91a143c456ec82523fdccc82f6f397e9666c93e065e6a5d6b19567b60048201526000916001600160a01b03169063e16c7d9890602401602060405180830381865afa158015611180573d6000803e3d6000fd5b505050506040513d601f19601f820116820180604052508101906111a49190611b4a565b600154604051631c2d8fb360e31b8152600080516020611f1c83398151915260048201529192506001600160a01b03169063e16c7d9890602401602060405180830381865afa1580156111fb573d6000803e3d6000fd5b505050506040513d601f19601f8201168201806040525081019061121f9190611b4a565b6001600160a01b031663a9059cbb82846040518363ffffffff1660e01b815260040161124c929190611dc5565b6020604051808303816000875af115801561126b573d6000803e3d6000fd5b505050506040513d601f19601f8201168201806040525081019061128f9190611dde565b507fe6b81755e9a8d33c17416b71b3f0961808da876dbc287641d63f868e4fce067381836040516104af929190611dc5565b806000036112cc5750565b600154604051631c2d8fb360e31b8152600080516020611f1c83398151915260048201526000916001600160a01b03169063e16c7d9890602401602060405180830381865afa158015611323573d6000803e3d6000fd5b505050506040513d601f19601f820116820180604052508101906113479190611b4a565b600154604051631c2d8fb360e31b81527f169c5aa5b339507e0d95e149f6ebeaf527bb9067f2601a2d762aec9d5850b8b160048201529192506000916001600160a01b039091169063e16c7d9890602401602060405180830381865afa1580156113b5573d6000803e3d6000fd5b505050506040513d601f19601f820116820180604052508101906113d99190611b4a565b6001600160a01b03166397331bf96040518163ffffffff1660e01b8152600401600060405180830381865afa158015611416573d6000803e3d6000fd5b505050506040513d6000823e601f3d908101601f1916820160405261143e9190810190611e00565b9050600081518461144f9190611c0a565b905060005b82518110156114fa57836001600160a01b031663a9059cbb84838151811061147e5761147e611b67565b6020026020010151846040518363ffffffff1660e01b81526004016114a4929190611dc5565b6020604051808303816000875af11580156114c3573d6000803e3d6000fd5b505050506040513d601f19601f820116820180604052508101906114e79190611dde565b50806114f281611e8f565b915050611454565b506040518481527fe7208817b3eb80f013fb0e43f9ad639656bdeba727de0e343ee8f949f0f688e39060200160405180910390a150505050565b604051636eb1769f60e11b81523060048201526001600160a01b038381166024830152600091839186169063dd62ed3e90604401602060405180830381865afa158015611585573d6000803e3d6000fd5b505050506040513d601f19601f820116820180604052508101906115a99190611bda565b6115b39190611b93565b905061160b8463095ea7b360e01b85846040516024016115d4929190611dc5565b60408051601f198184030181529190526020810180516001600160e01b03166001600160e01b03199093169290921790915261171a565b50505050565b80158061168b5750604051636eb1769f60e11b81523060048201526001600160a01b03838116602483015284169063dd62ed3e90604401602060405180830381865afa158015611665573d6000803e3d6000fd5b505050506040513d601f19601f820116820180604052508101906116899190611bda565b155b6116f65760405162461bcd60e51b815260206004820152603660248201527f5361666545524332303a20617070726f76652066726f6d206e6f6e2d7a65726f60448201527520746f206e6f6e2d7a65726f20616c6c6f77616e636560501b60648201526084016103e1565b6117158363095ea7b360e01b84846040516024016115d4929190611dc5565b505050565b600061176f826040518060400160405280602081526020017f5361666545524332303a206c6f772d6c6576656c2063616c6c206661696c6564815250856001600160a01b03166117ec9092919063ffffffff16565b805190915015611715578080602001905181019061178d9190611dde565b6117155760405162461bcd60e51b815260206004820152602a60248201527f5361666545524332303a204552433230206f7065726174696f6e20646964206e6044820152691bdd081cdd58d8d9595960b21b60648201526084016103e1565b60606117fb8484600085611803565b949350505050565b6060824710156118645760405162461bcd60e51b815260206004820152602660248201527f416464726573733a20696e73756666696369656e742062616c616e636520666f6044820152651c8818d85b1b60d21b60648201526084016103e1565b600080866001600160a01b031685876040516118809190611ecc565b60006040518083038185875af1925050503d80600081146118bd576040519150601f19603f3d011682016040523d82523d6000602084013e6118c2565b606091505b50915091506118d3878383876118de565b979650505050505050565b6060831561194d578251600003611946576001600160a01b0385163b6119465760405162461bcd60e51b815260206004820152601d60248201527f416464726573733a2063616c6c20746f206e6f6e2d636f6e747261637400000060448201526064016103e1565b50816117fb565b6117fb83838151156119625781518083602001fd5b8060405162461bcd60e51b81526004016103e19190611ee8565b60405180608001604052806004906020820280368337509192915050565b82600481019282156119c8579160200282015b828111156119c85782358255916020019190600101906119ad565b506119d49291506119d8565b5090565b5b808211156119d457600081556001016119d9565b60808101818360005b6004811015611a155781518352602092830192909101906001016119f6565b50505092915050565b6001600160a01b0391909116815260200190565b600060808284031215611a4457600080fd5b82608083011115611a5457600080fd5b50919050565b600060208284031215611a6c57600080fd5b5035919050565b600080600060408486031215611a8857600080fd5b833567ffffffffffffffff80821115611aa057600080fd5b818601915086601f830112611ab457600080fd5b813581811115611ac357600080fd5b8760208260051b8501011115611ad857600080fd5b6020928301989097509590910135949350505050565b6020808252825182820181905260009190848201906040850190845b81811015611b2657835183529284019291840191600101611b0a565b50909695505050505050565b6001600160a01b0381168114611b4757600080fd5b50565b600060208284031215611b5c57600080fd5b8151610cf981611b32565b634e487b7160e01b600052603260045260246000fd5b634e487b7160e01b600052601160045260246000fd5b80820180821115611ba657611ba6611b7d565b92915050565b600060ff821660ff8103611bc257611bc2611b7d565b60010192915050565b60808181019083833792915050565b600060208284031215611bec57600080fd5b5051919050565b8082028115828204841417611ba657611ba6611b7d565b600082611c2757634e487b7160e01b600052601260045260246000fd5b500490565b81810381811115611ba657611ba6611b7d565b600060208284031215611c5157600080fd5b8135610cf981611b32565b868152602080820187905260a0604083018190528201859052600090869060c08401835b88811015611cae578335611c9381611b32565b6001600160a01b031682529282019290820190600101611c80565b506001600160a01b0396909616606085015250505060800152949350505050565b634e487b7160e01b600052604160045260246000fd5b604051601f8201601f1916810167ffffffffffffffff81118282101715611d0e57611d0e611ccf565b604052919050565b600067ffffffffffffffff821115611d3057611d30611ccf565b5060051b60200190565b60006020808385031215611d4d57600080fd5b825167ffffffffffffffff811115611d6457600080fd5b8301601f81018513611d7557600080fd5b8051611d88611d8382611d16565b611ce5565b81815260059190911b82018301908381019087831115611da757600080fd5b928401925b828410156118d357835182529284019290840190611dac565b6001600160a01b03929092168252602082015260400190565b600060208284031215611df057600080fd5b81518015158114610cf957600080fd5b60006020808385031215611e1357600080fd5b825167ffffffffffffffff811115611e2a57600080fd5b8301601f81018513611e3b57600080fd5b8051611e49611d8382611d16565b81815260059190911b82018301908381019087831115611e6857600080fd5b928401925b828410156118d3578351611e8081611b32565b82529284019290840190611e6d565b600060018201611ea157611ea1611b7d565b5060010190565b60005b83811015611ec3578181015183820152602001611eab565b50506000910152565b60008251611ede818460208701611ea8565b9190910192915050565b6020815260008251806020840152611f07816040850160208701611ea8565b601f01601f1916919091016040019291505056fe69e547947a4514871bf84679401f91758bd0fe92e4c005143f6d0e5213dab0cba26469706673582212205649051289cd1c4d7e47e20ff9c5d0017b59a9cac4f5ba8585ef451648bcb2fe64736f6c63430008110033",
  "linkReferences": {},
  "deployedLinkReferences": {}
}