{
  "_format": "hh-sol-artifact-1",
  "contractName": "XPop",
  "sourceName": "contracts/core/tokens/XPop.sol",
  "abi": [
    {
      "inputs": [
        {
          "internalType": "uint256",
          "name": "mintCap_",
          "type": "uint256"
        }
      ],
      "stateMutability": "nonpayable",
      "type": "constructor"
    },
    {
      "anonymous": false,
      "inputs": [
        {
          "indexed": true,
          "internalType": "address",
          "name": "owner",
          "type": "address"
        },
        {
          "indexed": true,
          "internalType": "address",
          "name": "spender",
          "type": "address"
        },
        {
          "indexed": false,
          "internalType": "uint256",
          "name": "value",
          "type": "uint256"
        }
      ],
      "name": "Approval",
      "type": "event"
    },
    {
      "anonymous": false,
      "inputs": [
        {
          "indexed": true,
          "internalType": "address",
          "name": "previousOwner",
          "type": "address"
        },
        {
          "indexed": true,
          "internalType": "address",
          "name": "newOwner",
          "type": "address"
        }
      ],
      "name": "OwnershipTransferred",
      "type": "event"
    },
    {
      "anonymous": false,
      "inputs": [
        {
          "indexed": true,
          "internalType": "address",
          "name": "from",
          "type": "address"
        },
        {
          "indexed": true,
          "internalType": "address",
          "name": "to",
          "type": "address"
        },
        {
          "indexed": false,
          "internalType": "uint256",
          "name": "value",
          "type": "uint256"
        }
      ],
      "name": "Transfer",
      "type": "event"
    },
    {
      "inputs": [],
      "name": "DOMAIN_SEPARATOR",
      "outputs": [
        {
          "internalType": "bytes32",
          "name": "",
          "type": "bytes32"
        }
      ],
      "stateMutability": "view",
      "type": "function"
    },
    {
      "inputs": [
        {
          "internalType": "address",
          "name": "owner",
          "type": "address"
        },
        {
          "internalType": "address",
          "name": "spender",
          "type": "address"
        }
      ],
      "name": "allowance",
      "outputs": [
        {
          "internalType": "uint256",
          "name": "",
          "type": "uint256"
        }
      ],
      "stateMutability": "view",
      "type": "function"
    },
    {
      "inputs": [
        {
          "internalType": "address",
          "name": "spender",
          "type": "address"
        },
        {
          "internalType": "uint256",
          "name": "amount",
          "type": "uint256"
        }
      ],
      "name": "approve",
      "outputs": [
        {
          "internalType": "bool",
          "name": "",
          "type": "bool"
        }
      ],
      "stateMutability": "nonpayable",
      "type": "function"
    },
    {
      "inputs": [
        {
          "internalType": "address",
          "name": "account",
          "type": "address"
        }
      ],
      "name": "balanceOf",
      "outputs": [
        {
          "internalType": "uint256",
          "name": "",
          "type": "uint256"
        }
      ],
      "stateMutability": "view",
      "type": "function"
    },
    {
      "inputs": [
        {
          "internalType": "uint256",
          "name": "amount",
          "type": "uint256"
        }
      ],
      "name": "burn",
      "outputs": [],
      "stateMutability": "nonpayable",
      "type": "function"
    },
    {
      "inputs": [
        {
          "internalType": "address",
          "name": "account",
          "type": "address"
        },
        {
          "internalType": "uint256",
          "name": "amount",
          "type": "uint256"
        }
      ],
      "name": "burnFrom",
      "outputs": [],
      "stateMutability": "nonpayable",
      "type": "function"
    },
    {
      "inputs": [],
      "name": "decimals",
      "outputs": [
        {
          "internalType": "uint8",
          "name": "",
          "type": "uint8"
        }
      ],
      "stateMutability": "view",
      "type": "function"
    },
    {
      "inputs": [
        {
          "internalType": "address",
          "name": "spender",
          "type": "address"
        },
        {
          "internalType": "uint256",
          "name": "subtractedValue",
          "type": "uint256"
        }
      ],
      "name": "decreaseAllowance",
      "outputs": [
        {
          "internalType": "bool",
          "name": "",
          "type": "bool"
        }
      ],
      "stateMutability": "nonpayable",
      "type": "function"
    },
    {
      "inputs": [
        {
          "internalType": "address",
          "name": "spender",
          "type": "address"
        },
        {
          "internalType": "uint256",
          "name": "addedValue",
          "type": "uint256"
        }
      ],
      "name": "increaseAllowance",
      "outputs": [
        {
          "internalType": "bool",
          "name": "",
          "type": "bool"
        }
      ],
      "stateMutability": "nonpayable",
      "type": "function"
    },
    {
      "inputs": [
        {
          "internalType": "address",
          "name": "to",
          "type": "address"
        },
        {
          "internalType": "uint256",
          "name": "amount",
          "type": "uint256"
        }
      ],
      "name": "mint",
      "outputs": [],
      "stateMutability": "nonpayable",
      "type": "function"
    },
    {
      "inputs": [],
      "name": "mintCap",
      "outputs": [
        {
          "internalType": "uint256",
          "name": "",
          "type": "uint256"
        }
      ],
      "stateMutability": "view",
      "type": "function"
    },
    {
      "inputs": [],
      "name": "name",
      "outputs": [
        {
          "internalType": "string",
          "name": "",
          "type": "string"
        }
      ],
      "stateMutability": "view",
      "type": "function"
    },
    {
      "inputs": [
        {
          "internalType": "address",
          "name": "owner",
          "type": "address"
        }
      ],
      "name": "nonces",
      "outputs": [
        {
          "internalType": "uint256",
          "name": "",
          "type": "uint256"
        }
      ],
      "stateMutability": "view",
      "type": "function"
    },
    {
      "inputs": [],
      "name": "owner",
      "outputs": [
        {
          "internalType": "address",
          "name": "",
          "type": "address"
        }
      ],
      "stateMutability": "view",
      "type": "function"
    },
    {
      "inputs": [
        {
          "internalType": "address",
          "name": "owner",
          "type": "address"
        },
        {
          "internalType": "address",
          "name": "spender",
          "type": "address"
        },
        {
          "internalType": "uint256",
          "name": "value",
          "type": "uint256"
        },
        {
          "internalType": "uint256",
          "name": "deadline",
          "type": "uint256"
        },
        {
          "internalType": "uint8",
          "name": "v",
          "type": "uint8"
        },
        {
          "internalType": "bytes32",
          "name": "r",
          "type": "bytes32"
        },
        {
          "internalType": "bytes32",
          "name": "s",
          "type": "bytes32"
        }
      ],
      "name": "permit",
      "outputs": [],
      "stateMutability": "nonpayable",
      "type": "function"
    },
    {
      "inputs": [],
      "name": "renounceOwnership",
      "outputs": [],
      "stateMutability": "nonpayable",
      "type": "function"
    },
    {
      "inputs": [],
      "name": "symbol",
      "outputs": [
        {
          "internalType": "string",
          "name": "",
          "type": "string"
        }
      ],
      "stateMutability": "view",
      "type": "function"
    },
    {
      "inputs": [],
      "name": "totalMinted",
      "outputs": [
        {
          "internalType": "uint256",
          "name": "",
          "type": "uint256"
        }
      ],
      "stateMutability": "view",
      "type": "function"
    },
    {
      "inputs": [],
      "name": "totalSupply",
      "outputs": [
        {
          "internalType": "uint256",
          "name": "",
          "type": "uint256"
        }
      ],
      "stateMutability": "view",
      "type": "function"
    },
    {
      "inputs": [
        {
          "internalType": "address",
          "name": "to",
          "type": "address"
        },
        {
          "internalType": "uint256",
          "name": "amount",
          "type": "uint256"
        }
      ],
      "name": "transfer",
      "outputs": [
        {
          "internalType": "bool",
          "name": "",
          "type": "bool"
        }
      ],
      "stateMutability": "nonpayable",
      "type": "function"
    },
    {
      "inputs": [
        {
          "internalType": "address",
          "name": "from",
          "type": "address"
        },
        {
          "internalType": "address",
          "name": "to",
          "type": "address"
        },
        {
          "internalType": "uint256",
          "name": "amount",
          "type": "uint256"
        }
      ],
      "name": "transferFrom",
      "outputs": [
        {
          "internalType": "bool",
          "name": "",
          "type": "bool"
        }
      ],
      "stateMutability": "nonpayable",
      "type": "function"
    },
    {
      "inputs": [
        {
          "internalType": "address",
          "name": "newOwner",
          "type": "address"
        }
      ],
      "name": "transferOwnership",
      "outputs": [],
      "stateMutability": "nonpayable",
      "type": "function"
    }
  ],
  "bytecode": "0x6101606040523480156200001257600080fd5b50604051620017b5380380620017b5833981016040819052620000359162000221565b6040518060400160405280602081526020016000805160206200179583398151915281525080604051806040016040528060018152602001603160f81b8152506040518060400160405280602081526020016000805160206200179583398151915281525060405180604001604052806004815260200163078504f560e41b815250620000d1620000cb620001cd60201b60201c565b620001d1565b6004620000df8382620002e0565b506005620000ee8282620002e0565b5050825160209384012082519284019290922060e08390526101008190524660a0818152604080517f8b73c3c69bb8fe3d512ecc4cf759cc79239f7b179b0ffacaa9a75d522b39400f818901819052818301979097526060810194909452608080850193909352308483018190528151808603909301835260c09485019091528151919096012090529290925261012052505080620001c35760405162461bcd60e51b815260206004820152600d60248201526c04d696e7420636170206973203609c1b604482015260640160405180910390fd5b61014052620003ac565b3390565b600080546001600160a01b038381166001600160a01b0319831681178455604051919092169283917f8be0079c531659141344cd1fd0a4f28419497f9722a3daafe3b4186f6b6457e09190a35050565b6000602082840312156200023457600080fd5b5051919050565b634e487b7160e01b600052604160045260246000fd5b600181811c908216806200026657607f821691505b6020821081036200028757634e487b7160e01b600052602260045260246000fd5b50919050565b601f821115620002db57600081815260208120601f850160051c81016020861015620002b65750805b601f850160051c820191505b81811015620002d757828155600101620002c2565b5050505b505050565b81516001600160401b03811115620002fc57620002fc6200023b565b62000314816200030d845462000251565b846200028d565b602080601f8311600181146200034c5760008415620003335750858301515b600019600386901b1c1916600185901b178555620002d7565b600085815260208120601f198616915b828110156200037d578886015182559484019460019091019084016200035c565b50858210156200039c5787850151600019600388901b60f8161c191681555b5050505050600190811b01905550565b60805160a05160c05160e0516101005161012051610140516113876200040e600039600081816102320152610bce01526000610ad501526000610b2401526000610aff01526000610a5801526000610a8201526000610aac01526113876000f3fe608060405234801561001057600080fd5b50600436106101425760003560e01c806376c71ca1116100b8578063a2309ff81161007c578063a2309ff81461029f578063a457c2d7146102a7578063a9059cbb146102ba578063d505accf146102cd578063dd62ed3e146102e0578063f2fde38b146102f357600080fd5b806376c71ca11461023057806379cc6790146102565780637ecebe00146102695780638da5cb5b1461027c57806395d89b411461029757600080fd5b80633644e5151161010a5780633644e515146101bc57806339509351146101c457806340c10f19146101d757806342966c68146101ec57806370a08231146101ff578063715018a61461022857600080fd5b806306fdde0314610147578063095ea7b31461016557806318160ddd1461018857806323b872dd1461019a578063313ce567146101ad575b600080fd5b61014f610306565b60405161015c9190611115565b60405180910390f35b61017861017336600461117f565b610398565b604051901515815260200161015c565b6003545b60405190815260200161015c565b6101786101a83660046111a9565b6103b2565b6040516012815260200161015c565b61018c6103d6565b6101786101d236600461117f565b6103e5565b6101ea6101e536600461117f565b610407565b005b6101ea6101fa3660046111e5565b61041d565b61018c61020d3660046111fe565b6001600160a01b031660009081526001602052604090205490565b6101ea61042a565b7f000000000000000000000000000000000000000000000000000000000000000061018c565b6101ea61026436600461117f565b61043e565b61018c6102773660046111fe565b610453565b6000546040516001600160a01b03909116815260200161015c565b61014f610471565b60085461018c565b6101786102b536600461117f565b610480565b6101786102c836600461117f565b610500565b6101ea6102db366004611220565b61050e565b61018c6102ee366004611293565b610672565b6101ea6103013660046111fe565b61069d565b606060048054610315906112c6565b80601f0160208091040260200160405190810160405280929190818152602001828054610341906112c6565b801561038e5780601f106103635761010080835404028352916020019161038e565b820191906000526020600020905b81548152906001019060200180831161037157829003601f168201915b5050505050905090565b6000336103a6818585610713565b60019150505b92915050565b6000336103c0858285610838565b6103cb8585856108b2565b506001949350505050565b60006103e0610a4b565b905090565b6000336103a68185856103f88383610672565b61040291906112fa565b610713565b61040f610b72565b6104198282610bcc565b5050565b6104273382610c5f565b50565b610432610b72565b61043c6000610d79565b565b610449823383610838565b6104198282610c5f565b6001600160a01b0381166000908152600660205260408120546103ac565b606060058054610315906112c6565b6000338161048e8286610672565b9050838110156104f35760405162461bcd60e51b815260206004820152602560248201527f45524332303a2064656372656173656420616c6c6f77616e63652062656c6f77604482015264207a65726f60d81b60648201526084015b60405180910390fd5b6103cb8286868403610713565b6000336103a68185856108b2565b8342111561055e5760405162461bcd60e51b815260206004820152601d60248201527f45524332305065726d69743a206578706972656420646561646c696e6500000060448201526064016104ea565b60007f6e71edae12b1b97f4d1f60370fef10105fa2faae0126114a169c64845d6126c988888861058d8c610dc9565b6040805160208101969096526001600160a01b0394851690860152929091166060840152608083015260a082015260c0810186905260e00160405160208183030381529060405280519060200120905060006105e882610df1565b905060006105f882878787610e3f565b9050896001600160a01b0316816001600160a01b03161461065b5760405162461bcd60e51b815260206004820152601e60248201527f45524332305065726d69743a20696e76616c6964207369676e6174757265000060448201526064016104ea565b6106668a8a8a610713565b50505050505050505050565b6001600160a01b03918216600090815260026020908152604080832093909416825291909152205490565b6106a5610b72565b6001600160a01b03811661070a5760405162461bcd60e51b815260206004820152602660248201527f4f776e61626c653a206e6577206f776e657220697320746865207a65726f206160448201526564647265737360d01b60648201526084016104ea565b61042781610d79565b6001600160a01b0383166107755760405162461bcd60e51b8152602060048201526024808201527f45524332303a20617070726f76652066726f6d20746865207a65726f206164646044820152637265737360e01b60648201526084016104ea565b6001600160a01b0382166107d65760405162461bcd60e51b815260206004820152602260248201527f45524332303a20617070726f766520746f20746865207a65726f206164647265604482015261737360f01b60648201526084016104ea565b6001600160a01b0383811660008181526002602090815260408083209487168084529482529182902085905590518481527f8c5be1e5ebec7d5bd14f71427d1e84f3dd0314c0f7b2291e5b200ac8c7c3b92591015b60405180910390a3505050565b60006108448484610672565b905060001981146108ac578181101561089f5760405162461bcd60e51b815260206004820152601d60248201527f45524332303a20696e73756666696369656e7420616c6c6f77616e636500000060448201526064016104ea565b6108ac8484848403610713565b50505050565b6001600160a01b0383166109165760405162461bcd60e51b815260206004820152602560248201527f45524332303a207472616e736665722066726f6d20746865207a65726f206164604482015264647265737360d81b60648201526084016104ea565b6001600160a01b0382166109785760405162461bcd60e51b815260206004820152602360248201527f45524332303a207472616e7366657220746f20746865207a65726f206164647260448201526265737360e81b60648201526084016104ea565b6001600160a01b038316600090815260016020526040902054818110156109f05760405162461bcd60e51b815260206004820152602660248201527f45524332303a207472616e7366657220616d6f756e7420657863656564732062604482015265616c616e636560d01b60648201526084016104ea565b6001600160a01b03808516600081815260016020526040808220868603905592861680825290839020805486019055915160008051602061133283398151915290610a3e9086815260200190565b60405180910390a36108ac565b6000306001600160a01b037f000000000000000000000000000000000000000000000000000000000000000016148015610aa457507f000000000000000000000000000000000000000000000000000000000000000046145b15610ace57507f000000000000000000000000000000000000000000000000000000000000000090565b50604080517f00000000000000000000000000000000000000000000000000000000000000006020808301919091527f0000000000000000000000000000000000000000000000000000000000000000828401527f000000000000000000000000000000000000000000000000000000000000000060608301524660808301523060a0808401919091528351808403909101815260c0909201909252805191012090565b6000546001600160a01b0316331461043c5760405162461bcd60e51b815260206004820181905260248201527f4f776e61626c653a2063616c6c6572206973206e6f7420746865206f776e657260448201526064016104ea565b7f000000000000000000000000000000000000000000000000000000000000000081600854610bfb91906112fa565b1115610c3d5760405162461bcd60e51b8152602060048201526011602482015270135a5b9d0818d85c08195e18d959591959607a1b60448201526064016104ea565b8060086000828254610c4f91906112fa565b9091555061041990508282610e67565b6001600160a01b038216610cbf5760405162461bcd60e51b815260206004820152602160248201527f45524332303a206275726e2066726f6d20746865207a65726f206164647265736044820152607360f81b60648201526084016104ea565b6001600160a01b03821660009081526001602052604090205481811015610d335760405162461bcd60e51b815260206004820152602260248201527f45524332303a206275726e20616d6f756e7420657863656564732062616c616e604482015261636560f01b60648201526084016104ea565b6001600160a01b0383166000818152600160209081526040808320868603905560038054879003905551858152919291600080516020611332833981519152910161082b565b600080546001600160a01b038381166001600160a01b0319831681178455604051919092169283917f8be0079c531659141344cd1fd0a4f28419497f9722a3daafe3b4186f6b6457e09190a35050565b6001600160a01b03811660009081526006602052604090208054600181018255905b50919050565b60006103ac610dfe610a4b565b8360405161190160f01b6020820152602281018390526042810182905260009060620160405160208183030381529060405280519060200120905092915050565b6000806000610e5087878787610f16565b91509150610e5d81610fd0565b5095945050505050565b6001600160a01b038216610ebd5760405162461bcd60e51b815260206004820152601f60248201527f45524332303a206d696e7420746f20746865207a65726f20616464726573730060448201526064016104ea565b8060036000828254610ecf91906112fa565b90915550506001600160a01b038216600081815260016020908152604080832080548601905551848152600080516020611332833981519152910160405180910390a35050565b6000806fa2a8918ca85bafe22016d0b997e4df60600160ff1b03831115610f435750600090506003610fc7565b6040805160008082526020820180845289905260ff881692820192909252606081018690526080810185905260019060a0016020604051602081039080840390855afa158015610f97573d6000803e3d6000fd5b5050604051601f1901519150506001600160a01b038116610fc057600060019250925050610fc7565b9150600090505b94509492505050565b6000816004811115610fe457610fe461131b565b03610fec5750565b60018160048111156110005761100061131b565b036110485760405162461bcd60e51b815260206004820152601860248201527745434453413a20696e76616c6964207369676e617475726560401b60448201526064016104ea565b600281600481111561105c5761105c61131b565b036110a95760405162461bcd60e51b815260206004820152601f60248201527f45434453413a20696e76616c6964207369676e6174757265206c656e6774680060448201526064016104ea565b60038160048111156110bd576110bd61131b565b036104275760405162461bcd60e51b815260206004820152602260248201527f45434453413a20696e76616c6964207369676e6174757265202773272076616c604482015261756560f01b60648201526084016104ea565b600060208083528351808285015260005b8181101561114257858101830151858201604001528201611126565b506000604082860101526040601f19601f8301168501019250505092915050565b80356001600160a01b038116811461117a57600080fd5b919050565b6000806040838503121561119257600080fd5b61119b83611163565b946020939093013593505050565b6000806000606084860312156111be57600080fd5b6111c784611163565b92506111d560208501611163565b9150604084013590509250925092565b6000602082840312156111f757600080fd5b5035919050565b60006020828403121561121057600080fd5b61121982611163565b9392505050565b600080600080600080600060e0888a03121561123b57600080fd5b61124488611163565b965061125260208901611163565b95506040880135945060608801359350608088013560ff8116811461127657600080fd5b9699959850939692959460a0840135945060c09093013592915050565b600080604083850312156112a657600080fd5b6112af83611163565b91506112bd60208401611163565b90509250929050565b600181811c908216806112da57607f821691505b602082108103610deb57634e487b7160e01b600052602260045260246000fd5b808201808211156103ac57634e487b7160e01b600052601160045260246000fd5b634e487b7160e01b600052602160045260246000fdfeddf252ad1be2c89b69c2b068fc378daa952ba7f163c4a11628f55a4df523b3efa264697066735822122042b44e9a16d9c7faa569f0e1220e505be4ebdb0b82dddd7ee72de184824f2fc364736f6c63430008110033506f70636f726e2e4e6574776f726b202852656465656d61626c6520504f5029",
  "linkReferences": {},
  "deployedLinkReferences": {}
}