{
  "_format": "hh-sol-artifact-1",
  "contractName": "GovStaking",
  "sourceName": "contracts/core/dao/GovStaking.sol",
  "abi": [
    {
      "inputs": [
        {
          "internalType": "contract IContractRegistry",
          "name": "_contractRegistry",
          "type": "address"
        }
      ],
      "stateMutability": "nonpayable",
      "type": "constructor"
    },
    {
      "anonymous": false,
      "inputs": [
        {
          "indexed": false,
          "internalType": "uint256",
          "name": "_previousDuration",
          "type": "uint256"
        },
        {
          "indexed": false,
          "internalType": "uint256",
          "name": "_newDuration",
          "type": "uint256"
        }
      ],
      "name": "EscrowDurationUpdated",
      "type": "event"
    },
    {
      "anonymous": false,
      "inputs": [
        {
          "indexed": true,
          "internalType": "address",
          "name": "previousOwner",
          "type": "address"
        },
        {
          "indexed": true,
          "internalType": "address",
          "name": "newOwner",
          "type": "address"
        }
      ],
      "name": "OwnershipTransferred",
      "type": "event"
    },
    {
      "anonymous": false,
      "inputs": [
        {
          "indexed": false,
          "internalType": "uint256",
          "name": "reward",
          "type": "uint256"
        }
      ],
      "name": "RewardAdded",
      "type": "event"
    },
    {
      "anonymous": false,
      "inputs": [
        {
          "indexed": false,
          "internalType": "address",
          "name": "_address",
          "type": "address"
        },
        {
          "indexed": false,
          "internalType": "uint256",
          "name": "reward",
          "type": "uint256"
        }
      ],
      "name": "RewardPaid",
      "type": "event"
    },
    {
      "anonymous": false,
      "inputs": [
        {
          "indexed": false,
          "internalType": "address",
          "name": "_address",
          "type": "address"
        },
        {
          "indexed": false,
          "internalType": "uint256",
          "name": "amount",
          "type": "uint256"
        }
      ],
      "name": "StakingDeposited",
      "type": "event"
    },
    {
      "anonymous": false,
      "inputs": [
        {
          "indexed": false,
          "internalType": "address",
          "name": "_address",
          "type": "address"
        },
        {
          "indexed": false,
          "internalType": "uint256",
          "name": "amount",
          "type": "uint256"
        }
      ],
      "name": "StakingWithdrawn",
      "type": "event"
    },
    {
      "inputs": [
        {
          "internalType": "address",
          "name": "_address",
          "type": "address"
        }
      ],
      "name": "balanceOf",
      "outputs": [
        {
          "internalType": "uint256",
          "name": "",
          "type": "uint256"
        }
      ],
      "stateMutability": "view",
      "type": "function"
    },
    {
      "inputs": [],
      "name": "contractRegistry",
      "outputs": [
        {
          "internalType": "contract IContractRegistry",
          "name": "",
          "type": "address"
        }
      ],
      "stateMutability": "view",
      "type": "function"
    },
    {
      "inputs": [
        {
          "internalType": "address",
          "name": "_account",
          "type": "address"
        }
      ],
      "name": "earned",
      "outputs": [
        {
          "internalType": "uint256",
          "name": "",
          "type": "uint256"
        }
      ],
      "stateMutability": "view",
      "type": "function"
    },
    {
      "inputs": [],
      "name": "escrowDuration",
      "outputs": [
        {
          "internalType": "uint256",
          "name": "",
          "type": "uint256"
        }
      ],
      "stateMutability": "view",
      "type": "function"
    },
    {
      "inputs": [],
      "name": "exit",
      "outputs": [],
      "stateMutability": "nonpayable",
      "type": "function"
    },
    {
      "inputs": [],
      "name": "getReward",
      "outputs": [],
      "stateMutability": "nonpayable",
      "type": "function"
    },
    {
      "inputs": [],
      "name": "getRewardForDuration",
      "outputs": [
        {
          "internalType": "uint256",
          "name": "",
          "type": "uint256"
        }
      ],
      "stateMutability": "view",
      "type": "function"
    },
    {
      "inputs": [
        {
          "internalType": "address",
          "name": "_address",
          "type": "address"
        }
      ],
      "name": "getVoiceCredits",
      "outputs": [
        {
          "internalType": "uint256",
          "name": "",
          "type": "uint256"
        }
      ],
      "stateMutability": "view",
      "type": "function"
    },
    {
      "inputs": [
        {
          "internalType": "address",
          "name": "_address",
          "type": "address"
        }
      ],
      "name": "getWithdrawableBalance",
      "outputs": [
        {
          "internalType": "uint256",
          "name": "",
          "type": "uint256"
        }
      ],
      "stateMutability": "view",
      "type": "function"
    },
    {
      "inputs": [
        {
          "internalType": "uint256",
          "name": "_lengthOfTime",
          "type": "uint256"
        }
      ],
      "name": "increaseLock",
      "outputs": [],
      "stateMutability": "nonpayable",
      "type": "function"
    },
    {
      "inputs": [
        {
          "internalType": "uint256",
          "name": "_amount",
          "type": "uint256"
        }
      ],
      "name": "increaseStake",
      "outputs": [],
      "stateMutability": "nonpayable",
      "type": "function"
    },
    {
      "inputs": [],
      "name": "lastTimeRewardApplicable",
      "outputs": [
        {
          "internalType": "uint256",
          "name": "",
          "type": "uint256"
        }
      ],
      "stateMutability": "view",
      "type": "function"
    },
    {
      "inputs": [],
      "name": "lastUpdateTime",
      "outputs": [
        {
          "internalType": "uint256",
          "name": "",
          "type": "uint256"
        }
      ],
      "stateMutability": "view",
      "type": "function"
    },
    {
      "inputs": [
        {
          "internalType": "address",
          "name": "",
          "type": "address"
        }
      ],
      "name": "lockedBalances",
      "outputs": [
        {
          "internalType": "uint256",
          "name": "balance",
          "type": "uint256"
        },
        {
          "internalType": "uint256",
          "name": "end",
          "type": "uint256"
        }
      ],
      "stateMutability": "view",
      "type": "function"
    },
    {
      "inputs": [
        {
          "internalType": "uint256",
          "name": "_reward",
          "type": "uint256"
        }
      ],
      "name": "notifyRewardAmount",
      "outputs": [],
      "stateMutability": "nonpayable",
      "type": "function"
    },
    {
      "inputs": [],
      "name": "owner",
      "outputs": [
        {
          "internalType": "address",
          "name": "",
          "type": "address"
        }
      ],
      "stateMutability": "view",
      "type": "function"
    },
    {
      "inputs": [],
      "name": "periodFinish",
      "outputs": [
        {
          "internalType": "uint256",
          "name": "",
          "type": "uint256"
        }
      ],
      "stateMutability": "view",
      "type": "function"
    },
    {
      "inputs": [
        {
          "internalType": "address",
          "name": "_address",
          "type": "address"
        }
      ],
      "name": "recalculateVoiceCredits",
      "outputs": [],
      "stateMutability": "nonpayable",
      "type": "function"
    },
    {
      "inputs": [],
      "name": "renounceOwnership",
      "outputs": [],
      "stateMutability": "nonpayable",
      "type": "function"
    },
    {
      "inputs": [],
      "name": "rewardPerToken",
      "outputs": [
        {
          "internalType": "uint256",
          "name": "",
          "type": "uint256"
        }
      ],
      "stateMutability": "view",
      "type": "function"
    },
    {
      "inputs": [],
      "name": "rewardPerTokenStored",
      "outputs": [
        {
          "internalType": "uint256",
          "name": "",
          "type": "uint256"
        }
      ],
      "stateMutability": "view",
      "type": "function"
    },
    {
      "inputs": [],
      "name": "rewardRate",
      "outputs": [
        {
          "internalType": "uint256",
          "name": "",
          "type": "uint256"
        }
      ],
      "stateMutability": "view",
      "type": "function"
    },
    {
      "inputs": [
        {
          "internalType": "address",
          "name": "",
          "type": "address"
        }
      ],
      "name": "rewards",
      "outputs": [
        {
          "internalType": "uint256",
          "name": "",
          "type": "uint256"
        }
      ],
      "stateMutability": "view",
      "type": "function"
    },
    {
      "inputs": [],
      "name": "rewardsDuration",
      "outputs": [
        {
          "internalType": "uint256",
          "name": "",
          "type": "uint256"
        }
      ],
      "stateMutability": "view",
      "type": "function"
    },
    {
      "inputs": [
        {
          "internalType": "uint256",
          "name": "duration",
          "type": "uint256"
        }
      ],
      "name": "setEscrowDuration",
      "outputs": [],
      "stateMutability": "nonpayable",
      "type": "function"
    },
    {
      "inputs": [
        {
          "internalType": "uint256",
          "name": "_amount",
          "type": "uint256"
        },
        {
          "internalType": "uint256",
          "name": "_lengthOfTime",
          "type": "uint256"
        }
      ],
      "name": "stake",
      "outputs": [],
      "stateMutability": "nonpayable",
      "type": "function"
    },
    {
      "inputs": [],
      "name": "totalLocked",
      "outputs": [
        {
          "internalType": "uint256",
          "name": "",
          "type": "uint256"
        }
      ],
      "stateMutability": "view",
      "type": "function"
    },
    {
      "inputs": [],
      "name": "totalVoiceCredits",
      "outputs": [
        {
          "internalType": "uint256",
          "name": "",
          "type": "uint256"
        }
      ],
      "stateMutability": "view",
      "type": "function"
    },
    {
      "inputs": [
        {
          "internalType": "address",
          "name": "newOwner",
          "type": "address"
        }
      ],
      "name": "transferOwnership",
      "outputs": [],
      "stateMutability": "nonpayable",
      "type": "function"
    },
    {
      "inputs": [
        {
          "internalType": "uint256",
          "name": "_timestamp",
          "type": "uint256"
        }
      ],
      "name": "updatePeriodFinish",
      "outputs": [],
      "stateMutability": "nonpayable",
      "type": "function"
    },
    {
      "inputs": [
        {
          "internalType": "address",
          "name": "",
          "type": "address"
        }
      ],
      "name": "userRewardPerTokenPaid",
      "outputs": [
        {
          "internalType": "uint256",
          "name": "",
          "type": "uint256"
        }
      ],
      "stateMutability": "view",
      "type": "function"
    },
    {
      "inputs": [
        {
          "internalType": "address",
          "name": "",
          "type": "address"
        }
      ],
      "name": "voiceCredits",
      "outputs": [
        {
          "internalType": "uint256",
          "name": "",
          "type": "uint256"
        }
      ],
      "stateMutability": "view",
      "type": "function"
    },
    {
      "inputs": [
        {
          "internalType": "uint256",
          "name": "_amount",
          "type": "uint256"
        }
      ],
      "name": "withdraw",
      "outputs": [],
      "stateMutability": "nonpayable",
      "type": "function"
    }
  ],
  "bytecode": "0x60806040526000600355600060045562093a806005556301e13380600a553480156200002a57600080fd5b50604051620022e0380380620022e08339810160408190526200004d91620000d5565b60016000556200005d3362000083565b600280546001600160a01b0319166001600160a01b039290921691909117905562000107565b600180546001600160a01b038381166001600160a01b0319831681179093556040519116919082907f8be0079c531659141344cd1fd0a4f28419497f9722a3daafe3b4186f6b6457e090600090a35050565b600060208284031215620000e857600080fd5b81516001600160a01b03811681146200010057600080fd5b9392505050565b6121c980620001176000396000f3fe608060405234801561001057600080fd5b50600436106101ba5760003560e01c806370a08231116100fa578063abf410e51161009d578063abf410e5146103b5578063c8f33c91146103c8578063cd3daf9d146103d1578063df0dd6bb146103d9578063df136d65146103e2578063e9fad8ee146103eb578063ebe2b12b146103f3578063eedad66b146103fc578063f2fde38b1461040f57600080fd5b806370a0823114610313578063715018a61461033c5780637b0472f0146103445780637b0a47ee1461035757806380faa57d14610360578063843592d3146103685780638b8763471461037b5780638da5cb5b1461039b57600080fd5b80632e1a7d4d116101625780632e1a7d4d146102a4578063321bc347146102b7578063386a9525146102ca5780633c6b16ab146102d35780633d18b912146102e6578063556f6e6b146102ee578063568914121461030157806357c2c2ba1461030a57600080fd5b80628cc262146101bf578063034f98e5146101e55780630483a7f6146101f85780630700037d14610234578063127ad353146102545780631c1f78eb146102695780631c5a09141461027157806320d43db014610284575b600080fd5b6101d26101cd366004611e35565b610422565b6040519081526020015b60405180910390f35b6101d26101f3366004611e35565b61049f565b61021f610206366004611e35565b600e602052600090815260409020805460019091015482565b604080519283526020830191909152016101dc565b6101d2610242366004611e35565b600d6020526000908152604090205481565b610267610262366004611e35565b61052e565b005b6101d2610590565b61026761027f366004611e52565b6105a7565b6101d2610292366004611e35565b600b6020526000908152604090205481565b6102676102b2366004611e52565b610694565b6102676102c5366004611e52565b61084f565b6101d260055481565b6102676102e1366004611e52565b610898565b610267610d63565b6102676102fc366004611e52565b610ffb565b6101d260085481565b6101d2600a5481565b6101d2610321366004611e35565b6001600160a01b03166000908152600e602052604090205490565b6102676111a5565b610267610352366004611e6b565b6111b7565b6101d260045481565b6101d2611511565b6101d2610376366004611e35565b61151f565b6101d2610389366004611e35565b600c6020526000908152604090205481565b6001546001600160a01b03165b6040516101dc9190611e8d565b6002546103a8906001600160a01b031681565b6101d260065481565b6101d2611560565b6101d260095481565b6101d260075481565b6102676115c1565b6101d260035481565b61026761040a366004611e52565b6115d5565b61026761041d366004611e35565b6117b9565b6001600160a01b0381166000908152600d6020908152604080832054600c909252822054670de0b6b3a764000090610458611560565b6104629190611eb7565b6001600160a01b0385166000908152600e60205260409020546104859190611eca565b61048f9190611ee1565b6104999190611f03565b92915050565b6001600160a01b0381166000908152600e6020526040812060018101549054428215806104cb57508083105b806104d4575081155b156104e457506000949350505050565b6000610e106104f38386611eb7565b6104fd9190611ee1565b61050990610e10611eca565b9050630784ce0061051a8285611eca565b6105249190611ee1565b9695505050505050565b6001600160a01b0381166000908152600b6020526040902054600954610555908290611eb7565b6009556105618261049f565b6001600160a01b0383166000908152600b602052604090208190556009546105899190611f03565b6009555050565b60006005546004546105a29190611eca565b905090565b62093a808110156105d35760405162461bcd60e51b81526004016105ca90611f16565b60405180910390fd5b630784ce008111156105f75760405162461bcd60e51b81526004016105ca90611f5a565b336000908152600e60205260409020546106235760405162461bcd60e51b81526004016105ca90611fa9565b336000908152600e602052604090206001015442106106545760405162461bcd60e51b81526004016105ca90611fda565b336000908152600e6020526040902060010154610672908290611f03565b336000818152600e60205260409020600101919091556106919061052e565b50565b61069c61182f565b336106a5611560565b6007556106b0611511565b6006556001600160a01b038116156106f7576106cb81610422565b6001600160a01b0382166000908152600d6020908152604080832093909355600754600c909152919020555b600082116107175760405162461bcd60e51b81526004016105ca9061200a565b336000908152600e60205260409020546107435760405162461bcd60e51b81526004016105ca90612041565b61074c3361151f565b82111561075857600080fd5b600254604051631c2d8fb360e31b815260008051602061217483398151915260048201526107e891339185916001600160a01b03169063e16c7d9890602401602060405180830381865afa1580156107b4573d6000803e3d6000fd5b505050506040513d601f19601f820116820180604052508101906107d8919061206f565b6001600160a01b03169190611888565b816008546107f69190611eb7565b600855610802826118e3565b61080b3361052e565b7f31b1dcbb078c03f6346db59ee77d2cd25542dcdc90c03978beea4e90362d5f5f338360405161083c92919061208c565b60405180910390a1506106916001600055565b610857611959565b600a5460408051918252602082018390527f21c46a061cb9c101660f51f5c9fc9768c5f6e8cf5dea8ca5cd03cb6db13956f3910160405180910390a1600a55565b60006108a2611560565b6007556108ad611511565b6006556001600160a01b038116156108f4576108c881610422565b6001600160a01b0382166000908152600d6020908152604080832093909355600754600c909152919020555b600254604051631c2d8fb360e31b81527f966f1e8d8d8014e05f6ec4a57138da9be1f7c5a7f802928a18072f7c5318076160048201526001600160a01b039091169063e16c7d9890602401602060405180830381865afa15801561095c573d6000803e3d6000fd5b505050506040513d601f19601f82011682018060405250810190610980919061206f565b6001600160a01b0316336001600160a01b03161480610aa45750600254604051631c2d8fb360e31b815260008051602061215483398151915260048201526001600160a01b039091169063e16c7d9890602401602060405180830381865afa1580156109f0573d6000803e3d6000fd5b505050506040513d601f19601f82011682018060405250810190610a14919061206f565b604051632474521560e21b81527fd0a4ad96d49edb1c33461cebc6fb2609190f32c904e3c3f5877edb4488dee91e60048201523360248201526001600160a01b0391909116906391d1485490604401602060405180830381865afa158015610a80573d6000803e3d6000fd5b505050506040513d601f19601f82011682018060405250810190610aa491906120a5565b610ade5760405162461bcd60e51b815260206004820152600b60248201526a139bdd08185b1b1bddd95960aa1b60448201526064016105ca565b600254604051631c2d8fb360e31b81526000805160206121748339815191526004820152610b73913391309186916001600160a01b039091169063e16c7d9890602401602060405180830381865afa158015610b3e573d6000803e3d6000fd5b505050506040513d601f19601f82011682018060405250810190610b62919061206f565b6001600160a01b03169291906119b3565b6003544210610b9157600554610b899083611ee1565b600455610bd3565b600042600354610ba19190611eb7565b9050600060045482610bb39190611eca565b600554909150610bc38286611f03565b610bcd9190611ee1565b60045550505b600254604051631c2d8fb360e31b815260008051602061217483398151915260048201526000916001600160a01b03169063e16c7d9890602401602060405180830381865afa158015610c2a573d6000803e3d6000fd5b505050506040513d601f19601f82011682018060405250810190610c4e919061206f565b6001600160a01b03166370a08231306040518263ffffffff1660e01b8152600401610c799190611e8d565b602060405180830381865afa158015610c96573d6000803e3d6000fd5b505050506040513d601f19601f82011682018060405250810190610cba91906120c7565b905060055481610cca9190611ee1565b6004541115610d165760405162461bcd60e51b81526020600482015260186024820152770a0e4deecd2c8cac840e4caeec2e4c840e8dede40d0d2ced60431b60448201526064016105ca565b426006819055600554610d2891611f03565b6003556040518381527fde88a922e0d3b88b24e9623efeb464919c6bf9f66857a65e2bfcf2ce87a9433d9060200160405180910390a1505050565b610d6b61182f565b33610d74611560565b600755610d7f611511565b6006556001600160a01b03811615610dc657610d9a81610422565b6001600160a01b0382166000908152600d6020908152604080832093909355600754600c909152919020555b336000908152600d60205260409020548015610fed57336000908152600d60205260408120819055610df9600383611ee1565b90506000610e08600283611eca565b600254604051631c2d8fb360e31b815260008051602061217483398151915260048201529192506000916001600160a01b039091169063e16c7d9890602401602060405180830381865afa158015610e64573d6000803e3d6000fd5b505050506040513d601f19601f82011682018060405250810190610e88919061206f565b600254604051631c2d8fb360e31b81527f4c4c638469e08918953da4d00fe172675b324d995fc7ae47c898e4db0cbad64760048201529192506000916001600160a01b039091169063e16c7d9890602401602060405180830381865afa158015610ef6573d6000803e3d6000fd5b505050506040513d601f19601f82011682018060405250810190610f1a919061206f565b9050610f306001600160a01b0383163386611888565b610f446001600160a01b03831682856119f1565b600a5460405163e2ab691d60e01b81523360048201526024810185905260448101919091526001600160a01b0382169063e2ab691d90606401600060405180830381600087803b158015610f9757600080fd5b505af1158015610fab573d6000803e3d6000fd5b505050507fe2403640ba68fed3a2f88b7557551d1993f84b99bb10ff833f0cf8db0c5e04863385604051610fe092919061208c565b60405180910390a1505050505b5050610ff96001600055565b565b6000611005611560565b600755611010611511565b6006556001600160a01b038116156110575761102b81610422565b6001600160a01b0382166000908152600d6020908152604080832093909355600754600c909152919020555b600254604051631c2d8fb360e31b815260008051602061215483398151915260048201526001600160a01b039091169063e16c7d9890602401602060405180830381865afa1580156110ad573d6000803e3d6000fd5b505050506040513d601f19601f820116820180604052508101906110d1919061206f565b60405163d09a20c560e01b81527fd0a4ad96d49edb1c33461cebc6fb2609190f32c904e3c3f5877edb4488dee91e60048201523360248201526001600160a01b03919091169063d09a20c59060440160006040518083038186803b15801561113857600080fd5b505afa15801561114c573d6000803e3d6000fd5b5050505042821161119f5760405162461bcd60e51b815260206004820152601d60248201527f74696d657374616d702063616e7420626520696e20746865207061737400000060448201526064016105ca565b50600355565b6111ad611959565b610ff96000611a91565b6111bf61182f565b336111c8611560565b6007556111d3611511565b6006556001600160a01b0381161561121a576111ee81610422565b6001600160a01b0382166000908152600d6020908152604080832093909355600754600c909152919020555b600254604051631c2d8fb360e31b815260008051602061215483398151915260048201526001600160a01b039091169063e16c7d9890602401602060405180830381865afa158015611270573d6000803e3d6000fd5b505050506040513d601f19601f82011682018060405250810190611294919061206f565b6001600160a01b031663db47d436336040518263ffffffff1660e01b81526004016112bf9190611e8d565b60006040518083038186803b1580156112d757600080fd5b505afa1580156112eb573d6000803e3d6000fd5b5050600254604051631c2d8fb360e31b81526000805160206121748339815191526004820152600093506001600160a01b03909116915063e16c7d9890602401602060405180830381865afa158015611348573d6000803e3d6000fd5b505050506040513d601f19601f8201168201806040525081019061136c919061206f565b90506000841161138e5760405162461bcd60e51b81526004016105ca9061200a565b62093a808310156113b15760405162461bcd60e51b81526004016105ca90611f16565b630784ce008311156113d55760405162461bcd60e51b81526004016105ca90611f5a565b6040516370a0823160e01b815284906001600160a01b038316906370a0823190611403903390600401611e8d565b602060405180830381865afa158015611420573d6000803e3d6000fd5b505050506040513d601f19601f8201168201806040525081019061144491906120c7565b10156114625760405162461bcd60e51b81526004016105ca90612041565b336000908152600e60205260409020541561148f5760405162461bcd60e51b81526004016105ca90611fda565b6114a46001600160a01b0382163330876119b3565b836008546114b29190611f03565b6008556114bf8484611ae3565b6114c83361052e565b7f6340a0e6b8ea35da618479a712fc50894736e440f8adf9c52f61e62b52b1d97a33856040516114f992919061208c565b60405180910390a1505061150d6001600055565b5050565b60006105a242600354611ba6565b6001600160a01b0381166000908152600e6020526040812060010154819042106104995750506001600160a01b03166000908152600e602052604090205490565b6000600854600003611573575060075490565b600854600454600654611584611511565b61158e9190611eb7565b6115989190611eca565b6115aa90670de0b6b3a7640000611eca565b6115b49190611ee1565b6007546105a29190611f03565b6115cd6102b23361151f565b610ff9610d63565b600254604051631c2d8fb360e31b815260008051602061217483398151915260048201526000916001600160a01b03169063e16c7d9890602401602060405180830381865afa15801561162c573d6000803e3d6000fd5b505050506040513d601f19601f82011682018060405250810190611650919061206f565b9050600082116116725760405162461bcd60e51b81526004016105ca9061200a565b6040516370a0823160e01b815282906001600160a01b038316906370a08231906116a0903390600401611e8d565b602060405180830381865afa1580156116bd573d6000803e3d6000fd5b505050506040513d601f19601f820116820180604052508101906116e191906120c7565b10156116ff5760405162461bcd60e51b81526004016105ca90612041565b336000908152600e602052604090205461172b5760405162461bcd60e51b81526004016105ca90611fa9565b336000908152600e6020526040902060010154421061175c5760405162461bcd60e51b81526004016105ca90611fda565b6117716001600160a01b0382163330856119b3565b8160085461177f9190611f03565b600855336000908152600e602052604090205461179d908390611f03565b336000818152600e602052604090209190915561150d9061052e565b6117c1611959565b6001600160a01b0381166118265760405162461bcd60e51b815260206004820152602660248201527f4f776e61626c653a206e6577206f776e657220697320746865207a65726f206160448201526564647265737360d01b60648201526084016105ca565b61069181611a91565b6002600054036118815760405162461bcd60e51b815260206004820152601f60248201527f5265656e7472616e637947756172643a207265656e7472616e742063616c6c0060448201526064016105ca565b6002600055565b6118de8363a9059cbb60e01b84846040516024016118a792919061208c565b60408051601f198184030181529190526020810180516001600160e01b03166001600160e01b031990931692909217909152611bbe565b505050565b336000908152600e6020526040902060010154421061069157336000908152600e6020526040902054810361192b57336000908152600e602052604081208181556001015550565b336000908152600e6020526040902054611946908290611eb7565b336000908152600e602052604090205550565b6001546001600160a01b03163314610ff95760405162461bcd60e51b815260206004820181905260248201527f4f776e61626c653a2063616c6c6572206973206e6f7420746865206f776e657260448201526064016105ca565b6040516001600160a01b03808516602483015283166044820152606481018290526119eb9085906323b872dd60e01b906084016118a7565b50505050565b604051636eb1769f60e11b81523060048201526001600160a01b038381166024830152600091839186169063dd62ed3e90604401602060405180830381865afa158015611a42573d6000803e3d6000fd5b505050506040513d601f19601f82011682018060405250810190611a6691906120c7565b611a709190611f03565b90506119eb8463095ea7b360e01b85846040516024016118a792919061208c565b600180546001600160a01b038381166001600160a01b0319831681179093556040519116919082907f8be0079c531659141344cd1fd0a4f28419497f9722a3daafe3b4186f6b6457e090600090a35050565b336000908152600e60205260409020600101544290811115611b5a57604080518082018252336000908152600e60205291909120548190611b25908690611f03565b8152602001611b348484611f03565b9052336000908152600e6020908152604090912082518155910151600190910155505050565b604080518082018252336000908152600e60205291909120548190611b80908690611f03565b8152336000908152600e6020908152604090912060010154910190611b34908590611f03565b6000818310611bb55781611bb7565b825b9392505050565b6000611c13826040518060400160405280602081526020017f5361666545524332303a206c6f772d6c6576656c2063616c6c206661696c6564815250856001600160a01b0316611c909092919063ffffffff16565b8051909150156118de5780806020019051810190611c3191906120a5565b6118de5760405162461bcd60e51b815260206004820152602a60248201527f5361666545524332303a204552433230206f7065726174696f6e20646964206e6044820152691bdd081cdd58d8d9595960b21b60648201526084016105ca565b6060611c9f8484600085611ca7565b949350505050565b606082471015611d085760405162461bcd60e51b815260206004820152602660248201527f416464726573733a20696e73756666696369656e742062616c616e636520666f6044820152651c8818d85b1b60d21b60648201526084016105ca565b600080866001600160a01b03168587604051611d249190612104565b60006040518083038185875af1925050503d8060008114611d61576040519150601f19603f3d011682016040523d82523d6000602084013e611d66565b606091505b5091509150611d7787838387611d82565b979650505050505050565b60608315611df1578251600003611dea576001600160a01b0385163b611dea5760405162461bcd60e51b815260206004820152601d60248201527f416464726573733a2063616c6c20746f206e6f6e2d636f6e747261637400000060448201526064016105ca565b5081611c9f565b611c9f8383815115611e065781518083602001fd5b8060405162461bcd60e51b81526004016105ca9190612120565b6001600160a01b038116811461069157600080fd5b600060208284031215611e4757600080fd5b8135611bb781611e20565b600060208284031215611e6457600080fd5b5035919050565b60008060408385031215611e7e57600080fd5b50508035926020909101359150565b6001600160a01b0391909116815260200190565b634e487b7160e01b600052601160045260246000fd5b8181038181111561049957610499611ea1565b808202811582820484141761049957610499611ea1565b600082611efe57634e487b7160e01b600052601260045260246000fd5b500490565b8082018082111561049957610499611ea1565b60208082526024908201527f6d757374206c6f636b20746f6b656e7320666f72206174206c656173742031206040820152637765656b60e01b606082015260800190565b6020808252602f908201527f6d757374206c6f636b20746f6b656e7320666f72206c657373207468616e2f6560408201526e38bab0b6103a3790101a103cb2b0b960891b606082015260800190565b6020808252601790820152766e6f206c6f636b656442616c616e63652065786973747360481b604082015260600190565b6020808252601690820152751dda5d1a191c985dc818985b185b98d948199a5c9cdd60521b604082015260600190565b6020808252601d908201527f616d6f756e74206d7573742062652067726561746572207468616e2030000000604082015260600190565b602080825260149082015273696e73756666696369656e742062616c616e636560601b604082015260600190565b60006020828403121561208157600080fd5b8151611bb781611e20565b6001600160a01b03929092168252602082015260400190565b6000602082840312156120b757600080fd5b81518015158114611bb757600080fd5b6000602082840312156120d957600080fd5b5051919050565b60005b838110156120fb5781810151838201526020016120e3565b50506000910152565b600082516121168184602087016120e0565b9190910192915050565b602081526000825180602084015261213f8160408501602087016120e0565b601f01601f1916919091016040019291505056fe15fa0125f52e5705da1148bfcf00974823c4381bee4314203ede255f9477b73e69e547947a4514871bf84679401f91758bd0fe92e4c005143f6d0e5213dab0cba264697066735822122095b6f533df65d6ae064b5e0e211fd6df2eda9abd194b65742c393c2142bcb08064736f6c63430008110033",
  "linkReferences": {},
  "deployedLinkReferences": {}
}