{
  "_format": "hh-sol-artifact-1",
  "contractName": "BeneficiaryVaults",
  "sourceName": "contracts/core/dao/BeneficiaryVaults.sol",
  "abi": [
    {
      "inputs": [
        {
          "internalType": "contract IContractRegistry",
          "name": "_contractRegistry",
          "type": "address"
        }
      ],
      "stateMutability": "nonpayable",
      "type": "constructor"
    },
    {
      "anonymous": false,
      "inputs": [
        {
          "indexed": false,
          "internalType": "uint8",
          "name": "vaultId",
          "type": "uint8"
        },
        {
          "indexed": false,
          "internalType": "address",
          "name": "beneficiary",
          "type": "address"
        },
        {
          "indexed": false,
          "internalType": "uint256",
          "name": "amount",
          "type": "uint256"
        }
      ],
      "name": "RewardClaimed",
      "type": "event"
    },
    {
      "anonymous": false,
      "inputs": [
        {
          "indexed": false,
          "internalType": "uint256",
          "name": "amount",
          "type": "uint256"
        }
      ],
      "name": "RewardsAllocated",
      "type": "event"
    },
    {
      "anonymous": false,
      "inputs": [
        {
          "indexed": false,
          "internalType": "uint8",
          "name": "vaultId",
          "type": "uint8"
        }
      ],
      "name": "VaultClosed",
      "type": "event"
    },
    {
      "anonymous": false,
      "inputs": [
        {
          "indexed": false,
          "internalType": "uint8",
          "name": "vaultId",
          "type": "uint8"
        },
        {
          "indexed": false,
          "internalType": "bytes32",
          "name": "merkleRoot",
          "type": "bytes32"
        }
      ],
      "name": "VaultOpened",
      "type": "event"
    },
    {
      "inputs": [],
      "name": "allocateRewards",
      "outputs": [],
      "stateMutability": "nonpayable",
      "type": "function"
    },
    {
      "inputs": [
        {
          "internalType": "uint8",
          "name": "_vaultId",
          "type": "uint8"
        },
        {
          "internalType": "bytes32[]",
          "name": "_proof",
          "type": "bytes32[]"
        },
        {
          "internalType": "address",
          "name": "_beneficiary",
          "type": "address"
        },
        {
          "internalType": "uint256",
          "name": "_share",
          "type": "uint256"
        }
      ],
      "name": "claimReward",
      "outputs": [],
      "stateMutability": "nonpayable",
      "type": "function"
    },
    {
      "inputs": [
        {
          "internalType": "uint8",
          "name": "_vaultId",
          "type": "uint8"
        }
      ],
      "name": "closeVault",
      "outputs": [],
      "stateMutability": "nonpayable",
      "type": "function"
    },
    {
      "inputs": [],
      "name": "contractRegistry",
      "outputs": [
        {
          "internalType": "contract IContractRegistry",
          "name": "",
          "type": "address"
        }
      ],
      "stateMutability": "view",
      "type": "function"
    },
    {
      "inputs": [
        {
          "internalType": "uint8",
          "name": "_vaultId",
          "type": "uint8"
        }
      ],
      "name": "getVault",
      "outputs": [
        {
          "internalType": "uint256",
          "name": "totalAllocated",
          "type": "uint256"
        },
        {
          "internalType": "uint256",
          "name": "currentBalance",
          "type": "uint256"
        },
        {
          "internalType": "uint256",
          "name": "unclaimedShare",
          "type": "uint256"
        },
        {
          "internalType": "bytes32",
          "name": "merkleRoot",
          "type": "bytes32"
        },
        {
          "internalType": "enum BeneficiaryVaults.VaultStatus",
          "name": "status",
          "type": "uint8"
        }
      ],
      "stateMutability": "view",
      "type": "function"
    },
    {
      "inputs": [
        {
          "internalType": "uint8",
          "name": "_vaultId",
          "type": "uint8"
        },
        {
          "internalType": "address",
          "name": "_beneficiary",
          "type": "address"
        }
      ],
      "name": "hasClaimed",
      "outputs": [
        {
          "internalType": "bool",
          "name": "",
          "type": "bool"
        }
      ],
      "stateMutability": "view",
      "type": "function"
    },
    {
      "inputs": [
        {
          "internalType": "uint8",
          "name": "_vaultId",
          "type": "uint8"
        },
        {
          "internalType": "bytes32",
          "name": "_merkleRoot",
          "type": "bytes32"
        }
      ],
      "name": "openVault",
      "outputs": [],
      "stateMutability": "nonpayable",
      "type": "function"
    },
    {
      "inputs": [],
      "name": "totalDistributedBalance",
      "outputs": [
        {
          "internalType": "uint256",
          "name": "",
          "type": "uint256"
        }
      ],
      "stateMutability": "view",
      "type": "function"
    },
    {
      "inputs": [
        {
          "internalType": "uint8",
          "name": "_vaultId",
          "type": "uint8"
        }
      ],
      "name": "vaultExists",
      "outputs": [
        {
          "internalType": "bool",
          "name": "",
          "type": "bool"
        }
      ],
      "stateMutability": "view",
      "type": "function"
    },
    {
      "inputs": [
        {
          "internalType": "uint256",
          "name": "",
          "type": "uint256"
        }
      ],
      "name": "vaults",
      "outputs": [
        {
          "internalType": "uint256",
          "name": "totalAllocated",
          "type": "uint256"
        },
        {
          "internalType": "uint256",
          "name": "currentBalance",
          "type": "uint256"
        },
        {
          "internalType": "uint256",
          "name": "unclaimedShare",
          "type": "uint256"
        },
        {
          "internalType": "bytes32",
          "name": "merkleRoot",
          "type": "bytes32"
        },
        {
          "internalType": "enum BeneficiaryVaults.VaultStatus",
          "name": "status",
          "type": "uint8"
        }
      ],
      "stateMutability": "view",
      "type": "function"
    },
    {
      "inputs": [
        {
          "internalType": "uint8",
          "name": "_vaultId",
          "type": "uint8"
        },
        {
          "internalType": "bytes32[]",
          "name": "_proof",
          "type": "bytes32[]"
        },
        {
          "internalType": "address",
          "name": "_beneficiary",
          "type": "address"
        },
        {
          "internalType": "uint256",
          "name": "_share",
          "type": "uint256"
        }
      ],
      "name": "verifyClaim",
      "outputs": [
        {
          "internalType": "bool",
          "name": "",
          "type": "bool"
        }
      ],
      "stateMutability": "view",
      "type": "function"
    }
  ],
  "bytecode": "0x6080604052600060025534801561001557600080fd5b506040516116993803806116998339810160408190526100349161005e565b6001600081905580546001600160a01b0319166001600160a01b039290921691909117905561008e565b60006020828403121561007057600080fd5b81516001600160a01b038116811461008757600080fd5b9392505050565b6115fc8061009d6000396000f3fe608060405234801561001057600080fd5b50600436106100a95760003560e01c8063a3bc61a511610071578063a3bc61a514610135578063a53af5861461013d578063a998ad6614610154578063abf410e514610167578063bd6ad5ac14610187578063dd5c7e4d1461019a57600080fd5b80631ff87068146100ae57806330ca9d59146100d657806336bcf216146100eb5780637784e8cb146100fe5780638c64ea4a14610111575b600080fd5b6100c16100bc366004611229565b6101ad565b60405190151581526020015b60405180910390f35b6100e96100e4366004611244565b6101e6565b005b6100c16100f9366004611291565b6104b5565b6100c161010c3660046112de565b610520565b61012461011f3660046113c7565b6107b1565b6040516100cd9594939291906113f6565b6100e96107e9565b61014660025481565b6040519081526020016100cd565b6100e96101623660046112de565b610b06565b60015461017a906001600160a01b031681565b6040516100cd9190611441565b610124610195366004611229565b610e02565b6100e96101a8366004611229565b610e79565b600060038260ff161080156101e0575060038260ff16600381106101d3576101d3611455565b6006020160040154600014155b92915050565b600154604051631c2d8fb360e31b81527f15fa0125f52e5705da1148bfcf00974823c4381bee4314203ede255f9477b73e60048201526001600160a01b039091169063e16c7d9890602401602060405180830381865afa15801561024e573d6000803e3d6000fd5b505050506040513d601f19601f82011682018060405250810190610272919061146b565b60405163d09a20c560e01b81527f8c76b2d2fc4ae4e9d0199f96be776a295610c24a3241321fd18909fa728e145360048201523360248201526001600160a01b03919091169063d09a20c59060440160006040518083038186803b1580156102d957600080fd5b505afa1580156102ed573d6000803e3d6000fd5b5050505060038260ff161061033c5760405162461bcd60e51b815260206004820152601060248201526f125b9d985b1a59081d985d5b1d081a5960821b60448201526064015b60405180910390fd5b60038260ff166003811061035257610352611455565b6006020160040154600014806103995750600160038360ff166003811061037b5761037b611455565b600602016005015460ff166001811115610397576103976113e0565b145b6103de5760405162461bcd60e51b81526020600482015260166024820152752b30bab63a1036bab9ba103737ba1031329037b832b760511b6044820152606401610333565b60038260ff16600381106103f4576103f4611455565b600060069190910291909101818155600181018290556002810182905560048101829055600501805460ff19169055600360ff841681811061043857610438611455565b600060069190910291909101818155600181019190915568056bc75e2d6310000060028201556004810183905560058101805460ff191690556040805160ff86168152602081018590529192507f94332a312ce2d963c5551d5f555b44816411faa9f4f197a90f9fab3caca7c06f910160405180910390a1505050565b6000826104c1816101ad565b6104dd5760405162461bcd60e51b815260040161033390611488565b60038460ff16600381106104f3576104f3611455565b6001600160a01b03949094166000908152600694909402016003016020525050604090205460ff16919050565b60008461052c816101ad565b6105485760405162461bcd60e51b815260040161033390611488565b336001600160a01b038516146105a05760405162461bcd60e51b815260206004820152601a60248201527f53656e646572206d7573742062652062656e65666963696172790000000000006044820152606401610333565b600060038760ff16600381106105b8576105b8611455565b600602016005015460ff1660018111156105d4576105d46113e0565b146105f15760405162461bcd60e51b8152600401610333906114b2565b600154604051631c2d8fb360e31b81527fc06005761aecdce9d8037400137cccfbffed4be85bf152e41fc11b29e23182e760048201526001600160a01b039091169063e16c7d9890602401602060405180830381865afa158015610659573d6000803e3d6000fd5b505050506040513d601f19601f8201168201806040525081019061067d919061146b565b6001600160a01b03166375e71d6d856040518263ffffffff1660e01b81526004016106a89190611441565b602060405180830381865afa1580156106c5573d6000803e3d6000fd5b505050506040513d601f19601f820116820180604052508101906106e991906114de565b151560011461073a5760405162461bcd60e51b815260206004820152601a60248201527f42656e656669636961727920646f6573206e6f742065786973740000000000006044820152606401610333565b6107a78560038860ff166003811061075457610754611455565b6006020160040154868660405160200161078c92919060609290921b6bffffffffffffffffffffffff19168252601482015260340190565b6040516020818303038152906040528051906020012061108a565b9695505050505050565b600381600381106107c157600080fd5b6006020180546001820154600283015460048401546005909401549294509092909160ff1685565b6107f16110a0565b600254600154604051631c2d8fb360e31b81527f69e547947a4514871bf84679401f91758bd0fe92e4c005143f6d0e5213dab0cb6004820152600092916001600160a01b03169063e16c7d9890602401602060405180830381865afa15801561085e573d6000803e3d6000fd5b505050506040513d601f19601f82011682018060405250810190610882919061146b565b6001600160a01b03166370a08231306040518263ffffffff1660e01b81526004016108ad9190611441565b602060405180830381865afa1580156108ca573d6000803e3d6000fd5b505050506040513d601f19601f820116820180604052508101906108ee9190611500565b6108f8919061152f565b9050600081116109415760405162461bcd60e51b81526020600482015260146024820152736e6f207265776172647320617661696c61626c6560601b6044820152606401610333565b600061094b6110f9565b905060008160ff16116109915760405162461bcd60e51b815260206004820152600e60248201526d6e6f206f70656e207661756c747360901b6044820152606401610333565b60006109a060ff831684611542565b905060005b60038160ff161015610ab257600060038260ff16600381106109c9576109c9611455565b600602016005015460ff1660018111156109e5576109e56113e0565b148015610a10575060038160ff1660038110610a0357610a03611455565b6006020160040154600014155b15610aa0578160038260ff1660038110610a2c57610a2c611455565b6006020154610a3b9190611564565b60038260ff1660038110610a5157610a51611455565b600602015581600360ff8316818110610a6c57610a6c611455565b6006020160010154610a7e9190611564565b60038260ff1660038110610a9457610a94611455565b60060201600101819055505b80610aaa81611577565b9150506109a5565b5082600254610ac19190611564565b6002556040518381527f81d41c1164884f982ea287ef660cfc57fcb017b60a636db1b8045e7f0edda6b89060200160405180910390a1505050610b046001600055565b565b610b0e6110a0565b83610b18816101ad565b610b345760405162461bcd60e51b815260040161033390611488565b610b4085858585610520565b1515600114610b815760405162461bcd60e51b815260206004820152600d60248201526c496e76616c696420636c61696d60981b6044820152606401610333565b610b8b85846104b5565b15610bca5760405162461bcd60e51b815260206004820152600f60248201526e105b1c9958591e4818db185a5b5959608a1b6044820152606401610333565b600060038660ff1660038110610be257610be2611455565b60060201905060008160020154848360010154610bff9190611596565b610c099190611542565b905060008111610c475760405162461bcd60e51b8152602060048201526009602482015268139bc81c995dd85c9960ba1b6044820152606401610333565b80600254610c55919061152f565b6002556001820154610c6890829061152f565b60018301556002820154610c7d90859061152f565b60028301556001600160a01b03858116600090815260038401602052604090819020805460ff19166001908117909155549051631c2d8fb360e31b81527f69e547947a4514871bf84679401f91758bd0fe92e4c005143f6d0e5213dab0cb600482015291169063e16c7d9890602401602060405180830381865afa158015610d09573d6000803e3d6000fd5b505050506040513d601f19601f82011682018060405250810190610d2d919061146b565b60405163a9059cbb60e01b81526001600160a01b03878116600483015260248201849052919091169063a9059cbb906044016020604051808303816000875af1158015610d7e573d6000803e3d6000fd5b505050506040513d601f19601f82011682018060405250810190610da291906114de565b506040805160ff891681526001600160a01b03871660208201529081018290527fe740a8ecbede9b32963c2e92e25e49290fb6af8f0ad19b08efb5442ffabe8eed9060600160405180910390a1505050610dfc6001600055565b50505050565b600080600080600085610e14816101ad565b610e305760405162461bcd60e51b815260040161033390611488565b600060038860ff1660038110610e4857610e48611455565b600602018054600182015460028301546004840154600590940154929c919b50995091975060ff1695509350505050565b80610e83816101ad565b610e9f5760405162461bcd60e51b815260040161033390611488565b600154604051631c2d8fb360e31b81527f15fa0125f52e5705da1148bfcf00974823c4381bee4314203ede255f9477b73e60048201526001600160a01b039091169063e16c7d9890602401602060405180830381865afa158015610f07573d6000803e3d6000fd5b505050506040513d601f19601f82011682018060405250810190610f2b919061146b565b60405163d09a20c560e01b81527f8c76b2d2fc4ae4e9d0199f96be776a295610c24a3241321fd18909fa728e145360048201523360248201526001600160a01b03919091169063d09a20c59060440160006040518083038186803b158015610f9257600080fd5b505afa158015610fa6573d6000803e3d6000fd5b50505050600060038360ff1660038110610fc257610fc2611455565b6006020190506000600582015460ff166001811115610fe357610fe36113e0565b146110005760405162461bcd60e51b8152600401610333906114b2565b60018181018054600090915560058301805460ff1916909217909155801561104e5780600254611030919061152f565b600255600061103d6110f9565b60ff16111561104e5761104e6107e9565b60405160ff851681527fb24f4f47606a18ba5dba29cfe581aafd052d1b5152b4acc12a04f8dfa11fd17f9060200160405180910390a150505050565b6000826110978584611194565b14949350505050565b6002600054036110f25760405162461bcd60e51b815260206004820152601f60248201527f5265656e7472616e637947756172643a207265656e7472616e742063616c6c006044820152606401610333565b6002600055565b600080805b60038160ff16101561118e5760038160ff166003811061112057611120611455565b60060201600401546000141580156111695750600060038260ff166003811061114b5761114b611455565b600602016005015460ff166001811115611167576111676113e0565b145b1561117c578161117881611577565b9250505b8061118681611577565b9150506110fe565b50919050565b600081815b84518110156111d9576111c5828683815181106111b8576111b8611455565b60200260200101516111e1565b9150806111d1816115ad565b915050611199565b509392505050565b60008183106111fd57600082815260208490526040902061120c565b60008381526020839052604090205b9392505050565b803560ff8116811461122457600080fd5b919050565b60006020828403121561123b57600080fd5b61120c82611213565b6000806040838503121561125757600080fd5b61126083611213565b946020939093013593505050565b6001600160a01b038116811461128357600080fd5b50565b80356112248161126e565b600080604083850312156112a457600080fd5b6112ad83611213565b915060208301356112bd8161126e565b809150509250929050565b634e487b7160e01b600052604160045260246000fd5b600080600080608085870312156112f457600080fd5b6112fd85611213565b935060208086013567ffffffffffffffff8082111561131b57600080fd5b818801915088601f83011261132f57600080fd5b813581811115611341576113416112c8565b8060051b604051601f19603f83011681018181108582111715611366576113666112c8565b60405291825284820192508381018501918b83111561138457600080fd5b938501935b828510156113a257843584529385019392850192611389565b8098505050505050506113b760408601611286565b9396929550929360600135925050565b6000602082840312156113d957600080fd5b5035919050565b634e487b7160e01b600052602160045260246000fd5b600060a0820190508682528560208301528460408301528360608301526002831061143157634e487b7160e01b600052602160045260246000fd5b8260808301529695505050505050565b6001600160a01b0391909116815260200190565b634e487b7160e01b600052603260045260246000fd5b60006020828403121561147d57600080fd5b815161120c8161126e565b60208082526010908201526f1d985d5b1d081b5d5cdd08195e1a5cdd60821b604082015260600190565b6020808252601290820152712b30bab63a1036bab9ba1031329037b832b760711b604082015260600190565b6000602082840312156114f057600080fd5b8151801515811461120c57600080fd5b60006020828403121561151257600080fd5b5051919050565b634e487b7160e01b600052601160045260246000fd5b818103818111156101e0576101e0611519565b60008261155f57634e487b7160e01b600052601260045260246000fd5b500490565b808201808211156101e0576101e0611519565b600060ff821660ff810361158d5761158d611519565b60010192915050565b80820281158282048414176101e0576101e0611519565b6000600182016115bf576115bf611519565b506001019056fea2646970667358221220e55b74b2d712c09e604b2de618c2eb351632837542b9cc3073bbcb00ff0187d164736f6c63430008110033",
  "linkReferences": {},
  "deployedLinkReferences": {}
}