{
  "_format": "hh-sol-artifact-1",
  "contractName": "MockCurveOraclePool",
  "sourceName": "contracts/mocks/MockCurveOraclePool.sol",
  "abi": [
    {
      "inputs": [
        {
          "internalType": "address",
          "name": "tokenA_",
          "type": "address"
        },
        {
          "internalType": "address",
          "name": "tokenB_",
          "type": "address"
        },
        {
          "internalType": "uint256",
          "name": "_lpPrice",
          "type": "uint256"
        },
        {
          "internalType": "uint256",
          "name": "_forexPrice",
          "type": "uint256"
        }
      ],
      "stateMutability": "nonpayable",
      "type": "constructor"
    },
    {
      "inputs": [
        {
          "internalType": "uint256[2]",
          "name": "amounts",
          "type": "uint256[2]"
        },
        {
          "internalType": "uint256",
          "name": "",
          "type": "uint256"
        }
      ],
      "name": "add_liquidity",
      "outputs": [
        {
          "internalType": "uint256",
          "name": "",
          "type": "uint256"
        }
      ],
      "stateMutability": "nonpayable",
      "type": "function"
    },
    {
      "inputs": [
        {
          "internalType": "uint256",
          "name": "_token_amount",
          "type": "uint256"
        },
        {
          "internalType": "int128",
          "name": "i",
          "type": "int128"
        }
      ],
      "name": "calc_withdraw_one_coin",
      "outputs": [
        {
          "internalType": "uint256",
          "name": "",
          "type": "uint256"
        }
      ],
      "stateMutability": "pure",
      "type": "function"
    },
    {
      "inputs": [],
      "name": "coins",
      "outputs": [
        {
          "internalType": "address[2]",
          "name": "",
          "type": "address[2]"
        }
      ],
      "stateMutability": "view",
      "type": "function"
    },
    {
      "inputs": [],
      "name": "get_virtual_price",
      "outputs": [
        {
          "internalType": "uint256",
          "name": "",
          "type": "uint256"
        }
      ],
      "stateMutability": "view",
      "type": "function"
    },
    {
      "inputs": [],
      "name": "lpToken",
      "outputs": [
        {
          "internalType": "contract MockERC20",
          "name": "",
          "type": "address"
        }
      ],
      "stateMutability": "view",
      "type": "function"
    },
    {
      "inputs": [],
      "name": "lp_price",
      "outputs": [
        {
          "internalType": "uint256",
          "name": "",
          "type": "uint256"
        }
      ],
      "stateMutability": "view",
      "type": "function"
    },
    {
      "inputs": [],
      "name": "price_oracle",
      "outputs": [
        {
          "internalType": "uint256",
          "name": "",
          "type": "uint256"
        }
      ],
      "stateMutability": "view",
      "type": "function"
    },
    {
      "inputs": [
        {
          "internalType": "uint256",
          "name": "_token_amount",
          "type": "uint256"
        },
        {
          "internalType": "int128",
          "name": "i",
          "type": "int128"
        },
        {
          "internalType": "uint256",
          "name": "",
          "type": "uint256"
        }
      ],
      "name": "remove_liquidity_one_coin",
      "outputs": [
        {
          "internalType": "uint256",
          "name": "",
          "type": "uint256"
        }
      ],
      "stateMutability": "nonpayable",
      "type": "function"
    },
    {
      "inputs": [
        {
          "internalType": "uint256",
          "name": "virtualPrice_",
          "type": "uint256"
        }
      ],
      "name": "setVirtualPrice",
      "outputs": [],
      "stateMutability": "nonpayable",
      "type": "function"
    },
    {
      "inputs": [
        {
          "internalType": "uint256",
          "name": "withdrawalSlippageBps_",
          "type": "uint256"
        }
      ],
      "name": "setWithdrawalSlippage",
      "outputs": [],
      "stateMutability": "nonpayable",
      "type": "function"
    },
    {
      "inputs": [],
      "name": "tokenA",
      "outputs": [
        {
          "internalType": "contract MockERC20",
          "name": "",
          "type": "address"
        }
      ],
      "stateMutability": "view",
      "type": "function"
    },
    {
      "inputs": [],
      "name": "tokenB",
      "outputs": [
        {
          "internalType": "contract MockERC20",
          "name": "",
          "type": "address"
        }
      ],
      "stateMutability": "view",
      "type": "function"
    }
  ],
  "bytecode": "0x6080604052670de0b6b3a7640000600355600a60065561271060075534801561002757600080fd5b50604051611755380380611755833981016040819052610046916101a4565b600080546001600160a01b038087166001600160a01b0319928316811790935560018054918716919092168117909155604080518082019091529182526020820152610096906008906002610101565b50600482905560058190556040516012906100b090610166565b6100ba91906101e7565b604051809103906000f0801580156100d6573d6000803e3d6000fd5b50600280546001600160a01b0319166001600160a01b03929092169190911790555061024292505050565b828054828255906000526020600020908101928215610156579160200282015b8281111561015657825182546001600160a01b0319166001600160a01b03909116178255602090920191600190910190610121565b50610162929150610173565b5090565b610dd48061098183390190565b5b808211156101625760008155600101610174565b80516001600160a01b038116811461019f57600080fd5b919050565b600080600080608085870312156101ba57600080fd5b6101c385610188565b93506101d160208601610188565b6040860151606090960151949790965092505050565b60608152600061020c60608301600581526406372764c560dc1b602082015260400190565b828103602084015261023081600581526406372764c560dc1b602082015260400190565b91505060ff8316604083015292915050565b610730806102516000396000f3fe608060405234801561001057600080fd5b50600436106100b45760003560e01c80635687843611610071578063568784361461014f5780635f64b55b146101625780635fcbd2851461017557806386fc88d314610188578063bb7b8b8014610190578063cc2b27d71461019857600080fd5b80630b4c7e4d146100b95780630fc63d10146100df57806313143ecd1461010a5780631a4d01d21461011f57806322fcefbe1461013257806354f0f7d514610147575b600080fd5b6100cc6100c7366004610515565b6101aa565b6040519081526020015b60405180910390f35b6000546100f2906001600160a01b031681565b6040516001600160a01b0390911681526020016100d6565b61011d610118366004610543565b600355565b005b6100cc61012d366004610573565b610375565b61013a6104c8565b6040516100d691906105a8565b6004546100cc565b61011d61015d366004610543565b600655565b6001546100f2906001600160a01b031681565b6002546100f2906001600160a01b031681565b6005546100cc565b6003546100cc565b6100cc6101a63660046105e2565b5090565b60008060005b60085460ff8216101561036b5760088160ff16815481106101d3576101d361060e565b6000918252602090912001546001600160a01b03166323b872dd33308860ff8616600281106102045761020461060e565b6040516001600160e01b031960e087901b1681526001600160a01b039485166004820152939092166024840152602091909102013560448201526064016020604051808303816000875af1158015610260573d6000803e3d6000fd5b505050506040513d601f19601f820116820180604052508101906102849190610624565b50600060ff8216156102c957600454600554878460ff16600281106102ab576102ab61060e565b60200201356102ba9190610663565b6102c4919061067a565b6102e4565b858260ff16600281106102de576102de61060e565b60200201355b6002546040516340c10f1960e01b81529192506001600160a01b0316906340c10f1990610317903390859060040161069c565b600060405180830381600087803b15801561033157600080fd5b505af1158015610345573d6000803e3d6000fd5b50505050808361035591906106b5565b9250508080610363906106c8565b9150506101b0565b5090505b92915050565b600254604051632770a7eb60e21b81526000916001600160a01b031690639dc29fac906103a8903390889060040161069c565b600060405180830381600087803b1580156103c257600080fd5b505af11580156103d6573d6000803e3d6000fd5b505050506000612710600654866103ed9190610663565b6103f7919061067a565b9050600061040582876106e7565b905084600f0b600014610431576005546004546104229083610663565b61042c919061067a565b610433565b805b90506008856001600160801b0316815481106104515761045161060e565b6000918252602090912001546040516340c10f1960e01b81526001600160a01b03909116906340c10f199061048c903390859060040161069c565b600060405180830381600087803b1580156104a657600080fd5b505af11580156104ba573d6000803e3d6000fd5b509298975050505050505050565b6104d06104f7565b50604080518082019091526000546001600160a01b03908116825260015416602082015290565b60405180604001604052806002906020820280368337509192915050565b6000806060838503121561052857600080fd5b604083018481111561053957600080fd5b9294923593505050565b60006020828403121561055557600080fd5b5035919050565b8035600f81900b811461056e57600080fd5b919050565b60008060006060848603121561058857600080fd5b833592506105986020850161055c565b9150604084013590509250925092565b60408101818360005b60028110156105d95781516001600160a01b03168352602092830192909101906001016105b1565b50505092915050565b600080604083850312156105f557600080fd5b823591506106056020840161055c565b90509250929050565b634e487b7160e01b600052603260045260246000fd5b60006020828403121561063657600080fd5b8151801515811461064657600080fd5b9392505050565b634e487b7160e01b600052601160045260246000fd5b808202811582820484141761036f5761036f61064d565b60008261069757634e487b7160e01b600052601260045260246000fd5b500490565b6001600160a01b03929092168252602082015260400190565b8082018082111561036f5761036f61064d565b600060ff821660ff81036106de576106de61064d565b60010192915050565b8181038181111561036f5761036f61064d56fea2646970667358221220fadf83d0f8a2385493c249c13a29dee58c1f12bf93fb1df1474ae75e92db1ad464736f6c6343000811003360806040526005805460ff191660121790553480156200001e57600080fd5b5060405162000dd438038062000dd4833981016040819052620000419162000146565b828260036200005183826200025a565b5060046200006082826200025a565b50506005805460ff191660ff93909316929092179091555062000326915050565b634e487b7160e01b600052604160045260246000fd5b600082601f830112620000a957600080fd5b81516001600160401b0380821115620000c657620000c662000081565b604051601f8301601f19908116603f01168101908282118183101715620000f157620000f162000081565b816040528381526020925086838588010111156200010e57600080fd5b600091505b8382101562000132578582018301518183018401529082019062000113565b600093810190920192909252949350505050565b6000806000606084860312156200015c57600080fd5b83516001600160401b03808211156200017457600080fd5b620001828783880162000097565b945060208601519150808211156200019957600080fd5b50620001a88682870162000097565b925050604084015160ff81168114620001c057600080fd5b809150509250925092565b600181811c90821680620001e057607f821691505b6020821081036200020157634e487b7160e01b600052602260045260246000fd5b50919050565b601f8211156200025557600081815260208120601f850160051c81016020861015620002305750805b601f850160051c820191505b8181101562000251578281556001016200023c565b5050505b505050565b81516001600160401b0381111562000276576200027662000081565b6200028e81620002878454620001cb565b8462000207565b602080601f831160018114620002c65760008415620002ad5750858301515b600019600386901b1c1916600185901b17855562000251565b600085815260208120601f198616915b82811015620002f757888601518255948401946001909101908401620002d6565b5085821015620003165787850151600019600388901b60f8161c191681555b5050505050600190811b01905550565b610a9e80620003366000396000f3fe608060405234801561001057600080fd5b50600436106100ca5760003560e01c806370a082311161007c57806370a08231146101765780638ea2da7d1461019f57806395d89b41146101ac5780639dc29fac146101b4578063a457c2d7146101c7578063a9059cbb146101da578063dd62ed3e146101ed57600080fd5b806306fdde03146100cf578063095ea7b3146100ed57806318160ddd1461011057806323b872dd14610122578063313ce56714610135578063395093511461014e57806340c10f1914610161575b600080fd5b6100d7610200565b6040516100e491906108c8565b60405180910390f35b6101006100fb366004610932565b610292565b60405190151581526020016100e4565b6002545b6040519081526020016100e4565b61010061013036600461095c565b6102ac565b60055460ff165b60405160ff90911681526020016100e4565b61010061015c366004610932565b6102d0565b61017461016f366004610932565b6102f2565b005b610114610184366004610998565b6001600160a01b031660009081526020819052604090205490565b60055461013c9060ff1681565b6100d7610300565b6101746101c2366004610932565b61030f565b6101006101d5366004610932565b610319565b6101006101e8366004610932565b610399565b6101146101fb3660046109ba565b6103a7565b60606003805461020f906109ed565b80601f016020809104026020016040519081016040528092919081815260200182805461023b906109ed565b80156102885780601f1061025d57610100808354040283529160200191610288565b820191906000526020600020905b81548152906001019060200180831161026b57829003601f168201915b5050505050905090565b6000336102a08185856103d2565b60019150505b92915050565b6000336102ba8582856104f7565b6102c5858585610571565b506001949350505050565b6000336102a08185856102e383836103a7565b6102ed9190610a27565b6103d2565b6102fc8282610703565b5050565b60606004805461020f906109ed565b6102fc82826107b0565b6000338161032782866103a7565b90508381101561038c5760405162461bcd60e51b815260206004820152602560248201527f45524332303a2064656372656173656420616c6c6f77616e63652062656c6f77604482015264207a65726f60d81b60648201526084015b60405180910390fd5b6102c582868684036103d2565b6000336102a0818585610571565b6001600160a01b03918216600090815260016020908152604080832093909416825291909152205490565b6001600160a01b0383166104345760405162461bcd60e51b8152602060048201526024808201527f45524332303a20617070726f76652066726f6d20746865207a65726f206164646044820152637265737360e01b6064820152608401610383565b6001600160a01b0382166104955760405162461bcd60e51b815260206004820152602260248201527f45524332303a20617070726f766520746f20746865207a65726f206164647265604482015261737360f01b6064820152608401610383565b6001600160a01b0383811660008181526001602090815260408083209487168084529482529182902085905590518481527f8c5be1e5ebec7d5bd14f71427d1e84f3dd0314c0f7b2291e5b200ac8c7c3b92591015b60405180910390a3505050565b600061050384846103a7565b9050600019811461056b578181101561055e5760405162461bcd60e51b815260206004820152601d60248201527f45524332303a20696e73756666696369656e7420616c6c6f77616e63650000006044820152606401610383565b61056b84848484036103d2565b50505050565b6001600160a01b0383166105d55760405162461bcd60e51b815260206004820152602560248201527f45524332303a207472616e736665722066726f6d20746865207a65726f206164604482015264647265737360d81b6064820152608401610383565b6001600160a01b0382166106375760405162461bcd60e51b815260206004820152602360248201527f45524332303a207472616e7366657220746f20746865207a65726f206164647260448201526265737360e81b6064820152608401610383565b6001600160a01b038316600090815260208190526040902054818110156106af5760405162461bcd60e51b815260206004820152602660248201527f45524332303a207472616e7366657220616d6f756e7420657863656564732062604482015265616c616e636560d01b6064820152608401610383565b6001600160a01b0384811660008181526020818152604080832087870390559387168083529184902080548701905592518581529092600080516020610a49833981519152910160405180910390a361056b565b6001600160a01b0382166107595760405162461bcd60e51b815260206004820152601f60248201527f45524332303a206d696e7420746f20746865207a65726f2061646472657373006044820152606401610383565b806002600082825461076b9190610a27565b90915550506001600160a01b03821660008181526020818152604080832080548601905551848152600080516020610a49833981519152910160405180910390a35050565b6001600160a01b0382166108105760405162461bcd60e51b815260206004820152602160248201527f45524332303a206275726e2066726f6d20746865207a65726f206164647265736044820152607360f81b6064820152608401610383565b6001600160a01b038216600090815260208190526040902054818110156108845760405162461bcd60e51b815260206004820152602260248201527f45524332303a206275726e20616d6f756e7420657863656564732062616c616e604482015261636560f01b6064820152608401610383565b6001600160a01b038316600081815260208181526040808320868603905560028054879003905551858152919291600080516020610a4983398151915291016104ea565b600060208083528351808285015260005b818110156108f5578581018301518582016040015282016108d9565b506000604082860101526040601f19601f8301168501019250505092915050565b80356001600160a01b038116811461092d57600080fd5b919050565b6000806040838503121561094557600080fd5b61094e83610916565b946020939093013593505050565b60008060006060848603121561097157600080fd5b61097a84610916565b925061098860208501610916565b9150604084013590509250925092565b6000602082840312156109aa57600080fd5b6109b382610916565b9392505050565b600080604083850312156109cd57600080fd5b6109d683610916565b91506109e460208401610916565b90509250929050565b600181811c90821680610a0157607f821691505b602082108103610a2157634e487b7160e01b600052602260045260246000fd5b50919050565b808201808211156102a657634e487b7160e01b600052601160045260246000fdfeddf252ad1be2c89b69c2b068fc378daa952ba7f163c4a11628f55a4df523b3efa264697066735822122093bd283ad4c7f4321609eada5fd4c9026bb8570a490e28a4873ec7c0aa8c6e5464736f6c63430008110033",
  "linkReferences": {},
  "deployedLinkReferences": {}
}