{
  "_format": "hh-sol-artifact-1",
  "contractName": "XPopRedemption",
  "sourceName": "contracts/core/dao/XPopRedemption.sol",
  "abi": [
    {
      "inputs": [
        {
          "internalType": "contract IXPop",
          "name": "_xPOP",
          "type": "address"
        },
        {
          "internalType": "contract IERC20",
          "name": "_POP",
          "type": "address"
        },
        {
          "internalType": "contract IRewardsEscrow",
          "name": "_rewardsEscrow",
          "type": "address"
        }
      ],
      "stateMutability": "nonpayable",
      "type": "constructor"
    },
    {
      "anonymous": false,
      "inputs": [
        {
          "indexed": true,
          "internalType": "address",
          "name": "previousOwner",
          "type": "address"
        },
        {
          "indexed": true,
          "internalType": "address",
          "name": "newOwner",
          "type": "address"
        }
      ],
      "name": "OwnershipTransferred",
      "type": "event"
    },
    {
      "anonymous": false,
      "inputs": [
        {
          "indexed": true,
          "internalType": "address",
          "name": "from",
          "type": "address"
        },
        {
          "indexed": false,
          "internalType": "uint256",
          "name": "amount",
          "type": "uint256"
        }
      ],
      "name": "Redemption",
      "type": "event"
    },
    {
      "inputs": [],
      "name": "POP",
      "outputs": [
        {
          "internalType": "contract IERC20",
          "name": "",
          "type": "address"
        }
      ],
      "stateMutability": "view",
      "type": "function"
    },
    {
      "inputs": [],
      "name": "owner",
      "outputs": [
        {
          "internalType": "address",
          "name": "",
          "type": "address"
        }
      ],
      "stateMutability": "view",
      "type": "function"
    },
    {
      "inputs": [
        {
          "internalType": "uint256",
          "name": "amount",
          "type": "uint256"
        }
      ],
      "name": "redeem",
      "outputs": [],
      "stateMutability": "nonpayable",
      "type": "function"
    },
    {
      "inputs": [
        {
          "internalType": "uint256",
          "name": "amount",
          "type": "uint256"
        },
        {
          "internalType": "uint256",
          "name": "deadline",
          "type": "uint256"
        },
        {
          "internalType": "uint8",
          "name": "v",
          "type": "uint8"
        },
        {
          "internalType": "bytes32",
          "name": "r",
          "type": "bytes32"
        },
        {
          "internalType": "bytes32",
          "name": "s",
          "type": "bytes32"
        }
      ],
      "name": "redeemWithSignature",
      "outputs": [],
      "stateMutability": "nonpayable",
      "type": "function"
    },
    {
      "inputs": [],
      "name": "renounceOwnership",
      "outputs": [],
      "stateMutability": "nonpayable",
      "type": "function"
    },
    {
      "inputs": [],
      "name": "revokeApprovals",
      "outputs": [],
      "stateMutability": "nonpayable",
      "type": "function"
    },
    {
      "inputs": [],
      "name": "rewardsEscrow",
      "outputs": [
        {
          "internalType": "contract IRewardsEscrow",
          "name": "",
          "type": "address"
        }
      ],
      "stateMutability": "view",
      "type": "function"
    },
    {
      "inputs": [],
      "name": "setApprovals",
      "outputs": [],
      "stateMutability": "nonpayable",
      "type": "function"
    },
    {
      "inputs": [
        {
          "internalType": "address",
          "name": "newOwner",
          "type": "address"
        }
      ],
      "name": "transferOwnership",
      "outputs": [],
      "stateMutability": "nonpayable",
      "type": "function"
    },
    {
      "inputs": [],
      "name": "xPOP",
      "outputs": [
        {
          "internalType": "contract IXPop",
          "name": "",
          "type": "address"
        }
      ],
      "stateMutability": "view",
      "type": "function"
    }
  ],
  "bytecode": "0x60e060405234801561001057600080fd5b50604051610cf6380380610cf683398101604081905261002f916100bd565b61003833610055565b6001600160a01b0392831660805290821660a0521660c05261010a565b600080546001600160a01b038381166001600160a01b0319831681178455604051919092169283917f8be0079c531659141344cd1fd0a4f28419497f9722a3daafe3b4186f6b6457e09190a35050565b6001600160a01b03811681146100ba57600080fd5b50565b6000806000606084860312156100d257600080fd5b83516100dd816100a5565b60208501519093506100ee816100a5565b60408501519092506100ff816100a5565b809150509250925092565b60805160a05160c051610b8761016f600039600081816101630152818161029f0152818161057e015261064b01526000818160eb0152818161027d0152818161041e015261062901526000818160a8015281816101ec01526104f60152610b876000f3fe608060405234801561001057600080fd5b506004361061009e5760003560e01c80638da5cb5b116100665780638da5cb5b146101325780639265a7d514610143578063db006a751461014b578063f21579321461015e578063f2fde38b1461018557600080fd5b8063322de254146100a35780636c660b01146100e6578063715018a61461010d5780638509fffd146101175780638757b15b1461012a575b600080fd5b6100ca7f000000000000000000000000000000000000000000000000000000000000000081565b6040516001600160a01b03909116815260200160405180910390f35b6100ca7f000000000000000000000000000000000000000000000000000000000000000081565b610115610198565b005b610115610125366004610a0b565b6101ac565b610115610260565b6000546001600160a01b03166100ca565b6101156102c6565b610115610159366004610a5a565b6102d6565b6100ca7f000000000000000000000000000000000000000000000000000000000000000081565b610115610193366004610a73565b6102e2565b6101a061035d565b6101aa60006103b7565b565b60405163d505accf60e01b8152336004820152306024820152604481018690526064810185905260ff8416608482015260a4810183905260c481018290527f00000000000000000000000000000000000000000000000000000000000000006001600160a01b03169063d505accf9060e401600060405180830381600087803b15801561023857600080fd5b505af115801561024c573d6000803e3d6000fd5b5050505061025985610407565b5050505050565b61026861035d565b61027061061c565b6101aa6001600160a01b037f0000000000000000000000000000000000000000000000000000000000000000167f000000000000000000000000000000000000000000000000000000000000000060001961066d565b6102ce61035d565b6101aa61061c565b6102df81610407565b50565b6102ea61035d565b6001600160a01b0381166103545760405162461bcd60e51b815260206004820152602660248201527f4f776e61626c653a206e6577206f776e657220697320746865207a65726f206160448201526564647265737360d01b60648201526084015b60405180910390fd5b6102df816103b7565b6000546001600160a01b031633146101aa5760405162461bcd60e51b815260206004820181905260248201527f4f776e61626c653a2063616c6c6572206973206e6f7420746865206f776e6572604482015260640161034b565b600080546001600160a01b038381166001600160a01b0319831681178455604051919092169283917f8be0079c531659141344cd1fd0a4f28419497f9722a3daafe3b4186f6b6457e09190a35050565b6040516370a0823160e01b815230600482015281907f00000000000000000000000000000000000000000000000000000000000000006001600160a01b0316906370a0823190602401602060405180830381865afa15801561046d573d6000803e3d6000fd5b505050506040513d601f19601f820116820180604052508101906104919190610aa3565b10156104da5760405162461bcd60e51b8152602060048201526018602482015277496e73756666696369656e7420504f502062616c616e636560401b604482015260640161034b565b60405163079cc67960e41b8152336004820152602481018290527f00000000000000000000000000000000000000000000000000000000000000006001600160a01b0316906379cc679090604401600060405180830381600087803b15801561054257600080fd5b505af1158015610556573d6000803e3d6000fd5b505060405163e2ab691d60e01b8152336004820152602481018490526303c2670060448201527f00000000000000000000000000000000000000000000000000000000000000006001600160a01b0316925063e2ab691d9150606401600060405180830381600087803b1580156105cc57600080fd5b505af11580156105e0573d6000803e3d6000fd5b50506040518381523392507fe6c82503aaaa3db78b70f183901ae8668918f895b3982b2c851cf2ffe0c6c639915060200160405180910390a250565b6101aa6001600160a01b037f0000000000000000000000000000000000000000000000000000000000000000167f000000000000000000000000000000000000000000000000000000000000000060005b8015806106e75750604051636eb1769f60e11b81523060048201526001600160a01b03838116602483015284169063dd62ed3e90604401602060405180830381865afa1580156106c1573d6000803e3d6000fd5b505050506040513d601f19601f820116820180604052508101906106e59190610aa3565b155b6107525760405162461bcd60e51b815260206004820152603660248201527f5361666545524332303a20617070726f76652066726f6d206e6f6e2d7a65726f60448201527520746f206e6f6e2d7a65726f20616c6c6f77616e636560501b606482015260840161034b565b604080516001600160a01b038416602482015260448082018490528251808303909101815260649091019091526020810180516001600160e01b031663095ea7b360e01b1790526107a49084906107a9565b505050565b60006107fe826040518060400160405280602081526020017f5361666545524332303a206c6f772d6c6576656c2063616c6c206661696c6564815250856001600160a01b031661087b9092919063ffffffff16565b8051909150156107a4578080602001905181019061081c9190610abc565b6107a45760405162461bcd60e51b815260206004820152602a60248201527f5361666545524332303a204552433230206f7065726174696f6e20646964206e6044820152691bdd081cdd58d8d9595960b21b606482015260840161034b565b606061088a8484600085610892565b949350505050565b6060824710156108f35760405162461bcd60e51b815260206004820152602660248201527f416464726573733a20696e73756666696369656e742062616c616e636520666f6044820152651c8818d85b1b60d21b606482015260840161034b565b600080866001600160a01b0316858760405161090f9190610b02565b60006040518083038185875af1925050503d806000811461094c576040519150601f19603f3d011682016040523d82523d6000602084013e610951565b606091505b50915091506109628783838761096d565b979650505050505050565b606083156109dc5782516000036109d5576001600160a01b0385163b6109d55760405162461bcd60e51b815260206004820152601d60248201527f416464726573733a2063616c6c20746f206e6f6e2d636f6e7472616374000000604482015260640161034b565b508161088a565b61088a83838151156109f15781518083602001fd5b8060405162461bcd60e51b815260040161034b9190610b1e565b600080600080600060a08688031215610a2357600080fd5b8535945060208601359350604086013560ff81168114610a4257600080fd5b94979396509394606081013594506080013592915050565b600060208284031215610a6c57600080fd5b5035919050565b600060208284031215610a8557600080fd5b81356001600160a01b0381168114610a9c57600080fd5b9392505050565b600060208284031215610ab557600080fd5b5051919050565b600060208284031215610ace57600080fd5b81518015158114610a9c57600080fd5b60005b83811015610af9578181015183820152602001610ae1565b50506000910152565b60008251610b14818460208701610ade565b9190910192915050565b6020815260008251806020840152610b3d816040850160208701610ade565b601f01601f1916919091016040019291505056fea2646970667358221220f0151533f2b3e85c7527b03b6165130aefc0427068427e310261a6f101a6ba1e64736f6c63430008110033",
  "linkReferences": {},
  "deployedLinkReferences": {}
}