{
  "_format": "hh-sol-artifact-1",
  "contractName": "MockSynthetix",
  "sourceName": "contracts/mocks/MockSynthetix.sol",
  "abi": [
    {
      "inputs": [
        {
          "internalType": "address",
          "name": "_sEUR",
          "type": "address"
        },
        {
          "internalType": "address",
          "name": "_sGBP",
          "type": "address"
        },
        {
          "internalType": "address",
          "name": "_sUSD",
          "type": "address"
        },
        {
          "internalType": "uint256",
          "name": "_eurInUSD",
          "type": "uint256"
        },
        {
          "internalType": "uint256",
          "name": "_gbpInUSD",
          "type": "uint256"
        }
      ],
      "stateMutability": "nonpayable",
      "type": "constructor"
    },
    {
      "inputs": [
        {
          "internalType": "bytes32",
          "name": "sourceCurrencyKey",
          "type": "bytes32"
        },
        {
          "internalType": "uint256",
          "name": "sourceAmount",
          "type": "uint256"
        },
        {
          "internalType": "bytes32",
          "name": "destinationCurrencyKey",
          "type": "bytes32"
        }
      ],
      "name": "exchangeAtomically",
      "outputs": [
        {
          "internalType": "uint256",
          "name": "",
          "type": "uint256"
        }
      ],
      "stateMutability": "nonpayable",
      "type": "function"
    }
  ],
  "bytecode": "0x6080604052601e60025534801561001557600080fd5b5060405161076838038061076883398101604081905261003491610172565b7f627ba213979587a247d8b4d9627a28b66aac6f87fea0e9d909609551432f475480546001600160a01b03199081166001600160a01b03978816179091557f82a302e006c2ebb9dbd59542fbc6c747ec866aa7c3985cf06705aa2aeb507abf80548216958716959095179094557f3cd4c2e9613808ea2532d94915827f67a309af2eed349c3a4e7e087c6f67c59f805490941692909416919091179091556001602052670de0b6b3a76400007fd0bc1047dc4afc12f098a5434688002cebaa26829f59bf0bf2164258975f1979557f9532d80f053534ac33a3095496b250e1656f6fa19732f867a04552bd37eca66355630734742560e41b6000527f79e5957cde27004dfd27aaaf65ffa9941df09434dbdbbf7e9d503fa7a99cd3b0556101c8565b80516001600160a01b038116811461016d57600080fd5b919050565b600080600080600060a0868803121561018a57600080fd5b61019386610156565b94506101a160208701610156565b93506101af60408701610156565b6060870151608090970151959894975095949392505050565b610591806101d76000396000f3fe608060405234801561001057600080fd5b506004361061002b5760003560e01c806304e2bac114610030575b600080fd5b61004361003e36600461042b565b610055565b60405190815260200160405180910390f35b600083815260208190526040812054610079906001600160a01b031633308661016f565b60008481526001602052604081205461009390859061046d565b600084815260016020526040812054919250906100b0908361048a565b90506000612710600254836100c5919061046d565b6100cf919061048a565b6000868152602081905260409020549091506001600160a01b03166340c10f19336100fa84866104ac565b6040516001600160e01b031960e085901b1681526001600160a01b0390921660048301526024820152604401600060405180830381600087803b15801561014057600080fd5b505af1158015610154573d6000803e3d6000fd5b50505050808261016491906104ac565b979650505050505050565b604080516001600160a01b0385811660248301528416604482015260648082018490528251808303909101815260849091019091526020810180516001600160e01b03166323b872dd60e01b1790526101c99085906101cf565b50505050565b6000610224826040518060400160405280602081526020017f5361666545524332303a206c6f772d6c6576656c2063616c6c206661696c6564815250856001600160a01b03166102ab9092919063ffffffff16565b8051909150156102a6578080602001905181019061024291906104bf565b6102a65760405162461bcd60e51b815260206004820152602a60248201527f5361666545524332303a204552433230206f7065726174696f6e20646964206e6044820152691bdd081cdd58d8d9595960b21b60648201526084015b60405180910390fd5b505050565b60606102ba84846000856102c2565b949350505050565b6060824710156103235760405162461bcd60e51b815260206004820152602660248201527f416464726573733a20696e73756666696369656e742062616c616e636520666f6044820152651c8818d85b1b60d21b606482015260840161029d565b600080866001600160a01b0316858760405161033f919061050c565b60006040518083038185875af1925050503d806000811461037c576040519150601f19603f3d011682016040523d82523d6000602084013e610381565b606091505b509150915061016487838387606083156103fc5782516000036103f5576001600160a01b0385163b6103f55760405162461bcd60e51b815260206004820152601d60248201527f416464726573733a2063616c6c20746f206e6f6e2d636f6e7472616374000000604482015260640161029d565b50816102ba565b6102ba83838151156104115781518083602001fd5b8060405162461bcd60e51b815260040161029d9190610528565b60008060006060848603121561044057600080fd5b505081359360208301359350604090920135919050565b634e487b7160e01b600052601160045260246000fd5b808202811582820484141761048457610484610457565b92915050565b6000826104a757634e487b7160e01b600052601260045260246000fd5b500490565b8181038181111561048457610484610457565b6000602082840312156104d157600080fd5b815180151581146104e157600080fd5b9392505050565b60005b838110156105035781810151838201526020016104eb565b50506000910152565b6000825161051e8184602087016104e8565b9190910192915050565b60208152600082518060208401526105478160408501602087016104e8565b601f01601f1916919091016040019291505056fea264697066735822122037b7b812a9acf8eb3505e2dff9d8f7d42c9a4947fdae386a57e3b7a65094a85f64736f6c63430008110033",
  "linkReferences": {},
  "deployedLinkReferences": {}
}