{
  "_format": "hh-sol-artifact-1",
  "contractName": "PopLocker",
  "sourceName": "contracts/core/dao/PopLocker.sol",
  "abi": [
    {
      "inputs": [
        {
          "internalType": "contract IERC20",
          "name": "_stakingToken",
          "type": "address"
        },
        {
          "internalType": "contract IRewardsEscrow",
          "name": "_rewardsEscrow",
          "type": "address"
        }
      ],
      "stateMutability": "nonpayable",
      "type": "constructor"
    },
    {
      "anonymous": false,
      "inputs": [
        {
          "indexed": false,
          "internalType": "uint256",
          "name": "_previousDuration",
          "type": "uint256"
        },
        {
          "indexed": false,
          "internalType": "uint256",
          "name": "_newDuration",
          "type": "uint256"
        }
      ],
      "name": "EscrowDurationUpdated",
      "type": "event"
    },
    {
      "anonymous": false,
      "inputs": [
        {
          "indexed": true,
          "internalType": "address",
          "name": "_user",
          "type": "address"
        },
        {
          "indexed": true,
          "internalType": "address",
          "name": "_kicked",
          "type": "address"
        },
        {
          "indexed": false,
          "internalType": "uint256",
          "name": "_reward",
          "type": "uint256"
        }
      ],
      "name": "KickReward",
      "type": "event"
    },
    {
      "anonymous": false,
      "inputs": [
        {
          "indexed": true,
          "internalType": "address",
          "name": "previousOwner",
          "type": "address"
        },
        {
          "indexed": true,
          "internalType": "address",
          "name": "newOwner",
          "type": "address"
        }
      ],
      "name": "OwnershipTransferred",
      "type": "event"
    },
    {
      "anonymous": false,
      "inputs": [
        {
          "indexed": false,
          "internalType": "address",
          "name": "_token",
          "type": "address"
        },
        {
          "indexed": false,
          "internalType": "uint256",
          "name": "_amount",
          "type": "uint256"
        }
      ],
      "name": "Recovered",
      "type": "event"
    },
    {
      "anonymous": false,
      "inputs": [
        {
          "indexed": true,
          "internalType": "address",
          "name": "_user",
          "type": "address"
        },
        {
          "indexed": false,
          "internalType": "uint256",
          "name": "_amount",
          "type": "uint256"
        }
      ],
      "name": "Relocked",
      "type": "event"
    },
    {
      "anonymous": false,
      "inputs": [
        {
          "indexed": true,
          "internalType": "address",
          "name": "_token",
          "type": "address"
        },
        {
          "indexed": false,
          "internalType": "uint256",
          "name": "_reward",
          "type": "uint256"
        }
      ],
      "name": "RewardAdded",
      "type": "event"
    },
    {
      "anonymous": false,
      "inputs": [
        {
          "indexed": true,
          "internalType": "address",
          "name": "_user",
          "type": "address"
        },
        {
          "indexed": true,
          "internalType": "address",
          "name": "_rewardsToken",
          "type": "address"
        },
        {
          "indexed": false,
          "internalType": "uint256",
          "name": "_reward",
          "type": "uint256"
        }
      ],
      "name": "RewardPaid",
      "type": "event"
    },
    {
      "anonymous": false,
      "inputs": [
        {
          "indexed": false,
          "internalType": "address",
          "name": "_previous",
          "type": "address"
        },
        {
          "indexed": false,
          "internalType": "address",
          "name": "_new",
          "type": "address"
        }
      ],
      "name": "RewardsEscrowUpdated",
      "type": "event"
    },
    {
      "anonymous": false,
      "inputs": [
        {
          "indexed": true,
          "internalType": "address",
          "name": "_user",
          "type": "address"
        },
        {
          "indexed": false,
          "internalType": "uint256",
          "name": "_paidAmount",
          "type": "uint256"
        },
        {
          "indexed": false,
          "internalType": "uint256",
          "name": "_lockedAmount",
          "type": "uint256"
        },
        {
          "indexed": false,
          "internalType": "uint256",
          "name": "_boostedAmount",
          "type": "uint256"
        }
      ],
      "name": "Staked",
      "type": "event"
    },
    {
      "anonymous": false,
      "inputs": [
        {
          "indexed": true,
          "internalType": "address",
          "name": "_user",
          "type": "address"
        },
        {
          "indexed": false,
          "internalType": "uint256",
          "name": "_amount",
          "type": "uint256"
        }
      ],
      "name": "Withdrawn",
      "type": "event"
    },
    {
      "inputs": [
        {
          "internalType": "address",
          "name": "_rewardsToken",
          "type": "address"
        },
        {
          "internalType": "address",
          "name": "_distributor",
          "type": "address"
        },
        {
          "internalType": "bool",
          "name": "_useBoost",
          "type": "bool"
        }
      ],
      "name": "addReward",
      "outputs": [],
      "stateMutability": "nonpayable",
      "type": "function"
    },
    {
      "inputs": [
        {
          "internalType": "address",
          "name": "_rewardsToken",
          "type": "address"
        },
        {
          "internalType": "address",
          "name": "_distributor",
          "type": "address"
        },
        {
          "internalType": "bool",
          "name": "_approved",
          "type": "bool"
        }
      ],
      "name": "approveRewardDistributor",
      "outputs": [],
      "stateMutability": "nonpayable",
      "type": "function"
    },
    {
      "inputs": [
        {
          "internalType": "uint256",
          "name": "_epoch",
          "type": "uint256"
        },
        {
          "internalType": "address",
          "name": "_user",
          "type": "address"
        }
      ],
      "name": "balanceAtEpochOf",
      "outputs": [
        {
          "internalType": "uint256",
          "name": "amount",
          "type": "uint256"
        }
      ],
      "stateMutability": "view",
      "type": "function"
    },
    {
      "inputs": [
        {
          "internalType": "address",
          "name": "_user",
          "type": "address"
        }
      ],
      "name": "balanceOf",
      "outputs": [
        {
          "internalType": "uint256",
          "name": "amount",
          "type": "uint256"
        }
      ],
      "stateMutability": "view",
      "type": "function"
    },
    {
      "inputs": [
        {
          "internalType": "address",
          "name": "",
          "type": "address"
        }
      ],
      "name": "balances",
      "outputs": [
        {
          "internalType": "uint112",
          "name": "locked",
          "type": "uint112"
        },
        {
          "internalType": "uint112",
          "name": "boosted",
          "type": "uint112"
        },
        {
          "internalType": "uint32",
          "name": "nextUnlockIndex",
          "type": "uint32"
        }
      ],
      "stateMutability": "view",
      "type": "function"
    },
    {
      "inputs": [],
      "name": "boostPayment",
      "outputs": [
        {
          "internalType": "address",
          "name": "",
          "type": "address"
        }
      ],
      "stateMutability": "view",
      "type": "function"
    },
    {
      "inputs": [],
      "name": "boostRate",
      "outputs": [
        {
          "internalType": "uint256",
          "name": "",
          "type": "uint256"
        }
      ],
      "stateMutability": "view",
      "type": "function"
    },
    {
      "inputs": [],
      "name": "boostedSupply",
      "outputs": [
        {
          "internalType": "uint256",
          "name": "",
          "type": "uint256"
        }
      ],
      "stateMutability": "view",
      "type": "function"
    },
    {
      "inputs": [],
      "name": "checkpointEpoch",
      "outputs": [],
      "stateMutability": "nonpayable",
      "type": "function"
    },
    {
      "inputs": [
        {
          "internalType": "address",
          "name": "_account",
          "type": "address"
        }
      ],
      "name": "claimableRewards",
      "outputs": [
        {
          "components": [
            {
              "internalType": "address",
              "name": "token",
              "type": "address"
            },
            {
              "internalType": "uint256",
              "name": "amount",
              "type": "uint256"
            }
          ],
          "internalType": "struct PopLocker.EarnedData[]",
          "name": "userRewards",
          "type": "tuple[]"
        }
      ],
      "stateMutability": "view",
      "type": "function"
    },
    {
      "inputs": [],
      "name": "decimals",
      "outputs": [
        {
          "internalType": "uint8",
          "name": "",
          "type": "uint8"
        }
      ],
      "stateMutability": "view",
      "type": "function"
    },
    {
      "inputs": [],
      "name": "denominator",
      "outputs": [
        {
          "internalType": "uint256",
          "name": "",
          "type": "uint256"
        }
      ],
      "stateMutability": "view",
      "type": "function"
    },
    {
      "inputs": [],
      "name": "epochCount",
      "outputs": [
        {
          "internalType": "uint256",
          "name": "",
          "type": "uint256"
        }
      ],
      "stateMutability": "view",
      "type": "function"
    },
    {
      "inputs": [
        {
          "internalType": "uint256",
          "name": "",
          "type": "uint256"
        }
      ],
      "name": "epochs",
      "outputs": [
        {
          "internalType": "uint224",
          "name": "supply",
          "type": "uint224"
        },
        {
          "internalType": "uint32",
          "name": "date",
          "type": "uint32"
        }
      ],
      "stateMutability": "view",
      "type": "function"
    },
    {
      "inputs": [],
      "name": "escrowDuration",
      "outputs": [
        {
          "internalType": "uint256",
          "name": "",
          "type": "uint256"
        }
      ],
      "stateMutability": "view",
      "type": "function"
    },
    {
      "inputs": [
        {
          "internalType": "uint256",
          "name": "_time",
          "type": "uint256"
        }
      ],
      "name": "findEpochId",
      "outputs": [
        {
          "internalType": "uint256",
          "name": "epoch",
          "type": "uint256"
        }
      ],
      "stateMutability": "view",
      "type": "function"
    },
    {
      "inputs": [
        {
          "internalType": "address",
          "name": "_account",
          "type": "address"
        }
      ],
      "name": "getReward",
      "outputs": [],
      "stateMutability": "nonpayable",
      "type": "function"
    },
    {
      "inputs": [
        {
          "internalType": "address",
          "name": "_rewardsToken",
          "type": "address"
        }
      ],
      "name": "getRewardForDuration",
      "outputs": [
        {
          "internalType": "uint256",
          "name": "",
          "type": "uint256"
        }
      ],
      "stateMutability": "view",
      "type": "function"
    },
    {
      "inputs": [],
      "name": "isShutdown",
      "outputs": [
        {
          "internalType": "bool",
          "name": "",
          "type": "bool"
        }
      ],
      "stateMutability": "view",
      "type": "function"
    },
    {
      "inputs": [
        {
          "internalType": "address",
          "name": "_account",
          "type": "address"
        }
      ],
      "name": "kickExpiredLocks",
      "outputs": [],
      "stateMutability": "nonpayable",
      "type": "function"
    },
    {
      "inputs": [],
      "name": "kickRewardEpochDelay",
      "outputs": [
        {
          "internalType": "uint256",
          "name": "",
          "type": "uint256"
        }
      ],
      "stateMutability": "view",
      "type": "function"
    },
    {
      "inputs": [],
      "name": "kickRewardPerEpoch",
      "outputs": [
        {
          "internalType": "uint256",
          "name": "",
          "type": "uint256"
        }
      ],
      "stateMutability": "view",
      "type": "function"
    },
    {
      "inputs": [
        {
          "internalType": "address",
          "name": "_rewardsToken",
          "type": "address"
        }
      ],
      "name": "lastTimeRewardApplicable",
      "outputs": [
        {
          "internalType": "uint256",
          "name": "",
          "type": "uint256"
        }
      ],
      "stateMutability": "view",
      "type": "function"
    },
    {
      "inputs": [
        {
          "internalType": "address",
          "name": "_account",
          "type": "address"
        },
        {
          "internalType": "uint256",
          "name": "_amount",
          "type": "uint256"
        },
        {
          "internalType": "uint256",
          "name": "_spendRatio",
          "type": "uint256"
        }
      ],
      "name": "lock",
      "outputs": [],
      "stateMutability": "nonpayable",
      "type": "function"
    },
    {
      "inputs": [],
      "name": "lockDuration",
      "outputs": [
        {
          "internalType": "uint256",
          "name": "",
          "type": "uint256"
        }
      ],
      "stateMutability": "view",
      "type": "function"
    },
    {
      "inputs": [
        {
          "internalType": "address",
          "name": "_user",
          "type": "address"
        }
      ],
      "name": "lockedBalanceOf",
      "outputs": [
        {
          "internalType": "uint256",
          "name": "amount",
          "type": "uint256"
        }
      ],
      "stateMutability": "view",
      "type": "function"
    },
    {
      "inputs": [
        {
          "internalType": "address",
          "name": "_user",
          "type": "address"
        }
      ],
      "name": "lockedBalances",
      "outputs": [
        {
          "internalType": "uint256",
          "name": "total",
          "type": "uint256"
        },
        {
          "internalType": "uint256",
          "name": "unlockable",
          "type": "uint256"
        },
        {
          "internalType": "uint256",
          "name": "locked",
          "type": "uint256"
        },
        {
          "components": [
            {
              "internalType": "uint112",
              "name": "amount",
              "type": "uint112"
            },
            {
              "internalType": "uint112",
              "name": "boosted",
              "type": "uint112"
            },
            {
              "internalType": "uint32",
              "name": "unlockTime",
              "type": "uint32"
            }
          ],
          "internalType": "struct PopLocker.LockedBalance[]",
          "name": "lockData",
          "type": "tuple[]"
        }
      ],
      "stateMutability": "view",
      "type": "function"
    },
    {
      "inputs": [],
      "name": "lockedSupply",
      "outputs": [
        {
          "internalType": "uint256",
          "name": "",
          "type": "uint256"
        }
      ],
      "stateMutability": "view",
      "type": "function"
    },
    {
      "inputs": [],
      "name": "maximumBoostPayment",
      "outputs": [
        {
          "internalType": "uint256",
          "name": "",
          "type": "uint256"
        }
      ],
      "stateMutability": "view",
      "type": "function"
    },
    {
      "inputs": [],
      "name": "name",
      "outputs": [
        {
          "internalType": "string",
          "name": "",
          "type": "string"
        }
      ],
      "stateMutability": "view",
      "type": "function"
    },
    {
      "inputs": [],
      "name": "nextBoostRate",
      "outputs": [
        {
          "internalType": "uint256",
          "name": "",
          "type": "uint256"
        }
      ],
      "stateMutability": "view",
      "type": "function"
    },
    {
      "inputs": [],
      "name": "nextMaximumBoostPayment",
      "outputs": [
        {
          "internalType": "uint256",
          "name": "",
          "type": "uint256"
        }
      ],
      "stateMutability": "view",
      "type": "function"
    },
    {
      "inputs": [
        {
          "internalType": "address",
          "name": "_rewardsToken",
          "type": "address"
        },
        {
          "internalType": "uint256",
          "name": "_reward",
          "type": "uint256"
        }
      ],
      "name": "notifyRewardAmount",
      "outputs": [],
      "stateMutability": "nonpayable",
      "type": "function"
    },
    {
      "inputs": [],
      "name": "owner",
      "outputs": [
        {
          "internalType": "address",
          "name": "",
          "type": "address"
        }
      ],
      "stateMutability": "view",
      "type": "function"
    },
    {
      "inputs": [
        {
          "internalType": "bool",
          "name": "_relock",
          "type": "bool"
        }
      ],
      "name": "processExpiredLocks",
      "outputs": [],
      "stateMutability": "nonpayable",
      "type": "function"
    },
    {
      "inputs": [
        {
          "internalType": "bool",
          "name": "_relock",
          "type": "bool"
        },
        {
          "internalType": "uint256",
          "name": "_spendRatio",
          "type": "uint256"
        },
        {
          "internalType": "address",
          "name": "_withdrawTo",
          "type": "address"
        }
      ],
      "name": "processExpiredLocks",
      "outputs": [],
      "stateMutability": "nonpayable",
      "type": "function"
    },
    {
      "inputs": [
        {
          "internalType": "address",
          "name": "_tokenAddress",
          "type": "address"
        },
        {
          "internalType": "uint256",
          "name": "_tokenAmount",
          "type": "uint256"
        }
      ],
      "name": "recoverERC20",
      "outputs": [],
      "stateMutability": "nonpayable",
      "type": "function"
    },
    {
      "inputs": [],
      "name": "renounceOwnership",
      "outputs": [],
      "stateMutability": "nonpayable",
      "type": "function"
    },
    {
      "inputs": [
        {
          "internalType": "address",
          "name": "",
          "type": "address"
        }
      ],
      "name": "rewardData",
      "outputs": [
        {
          "internalType": "bool",
          "name": "useBoost",
          "type": "bool"
        },
        {
          "internalType": "uint40",
          "name": "periodFinish",
          "type": "uint40"
        },
        {
          "internalType": "uint208",
          "name": "rewardRate",
          "type": "uint208"
        },
        {
          "internalType": "uint40",
          "name": "lastUpdateTime",
          "type": "uint40"
        },
        {
          "internalType": "uint208",
          "name": "rewardPerTokenStored",
          "type": "uint208"
        }
      ],
      "stateMutability": "view",
      "type": "function"
    },
    {
      "inputs": [
        {
          "internalType": "address",
          "name": "",
          "type": "address"
        },
        {
          "internalType": "address",
          "name": "",
          "type": "address"
        }
      ],
      "name": "rewardDistributors",
      "outputs": [
        {
          "internalType": "bool",
          "name": "",
          "type": "bool"
        }
      ],
      "stateMutability": "view",
      "type": "function"
    },
    {
      "inputs": [
        {
          "internalType": "address",
          "name": "_rewardsToken",
          "type": "address"
        }
      ],
      "name": "rewardPerToken",
      "outputs": [
        {
          "internalType": "uint256",
          "name": "",
          "type": "uint256"
        }
      ],
      "stateMutability": "view",
      "type": "function"
    },
    {
      "inputs": [
        {
          "internalType": "uint256",
          "name": "",
          "type": "uint256"
        }
      ],
      "name": "rewardTokens",
      "outputs": [
        {
          "internalType": "address",
          "name": "",
          "type": "address"
        }
      ],
      "stateMutability": "view",
      "type": "function"
    },
    {
      "inputs": [
        {
          "internalType": "address",
          "name": "_user",
          "type": "address"
        }
      ],
      "name": "rewardWeightOf",
      "outputs": [
        {
          "internalType": "uint256",
          "name": "amount",
          "type": "uint256"
        }
      ],
      "stateMutability": "view",
      "type": "function"
    },
    {
      "inputs": [
        {
          "internalType": "address",
          "name": "",
          "type": "address"
        },
        {
          "internalType": "address",
          "name": "",
          "type": "address"
        }
      ],
      "name": "rewards",
      "outputs": [
        {
          "internalType": "uint256",
          "name": "",
          "type": "uint256"
        }
      ],
      "stateMutability": "view",
      "type": "function"
    },
    {
      "inputs": [],
      "name": "rewardsDuration",
      "outputs": [
        {
          "internalType": "uint256",
          "name": "",
          "type": "uint256"
        }
      ],
      "stateMutability": "view",
      "type": "function"
    },
    {
      "inputs": [],
      "name": "rewardsEscrow",
      "outputs": [
        {
          "internalType": "contract IRewardsEscrow",
          "name": "",
          "type": "address"
        }
      ],
      "stateMutability": "view",
      "type": "function"
    },
    {
      "inputs": [],
      "name": "setApprovals",
      "outputs": [],
      "stateMutability": "nonpayable",
      "type": "function"
    },
    {
      "inputs": [
        {
          "internalType": "uint256",
          "name": "_max",
          "type": "uint256"
        },
        {
          "internalType": "uint256",
          "name": "_rate",
          "type": "uint256"
        },
        {
          "internalType": "address",
          "name": "_receivingAddress",
          "type": "address"
        }
      ],
      "name": "setBoost",
      "outputs": [],
      "stateMutability": "nonpayable",
      "type": "function"
    },
    {
      "inputs": [
        {
          "internalType": "uint256",
          "name": "duration",
          "type": "uint256"
        }
      ],
      "name": "setEscrowDuration",
      "outputs": [],
      "stateMutability": "nonpayable",
      "type": "function"
    },
    {
      "inputs": [
        {
          "internalType": "uint256",
          "name": "_rate",
          "type": "uint256"
        },
        {
          "internalType": "uint256",
          "name": "_delay",
          "type": "uint256"
        }
      ],
      "name": "setKickIncentive",
      "outputs": [],
      "stateMutability": "nonpayable",
      "type": "function"
    },
    {
      "inputs": [
        {
          "internalType": "address",
          "name": "_rewardsEscrow",
          "type": "address"
        }
      ],
      "name": "setRewardsEscrow",
      "outputs": [],
      "stateMutability": "nonpayable",
      "type": "function"
    },
    {
      "inputs": [],
      "name": "shutdown",
      "outputs": [],
      "stateMutability": "nonpayable",
      "type": "function"
    },
    {
      "inputs": [],
      "name": "stakingToken",
      "outputs": [
        {
          "internalType": "contract IERC20",
          "name": "",
          "type": "address"
        }
      ],
      "stateMutability": "view",
      "type": "function"
    },
    {
      "inputs": [],
      "name": "symbol",
      "outputs": [
        {
          "internalType": "string",
          "name": "",
          "type": "string"
        }
      ],
      "stateMutability": "view",
      "type": "function"
    },
    {
      "inputs": [],
      "name": "totalSupply",
      "outputs": [
        {
          "internalType": "uint256",
          "name": "supply",
          "type": "uint256"
        }
      ],
      "stateMutability": "view",
      "type": "function"
    },
    {
      "inputs": [
        {
          "internalType": "uint256",
          "name": "_epoch",
          "type": "uint256"
        }
      ],
      "name": "totalSupplyAtEpoch",
      "outputs": [
        {
          "internalType": "uint256",
          "name": "supply",
          "type": "uint256"
        }
      ],
      "stateMutability": "view",
      "type": "function"
    },
    {
      "inputs": [
        {
          "internalType": "address",
          "name": "newOwner",
          "type": "address"
        }
      ],
      "name": "transferOwnership",
      "outputs": [],
      "stateMutability": "nonpayable",
      "type": "function"
    },
    {
      "inputs": [
        {
          "internalType": "address",
          "name": "",
          "type": "address"
        },
        {
          "internalType": "uint256",
          "name": "",
          "type": "uint256"
        }
      ],
      "name": "userLocks",
      "outputs": [
        {
          "internalType": "uint112",
          "name": "amount",
          "type": "uint112"
        },
        {
          "internalType": "uint112",
          "name": "boosted",
          "type": "uint112"
        },
        {
          "internalType": "uint32",
          "name": "unlockTime",
          "type": "uint32"
        }
      ],
      "stateMutability": "view",
      "type": "function"
    },
    {
      "inputs": [
        {
          "internalType": "address",
          "name": "",
          "type": "address"
        },
        {
          "internalType": "address",
          "name": "",
          "type": "address"
        }
      ],
      "name": "userRewardPerTokenPaid",
      "outputs": [
        {
          "internalType": "uint256",
          "name": "",
          "type": "uint256"
        }
      ],
      "stateMutability": "view",
      "type": "function"
    }
  ],
  "bytecode": "0x60a0604052600060108190556127106011819055601291909155601355606460145560046015556016805460ff191690553480156200003d57600080fd5b506040516200455038038062004550833981016040819052620000609162000316565b60016000556200007033620001c8565b60408051808201909152601581527f566f7465204c6f636b656420504f5020546f6b656e00000000000000000000006020820152601790620000b39082620003fa565b506040805180820190915260058152640766c504f560dc1b6020820152601890620000df9082620003fa565b506012608052600280546001600160a01b03199081166001600160a01b0385811691909117909255600380549091169183169190911790556301e1338060065560006200015562093a806200014142826200021a602090811b620020cc17901c565b6200028660201b6200212e1790919060201c565b60408051808201909152600080825263ffffffff92831660208301908152600c8054600181018255925291519151909216600160e01b026001600160e01b0391909116177fdf6966c971051c3d54ec59162606531493a51404a002842f56009d7e5cf4a8c790910155506200050f915050565b600180546001600160a01b038381166001600160a01b0319831681179093556040519116919082907f8be0079c531659141344cd1fd0a4f28419497f9722a3daafe3b4186f6b6457e090600090a35050565b6000808211620002715760405162461bcd60e51b815260206004820152601c60248201527f426f72696e674d6174683a206469766973696f6e206279207a65726f0000000060448201526064015b60405180910390fd5b6200027d8284620004c6565b90505b92915050565b6000811580620002af575082826200029f8183620004e9565b9250620002ad9083620004c6565b145b620002805760405162461bcd60e51b815260206004820152601860248201527f426f72696e674d6174683a204d756c204f766572666c6f770000000000000000604482015260640162000268565b6001600160a01b03811681146200031357600080fd5b50565b600080604083850312156200032a57600080fd5b82516200033781620002fd565b60208401519092506200034a81620002fd565b809150509250929050565b634e487b7160e01b600052604160045260246000fd5b600181811c908216806200038057607f821691505b602082108103620003a157634e487b7160e01b600052602260045260246000fd5b50919050565b601f821115620003f557600081815260208120601f850160051c81016020861015620003d05750805b601f850160051c820191505b81811015620003f157828155600101620003dc565b5050505b505050565b81516001600160401b0381111562000416576200041662000355565b6200042e816200042784546200036b565b84620003a7565b602080601f8311600181146200046657600084156200044d5750858301515b600019600386901b1c1916600185901b178555620003f1565b600085815260208120601f198616915b82811015620004975788860151825594840194600190910190840162000476565b5085821015620004b65787850151600019600388901b60f8161c191681555b5050505050600190811b01905550565b600082620004e457634e487b7160e01b600052601260045260246000fd5b500490565b80820281158282048414176200028057634e487b7160e01b600052601160045260246000fd5b6080516140256200052b600039600061045a01526140256000f3fe608060405234801561001057600080fd5b50600436106103195760003560e01c80638757b15b116101a9578063c00007b0116100ef578063e432488d1161009d578063e432488d14610824578063e465fe801461082d578063e70b9e2714610840578063f12297771461086b578063f21579321461087e578063f2fde38b14610891578063f8261597146108a4578063fc0e74d1146108b757600080fd5b8063c00007b014610783578063c1009f4b14610796578063c6b61e4c1461079e578063ca5c7b91146107d5578063d3c45c76146107de578063dc01f60d146107f1578063e2ab691d1461081157600080fd5b8063a81653c911610157578063a81653c914610705578063a98e05bb14610718578063aa33fedb1461072b578063b187bc221461073e578063b5ed7a6614610747578063b66503cf14610750578063bcd1101414610763578063bf86d6901461077657600080fd5b80638757b15b146106ac578063887c7dc5146106b45780638980f11f146106c75780638da5cb5b146106da57806395d89b41146106eb57806396ce0795146106f35780639bdc7467146106fc57600080fd5b806357c2c2ba1161026e57806370b36d791161021c57806370b36d791461062657806370e664cd14610639578063715018a61461064c57806372f702f31461065457806375aadf611461067f5780637bb7bed1146106885780637bd48c7c1461069b578063829965cc146106a457600080fd5b806357c2c2ba14610574578063593557361461057d578063638634ee146105af57806363f1c8e2146105c25780636724c910146105d55780637035ab98146105e857806370a082311461061357600080fd5b80632fe87108116102cb5780632fe8710814610405578063312ff8391461043e578063313ce56714610453578063321bc34714610484578063386a95251461049757806339fc9713146104a157806348e5d9f8146104df57600080fd5b8063045544431461031e5780630483a7f61461033957806306fdde031461035c57806318160ddd146103715780631c6073951461037957806327e235e31461038c5780632e9564e4146103fc575b600080fd5b6103266108bf565b6040519081526020015b60405180910390f35b61034c610347366004613a50565b6108d0565b6040516103309493929190613a6b565b610364610ae2565b6040516103309190613b12565b610326610b74565b610326610387366004613b45565b610c8b565b6103d061039a366004613a50565b600d602052600090815260409020546001600160701b0380821691600160701b810490911690600160e01b900463ffffffff1683565b604080516001600160701b03948516815293909216602084015263ffffffff1690820152606001610330565b61032660115481565b610326610413366004613a50565b6001600160a01b03166000908152600d6020526040902054600160701b90046001600160701b031690565b61045161044c366004613b7f565b610deb565b005b60405160ff7f0000000000000000000000000000000000000000000000000000000000000000168152602001610330565b610451610492366004613b9c565b610e10565b61032662093a8081565b6104cf6104af366004613bb5565b600760209081526000928352604080842090915290825290205460ff1681565b6040519015158152602001610330565b6105396104ed366004613a50565b6005602052600090815260409020805460019091015460ff82169164ffffffffff61010082048116926001600160d01b03600160301b90930483169291811691600160281b9091041685565b60408051951515865264ffffffffff94851660208701526001600160d01b03938416908601529216606084015216608082015260a001610330565b61032660065481565b61032661058b366004613a50565b6001600160a01b03166000908152600d60205260409020546001600160701b031690565b6103266105bd366004613a50565b610e59565b6104516105d0366004613bdf565b610e87565b6104516105e3366004613c01565b610f02565b6103266105f6366004613bb5565b600860209081526000928352604080842090915290825290205481565b610326610621366004613a50565b610fb3565b610326610634366004613b9c565b61110e565b610451610647366004613c48565b611262565b610451611288565b600254610667906001600160a01b031681565b6040516001600160a01b039091168152602001610330565b610326600b5481565b610667610696366004613b9c565b61129c565b61032660125481565b600c54610326565b6104516112c6565b6104516106c2366004613a50565b611303565b6104516106d5366004613c86565b611331565b6001546001600160a01b0316610667565b61036461146a565b61032661271081565b61032660145481565b610451610713366004613cb0565b611479565b600f54610667906001600160a01b031681565b6103d0610739366004613c86565b611558565b61032660105481565b61032660135481565b61045161075e366004613c86565b6115a7565b610326610771366004613a50565b61188b565b6016546104cf9060ff1681565b610451610791366004613a50565b6118c1565b610451611c1d565b6107b16107ac366004613b9c565b611c25565b604080516001600160e01b03909316835263ffffffff909116602083015201610330565b610326600a5481565b6104516107ec366004613c01565b611c5d565b6108046107ff366004613a50565b611d4e565b6040516103309190613cdc565b61045161081f366004613d34565b611eb8565b61032660155481565b61045161083b366004613a50565b611ee3565b61032661084e366004613bb5565b600960209081526000928352604080842090915290825290205481565b610326610879366004613a50565b611f54565b600354610667906001600160a01b031681565b61045161089f366004613a50565b611f5f565b6103266108b2366004613b9c565b611fd5565b6104516120b5565b6108cd62093a80600c613d7d565b81565b6001600160a01b0381166000908152600e60209081526040808320600d9092528220805483928392606092600160e01b900463ffffffff1684815b8454811015610aca574285828154811061092757610927613d94565b600091825260209091200154600160e01b900463ffffffff161115610a8457816000036109c257845461095b908290613daa565b67ffffffffffffffff81111561097357610973613dbd565b6040519080825280602002602001820160405280156109be57816020015b60408051606081018252600080825260208083018290529282015282526000199092019101816109915790505b5095505b8481815481106109d4576109d4613d94565b60009182526020918290206040805160608101825291909201546001600160701b038082168352600160701b8204169382019390935263ffffffff600160e01b90930492909216908201528651879084908110610a3357610a33613d94565b60200260200101819052508180610a4990613dd3565b925050610a7d858281548110610a6157610a61613d94565b60009182526020909120015488906001600160701b0316612199565b9650610ab8565b610ab5858281548110610a9957610a99613d94565b60009182526020909120015489906001600160701b0316612199565b97505b80610ac281613dd3565b91505061090b565b505090546001600160701b0316955050509193509193565b606060178054610af190613dec565b80601f0160208091040260200160405190810160405280929190818152602001828054610b1d90613dec565b8015610b6a5780601f10610b3f57610100808354040283529160200191610b6a565b820191906000526020600020905b815481529060010190602001808311610b4d57829003601f168201915b5050505050905090565b600080610b8e62093a80610b8842826120cc565b9061212e565b90506000610baa610ba362093a80600c613d7d565b83906121c7565b600c80549192508390610bbe600184613daa565b81548110610bce57610bce613d94565b600091825260209091200154600160e01b900463ffffffff1603610bfa5780610bf681613e26565b9150505b6000610c07600183613daa565b90505b610c15816001613e3d565b15610c84576000600c8281548110610c2f57610c2f613d94565b60009182526020909120018054909150600160e01b900463ffffffff168410610c585750610c84565b8054610c6e9087906001600160e01b0316612199565b9550508080610c7c90613e26565b915050610c0a565b5050505090565b6001600160a01b0381166000908152600e60205260408120600c805483919086908110610cba57610cba613d94565b6000918252602082200154600160e01b900463ffffffff169150610ce5610ba362093a80600c613d7d565b90506000610cfa62093a80610b8842826120cc565b8454909150600090610d0e90600190613daa565b90505b610d1c816001613e3d565b15610ddf576000610d69610d3462093a80600c613d7d565b878481548110610d4657610d46613d94565b60009182526020909120015463ffffffff600160e01b909104811691906121c716565b9050848111158015610d7a57508281105b15610dcc5783811115610dc657610dbf868381548110610d9c57610d9c613d94565b6000918252602090912001548890600160701b90046001600160701b0316612199565b9650610dcc565b50610ddf565b5080610dd781613e26565b915050610d11565b50505050505b92915050565b610df36121f5565b610e03338260003333600061224e565b610e0d6001600055565b50565b610e18612877565b60065460408051918252602082018390527f21c46a061cb9c101660f51f5c9fc9768c5f6e8cf5dea8ca5cd03cb6db13956f3910160405180910390a1600655565b6001600160a01b038116600090815260056020526040812054610de590610100900464ffffffffff166128d1565b610e8f612877565b6101f4821115610eba5760405162461bcd60e51b8152600401610eb190613e50565b60405180910390fd5b6002811015610ef75760405162461bcd60e51b81526020600482015260096024820152686d696e2064656c617960b81b6044820152606401610eb1565b601491909155601555565b610f0a612877565b6001600160a01b03831660009081526005602052604090206001015464ffffffffff16610f795760405162461bcd60e51b815260206004820152601c60248201527f7265776172647320746f6b656e20646f6573206e6f74206578697374000000006044820152606401610eb1565b6001600160a01b03928316600090815260076020908152604080832094909516825292909252919020805460ff1916911515919091179055565b6001600160a01b0381166000908152600e60209081526040808320600d90925290912080548254600160701b82046001600160701b0316939291600160e01b900463ffffffff1690815b8181101561108c574285828154811061101857611018613d94565b600091825260209091200154600160e01b900463ffffffff16116110755761106e85828154811061104b5761104b613d94565b6000918252602090912001548790600160701b90046001600160701b03166121c7565b955061107a565b61108c565b8061108481613dd3565b915050610ffd565b5060006110a062093a80610b8842826120cc565b90506000821180156110dd5750806110db6110bf62093a80600c613d7d565b876110cb600187613daa565b81548110610d4657610d46613d94565b145b1561110457611101856110f1600185613daa565b8154811061104b5761104b613d94565b95505b5050505050919050565b60008061115562093a80610b8862093a80600c878154811061113257611132613d94565b60009182526020909120015463ffffffff600160e01b909104811691906120cc16565b9050600061116a610ba362093a80600c613d7d565b9050600061117f62093a80610b8842826120cc565b905080600c868154811061119557611195613d94565b600091825260209091200154600160e01b900463ffffffff16036111c157846111bd81613e26565b9550505b845b6111ce816001613e3d565b15611259576000600c82815481106111e8576111e8613d94565b60009182526020909120018054909150600160e01b900463ffffffff1684106112115750611259565b611243600c838154811061122757611227613d94565b60009182526020909120015487906001600160e01b0316612199565b955050808061125190613e26565b9150506111c3565b50505050919050565b61126a6121f5565b6112793384848433600061224e565b6112836001600055565b505050565b611290612877565b61129a60006128dd565b565b600481815481106112ac57600080fd5b6000918252602090912001546001600160a01b0316905081565b6003546002546112e4916001600160a01b039182169116600061292f565b60035460025461129a916001600160a01b03918216911660001961292f565b61130b6121f5565b610e0381600080843361132c60155462093a8061212e90919063ffffffff16565b61224e565b611339612877565b6002546001600160a01b03908116908316036113975760405162461bcd60e51b815260206004820152601d60248201527f43616e6e6f74207769746864726177207374616b696e6720746f6b656e0000006044820152606401610eb1565b6001600160a01b03821660009081526005602052604090206001015464ffffffffff16156114075760405162461bcd60e51b815260206004820152601c60248201527f43616e6e6f742077697468647261772072657761726420746f6b656e000000006044820152606401610eb1565b61142d61141c6001546001600160a01b031690565b6001600160a01b0384169083612a6a565b7f8c1256b8896378cd5044f80c202f9772b9d77dc85c8a6eb51967210b09bfaa28828260405161145e929190613e77565b60405180910390a15050565b606060188054610af190613dec565b611481612877565b6105dc83106114c55760405162461bcd60e51b815260206004820152601060248201526f1bdd995c881b585e081c185e5b595b9d60821b6044820152606401610eb1565b61753082106114e65760405162461bcd60e51b8152600401610eb190613e50565b6001600160a01b03811661152e5760405162461bcd60e51b815260206004820152600f60248201526e696e76616c6964206164647265737360881b6044820152606401610eb1565b601292909255601355600f80546001600160a01b0319166001600160a01b03909216919091179055565b600e602052816000526040600020818154811061157457600080fd5b6000918252602090912001546001600160701b038082169350600160701b8204169150600160e01b900463ffffffff1683565b6000808052600d6020527f81955a0a11e65eac625c29e8882660bae4e165a75d72780094acae8ece9a29ee8054600160701b90046001600160701b0316825b6004548110156117815760006004828154811061160557611605613d94565b6000918252602090912001546001600160a01b0316905061162d61162882612a89565b612b94565b6001600160a01b03821660009081526005602052604090206001810180546001600160d01b0393909316600160281b02600160281b600160f81b031990931692909217909155546116939061168e9064ffffffffff610100909104166128d1565b612bf1565b6001600160a01b038281166000908152600560205260409020600101805464ffffffffff191664ffffffffff939093169290921790915585161561176e576001600160a01b03811660009081526005602052604090205461170f908690839060ff166117095786546001600160701b0316612c48565b85612c48565b6001600160a01b0386811660008181526009602090815260408083209487168084529482528083209590955560058152848220600101549282526008815284822093825292909252919020600160281b9091046001600160d01b031690555b508061177981613dd3565b9150506115e6565b5050506001600160a01b038316600090815260076020908152604080832033845290915290205460ff166117e85760405162461bcd60e51b815260206004820152600e60248201526d1b9bdd08185d5d1a1bdc9a5e995960921b6044820152606401610eb1565b600082116118245760405162461bcd60e51b8152602060048201526009602482015268139bc81c995dd85c9960ba1b6044820152606401610eb1565b61182e8383612cbe565b6118436001600160a01b038416333085612df1565b826001600160a01b03167fac24935fd910bc682b5ccb1a07b718cadf8cf2f6d1404c4f3ddc3662dae40e298360405161187e91815260200190565b60405180910390a2505050565b6001600160a01b038116600090815260056020526040812054610de590600160301b90046001600160d01b031662093a8061212e565b6118c96121f5565b6001600160a01b0381166000908152600d6020526040812080548392600160701b9091046001600160701b0316905b600454811015611a835760006004828154811061191757611917613d94565b6000918252602090912001546001600160a01b0316905061193a61162882612a89565b6001600160a01b03821660009081526005602052604090206001810180546001600160d01b0393909316600160281b02600160281b600160f81b0319909316929092179091555461199b9061168e9064ffffffffff610100909104166128d1565b6001600160a01b038281166000908152600560205260409020600101805464ffffffffff191664ffffffffff9390931692909217909155851615611a70576001600160a01b038116600090815260056020526040902054611a11908690839060ff166117095786546001600160701b0316612c48565b6001600160a01b0386811660008181526009602090815260408083209487168084529482528083209590955560058152848220600101549282526008815284822093825292909252919020600160281b9091046001600160d01b031690555b5080611a7b81613dd3565b9150506118f8565b50505060005b600454811015611c1157600060048281548110611aa857611aa8613d94565b60009182526020808320909101546001600160a01b038781168452600983526040808520919092168085529252909120549091508015611bfc576001600160a01b0380861660009081526009602090815260408083209386168352929052908120819055611b1782600a6120cc565b90506000611b2682600961212e565b9050611b3c6001600160a01b0385168884612a6a565b60035460065460405163e2ab691d60e01b81526001600160a01b038a8116600483015260248201859052604482019290925291169063e2ab691d90606401600060405180830381600087803b158015611b9457600080fd5b505af1158015611ba8573d6000803e3d6000fd5b50505050836001600160a01b0316876001600160a01b03167f540798df468d7b23d11f156fdb954cb19ad414d150722a7b6d55ba369dea792e85604051611bf191815260200190565b60405180910390a350505b50508080611c0990613dd3565b915050611a89565b5050610e0d6001600055565b61129a612e2f565b600c8181548110611c3557600080fd5b6000918252602090912001546001600160e01b0381169150600160e01b900463ffffffff1682565b611c65612877565b6001600160a01b03831660009081526005602052604090206001015464ffffffffff1615611c9257600080fd5b6004805460018082019092557f8a35acfbc15ff81a39ae7d344fd709f28e8600b4aa8c65c6b64bfe7fe36bd19b0180546001600160a01b0319166001600160a01b039586169081179091556000908152600560209081526040808320808501805464ffffffffff19164264ffffffffff16908117909155815465ffffffffffff191661010090910260ff199081169190911796151596909617905560078252808320959096168252939093529290912080549091169091179055565b60045460609067ffffffffffffffff811115611d6c57611d6c613dbd565b604051908082528060200260200182016040528015611db157816020015b6040805180820190915260008082526020820152815260200190600190039081611d8a5790505b506001600160a01b0383166000908152600d60205260408120805492935091600160701b90046001600160701b0316905b8351811015611eb057600060048281548110611e0057611e00613d94565b9060005260206000200160009054906101000a90046001600160a01b0316905080858381518110611e3357611e33613d94565b6020908102919091018101516001600160a01b039283169052908216600090815260059091526040902054611e7d908790839060ff166117095786546001600160701b0316612c48565b858381518110611e8f57611e8f613d94565b60209081029190910181015101525080611ea881613dd3565b915050611de2565b505050919050565b611ec06121f5565b600254611ed8906001600160a01b0316333085612df1565b611279838383612fae565b611eeb612877565b600354604080516001600160a01b03928316815291831660208301527fee4ec82b92f0e1fe230e6604a4752fa407a28069f106dc41e53edc28c4bc504e910160405180910390a1600380546001600160a01b0319166001600160a01b0392909216919091179055565b6000610de582612a89565b611f67612877565b6001600160a01b038116611fcc5760405162461bcd60e51b815260206004820152602660248201527f4f776e61626c653a206e6577206f776e657220697320746865207a65726f206160448201526564647265737360d01b6064820152608401610eb1565b610e0d816128dd565b600c546000908190611fe990600190613daa565b90506000611ffe62093a80610b8886826120cc565b935060005b60808110156120ad57828210156120ad57600060026120228585613e3d565b61202d906001613e3d565b6120379190613e90565b90506000600c828154811061204e5761204e613d94565b600091825260209091200154600160e01b900463ffffffff16905086810361207a575095945050505050565b8681101561208a57819350612098565b612095600183613daa565b94505b505080806120a590613dd3565b915050612003565b509392505050565b6120bd612877565b6016805460ff19166001179055565b600080821161211d5760405162461bcd60e51b815260206004820152601c60248201527f426f72696e674d6174683a206469766973696f6e206279207a65726f000000006044820152606401610eb1565b6121278284613e90565b9392505050565b6000811580612152575082826121448183613d7d565b92506121509083613e90565b145b610de55760405162461bcd60e51b8152602060048201526018602482015277426f72696e674d6174683a204d756c204f766572666c6f7760401b6044820152606401610eb1565b6000816121a68185613e3d565b9150811015610de55760405162461bcd60e51b8152600401610eb190613eb2565b6000826121d48382613daa565b9150811115610de55760405162461bcd60e51b8152600401610eb190613ee4565b6002600054036122475760405162461bcd60e51b815260206004820152601f60248201527f5265656e7472616e637947756172643a207265656e7472616e742063616c6c006044820152606401610eb1565b6002600055565b6001600160a01b0386166000908152600d6020526040812080548892600160701b9091046001600160701b0316905b6004548110156124085760006004828154811061229c5761229c613d94565b6000918252602090912001546001600160a01b031690506122bf61162882612a89565b6001600160a01b03821660009081526005602052604090206001810180546001600160d01b0393909316600160281b02600160281b600160f81b031990931692909217909155546123209061168e9064ffffffffff610100909104166128d1565b6001600160a01b038281166000908152600560205260409020600101805464ffffffffff191664ffffffffff93909316929092179091558516156123f5576001600160a01b038116600090815260056020526040902054612396908690839060ff166117095786546001600160701b0316612c48565b6001600160a01b0386811660008181526009602090815260408083209487168084529482528083209590955560058152848220600101549282526008815284822093825292909252919020600160281b9091046001600160d01b031690555b508061240081613dd3565b91505061227d565b5050506001600160a01b0387166000908152600e60209081526040808320600d9092528220815460165492939192829190829060ff1680612486575061244e42896121c7565b8661245a600185613daa565b8154811061246a5761246a613d94565b600091825260209091200154600160e01b900463ffffffff1611155b1561250a5784546001600160701b038082169550600160701b9091041692506124ae82613625565b855463ffffffff91909116600160e01b026001600160e01b0390911617855587156125055761250288876124e3600186613daa565b815481106124f3576124f3613d94565b9060005260206000200161367b565b90505b612637565b8454600160e01b900463ffffffff16805b838110156126175761252d428b6121c7565b88828154811061253f5761253f613d94565b600091825260209091200154600160e01b900463ffffffff16116126175761259088828154811061257257612572613d94565b6000918252602090912001546001600160701b038881169116613710565b95506125cc8882815481106125a7576125a7613d94565b6000918252602090912001546001600160701b0387811691600160701b900416613710565b945089156125f7576125f46125ed8b8a84815481106124f3576124f3613d94565b8490612199565b92505b8161260181613f13565b925050808061260f90613dd3565b91505061251b565b50855463ffffffff909116600160e01b026001600160e01b039091161785555b6000846001600160701b03161161267f5760405162461bcd60e51b815260206004820152600c60248201526b6e6f20657870206c6f636b7360a01b6044820152606401610eb1565b8454612694906001600160701b031685613750565b85546001600160701b0319166001600160701b03918216178087556126c291600160701b9091041684613750565b8554600160701b600160e01b031916600160701b6001600160701b0392831602178655600a546126f39186166121c7565b600a55600b5461270c906001600160701b0385166121c7565b600b5580156127995761273161272182613790565b6001600160701b03861690613750565b60025490945061274b906001600160a01b03168a83612a6a565b8c6001600160a01b0316896001600160a01b03167f7e7ff29ed04cfb223bc9b02606f69520517c117ee82c9158ed2d96323c1ef3858360405161279091815260200190565b60405180910390a35b8b156127ff576127b38a856001600160701b03168d612fae565b6040516001600160701b03851681526001600160a01b038e16907fe2d155d9d74decc198a9a9b4f5bddb24ee0842ee745c9ce57e3573b971e50d9d9060200160405180910390a2612868565b60025461281f906001600160a01b03168b6001600160701b038716612a6a565b6040516001600160701b03851681526001600160a01b038e16907f7084f5476618d8e60b11ef0d7d3f06914655adb8793e28ff7f018d4c76d505d5906020015b60405180910390a25b50505050505050505050505050565b6001546001600160a01b0316331461129a5760405162461bcd60e51b815260206004820181905260248201527f4f776e61626c653a2063616c6c6572206973206e6f7420746865206f776e65726044820152606401610eb1565b6000610de542836137e9565b600180546001600160a01b038381166001600160a01b0319831681179093556040519116919082907f8be0079c531659141344cd1fd0a4f28419497f9722a3daafe3b4186f6b6457e090600090a35050565b8015806129a95750604051636eb1769f60e11b81523060048201526001600160a01b03838116602483015284169063dd62ed3e90604401602060405180830381865afa158015612983573d6000803e3d6000fd5b505050506040513d601f19601f820116820180604052508101906129a79190613f36565b155b612a145760405162461bcd60e51b815260206004820152603660248201527f5361666545524332303a20617070726f76652066726f6d206e6f6e2d7a65726f60448201527520746f206e6f6e2d7a65726f20616c6c6f77616e636560501b6064820152608401610eb1565b6112838363095ea7b360e01b8484604051602401612a33929190613e77565b60408051601f198184030181529190526020810180516001600160e01b03166001600160e01b0319909316929092179091526137ff565b6112838363a9059cbb60e01b8484604051602401612a33929190613e77565b6000600b54600003612ac457506001600160a01b0316600090815260056020526040902060010154600160281b90046001600160d01b031690565b6001600160a01b038216600090815260056020526040902054610de590612b629060ff16612af457600a54612af8565b600b545b6001600160a01b03851660009081526005602052604090208054600190910154612b5c91670de0b6b3a764000091610b88916001600160d01b03600160301b82041691839164ffffffffff91821691612b56916101009004166128d1565b906121c7565b906120cc565b6001600160a01b038416600090815260056020526040902060010154600160281b90046001600160d01b031690612199565b60006001600160d01b03821115612bed5760405162461bcd60e51b815260206004820152601c60248201527f426f72696e674d6174683a2075696e74323038204f766572666c6f77000000006044820152606401610eb1565b5090565b600064ffffffffff821115612bed5760405162461bcd60e51b815260206004820152601b60248201527f426f72696e674d6174683a2075696e743430204f766572666c6f7700000000006044820152606401610eb1565b6001600160a01b038084166000818152600960209081526040808320948716808452948252808320549383526008825280832094835293905291822054612cb69190612cb090670de0b6b3a764000090612b5c90612ca990612b568a612a89565b879061212e565b90612199565b949350505050565b6001600160a01b03821660009081526005602052604090208054610100900464ffffffffff164210612d2057612cfa6116288362093a806120cc565b81546001600160d01b0391909116600160301b0265ffffffffffff909116178155612d98565b8054600090612d3b90610100900464ffffffffff16426121c7565b8254909150600090612d5e908390600160301b90046001600160d01b031661212e565b9050612d7461162862093a80612b5c8785612199565b83546001600160d01b0391909116600160301b0265ffffffffffff90911617835550505b612da142612bf1565b60018201805464ffffffffff191664ffffffffff92909216919091179055612dcf61168e4262093a80612199565b815464ffffffffff919091166101000265ffffffffff00199091161790555050565b6040516001600160a01b0380851660248301528316604482015260648101829052612e299085906323b872dd60e01b90608401612a33565b50505050565b6000612e4262093a80610b8842826120cc565b600c80549192508290612e56600184613daa565b81548110612e6657612e66613d94565b600091825260209091200154600160e01b900463ffffffff161015612faa575b600c8054839190612e9990600190613daa565b81548110612ea957612ea9613d94565b600091825260209091200154600160e01b900463ffffffff1614612f86576000612f1762093a80600c6001600c80549050612ee49190613daa565b81548110612ef457612ef4613d94565b60009182526020909120015463ffffffff600160e01b9091048116919061219916565b60408051808201909152600080825263ffffffff92831660208301908152600c8054600181018255925291519151909216600160e01b026001600160e01b0391909116177fdf6966c971051c3d54ec59162606531493a51404a002842f56009d7e5cf4a8c79091015550612e86565b60135460115414612f98576013546011555b60125460105414612faa576012546010555b5050565b6001600160a01b0383166000908152600d6020526040812080548592600160701b9091046001600160701b0316905b60045481101561316857600060048281548110612ffc57612ffc613d94565b6000918252602090912001546001600160a01b0316905061301f61162882612a89565b6001600160a01b03821660009081526005602052604090206001810180546001600160d01b0393909316600160281b02600160281b600160f81b031990931692909217909155546130809061168e9064ffffffffff610100909104166128d1565b6001600160a01b038281166000908152600560205260409020600101805464ffffffffff191664ffffffffff9390931692909217909155851615613155576001600160a01b0381166000908152600560205260409020546130f6908690839060ff166117095786546001600160701b0316612c48565b6001600160a01b0386811660008181526009602090815260408083209487168084529482528083209590955560058152848220600101549282526008815284822093825292909252919020600160281b9091046001600160d01b031690555b508061316081613dd3565b915050612fdd565b505050600083116131ac5760405162461bcd60e51b815260206004820152600e60248201526d043616e6e6f74207374616b6520360941b6044820152606401610eb1565b6010548211156131ef5760405162461bcd60e51b815260206004820152600e60248201526d1bdd995c881b585e081cdc195b9960921b6044820152606401610eb1565b60165460ff161561322d5760405162461bcd60e51b815260206004820152600860248201526739b43aba3237bbb760c11b6044820152606401610eb1565b6001600160a01b0384166000908152600d6020526040902061324d612e2f565b600061325f612710612b5c878761212e565b905060006132886010546000146132785760105461327b565b60015b601154612b5c908861212e565b9050600061329e61329988856121c7565b613790565b905060006132bf6132996132b8612710612b5c8c8861212e565b8a90612199565b85549091506132d7906001600160701b031683613710565b85546001600160701b0319166001600160701b039182161780875561330591600160701b9091041682613710565b8554600160701b600160e01b031916600160701b6001600160701b0392831602178655600a54613336918416612199565b600a55600b5461334f906001600160701b038316612199565b600b55600061336562093a80610b8842826120cc565b9050600061338161337a62093a80600c613d7d565b8390612199565b6001600160a01b038c166000908152600e60205260409020549091508015806133f557506001600160a01b038c166000908152600e6020526040902082906133ca600184613daa565b815481106133da576133da613d94565b600091825260209091200154600160e01b900463ffffffff16105b15613497576001600160a01b038c166000908152600e6020908152604080832081516060810183526001600160701b03808b16825289811682860190815263ffffffff808a16958401958652845460018101865594885295909620915191909201805495519351909416600160e01b026001600160e01b03938316600160701b026001600160e01b031990961691909216179390931716919091179055613542565b6001600160a01b038c166000908152600e602052604081206134ba600184613daa565b815481106134ca576134ca613d94565b600091825260209091200180549091506134ed906001600160701b031687613710565b81546001600160701b0319166001600160701b039182161780835561351b91600160701b9091041686613710565b81546001600160701b0391909116600160701b02600160701b600160e01b03199091161790555b600c80546000919061355690600190613daa565b8154811061356657613566613d94565b60009182526020909120018054909150613592906001600160e01b03166001600160701b0387166138d1565b81546001600160e01b0319166001600160e01b039190911617815587156135d057600f546002546135d0916001600160a01b0391821691168a612a6a565b604080518d81526001600160701b0380891660208301528716918101919091526001600160a01b038e16907fb4caaf29adda3eefee3ad552a8e85058589bf834c7466cae4ee58787f70589ed9060600161285f565b600063ffffffff821115612bed5760405162461bcd60e51b815260206004820152601b60248201527f426f72696e674d6174683a2075696e743332204f766572666c6f7700000000006044820152606401610eb1565b60008061369362093a80610b8881612b5c42896121c7565b83549091506000906136c09062093a8090612b5c90859063ffffffff600160e01b9091048116906121c716565b905060006136e66136de6136d5846001613e3d565b6014549061212e565b6127106137e9565b85549091506137069061271090612b5c906001600160701b03168461212e565b9695505050505050565b60006001600160701b0382166137268385613f4f565b9150816001600160701b03161015610de55760405162461bcd60e51b8152600401610eb190613eb2565b60006001600160701b0383166137668385613f76565b9150816001600160701b03161115610de55760405162461bcd60e51b8152600401610eb190613ee4565b60006001600160701b03821115612bed5760405162461bcd60e51b815260206004820152601c60248201527f426f72696e674d6174683a2075696e74313132204f766572666c6f77000000006044820152606401610eb1565b60008183106137f85781612127565b5090919050565b6000613854826040518060400160405280602081526020017f5361666545524332303a206c6f772d6c6576656c2063616c6c206661696c6564815250856001600160a01b03166139119092919063ffffffff16565b80519091501561128357808060200190518101906138729190613f96565b6112835760405162461bcd60e51b815260206004820152602a60248201527f5361666545524332303a204552433230206f7065726174696f6e20646964206e6044820152691bdd081cdd58d8d9595960b21b6064820152608401610eb1565b60006001600160e01b0382166138e78385613fb3565b9150816001600160e01b03161015610de55760405162461bcd60e51b8152600401610eb190613eb2565b6060612cb6848460008585600080866001600160a01b031685876040516139389190613fd3565b60006040518083038185875af1925050503d8060008114613975576040519150601f19603f3d011682016040523d82523d6000602084013e61397a565b606091505b509150915061398b87838387613996565b979650505050505050565b60608315613a055782516000036139fe576001600160a01b0385163b6139fe5760405162461bcd60e51b815260206004820152601d60248201527f416464726573733a2063616c6c20746f206e6f6e2d636f6e74726163740000006044820152606401610eb1565b5081612cb6565b612cb68383815115613a1a5781518083602001fd5b8060405162461bcd60e51b8152600401610eb19190613b12565b80356001600160a01b0381168114613a4b57600080fd5b919050565b600060208284031215613a6257600080fd5b61212782613a34565b6000608082018683526020868185015260408681860152606060808187015283875180865260a088019150848901955060005b81811015613add57865180516001600160701b03908116855287820151168785015285015163ffffffff16858401529585019591830191600101613a9e565b50909b9a5050505050505050505050565b60005b83811015613b09578181015183820152602001613af1565b50506000910152565b6020815260008251806020840152613b31816040850160208701613aee565b601f01601f19169190910160400192915050565b60008060408385031215613b5857600080fd5b82359150613b6860208401613a34565b90509250929050565b8015158114610e0d57600080fd5b600060208284031215613b9157600080fd5b813561212781613b71565b600060208284031215613bae57600080fd5b5035919050565b60008060408385031215613bc857600080fd5b613bd183613a34565b9150613b6860208401613a34565b60008060408385031215613bf257600080fd5b50508035926020909101359150565b600080600060608486031215613c1657600080fd5b613c1f84613a34565b9250613c2d60208501613a34565b91506040840135613c3d81613b71565b809150509250925092565b600080600060608486031215613c5d57600080fd5b8335613c6881613b71565b925060208401359150613c7d60408501613a34565b90509250925092565b60008060408385031215613c9957600080fd5b613ca283613a34565b946020939093013593505050565b600080600060608486031215613cc557600080fd5b8335925060208401359150613c7d60408501613a34565b602080825282518282018190526000919060409081850190868401855b82811015613d2757815180516001600160a01b03168552860151868501529284019290850190600101613cf9565b5091979650505050505050565b600080600060608486031215613d4957600080fd5b613d5284613a34565b95602085013595506040909401359392505050565b634e487b7160e01b600052601160045260246000fd5b8082028115828204841417610de557610de5613d67565b634e487b7160e01b600052603260045260246000fd5b81810381811115610de557610de5613d67565b634e487b7160e01b600052604160045260246000fd5b600060018201613de557613de5613d67565b5060010190565b600181811c90821680613e0057607f821691505b602082108103613e2057634e487b7160e01b600052602260045260246000fd5b50919050565b600081613e3557613e35613d67565b506000190190565b80820180821115610de557610de5613d67565b6020808252600d908201526c6f766572206d6178207261746560981b604082015260600190565b6001600160a01b03929092168252602082015260400190565b600082613ead57634e487b7160e01b600052601260045260246000fd5b500490565b602080825260189082015277426f72696e674d6174683a20416464204f766572666c6f7760401b604082015260600190565b602080825260159082015274426f72696e674d6174683a20556e646572666c6f7760581b604082015260600190565b600063ffffffff808316818103613f2c57613f2c613d67565b6001019392505050565b600060208284031215613f4857600080fd5b5051919050565b6001600160701b03818116838216019080821115613f6f57613f6f613d67565b5092915050565b6001600160701b03828116828216039080821115613f6f57613f6f613d67565b600060208284031215613fa857600080fd5b815161212781613b71565b6001600160e01b03818116838216019080821115613f6f57613f6f613d67565b60008251613fe5818460208701613aee565b919091019291505056fea26469706673582212203aad01dba5dc48766fc7415fd1afe5591931f94dc0dd81a70a2c291091709c9464736f6c63430008110033",
  "linkReferences": {},
  "deployedLinkReferences": {}
}