{
  "_format": "hh-sol-artifact-1",
  "contractName": "PopLocker",
  "sourceName": "contracts/core/dao/PopLocker.sol",
  "abi": [
    {
      "inputs": [
        {
          "internalType": "contract IERC20",
          "name": "_stakingToken",
          "type": "address"
        },
        {
          "internalType": "contract IRewardsEscrow",
          "name": "_rewardsEscrow",
          "type": "address"
        }
      ],
      "stateMutability": "nonpayable",
      "type": "constructor"
    },
    {
      "anonymous": false,
      "inputs": [
        {
          "indexed": false,
          "internalType": "uint256",
          "name": "_previousDuration",
          "type": "uint256"
        },
        {
          "indexed": false,
          "internalType": "uint256",
          "name": "_newDuration",
          "type": "uint256"
        }
      ],
      "name": "EscrowDurationUpdated",
      "type": "event"
    },
    {
      "anonymous": false,
      "inputs": [
        {
          "indexed": true,
          "internalType": "address",
          "name": "_user",
          "type": "address"
        },
        {
          "indexed": true,
          "internalType": "address",
          "name": "_kicked",
          "type": "address"
        },
        {
          "indexed": false,
          "internalType": "uint256",
          "name": "_reward",
          "type": "uint256"
        }
      ],
      "name": "KickReward",
      "type": "event"
    },
    {
      "anonymous": false,
      "inputs": [
        {
          "indexed": true,
          "internalType": "address",
          "name": "previousOwner",
          "type": "address"
        },
        {
          "indexed": true,
          "internalType": "address",
          "name": "newOwner",
          "type": "address"
        }
      ],
      "name": "OwnershipTransferred",
      "type": "event"
    },
    {
      "anonymous": false,
      "inputs": [
        {
          "indexed": false,
          "internalType": "address",
          "name": "_token",
          "type": "address"
        },
        {
          "indexed": false,
          "internalType": "uint256",
          "name": "_amount",
          "type": "uint256"
        }
      ],
      "name": "Recovered",
      "type": "event"
    },
    {
      "anonymous": false,
      "inputs": [
        {
          "indexed": true,
          "internalType": "address",
          "name": "_user",
          "type": "address"
        },
        {
          "indexed": false,
          "internalType": "uint256",
          "name": "_amount",
          "type": "uint256"
        }
      ],
      "name": "Relocked",
      "type": "event"
    },
    {
      "anonymous": false,
      "inputs": [
        {
          "indexed": true,
          "internalType": "address",
          "name": "_token",
          "type": "address"
        },
        {
          "indexed": false,
          "internalType": "uint256",
          "name": "_reward",
          "type": "uint256"
        }
      ],
      "name": "RewardAdded",
      "type": "event"
    },
    {
      "anonymous": false,
      "inputs": [
        {
          "indexed": true,
          "internalType": "address",
          "name": "_user",
          "type": "address"
        },
        {
          "indexed": true,
          "internalType": "address",
          "name": "_rewardsToken",
          "type": "address"
        },
        {
          "indexed": false,
          "internalType": "uint256",
          "name": "_reward",
          "type": "uint256"
        }
      ],
      "name": "RewardPaid",
      "type": "event"
    },
    {
      "anonymous": false,
      "inputs": [
        {
          "indexed": false,
          "internalType": "address",
          "name": "_previous",
          "type": "address"
        },
        {
          "indexed": false,
          "internalType": "address",
          "name": "_new",
          "type": "address"
        }
      ],
      "name": "RewardsEscrowUpdated",
      "type": "event"
    },
    {
      "anonymous": false,
      "inputs": [
        {
          "indexed": true,
          "internalType": "address",
          "name": "_user",
          "type": "address"
        },
        {
          "indexed": false,
          "internalType": "uint256",
          "name": "_paidAmount",
          "type": "uint256"
        },
        {
          "indexed": false,
          "internalType": "uint256",
          "name": "_lockedAmount",
          "type": "uint256"
        },
        {
          "indexed": false,
          "internalType": "uint256",
          "name": "_boostedAmount",
          "type": "uint256"
        }
      ],
      "name": "Staked",
      "type": "event"
    },
    {
      "anonymous": false,
      "inputs": [
        {
          "indexed": true,
          "internalType": "address",
          "name": "_user",
          "type": "address"
        },
        {
          "indexed": false,
          "internalType": "uint256",
          "name": "_amount",
          "type": "uint256"
        }
      ],
      "name": "Withdrawn",
      "type": "event"
    },
    {
      "inputs": [
        {
          "internalType": "address",
          "name": "_rewardsToken",
          "type": "address"
        },
        {
          "internalType": "address",
          "name": "_distributor",
          "type": "address"
        },
        {
          "internalType": "bool",
          "name": "_useBoost",
          "type": "bool"
        }
      ],
      "name": "addReward",
      "outputs": [],
      "stateMutability": "nonpayable",
      "type": "function"
    },
    {
      "inputs": [
        {
          "internalType": "address",
          "name": "_rewardsToken",
          "type": "address"
        },
        {
          "internalType": "address",
          "name": "_distributor",
          "type": "address"
        },
        {
          "internalType": "bool",
          "name": "_approved",
          "type": "bool"
        }
      ],
      "name": "approveRewardDistributor",
      "outputs": [],
      "stateMutability": "nonpayable",
      "type": "function"
    },
    {
      "inputs": [
        {
          "internalType": "uint256",
          "name": "_epoch",
          "type": "uint256"
        },
        {
          "internalType": "address",
          "name": "_user",
          "type": "address"
        }
      ],
      "name": "balanceAtEpochOf",
      "outputs": [
        {
          "internalType": "uint256",
          "name": "amount",
          "type": "uint256"
        }
      ],
      "stateMutability": "view",
      "type": "function"
    },
    {
      "inputs": [
        {
          "internalType": "address",
          "name": "_user",
          "type": "address"
        }
      ],
      "name": "balanceOf",
      "outputs": [
        {
          "internalType": "uint256",
          "name": "amount",
          "type": "uint256"
        }
      ],
      "stateMutability": "view",
      "type": "function"
    },
    {
      "inputs": [
        {
          "internalType": "address",
          "name": "",
          "type": "address"
        }
      ],
      "name": "balances",
      "outputs": [
        {
          "internalType": "uint112",
          "name": "locked",
          "type": "uint112"
        },
        {
          "internalType": "uint112",
          "name": "boosted",
          "type": "uint112"
        },
        {
          "internalType": "uint32",
          "name": "nextUnlockIndex",
          "type": "uint32"
        }
      ],
      "stateMutability": "view",
      "type": "function"
    },
    {
      "inputs": [],
      "name": "boostPayment",
      "outputs": [
        {
          "internalType": "address",
          "name": "",
          "type": "address"
        }
      ],
      "stateMutability": "view",
      "type": "function"
    },
    {
      "inputs": [],
      "name": "boostRate",
      "outputs": [
        {
          "internalType": "uint256",
          "name": "",
          "type": "uint256"
        }
      ],
      "stateMutability": "view",
      "type": "function"
    },
    {
      "inputs": [],
      "name": "boostedSupply",
      "outputs": [
        {
          "internalType": "uint256",
          "name": "",
          "type": "uint256"
        }
      ],
      "stateMutability": "view",
      "type": "function"
    },
    {
      "inputs": [],
      "name": "checkpointEpoch",
      "outputs": [],
      "stateMutability": "nonpayable",
      "type": "function"
    },
    {
      "inputs": [
        {
          "internalType": "address",
          "name": "_account",
          "type": "address"
        }
      ],
      "name": "claimableRewards",
      "outputs": [
        {
          "components": [
            {
              "internalType": "address",
              "name": "token",
              "type": "address"
            },
            {
              "internalType": "uint256",
              "name": "amount",
              "type": "uint256"
            }
          ],
          "internalType": "struct PopLocker.EarnedData[]",
          "name": "userRewards",
          "type": "tuple[]"
        }
      ],
      "stateMutability": "view",
      "type": "function"
    },
    {
      "inputs": [],
      "name": "decimals",
      "outputs": [
        {
          "internalType": "uint8",
          "name": "",
          "type": "uint8"
        }
      ],
      "stateMutability": "view",
      "type": "function"
    },
    {
      "inputs": [],
      "name": "denominator",
      "outputs": [
        {
          "internalType": "uint256",
          "name": "",
          "type": "uint256"
        }
      ],
      "stateMutability": "view",
      "type": "function"
    },
    {
      "inputs": [],
      "name": "epochCount",
      "outputs": [
        {
          "internalType": "uint256",
          "name": "",
          "type": "uint256"
        }
      ],
      "stateMutability": "view",
      "type": "function"
    },
    {
      "inputs": [
        {
          "internalType": "uint256",
          "name": "",
          "type": "uint256"
        }
      ],
      "name": "epochs",
      "outputs": [
        {
          "internalType": "uint224",
          "name": "supply",
          "type": "uint224"
        },
        {
          "internalType": "uint32",
          "name": "date",
          "type": "uint32"
        }
      ],
      "stateMutability": "view",
      "type": "function"
    },
    {
      "inputs": [],
      "name": "escrowDuration",
      "outputs": [
        {
          "internalType": "uint256",
          "name": "",
          "type": "uint256"
        }
      ],
      "stateMutability": "view",
      "type": "function"
    },
    {
      "inputs": [
        {
          "internalType": "uint256",
          "name": "_time",
          "type": "uint256"
        }
      ],
      "name": "findEpochId",
      "outputs": [
        {
          "internalType": "uint256",
          "name": "epoch",
          "type": "uint256"
        }
      ],
      "stateMutability": "view",
      "type": "function"
    },
    {
      "inputs": [
        {
          "internalType": "address",
          "name": "_account",
          "type": "address"
        }
      ],
      "name": "getReward",
      "outputs": [],
      "stateMutability": "nonpayable",
      "type": "function"
    },
    {
      "inputs": [
        {
          "internalType": "address",
          "name": "_rewardsToken",
          "type": "address"
        }
      ],
      "name": "getRewardForDuration",
      "outputs": [
        {
          "internalType": "uint256",
          "name": "",
          "type": "uint256"
        }
      ],
      "stateMutability": "view",
      "type": "function"
    },
    {
      "inputs": [],
      "name": "isShutdown",
      "outputs": [
        {
          "internalType": "bool",
          "name": "",
          "type": "bool"
        }
      ],
      "stateMutability": "view",
      "type": "function"
    },
    {
      "inputs": [
        {
          "internalType": "address",
          "name": "_account",
          "type": "address"
        }
      ],
      "name": "kickExpiredLocks",
      "outputs": [],
      "stateMutability": "nonpayable",
      "type": "function"
    },
    {
      "inputs": [],
      "name": "kickRewardEpochDelay",
      "outputs": [
        {
          "internalType": "uint256",
          "name": "",
          "type": "uint256"
        }
      ],
      "stateMutability": "view",
      "type": "function"
    },
    {
      "inputs": [],
      "name": "kickRewardPerEpoch",
      "outputs": [
        {
          "internalType": "uint256",
          "name": "",
          "type": "uint256"
        }
      ],
      "stateMutability": "view",
      "type": "function"
    },
    {
      "inputs": [
        {
          "internalType": "address",
          "name": "_rewardsToken",
          "type": "address"
        }
      ],
      "name": "lastTimeRewardApplicable",
      "outputs": [
        {
          "internalType": "uint256",
          "name": "",
          "type": "uint256"
        }
      ],
      "stateMutability": "view",
      "type": "function"
    },
    {
      "inputs": [
        {
          "internalType": "address",
          "name": "_account",
          "type": "address"
        },
        {
          "internalType": "uint256",
          "name": "_amount",
          "type": "uint256"
        },
        {
          "internalType": "uint256",
          "name": "_spendRatio",
          "type": "uint256"
        }
      ],
      "name": "lock",
      "outputs": [],
      "stateMutability": "nonpayable",
      "type": "function"
    },
    {
      "inputs": [],
      "name": "lockDuration",
      "outputs": [
        {
          "internalType": "uint256",
          "name": "",
          "type": "uint256"
        }
      ],
      "stateMutability": "view",
      "type": "function"
    },
    {
      "inputs": [
        {
          "internalType": "address",
          "name": "_user",
          "type": "address"
        }
      ],
      "name": "lockedBalanceOf",
      "outputs": [
        {
          "internalType": "uint256",
          "name": "amount",
          "type": "uint256"
        }
      ],
      "stateMutability": "view",
      "type": "function"
    },
    {
      "inputs": [
        {
          "internalType": "address",
          "name": "_user",
          "type": "address"
        }
      ],
      "name": "lockedBalances",
      "outputs": [
        {
          "internalType": "uint256",
          "name": "total",
          "type": "uint256"
        },
        {
          "internalType": "uint256",
          "name": "unlockable",
          "type": "uint256"
        },
        {
          "internalType": "uint256",
          "name": "locked",
          "type": "uint256"
        },
        {
          "components": [
            {
              "internalType": "uint112",
              "name": "amount",
              "type": "uint112"
            },
            {
              "internalType": "uint112",
              "name": "boosted",
              "type": "uint112"
            },
            {
              "internalType": "uint32",
              "name": "unlockTime",
              "type": "uint32"
            }
          ],
          "internalType": "struct PopLocker.LockedBalance[]",
          "name": "lockData",
          "type": "tuple[]"
        }
      ],
      "stateMutability": "view",
      "type": "function"
    },
    {
      "inputs": [],
      "name": "lockedSupply",
      "outputs": [
        {
          "internalType": "uint256",
          "name": "",
          "type": "uint256"
        }
      ],
      "stateMutability": "view",
      "type": "function"
    },
    {
      "inputs": [],
      "name": "maximumBoostPayment",
      "outputs": [
        {
          "internalType": "uint256",
          "name": "",
          "type": "uint256"
        }
      ],
      "stateMutability": "view",
      "type": "function"
    },
    {
      "inputs": [],
      "name": "name",
      "outputs": [
        {
          "internalType": "string",
          "name": "",
          "type": "string"
        }
      ],
      "stateMutability": "view",
      "type": "function"
    },
    {
      "inputs": [],
      "name": "nextBoostRate",
      "outputs": [
        {
          "internalType": "uint256",
          "name": "",
          "type": "uint256"
        }
      ],
      "stateMutability": "view",
      "type": "function"
    },
    {
      "inputs": [],
      "name": "nextMaximumBoostPayment",
      "outputs": [
        {
          "internalType": "uint256",
          "name": "",
          "type": "uint256"
        }
      ],
      "stateMutability": "view",
      "type": "function"
    },
    {
      "inputs": [
        {
          "internalType": "address",
          "name": "_rewardsToken",
          "type": "address"
        },
        {
          "internalType": "uint256",
          "name": "_reward",
          "type": "uint256"
        }
      ],
      "name": "notifyRewardAmount",
      "outputs": [],
      "stateMutability": "nonpayable",
      "type": "function"
    },
    {
      "inputs": [],
      "name": "owner",
      "outputs": [
        {
          "internalType": "address",
          "name": "",
          "type": "address"
        }
      ],
      "stateMutability": "view",
      "type": "function"
    },
    {
      "inputs": [
        {
          "internalType": "bool",
          "name": "_relock",
          "type": "bool"
        }
      ],
      "name": "processExpiredLocks",
      "outputs": [],
      "stateMutability": "nonpayable",
      "type": "function"
    },
    {
      "inputs": [
        {
          "internalType": "bool",
          "name": "_relock",
          "type": "bool"
        },
        {
          "internalType": "uint256",
          "name": "_spendRatio",
          "type": "uint256"
        },
        {
          "internalType": "address",
          "name": "_withdrawTo",
          "type": "address"
        }
      ],
      "name": "processExpiredLocks",
      "outputs": [],
      "stateMutability": "nonpayable",
      "type": "function"
    },
    {
      "inputs": [
        {
          "internalType": "address",
          "name": "_tokenAddress",
          "type": "address"
        },
        {
          "internalType": "uint256",
          "name": "_tokenAmount",
          "type": "uint256"
        }
      ],
      "name": "recoverERC20",
      "outputs": [],
      "stateMutability": "nonpayable",
      "type": "function"
    },
    {
      "inputs": [],
      "name": "renounceOwnership",
      "outputs": [],
      "stateMutability": "nonpayable",
      "type": "function"
    },
    {
      "inputs": [
        {
          "internalType": "address",
          "name": "",
          "type": "address"
        }
      ],
      "name": "rewardData",
      "outputs": [
        {
          "internalType": "bool",
          "name": "useBoost",
          "type": "bool"
        },
        {
          "internalType": "uint40",
          "name": "periodFinish",
          "type": "uint40"
        },
        {
          "internalType": "uint208",
          "name": "rewardRate",
          "type": "uint208"
        },
        {
          "internalType": "uint40",
          "name": "lastUpdateTime",
          "type": "uint40"
        },
        {
          "internalType": "uint208",
          "name": "rewardPerTokenStored",
          "type": "uint208"
        }
      ],
      "stateMutability": "view",
      "type": "function"
    },
    {
      "inputs": [
        {
          "internalType": "address",
          "name": "",
          "type": "address"
        },
        {
          "internalType": "address",
          "name": "",
          "type": "address"
        }
      ],
      "name": "rewardDistributors",
      "outputs": [
        {
          "internalType": "bool",
          "name": "",
          "type": "bool"
        }
      ],
      "stateMutability": "view",
      "type": "function"
    },
    {
      "inputs": [
        {
          "internalType": "address",
          "name": "_rewardsToken",
          "type": "address"
        }
      ],
      "name": "rewardPerToken",
      "outputs": [
        {
          "internalType": "uint256",
          "name": "",
          "type": "uint256"
        }
      ],
      "stateMutability": "view",
      "type": "function"
    },
    {
      "inputs": [
        {
          "internalType": "uint256",
          "name": "",
          "type": "uint256"
        }
      ],
      "name": "rewardTokens",
      "outputs": [
        {
          "internalType": "address",
          "name": "",
          "type": "address"
        }
      ],
      "stateMutability": "view",
      "type": "function"
    },
    {
      "inputs": [
        {
          "internalType": "address",
          "name": "_user",
          "type": "address"
        }
      ],
      "name": "rewardWeightOf",
      "outputs": [
        {
          "internalType": "uint256",
          "name": "amount",
          "type": "uint256"
        }
      ],
      "stateMutability": "view",
      "type": "function"
    },
    {
      "inputs": [
        {
          "internalType": "address",
          "name": "",
          "type": "address"
        },
        {
          "internalType": "address",
          "name": "",
          "type": "address"
        }
      ],
      "name": "rewards",
      "outputs": [
        {
          "internalType": "uint256",
          "name": "",
          "type": "uint256"
        }
      ],
      "stateMutability": "view",
      "type": "function"
    },
    {
      "inputs": [],
      "name": "rewardsDuration",
      "outputs": [
        {
          "internalType": "uint256",
          "name": "",
          "type": "uint256"
        }
      ],
      "stateMutability": "view",
      "type": "function"
    },
    {
      "inputs": [],
      "name": "rewardsEscrow",
      "outputs": [
        {
          "internalType": "contract IRewardsEscrow",
          "name": "",
          "type": "address"
        }
      ],
      "stateMutability": "view",
      "type": "function"
    },
    {
      "inputs": [],
      "name": "setApprovals",
      "outputs": [],
      "stateMutability": "nonpayable",
      "type": "function"
    },
    {
      "inputs": [
        {
          "internalType": "uint256",
          "name": "_max",
          "type": "uint256"
        },
        {
          "internalType": "uint256",
          "name": "_rate",
          "type": "uint256"
        },
        {
          "internalType": "address",
          "name": "_receivingAddress",
          "type": "address"
        }
      ],
      "name": "setBoost",
      "outputs": [],
      "stateMutability": "nonpayable",
      "type": "function"
    },
    {
      "inputs": [
        {
          "internalType": "uint256",
          "name": "duration",
          "type": "uint256"
        }
      ],
      "name": "setEscrowDuration",
      "outputs": [],
      "stateMutability": "nonpayable",
      "type": "function"
    },
    {
      "inputs": [
        {
          "internalType": "uint256",
          "name": "_rate",
          "type": "uint256"
        },
        {
          "internalType": "uint256",
          "name": "_delay",
          "type": "uint256"
        }
      ],
      "name": "setKickIncentive",
      "outputs": [],
      "stateMutability": "nonpayable",
      "type": "function"
    },
    {
      "inputs": [
        {
          "internalType": "address",
          "name": "_rewardsEscrow",
          "type": "address"
        }
      ],
      "name": "setRewardsEscrow",
      "outputs": [],
      "stateMutability": "nonpayable",
      "type": "function"
    },
    {
      "inputs": [],
      "name": "shutdown",
      "outputs": [],
      "stateMutability": "nonpayable",
      "type": "function"
    },
    {
      "inputs": [],
      "name": "stakingToken",
      "outputs": [
        {
          "internalType": "contract IERC20",
          "name": "",
          "type": "address"
        }
      ],
      "stateMutability": "view",
      "type": "function"
    },
    {
      "inputs": [],
      "name": "symbol",
      "outputs": [
        {
          "internalType": "string",
          "name": "",
          "type": "string"
        }
      ],
      "stateMutability": "view",
      "type": "function"
    },
    {
      "inputs": [],
      "name": "totalSupply",
      "outputs": [
        {
          "internalType": "uint256",
          "name": "supply",
          "type": "uint256"
        }
      ],
      "stateMutability": "view",
      "type": "function"
    },
    {
      "inputs": [
        {
          "internalType": "uint256",
          "name": "_epoch",
          "type": "uint256"
        }
      ],
      "name": "totalSupplyAtEpoch",
      "outputs": [
        {
          "internalType": "uint256",
          "name": "supply",
          "type": "uint256"
        }
      ],
      "stateMutability": "view",
      "type": "function"
    },
    {
      "inputs": [
        {
          "internalType": "address",
          "name": "newOwner",
          "type": "address"
        }
      ],
      "name": "transferOwnership",
      "outputs": [],
      "stateMutability": "nonpayable",
      "type": "function"
    },
    {
      "inputs": [
        {
          "internalType": "address",
          "name": "",
          "type": "address"
        },
        {
          "internalType": "uint256",
          "name": "",
          "type": "uint256"
        }
      ],
      "name": "userLocks",
      "outputs": [
        {
          "internalType": "uint112",
          "name": "amount",
          "type": "uint112"
        },
        {
          "internalType": "uint112",
          "name": "boosted",
          "type": "uint112"
        },
        {
          "internalType": "uint32",
          "name": "unlockTime",
          "type": "uint32"
        }
      ],
      "stateMutability": "view",
      "type": "function"
    },
    {
      "inputs": [
        {
          "internalType": "address",
          "name": "",
          "type": "address"
        },
        {
          "internalType": "address",
          "name": "",
          "type": "address"
        }
      ],
      "name": "userRewardPerTokenPaid",
      "outputs": [
        {
          "internalType": "uint256",
          "name": "",
          "type": "uint256"
        }
      ],
      "stateMutability": "view",
      "type": "function"
    }
  ],
  "bytecode": "0x60a0604052600060108190556127106011819055601291909155601355606460145560046015556016805460ff191690553480156200003d57600080fd5b506040516200452938038062004529833981016040819052620000609162000350565b600160009081556200007162000233565b600180546001600160a01b0319166001600160a01b038316908117909155604051919250906000907f8be0079c531659141344cd1fd0a4f28419497f9722a3daafe3b4186f6b6457e0908290a3506040805180820190915260158082527f566f7465204c6f636b656420504f5020546f6b656e000000000000000000000060209092019182526200010591601791620002b4565b50604080518082019091526005808252640766c504f560dc1b60209092019182526200013491601891620002b4565b50600960f91b608052600280546001600160a01b03199081166001600160a01b0385811691909117909255600380549091169183169190911790556301e133806006556000620001ad62093a8062000199428262000237602090811b6200213317901c565b6200027860201b620021651790919060201c565b60408051808201909152600080825263ffffffff92831660208301908152600c8054600181018255925291517fdf6966c971051c3d54ec59162606531493a51404a002842f56009d7e5cf4a8c790910180549251909316600160e01b026001600160e01b039182166001600160e01b031990931692909217161790555062000415915050565b3390565b6000808211620002645760405162461bcd60e51b81526004016200025b906200038e565b60405180910390fd5b8183816200026e57fe5b0490505b92915050565b600081158062000295575050808202828282816200029257fe5b04145b620002725760405162461bcd60e51b81526004016200025b90620003c5565b828054600181600116156101000203166002900490600052602060002090601f016020900481019282601f10620002f757805160ff191683800117855562000327565b8280016001018555821562000327579182015b82811115620003275782518255916020019190600101906200030a565b506200033592915062000339565b5090565b5b808211156200033557600081556001016200033a565b6000806040838503121562000363578182fd5b82516200037081620003fc565b60208401519092506200038381620003fc565b809150509250929050565b6020808252601c908201527f426f72696e674d6174683a206469766973696f6e206279207a65726f00000000604082015260600190565b60208082526018908201527f426f72696e674d6174683a204d756c204f766572666c6f770000000000000000604082015260600190565b6001600160a01b03811681146200041257600080fd5b50565b60805160f81c6140f66200043360003980610c1652506140f66000f3fe608060405234801561001057600080fd5b50600436106103195760003560e01c80638757b15b116101a9578063c00007b0116100ef578063e432488d1161009d578063e432488d14610681578063e465fe8014610689578063e70b9e271461069c578063f1229777146106af578063f2157932146106c2578063f2fde38b146106ca578063f8261597146106dd578063fc0e74d1146106f057610319565b8063c00007b0146105f7578063c1009f4b1461060a578063c6b61e4c14610612578063ca5c7b9114610633578063d3c45c761461063b578063dc01f60d1461064e578063e2ab691d1461066e57610319565b8063a81653c911610157578063a81653c91461058b578063a98e05bb1461059e578063aa33fedb146105a6578063b187bc22146105b9578063b5ed7a66146105c1578063b66503cf146105c9578063bcd11014146105dc578063bf86d690146105ef57610319565b80638757b15b1461053d578063887c7dc5146105455780638980f11f146105585780638da5cb5b1461056b57806395d89b411461057357806396ce07951461057b5780639bdc74671461058357610319565b806357c2c2ba1161026e57806370b36d791161021c57806370b36d79146104cf57806370e664cd146104e2578063715018a6146104f557806372f702f3146104fd57806375aadf61146105125780637bb7bed11461051a5780637bd48c7c1461052d578063829965cc1461053557610319565b806357c2c2ba14610455578063593557361461045d578063638634ee1461047057806363f1c8e2146104835780636724c910146104965780637035ab98146104a957806370a08231146104bc57610319565b80632fe87108116102cb5780632fe87108146103b9578063312ff839146103cc578063313ce567146103e1578063321bc347146103f6578063386a95251461040957806339fc97131461041157806348e5d9f81461043157610319565b8063045544431461031e5780630483a7f61461033c57806306fdde031461035f57806318160ddd146103745780631c6073951461037c57806327e235e31461038f5780632e9564e4146103b1575b600080fd5b6103266106f8565b6040516103339190613fa8565b60405180910390f35b61034f61034a366004613677565b6106ff565b6040516103339493929190613fde565b6103676108c5565b60405161033391906139c5565b61032661095b565b61032661038a366004613813565b610a31565b6103a261039d366004613677565b610b5d565b60405161033393929190613f60565b610326610b93565b6103266103c7366004613677565b610b99565b6103df6103da36600461376d565b610bc8565b005b6103e9610c14565b6040516103339190614060565b6103df6104043660046137e3565b610c38565b610326610cb7565b61042461041f366004613692565b610cbe565b6040516103339190613984565b61044461043f366004613677565b610cde565b60405161033395949392919061398f565b610326610d2a565b61032661046b366004613677565b610d30565b61032661047e366004613677565b610d54565b6103df610491366004613836565b610d82565b6103df6104a43660046136c6565b610e0f565b6103266104b7366004613692565b610ec7565b6103266104ca366004613677565b610ee4565b6103266104dd3660046137e3565b611008565b6103df6104f03660046137a5565b61112a565b6103df61116e565b6105056111f7565b60405161033391906138a0565b610326611206565b6105056105283660046137e3565b61120c565b610326611233565b610326611239565b6103df61123f565b6103df610553366004613677565b61127e565b6103df610566366004613710565b6112cf565b6105056113d5565b6103676113e4565b610326611445565b61032661144b565b6103df610599366004613857565b611451565b610505611522565b6103a26105b4366004613710565b611531565b61032661157d565b610326611583565b6103df6105d7366004613710565b611589565b6103266105ea366004613677565b61181f565b610424611855565b6103df610605366004613677565b61185e565b6103df611ba1565b6106256106203660046137e3565b611ba9565b604051610333929190613f89565b610326611bde565b6103df6106493660046136c6565b611be4565b61066161065c366004613677565b611d09565b604051610333919061392c565b6103df61067c36600461373a565b611e4a565b610326611e95565b6103df610697366004613677565b611e9b565b6103266106aa366004613692565b611f43565b6103266106bd366004613677565b611f60565b610505611f6b565b6103df6106d8366004613677565b611f7a565b6103266106eb3660046137e3565b61203b565b6103df6120e5565b626ebe0081565b6001600160a01b0381166000908152600e60209081526040808320600d9092528220805483928392606092600160e01b900463ffffffff1684815b84548110156108ad574285828154811061075057fe5b600091825260209091200154600160e01b900463ffffffff16111561087757816107cd57845481900367ffffffffffffffff8111801561078f57600080fd5b506040519080825280602002602001820160405280156107c957816020015b6107b6613629565b8152602001906001900390816107ae5790505b5095505b8481815481106107d957fe5b60009182526020918290206040805160608101825291909201546001600160701b038082168352600160701b8204169382019390935263ffffffff600160e01b9093049290921690820152865187908490811061083257fe5b6020026020010181905250818060010192505061087085828154811061085457fe5b60009182526020909120015488906001600160701b031661219c565b96506108a5565b6108a285828154811061088657fe5b60009182526020909120015489906001600160701b031661219c565b97505b60010161073a565b505090546001600160701b0316955050509193509193565b60178054604080516020601f60026000196101006001881615020190951694909404938401819004810282018101909252828152606093909290918301828280156109515780601f1061092657610100808354040283529160200191610951565b820191906000526020600020905b81548152906001019060200180831161093457829003601f168201915b5050505050905090565b60008061097562093a8061096f4282612133565b90612165565b9050600061098682626ebe006121bf565b600c80549192508390600019830183811061099d57fe5b600091825260209091200154600160e01b900463ffffffff1614156109c157600019015b60001981015b6001810115610a2a576000600c82815481106109df57fe5b60009182526020909120018054909150600160e01b900463ffffffff168410610a085750610a2a565b8054610a1e9087906001600160e01b031661219c565b955050600019016109c7565b5050505090565b6001600160a01b0381166000908152600e60205260408120600c805483919086908110610a5a57fe5b600091825260208220015463ffffffff600160e01b90910481169250610a87908390626ebe00906121bf16565b90506000610a9c62093a8061096f4282612133565b8454909150600019015b6001810115610b51576000610aea62093a80600c02878481548110610ac757fe5b60009182526020909120015463ffffffff600160e01b909104811691906121bf16565b9050848111158015610afb57508281105b15610b475783811115610b4157610b3a868381548110610b1757fe5b6000918252602090912001548890600160701b90046001600160701b031661219c565b9650610b47565b50610b51565b5060001901610aa6565b50505050505b92915050565b600d602052600090815260409020546001600160701b0380821691600160701b810490911690600160e01b900463ffffffff1683565b60115481565b6001600160a01b0381166000908152600d6020526040902054600160701b90046001600160701b03165b919050565b60026000541415610bf45760405162461bcd60e51b8152600401610beb90613e56565b60405180910390fd5b6002600081905550610c0c33826000333360006121e2565b506001600055565b7f000000000000000000000000000000000000000000000000000000000000000090565b610c4061278d565b6001600160a01b0316610c516113d5565b6001600160a01b031614610c775760405162461bcd60e51b8152600401610beb90613c7f565b7f21c46a061cb9c101660f51f5c9fc9768c5f6e8cf5dea8ca5cd03cb6db13956f360065482604051610caa929190613fd0565b60405180910390a1600655565b62093a8081565b600760209081526000928352604080842090915290825290205460ff1681565b6005602052600090815260409020805460019091015460ff82169164ffffffffff61010082048116926001600160d01b03600160301b90930483169291811691600160281b9091041685565b60065481565b6001600160a01b03166000908152600d60205260409020546001600160701b031690565b6001600160a01b038116600090815260056020526040812054610b5790610100900464ffffffffff16612791565b610d8a61278d565b6001600160a01b0316610d9b6113d5565b6001600160a01b031614610dc15760405162461bcd60e51b8152600401610beb90613c7f565b6101f4821115610de35760405162461bcd60e51b8152600401610beb90613b55565b6002811015610e045760405162461bcd60e51b8152600401610beb90613d22565b601491909155601555565b610e1761278d565b6001600160a01b0316610e286113d5565b6001600160a01b031614610e4e5760405162461bcd60e51b8152600401610beb90613c7f565b6001600160a01b03831660009081526005602052604090206001015464ffffffffff16610e8d5760405162461bcd60e51b8152600401610beb90613cb4565b6001600160a01b03928316600090815260076020908152604080832094909516825292909252919020805460ff1916911515919091179055565b600860209081526000928352604080842090915290825290205481565b6001600160a01b0381166000908152600e60209081526040808320600d90925290912080548254600160701b82046001600160701b0316939291600160e01b900463ffffffff1690815b81811015610fa75742858281548110610f4357fe5b600091825260209091200154600160e01b900463ffffffff1611610f9a57610f93858281548110610f7057fe5b6000918252602090912001548790600160701b90046001600160701b03166121bf565b9550610f9f565b610fa7565b600101610f2e565b506000610fbb62093a8061096f4282612133565b9050600082118015610fe4575080610fe262093a80600c02876001860381548110610ac757fe5b145b15610ffe57610ffb856001840381548110610f7057fe5b95505b5050505050919050565b60008061104962093a8061096f62093a80600c878154811061102657fe5b60009182526020909120015463ffffffff600160e01b9091048116919061213316565b9050600061105a82626ebe006121bf565b9050600061106f62093a8061096f4282612133565b905080600c868154811061107f57fe5b600091825260209091200154600160e01b900463ffffffff1614156110a657600019909401935b845b6001810115611121576000600c82815481106110c057fe5b60009182526020909120018054909150600160e01b900463ffffffff1684106110e95750611121565b611115600c83815481106110f957fe5b60009182526020909120015487906001600160e01b031661219c565b955050600019016110a8565b50505050919050565b6002600054141561114d5760405162461bcd60e51b8152600401610beb90613e56565b6002600081905550611164338484843360006121e2565b5050600160005550565b61117661278d565b6001600160a01b03166111876113d5565b6001600160a01b0316146111ad5760405162461bcd60e51b8152600401610beb90613c7f565b6001546040516000916001600160a01b0316907f8be0079c531659141344cd1fd0a4f28419497f9722a3daafe3b4186f6b6457e0908390a3600180546001600160a01b0319169055565b6002546001600160a01b031681565b600b5481565b6004818154811061121957fe5b6000918252602090912001546001600160a01b0316905081565b60125481565b600c5490565b60035460025461125d916001600160a01b039182169116600061279d565b60035460025461127c916001600160a01b03918216911660001961279d565b565b600260005414156112a15760405162461bcd60e51b8152600401610beb90613e56565b6002600081905550610c0c8160008084336112ca60155462093a8061216590919063ffffffff16565b6121e2565b6112d761278d565b6001600160a01b03166112e86113d5565b6001600160a01b03161461130e5760405162461bcd60e51b8152600401610beb90613c7f565b6002546001600160a01b038381169116141561133c5760405162461bcd60e51b8152600401610beb90613ceb565b6001600160a01b03821660009081526005602052604090206001015464ffffffffff161561137c5760405162461bcd60e51b8152600401610beb90613e1f565b6113986113876113d5565b6001600160a01b038416908361289c565b7f8c1256b8896378cd5044f80c202f9772b9d77dc85c8a6eb51967210b09bfaa2882826040516113c99291906138f2565b60405180910390a15050565b6001546001600160a01b031690565b60188054604080516020601f60026000196101006001881615020190951694909404938401819004810282018101909252828152606093909290918301828280156109515780601f1061092657610100808354040283529160200191610951565b61271081565b60145481565b61145961278d565b6001600160a01b031661146a6113d5565b6001600160a01b0316146114905760405162461bcd60e51b8152600401610beb90613c7f565b6105dc83106114b15760405162461bcd60e51b8152600401610beb90613b2b565b61753082106114d25760405162461bcd60e51b8152600401610beb90613b55565b6001600160a01b0381166114f85760405162461bcd60e51b8152600401610beb90613ba2565b601292909255601355600f80546001600160a01b0319166001600160a01b03909216919091179055565b600f546001600160a01b031681565b600e602052816000526040600020818154811061154a57fe5b6000918252602090912001546001600160701b038082169350600160701b8204169150600160e01b900463ffffffff1683565b60105481565b60135481565b6000808052600d6020527f81955a0a11e65eac625c29e8882660bae4e165a75d72780094acae8ece9a29ee8054600160701b90046001600160701b0316825b600454811015611754576000600482815481106115e157fe5b6000918252602090912001546001600160a01b03169050611609611604826128bb565b6129ca565b6001600160a01b03821660009081526005602052604090206001810180546001600160d01b0393909316600160281b02600160281b600160f81b0319909316929092179091555461166f9061166a9064ffffffffff61010090910416612791565b6129f7565b6001600160a01b038281166000908152600560205260409020600101805464ffffffffff191664ffffffffff939093169290921790915585161561174b576001600160a01b0381166000908152600560205260409020546116ec908690839060ff166116e55786546001600160701b03166116e7565b855b612a1e565b6001600160a01b0386811660008181526009602090815260408083209487168084529482528083209590955560058152848220600101549282526008815284822093825292909252919020600160281b9091046001600160d01b031690555b506001016115c8565b5050506001600160a01b038316600090815260076020908152604080832033845290915290205460ff1661179a5760405162461bcd60e51b8152600401610beb90613c57565b600082116117ba5760405162461bcd60e51b8152600401610beb90613c34565b6117c48383612a96565b6117d96001600160a01b038416333085612bc9565b826001600160a01b03167fac24935fd910bc682b5ccb1a07b718cadf8cf2f6d1404c4f3ddc3662dae40e29836040516118129190613fa8565b60405180910390a2505050565b6001600160a01b038116600090815260056020526040812054610b5790600160301b90046001600160d01b031662093a80612165565b60165460ff1681565b600260005414156118815760405162461bcd60e51b8152600401610beb90613e56565b600260009081556001600160a01b0382168152600d6020526040812080548392600160701b9091046001600160701b0316905b600454811015611a2f576000600482815481106118cd57fe5b6000918252602090912001546001600160a01b031690506118f0611604826128bb565b6001600160a01b03821660009081526005602052604090206001810180546001600160d01b0393909316600160281b02600160281b600160f81b031990931692909217909155546119519061166a9064ffffffffff61010090910416612791565b6001600160a01b038281166000908152600560205260409020600101805464ffffffffff191664ffffffffff9390931692909217909155851615611a26576001600160a01b0381166000908152600560205260409020546119c7908690839060ff166116e55786546001600160701b03166116e7565b6001600160a01b0386811660008181526009602090815260408083209487168084529482528083209590955560058152848220600101549282526008815284822093825292909252919020600160281b9091046001600160d01b031690555b506001016118b4565b50505060005b60045481101561116457600060048281548110611a4e57fe5b60009182526020808320909101546001600160a01b038781168452600983526040808520919092168085529252909120549091508015611b97576001600160a01b0380861660009081526009602090815260408083209386168352929052908120819055611abd82600a612133565b90506000611acc826009612165565b9050611ae26001600160a01b038516888461289c565b60035460065460405163e2ab691d60e01b81526001600160a01b039092169163e2ab691d91611b17918b91869160040161390b565b600060405180830381600087803b158015611b3157600080fd5b505af1158015611b45573d6000803e3d6000fd5b50505050836001600160a01b0316876001600160a01b03167f540798df468d7b23d11f156fdb954cb19ad414d150722a7b6d55ba369dea792e85604051611b8c9190613fa8565b60405180910390a350505b5050600101611a35565b61127c612bf0565b600c8181548110611bb657fe5b6000918252602090912001546001600160e01b0381169150600160e01b900463ffffffff1682565b600a5481565b611bec61278d565b6001600160a01b0316611bfd6113d5565b6001600160a01b031614611c235760405162461bcd60e51b8152600401610beb90613c7f565b6001600160a01b03831660009081526005602052604090206001015464ffffffffff1615611c5057600080fd5b6004805460018082019092557f8a35acfbc15ff81a39ae7d344fd709f28e8600b4aa8c65c6b64bfe7fe36bd19b0180546001600160a01b0319166001600160a01b039586169081179091556000908152600560209081526040808320808501805464ffffffffff19164264ffffffffff16908117909155815465ffffffffff0019166101009091021760ff1990811696151596909617905560078252808320959096168252939093529290912080549091169091179055565b60045460609067ffffffffffffffff81118015611d2557600080fd5b50604051908082528060200260200182016040528015611d5f57816020015b611d4c613649565b815260200190600190039081611d445790505b506001600160a01b0383166000908152600d60205260408120805492935091600160701b90046001600160701b0316905b8351811015611e4257600060048281548110611da857fe5b9060005260206000200160009054906101000a90046001600160a01b0316905080858381518110611dd557fe5b6020908102919091018101516001600160a01b039283169052908216600090815260059091526040902054611e1f908790839060ff166116e55786546001600160701b03166116e7565b858381518110611e2b57fe5b602090810291909101810151015250600101611d90565b505050919050565b60026000541415611e6d5760405162461bcd60e51b8152600401610beb90613e56565b6002600081905554611e8a906001600160a01b0316333085612bc9565b611164838383612d58565b60155481565b611ea361278d565b6001600160a01b0316611eb46113d5565b6001600160a01b031614611eda5760405162461bcd60e51b8152600401610beb90613c7f565b6003546040517fee4ec82b92f0e1fe230e6604a4752fa407a28069f106dc41e53edc28c4bc504e91611f19916001600160a01b039091169084906138b4565b60405180910390a1600380546001600160a01b0319166001600160a01b0392909216919091179055565b600960209081526000928352604080842090915290825290205481565b6000610b57826128bb565b6003546001600160a01b031681565b611f8261278d565b6001600160a01b0316611f936113d5565b6001600160a01b031614611fb95760405162461bcd60e51b8152600401610beb90613c7f565b6001600160a01b038116611fdf5760405162461bcd60e51b8152600401610beb90613a95565b6001546040516001600160a01b038084169216907f8be0079c531659141344cd1fd0a4f28419497f9722a3daafe3b4186f6b6457e090600090a3600180546001600160a01b0319166001600160a01b0392909216919091179055565b600c54600090600019018161205762093a8061096f8682612133565b935060005b60808110156120dd57828210612071576120dd565b600060026001848601010490506000600c828154811061208d57fe5b600091825260209091200154600160e01b900463ffffffff169050868114156120bc57509350610bc392505050565b868110156120cc578193506120d3565b6001820394505b505060010161205c565b509392505050565b6120ed61278d565b6001600160a01b03166120fe6113d5565b6001600160a01b0316146121245760405162461bcd60e51b8152600401610beb90613c7f565b6016805460ff19166001179055565b60008082116121545760405162461bcd60e51b8152600401610beb90613a5e565b81838161215d57fe5b049392505050565b60008115806121805750508082028282828161217d57fe5b04145b610b575760405162461bcd60e51b8152600401610beb90613ee3565b81810181811015610b575760405162461bcd60e51b8152600401610beb90613bcb565b80820382811115610b575760405162461bcd60e51b8152600401610beb906139f8565b6001600160a01b0386166000908152600d6020526040812080548892600160701b9091046001600160701b0316905b60045481101561238c5760006004828154811061222a57fe5b6000918252602090912001546001600160a01b0316905061224d611604826128bb565b6001600160a01b03821660009081526005602052604090206001810180546001600160d01b0393909316600160281b02600160281b600160f81b031990931692909217909155546122ae9061166a9064ffffffffff61010090910416612791565b6001600160a01b038281166000908152600560205260409020600101805464ffffffffff191664ffffffffff9390931692909217909155851615612383576001600160a01b038116600090815260056020526040902054612324908690839060ff166116e55786546001600160701b03166116e7565b6001600160a01b0386811660008181526009602090815260408083209487168084529482528083209590955560058152848220600101549282526008815284822093825292909252919020600160281b9091046001600160d01b031690555b50600101612211565b5050506001600160a01b0387166000908152600e60209081526040808320600d9092528220815460165492939192829190829060ff16806123fd57506123d242896121bf565b8660018403815481106123e157fe5b600091825260209091200154600160e01b900463ffffffff1611155b156124745784546001600160701b038082169550600160701b90910416925061242582613329565b855463ffffffff91909116600160e01b026001600160e01b03909116178555871561246f5761246c8887600185038154811061245d57fe5b9060005260206000200161334f565b90505b61257b565b8454600160e01b900463ffffffff16805b8381101561255b57612497428b6121bf565b8882815481106124a357fe5b600091825260209091200154600160e01b900463ffffffff1611156124c75761255b565b6124f48882815481106124d657fe5b6000918252602090912001546001600160701b0388811691166133e5565b955061252a88828154811061250557fe5b6000918252602090912001546001600160701b0387811691600160701b9004166133e5565b9450891561254f5761254c6125458b8a848154811061245d57fe5b849061219c565b92505b60019182019101612485565b50855463ffffffff909116600160e01b026001600160e01b039091161785555b6000846001600160701b0316116125a45760405162461bcd60e51b8152600401610beb90613b7c565b84546125b9906001600160701b031685613414565b85546001600160701b0319166001600160701b03918216178087556125e791600160701b9091041684613414565b8554600160701b600160e01b031916600160701b6001600160701b0392831602178655600a546126189186166121bf565b600a55600b54612631906001600160701b0385166121bf565b600b5580156126bc5761265661264682613443565b6001600160701b03861690613414565b600254909450612670906001600160a01b03168a8361289c565b8c6001600160a01b0316896001600160a01b03167f7e7ff29ed04cfb223bc9b02606f69520517c117ee82c9158ed2d96323c1ef385836040516126b39190613fa8565b60405180910390a35b8b1561271c576126d68a856001600160701b03168d612d58565b8c6001600160a01b03167fe2d155d9d74decc198a9a9b4f5bddb24ee0842ee745c9ce57e3573b971e50d9d8560405161270f9190613f4c565b60405180910390a261277e565b60025461273c906001600160a01b03168b6001600160701b03871661289c565b8c6001600160a01b03167f7084f5476618d8e60b11ef0d7d3f06914655adb8793e28ff7f018d4c76d505d5856040516127759190613f4c565b60405180910390a25b50505050505050505050505050565b3390565b6000610b57428361346c565b8015806128255750604051636eb1769f60e11b81526001600160a01b0384169063dd62ed3e906127d390309086906004016138b4565b60206040518083038186803b1580156127eb57600080fd5b505afa1580156127ff573d6000803e3d6000fd5b505050506040513d601f19601f8201168201806040525081019061282391906137fb565b155b6128415760405162461bcd60e51b8152600401610beb90613e8d565b6128978363095ea7b360e01b84846040516024016128609291906138f2565b60408051601f198184030181529190526020810180516001600160e01b03166001600160e01b031990931692909217909152613482565b505050565b6128978363a9059cbb60e01b84846040516024016128609291906138f2565b6000600b54600014156128fa57506001600160a01b038116600090815260056020526040902060010154600160281b90046001600160d01b0316610bc3565b6001600160a01b038216600090815260056020526040902054610b57906129989060ff1661292a57600a5461292e565b600b545b6001600160a01b0385166000908152600560205260409020805460019091015461299291670de0b6b3a76400009161096f916001600160d01b03600160301b82041691839164ffffffffff9182169161298c91610100900416612791565b906121bf565b90612133565b6001600160a01b038416600090815260056020526040902060010154600160281b90046001600160d01b03169061219c565b60006001600160d01b038211156129f35760405162461bcd60e51b8152600401610beb90613a27565b5090565b600064ffffffffff8211156129f35760405162461bcd60e51b8152600401610beb90613f15565b6001600160a01b038084166000818152600960209081526040808320948716808452948252808320549383526008825280832094835293905291822054612a8c9190612a8690670de0b6b3a76400009061299290612a7f9061298c8a6128bb565b8790612165565b9061219c565b90505b9392505050565b6001600160a01b03821660009081526005602052604090208054610100900464ffffffffff164210612af857612ad26116048362093a80612133565b81546001600160d01b0391909116600160301b0265ffffffffffff909116178155612b70565b8054600090612b1390610100900464ffffffffff16426121bf565b8254909150600090612b36908390600160301b90046001600160d01b0316612165565b9050612b4c61160462093a80612992878561219c565b83546001600160d01b0391909116600160301b0265ffffffffffff90911617835550505b612b79426129f7565b60018201805464ffffffffff191664ffffffffff92909216919091179055612ba761166a4262093a8061219c565b815464ffffffffff919091166101000265ffffffffff00199091161790555050565b612bea846323b872dd60e01b858585604051602401612860939291906138ce565b50505050565b6000612c0362093a8061096f4282612133565b600c805491925082906000198301838110612c1a57fe5b600091825260209091200154600160e01b900463ffffffff161015612d54575b600c80548391906000198101908110612c4f57fe5b600091825260209091200154600160e01b900463ffffffff1614612d30576000612cae62093a80600c6001600c805490500381548110612c8b57fe5b60009182526020909120015463ffffffff600160e01b9091048116919061219c16565b60408051808201909152600080825263ffffffff92831660208301908152600c8054600181018255925291517fdf6966c971051c3d54ec59162606531493a51404a002842f56009d7e5cf4a8c790910180549251909316600160e01b026001600160e01b039182166001600160e01b0319909316929092171617905550612c3a565b60135460115414612d42576013546011555b60125460105414612d54576012546010555b5050565b6001600160a01b0383166000908152600d6020526040812080548592600160701b9091046001600160701b0316905b600454811015612f0257600060048281548110612da057fe5b6000918252602090912001546001600160a01b03169050612dc3611604826128bb565b6001600160a01b03821660009081526005602052604090206001810180546001600160d01b0393909316600160281b02600160281b600160f81b03199093169290921790915554612e249061166a9064ffffffffff61010090910416612791565b6001600160a01b038281166000908152600560205260409020600101805464ffffffffff191664ffffffffff9390931692909217909155851615612ef9576001600160a01b038116600090815260056020526040902054612e9a908690839060ff166116e55786546001600160701b03166116e7565b6001600160a01b0386811660008181526009602090815260408083209487168084529482528083209590955560058152848220600101549282526008815284822093825292909252919020600160281b9091046001600160d01b031690555b50600101612d87565b50505060008311612f255760405162461bcd60e51b8152600401610beb90613adb565b601054821115612f475760405162461bcd60e51b8152600401610beb90613b03565b60165460ff1615612f6a5760405162461bcd60e51b8152600401610beb90613d45565b6001600160a01b0384166000908152600d60205260409020612f8a612bf0565b6000612f9c6127106129928787612165565b90506000612fc5601054600014612fb557601054612fb8565b60015b6011546129929088612165565b90506000612fdb612fd688856121bf565b613443565b90506000612ffc612fd6612ff56127106129928c88612165565b8a9061219c565b8554909150613014906001600160701b0316836133e5565b85546001600160701b0319166001600160701b039182161780875561304291600160701b90910416826133e5565b8554600160701b600160e01b031916600160701b6001600160701b0392831602178655600a5461307391841661219c565b600a55600b5461308c906001600160701b03831661219c565b600b5560006130a262093a8061096f4282612133565b905060006130b382626ebe0061219c565b6001600160a01b038c166000908152600e602052604090205490915080158061311d57506001600160a01b038c166000908152600e602052604090208054839190600019840190811061310257fe5b600091825260209091200154600160e01b900463ffffffff16105b156131cc576001600160a01b038c166000908152600e6020908152604080832081516060810183526001600160701b03808b16825289811682860190815263ffffffff808a16958401958652845460018101865594885295909620915191909201805495519351909416600160e01b026001600160e01b03938316600160701b02600160701b600160e01b0319929093166001600160701b03199096169590951716171691909117905561326c565b6001600160a01b038c166000908152600e60205260408120805460001984019081106131f457fe5b60009182526020909120018054909150613217906001600160701b0316876133e5565b81546001600160701b0319166001600160701b039182161780835561324591600160701b90910416866133e5565b81546001600160701b0391909116600160701b02600160701b600160e01b03199091161790555b600c805460009190600019810190811061328257fe5b600091825260209091200180549091506132ae906001600160e01b03166001600160701b038716613511565b81546001600160e01b0319166001600160e01b039190911617815587156132ec57600f546002546132ec916001600160a01b0391821691168a61289c565b8c6001600160a01b03167fb4caaf29adda3eefee3ad552a8e85058589bf834c7466cae4ee58787f70589ed8d888860405161277593929190613fb1565b600063ffffffff8211156129f35760405162461bcd60e51b8152600401610beb90613d9e565b60008061336762093a8061096f8161299242896121bf565b83549091506000906133949062093a809061299290859063ffffffff600160e01b9091048116906121bf16565b905060006133bb6133b38360010160145461216590919063ffffffff16565b61271061346c565b85549091506133db9061271090612992906001600160701b031684612165565b9695505050505050565b8181016001600160701b038083169082161015610b575760405162461bcd60e51b8152600401610beb90613bcb565b8082036001600160701b038084169082161115610b575760405162461bcd60e51b8152600401610beb906139f8565b60006001600160701b038211156129f35760405162461bcd60e51b8152600401610beb90613bfd565b600081831061347b5781612a8f565b5090919050565b60606134d7826040518060400160405280602081526020017f5361666545524332303a206c6f772d6c6576656c2063616c6c206661696c6564815250856001600160a01b03166135409092919063ffffffff16565b80519091501561289757808060200190518101906134f59190613789565b6128975760405162461bcd60e51b8152600401610beb90613dd5565b8181016001600160e01b038083169082161015610b575760405162461bcd60e51b8152600401610beb90613bcb565b6060612a8c848460008585613554856135ea565b6135705760405162461bcd60e51b8152600401610beb90613d67565b60006060866001600160a01b0316858760405161358d9190613884565b60006040518083038185875af1925050503d80600081146135ca576040519150601f19603f3d011682016040523d82523d6000602084013e6135cf565b606091505b50915091506135df8282866135f0565b979650505050505050565b3b151590565b606083156135ff575081612a8f565b82511561360f5782518084602001fd5b8160405162461bcd60e51b8152600401610beb91906139c5565b604080516060810182526000808252602082018190529181019190915290565b604080518082019091526000808252602082015290565b80356001600160a01b0381168114610b5757600080fd5b600060208284031215613688578081fd5b612a8f8383613660565b600080604083850312156136a4578081fd5b6136ae8484613660565b91506136bd8460208501613660565b90509250929050565b6000806000606084860312156136da578081fd5b83356136e58161409a565b925060208401356136f58161409a565b91506040840135613705816140b2565b809150509250925092565b60008060408385031215613722578182fd5b61372c8484613660565b946020939093013593505050565b60008060006060848603121561374e578283fd5b6137588585613660565b95602085013595506040909401359392505050565b60006020828403121561377e578081fd5b8135612a8f816140b2565b60006020828403121561379a578081fd5b8151612a8f816140b2565b6000806000606084860312156137b9578283fd5b83356137c4816140b2565b9250602084013591506137da8560408601613660565b90509250925092565b6000602082840312156137f4578081fd5b5035919050565b60006020828403121561380c578081fd5b5051919050565b60008060408385031215613825578182fd5b823591506136bd8460208501613660565b60008060408385031215613848578182fd5b50508035926020909101359150565b60008060006060848603121561386b578283fd5b833592506020840135915060408401356137058161409a565b6000825161389681846020870161406e565b9190910192915050565b6001600160a01b0391909116815260200190565b6001600160a01b0392831681529116602082015260400190565b6001600160a01b039384168152919092166020820152604081019190915260600190565b6001600160a01b03929092168252602082015260400190565b6001600160a01b039390931683526020830191909152604082015260600190565b602080825282518282018190526000919060409081850190868401855b8281101561397757815180516001600160a01b03168552860151868501529284019290850190600101613949565b5091979650505050505050565b901515815260200190565b941515855264ffffffffff93841660208601526001600160d01b0392831660408601529216606084015216608082015260a00190565b60006020825282518060208401526139e481604085016020870161406e565b601f01601f19169190910160400192915050565b602080825260159082015274426f72696e674d6174683a20556e646572666c6f7760581b604082015260600190565b6020808252601c908201527f426f72696e674d6174683a2075696e74323038204f766572666c6f7700000000604082015260600190565b6020808252601c908201527f426f72696e674d6174683a206469766973696f6e206279207a65726f00000000604082015260600190565b60208082526026908201527f4f776e61626c653a206e6577206f776e657220697320746865207a65726f206160408201526564647265737360d01b606082015260800190565b6020808252600e908201526d043616e6e6f74207374616b6520360941b604082015260600190565b6020808252600e908201526d1bdd995c881b585e081cdc195b9960921b604082015260600190565b60208082526010908201526f1bdd995c881b585e081c185e5b595b9d60821b604082015260600190565b6020808252600d908201526c6f766572206d6178207261746560981b604082015260600190565b6020808252600c908201526b6e6f20657870206c6f636b7360a01b604082015260600190565b6020808252600f908201526e696e76616c6964206164647265737360881b604082015260600190565b602080825260189082015277426f72696e674d6174683a20416464204f766572666c6f7760401b604082015260600190565b6020808252601c908201527f426f72696e674d6174683a2075696e74313132204f766572666c6f7700000000604082015260600190565b602080825260099082015268139bc81c995dd85c9960ba1b604082015260600190565b6020808252600e908201526d1b9bdd08185d5d1a1bdc9a5e995960921b604082015260600190565b6020808252818101527f4f776e61626c653a2063616c6c6572206973206e6f7420746865206f776e6572604082015260600190565b6020808252601c908201527f7265776172647320746f6b656e20646f6573206e6f7420657869737400000000604082015260600190565b6020808252601d908201527f43616e6e6f74207769746864726177207374616b696e6720746f6b656e000000604082015260600190565b6020808252600990820152686d696e2064656c617960b81b604082015260600190565b60208082526008908201526739b43aba3237bbb760c11b604082015260600190565b6020808252601d908201527f416464726573733a2063616c6c20746f206e6f6e2d636f6e7472616374000000604082015260600190565b6020808252601b908201527f426f72696e674d6174683a2075696e743332204f766572666c6f770000000000604082015260600190565b6020808252602a908201527f5361666545524332303a204552433230206f7065726174696f6e20646964206e6040820152691bdd081cdd58d8d9595960b21b606082015260800190565b6020808252601c908201527f43616e6e6f742077697468647261772072657761726420746f6b656e00000000604082015260600190565b6020808252601f908201527f5265656e7472616e637947756172643a207265656e7472616e742063616c6c00604082015260600190565b60208082526036908201527f5361666545524332303a20617070726f76652066726f6d206e6f6e2d7a65726f60408201527520746f206e6f6e2d7a65726f20616c6c6f77616e636560501b606082015260800190565b602080825260189082015277426f72696e674d6174683a204d756c204f766572666c6f7760401b604082015260600190565b6020808252601b908201527f426f72696e674d6174683a2075696e743430204f766572666c6f770000000000604082015260600190565b6001600160701b0391909116815260200190565b6001600160701b03938416815291909216602082015263ffffffff909116604082015260600190565b6001600160e01b0392909216825263ffffffff16602082015260400190565b90815260200190565b9283526001600160701b03918216602084015216604082015260600190565b918252602082015260400190565b6000608082018683526020868185015260408681860152606060808187015283875180865260a0880191508489019550865b8181101561404f57865180516001600160701b03908116855287820151168785015285015163ffffffff16858401529585019591830191600101614010565b50909b9a5050505050505050505050565b60ff91909116815260200190565b60005b83811015614089578181015183820152602001614071565b83811115612bea5750506000910152565b6001600160a01b03811681146140af57600080fd5b50565b80151581146140af57600080fdfea2646970667358221220416f85e4e8b536d3ce0e4215a41874773c09745124bf1576425660c9ca944ef164736f6c634300060c0033",
  "linkReferences": {},
  "deployedLinkReferences": {}
}