{
  "_format": "hh-sol-artifact-1",
  "contractName": "Superseeder",
  "sourceName": "contracts/core/utils/Superseeder.sol",
  "abi": [
    {
      "inputs": [
        {
          "internalType": "contract ERC20",
          "name": "erc20",
          "type": "address"
        },
        {
          "internalType": "address[]",
          "name": "receivers",
          "type": "address[]"
        },
        {
          "internalType": "uint256[]",
          "name": "amounts",
          "type": "uint256[]"
        }
      ],
      "name": "seed",
      "outputs": [],
      "stateMutability": "nonpayable",
      "type": "function"
    }
  ],
  "bytecode": "0x608060405234801561001057600080fd5b506102d4806100206000396000f3fe608060405234801561001057600080fd5b506004361061002b5760003560e01c80634833f1b214610030575b600080fd5b61004361003e366004610198565b610045565b005b60005b8381101561012c57856001600160a01b03166323b872dd338787858181106100725761007261021b565b90506020020160208101906100879190610231565b8686868181106100995761009961021b565b6040516001600160e01b031960e088901b1681526001600160a01b039586166004820152949093166024850152506020909102013560448201526064016020604051808303816000875af11580156100f5573d6000803e3d6000fd5b505050506040513d601f19601f820116820180604052508101906101199190610255565b508061012481610277565b915050610048565b505050505050565b6001600160a01b038116811461014957600080fd5b50565b60008083601f84011261015e57600080fd5b50813567ffffffffffffffff81111561017657600080fd5b6020830191508360208260051b850101111561019157600080fd5b9250929050565b6000806000806000606086880312156101b057600080fd5b85356101bb81610134565b9450602086013567ffffffffffffffff808211156101d857600080fd5b6101e489838a0161014c565b909650945060408801359150808211156101fd57600080fd5b5061020a8882890161014c565b969995985093965092949392505050565b634e487b7160e01b600052603260045260246000fd5b60006020828403121561024357600080fd5b813561024e81610134565b9392505050565b60006020828403121561026757600080fd5b8151801515811461024e57600080fd5b60006001820161029757634e487b7160e01b600052601160045260246000fd5b506001019056fea26469706673582212206df9d1912d746e69a63f6ea49a13bb2a4a9f3e3e1e45c90f4542526f0047d7ee64736f6c63430008110033",
  "linkReferences": {},
  "deployedLinkReferences": {}
}