{
  "_format": "hh-sol-artifact-1",
  "contractName": "ParticipationReward",
  "sourceName": "contracts/core/utils/ParticipationReward.sol",
  "abi": [
    {
      "inputs": [
        {
          "internalType": "contract IContractRegistry",
          "name": "_contractRegistry",
          "type": "address"
        }
      ],
      "stateMutability": "nonpayable",
      "type": "constructor"
    },
    {
      "anonymous": false,
      "inputs": [
        {
          "indexed": false,
          "internalType": "bytes32",
          "name": "_contractName",
          "type": "bytes32"
        },
        {
          "indexed": false,
          "internalType": "address",
          "name": "_contract",
          "type": "address"
        }
      ],
      "name": "ControllerContractAdded",
      "type": "event"
    },
    {
      "anonymous": false,
      "inputs": [
        {
          "indexed": false,
          "internalType": "address",
          "name": "account",
          "type": "address"
        },
        {
          "indexed": false,
          "internalType": "uint256",
          "name": "amount",
          "type": "uint256"
        }
      ],
      "name": "RewardBalanceIncreased",
      "type": "event"
    },
    {
      "anonymous": false,
      "inputs": [
        {
          "indexed": false,
          "internalType": "bytes32",
          "name": "_contractName",
          "type": "bytes32"
        },
        {
          "indexed": false,
          "internalType": "uint256",
          "name": "amount",
          "type": "uint256"
        }
      ],
      "name": "RewardBudgetChanged",
      "type": "event"
    },
    {
      "anonymous": false,
      "inputs": [
        {
          "indexed": false,
          "internalType": "bytes32",
          "name": "vaultId",
          "type": "bytes32"
        },
        {
          "indexed": false,
          "internalType": "address",
          "name": "_account",
          "type": "address"
        },
        {
          "indexed": false,
          "internalType": "uint256",
          "name": "amount",
          "type": "uint256"
        }
      ],
      "name": "RewardClaimed",
      "type": "event"
    },
    {
      "anonymous": false,
      "inputs": [
        {
          "indexed": false,
          "internalType": "address",
          "name": "_account",
          "type": "address"
        },
        {
          "indexed": false,
          "internalType": "uint256",
          "name": "amount",
          "type": "uint256"
        }
      ],
      "name": "RewardsClaimed",
      "type": "event"
    },
    {
      "anonymous": false,
      "inputs": [
        {
          "indexed": false,
          "internalType": "bytes32",
          "name": "_contractName",
          "type": "bytes32"
        },
        {
          "indexed": false,
          "internalType": "bool",
          "name": "prevState",
          "type": "bool"
        },
        {
          "indexed": false,
          "internalType": "bool",
          "name": "newState",
          "type": "bool"
        }
      ],
      "name": "RewardsToggled",
      "type": "event"
    },
    {
      "anonymous": false,
      "inputs": [
        {
          "indexed": false,
          "internalType": "bytes32",
          "name": "_vaultId",
          "type": "bytes32"
        },
        {
          "indexed": false,
          "internalType": "address",
          "name": "_account",
          "type": "address"
        },
        {
          "indexed": false,
          "internalType": "uint256",
          "name": "_shares",
          "type": "uint256"
        }
      ],
      "name": "SharesAdded",
      "type": "event"
    },
    {
      "anonymous": false,
      "inputs": [
        {
          "indexed": false,
          "internalType": "bytes32",
          "name": "vaultId",
          "type": "bytes32"
        }
      ],
      "name": "VaultClosed",
      "type": "event"
    },
    {
      "anonymous": false,
      "inputs": [
        {
          "indexed": false,
          "internalType": "bytes32",
          "name": "vaultId",
          "type": "bytes32"
        }
      ],
      "name": "VaultInitialized",
      "type": "event"
    },
    {
      "anonymous": false,
      "inputs": [
        {
          "indexed": false,
          "internalType": "bytes32",
          "name": "vaultId",
          "type": "bytes32"
        }
      ],
      "name": "VaultOpened",
      "type": "event"
    },
    {
      "inputs": [
        {
          "internalType": "bytes32",
          "name": "_contractName",
          "type": "bytes32"
        },
        {
          "internalType": "address",
          "name": "_contract",
          "type": "address"
        }
      ],
      "name": "addControllerContract",
      "outputs": [],
      "stateMutability": "nonpayable",
      "type": "function"
    },
    {
      "inputs": [
        {
          "internalType": "bytes32",
          "name": "_contractName",
          "type": "bytes32"
        },
        {
          "internalType": "bytes32",
          "name": "_vaultId",
          "type": "bytes32"
        },
        {
          "internalType": "address",
          "name": "_account",
          "type": "address"
        },
        {
          "internalType": "uint256",
          "name": "_shares",
          "type": "uint256"
        }
      ],
      "name": "addShares",
      "outputs": [],
      "stateMutability": "nonpayable",
      "type": "function"
    },
    {
      "inputs": [
        {
          "internalType": "uint256",
          "name": "_index",
          "type": "uint256"
        }
      ],
      "name": "claimReward",
      "outputs": [],
      "stateMutability": "nonpayable",
      "type": "function"
    },
    {
      "inputs": [
        {
          "internalType": "uint256[]",
          "name": "_indices",
          "type": "uint256[]"
        }
      ],
      "name": "claimRewards",
      "outputs": [],
      "stateMutability": "nonpayable",
      "type": "function"
    },
    {
      "inputs": [],
      "name": "contractRegistry",
      "outputs": [
        {
          "internalType": "contract IContractRegistry",
          "name": "",
          "type": "address"
        }
      ],
      "stateMutability": "view",
      "type": "function"
    },
    {
      "inputs": [
        {
          "internalType": "uint256",
          "name": "_amount",
          "type": "uint256"
        }
      ],
      "name": "contributeReward",
      "outputs": [],
      "stateMutability": "nonpayable",
      "type": "function"
    },
    {
      "inputs": [
        {
          "internalType": "bytes32",
          "name": "",
          "type": "bytes32"
        }
      ],
      "name": "controllerContracts",
      "outputs": [
        {
          "internalType": "address",
          "name": "",
          "type": "address"
        }
      ],
      "stateMutability": "view",
      "type": "function"
    },
    {
      "inputs": [
        {
          "internalType": "address",
          "name": "_account",
          "type": "address"
        }
      ],
      "name": "getUserVaults",
      "outputs": [
        {
          "internalType": "bytes32[]",
          "name": "",
          "type": "bytes32[]"
        }
      ],
      "stateMutability": "view",
      "type": "function"
    },
    {
      "inputs": [
        {
          "internalType": "bytes32",
          "name": "_vaultId",
          "type": "bytes32"
        }
      ],
      "name": "getVaultStatus",
      "outputs": [
        {
          "internalType": "enum ParticipationReward.VaultStatus",
          "name": "",
          "type": "uint8"
        }
      ],
      "stateMutability": "view",
      "type": "function"
    },
    {
      "inputs": [
        {
          "internalType": "bytes32",
          "name": "_vaultId",
          "type": "bytes32"
        },
        {
          "internalType": "address",
          "name": "_beneficiary",
          "type": "address"
        }
      ],
      "name": "hasClaim",
      "outputs": [
        {
          "internalType": "bool",
          "name": "",
          "type": "bool"
        }
      ],
      "stateMutability": "view",
      "type": "function"
    },
    {
      "inputs": [
        {
          "internalType": "bytes32",
          "name": "_contractName",
          "type": "bytes32"
        },
        {
          "internalType": "bytes32",
          "name": "_vaultId",
          "type": "bytes32"
        },
        {
          "internalType": "uint256",
          "name": "_endTime",
          "type": "uint256"
        }
      ],
      "name": "initializeVault",
      "outputs": [
        {
          "internalType": "bool",
          "name": "",
          "type": "bool"
        },
        {
          "internalType": "bytes32",
          "name": "",
          "type": "bytes32"
        }
      ],
      "stateMutability": "nonpayable",
      "type": "function"
    },
    {
      "inputs": [
        {
          "internalType": "bytes32",
          "name": "_vaultId",
          "type": "bytes32"
        },
        {
          "internalType": "address",
          "name": "_beneficiary",
          "type": "address"
        }
      ],
      "name": "isClaimable",
      "outputs": [
        {
          "internalType": "bool",
          "name": "",
          "type": "bool"
        }
      ],
      "stateMutability": "view",
      "type": "function"
    },
    {
      "inputs": [
        {
          "internalType": "bytes32",
          "name": "_contractName",
          "type": "bytes32"
        },
        {
          "internalType": "bytes32",
          "name": "_vaultId",
          "type": "bytes32"
        }
      ],
      "name": "openVault",
      "outputs": [],
      "stateMutability": "nonpayable",
      "type": "function"
    },
    {
      "inputs": [],
      "name": "rewardBalance",
      "outputs": [
        {
          "internalType": "uint256",
          "name": "",
          "type": "uint256"
        }
      ],
      "stateMutability": "view",
      "type": "function"
    },
    {
      "inputs": [
        {
          "internalType": "bytes32",
          "name": "",
          "type": "bytes32"
        }
      ],
      "name": "rewardBudgets",
      "outputs": [
        {
          "internalType": "uint256",
          "name": "",
          "type": "uint256"
        }
      ],
      "stateMutability": "view",
      "type": "function"
    },
    {
      "inputs": [
        {
          "internalType": "bytes32",
          "name": "",
          "type": "bytes32"
        }
      ],
      "name": "rewardsEnabled",
      "outputs": [
        {
          "internalType": "bool",
          "name": "",
          "type": "bool"
        }
      ],
      "stateMutability": "view",
      "type": "function"
    },
    {
      "inputs": [
        {
          "internalType": "bytes32",
          "name": "_contractName",
          "type": "bytes32"
        },
        {
          "internalType": "uint256",
          "name": "_amount",
          "type": "uint256"
        }
      ],
      "name": "setRewardsBudget",
      "outputs": [],
      "stateMutability": "nonpayable",
      "type": "function"
    },
    {
      "inputs": [
        {
          "internalType": "bytes32",
          "name": "_contractName",
          "type": "bytes32"
        }
      ],
      "name": "toggleRewards",
      "outputs": [],
      "stateMutability": "nonpayable",
      "type": "function"
    },
    {
      "inputs": [],
      "name": "totalVaultsBudget",
      "outputs": [
        {
          "internalType": "uint256",
          "name": "",
          "type": "uint256"
        }
      ],
      "stateMutability": "view",
      "type": "function"
    },
    {
      "inputs": [
        {
          "internalType": "address",
          "name": "",
          "type": "address"
        },
        {
          "internalType": "uint256",
          "name": "",
          "type": "uint256"
        }
      ],
      "name": "userVaults",
      "outputs": [
        {
          "internalType": "bytes32",
          "name": "",
          "type": "bytes32"
        }
      ],
      "stateMutability": "view",
      "type": "function"
    },
    {
      "inputs": [
        {
          "internalType": "bytes32",
          "name": "",
          "type": "bytes32"
        }
      ],
      "name": "vaults",
      "outputs": [
        {
          "internalType": "enum ParticipationReward.VaultStatus",
          "name": "status",
          "type": "uint8"
        },
        {
          "internalType": "uint256",
          "name": "endTime",
          "type": "uint256"
        },
        {
          "internalType": "uint256",
          "name": "shares",
          "type": "uint256"
        },
        {
          "internalType": "uint256",
          "name": "tokenBalance",
          "type": "uint256"
        }
      ],
      "stateMutability": "view",
      "type": "function"
    }
  ],
  "bytecode": "0x608060405234801561001057600080fd5b50604051611de1380380611de183398101604081905261002f91610059565b6001600081905580546001600160a01b0319166001600160a01b0392909216919091179055610089565b60006020828403121561006b57600080fd5b81516001600160a01b038116811461008257600080fd5b9392505050565b611d49806100986000396000f3fe608060405234801561001057600080fd5b50600436106101375760003560e01c80639559e147116100b8578063cca23bf21161007c578063cca23bf2146102e9578063db4dc5f014610332578063e5202c3e14610345578063e7f3c69c14610358578063efff46dd14610378578063fcd2ae701461038b57600080fd5b80639559e147146102945780639c841fef146102a7578063aa5c3ab4146102ba578063abf410e5146102c3578063ae169a50146102d657600080fd5b806352b456ac116100ff57806352b456ac146101f05780635b994ad2146102205780635eac62391461024e57806366308e131461026157806388ea20d31461028b57600080fd5b8063068140dd1461013c57806319e1f454146101645780632e3ea85a146101a557806332705d2a146101ba57806341047352146101cd575b600080fd5b61014f61014a3660046117a8565b61039e565b60405190151581526020015b60405180910390f35b61018d6101723660046117d8565b6007602052600090815260409020546001600160a01b031681565b6040516001600160a01b03909116815260200161015b565b6101b86101b33660046117a8565b610466565b005b6101b86101c83660046117d8565b6105c5565b61014f6101db3660046117d8565b60086020526000908152604090205460ff1681565b6102136101fe3660046117d8565b60009081526005602052604090205460ff1690565b60405161015b9190611829565b61024061022e3660046117d8565b60046020526000908152604090205481565b60405190815260200161015b565b6101b861025c36600461183d565b6106c8565b61027461026f3660046118b2565b610941565b60408051921515835260208301919091520161015b565b61024060035481565b6101b86102a23660046118de565b610b4e565b6102406102b5366004611900565b610c9b565b61024060025481565b60015461018d906001600160a01b031681565b6101b86102e43660046117d8565b610ccc565b6103226102f73660046117d8565b600560205260009081526040902080546001820154600283015460039093015460ff90921692909184565b60405161015b949392919061192c565b6101b8610340366004611955565b610ec6565b6101b86103533660046117d8565b611020565b61036b610366366004611994565b611171565b60405161015b91906119b1565b6101b86103863660046118de565b6111dd565b61014f6103993660046117a8565b611335565b60008281526005602052604081206001015483906103d75760405162461bcd60e51b81526004016103ce906119f5565b60405180910390fd5b600160008581526005602052604090205460ff1660018111156103fc576103fc6117f1565b14801561042d575060008481526005602090815260408083206001600160a01b038716845260040190915290205415155b801561045e575060008481526005602081815260408084206001600160a01b0388168552909201905290205460ff16155b949350505050565b600154604051631c2d8fb360e31b8152600080516020611cb483398151915260048201526001600160a01b039091169063e16c7d9890602401602060405180830381865afa1580156104bc573d6000803e3d6000fd5b505050506040513d601f19601f820116820180604052508101906104e09190611a27565b6001600160a01b031663d09a20c5600080516020611cd4833981519152336040518363ffffffff1660e01b815260040161051b929190611a44565b60006040518083038186803b15801561053357600080fd5b505afa158015610547573d6000803e3d6000fd5b505050600083815260076020908152604080832080546001600160a01b0319166001600160a01b038716179055600890915290819020805460ff19166001179055517ff6c4dabf3ee4c924bd9069622cd7d390b44d0f38fe8742cf5fdf8f5c5a6be5f891506105b99084908490611a44565b60405180910390a15050565b600081116105e55760405162461bcd60e51b81526004016103ce90611a5b565b600154604051631c2d8fb360e31b8152600080516020611cf4833981519152600482015261067a913391309185916001600160a01b039091169063e16c7d9890602401602060405180830381865afa158015610645573d6000803e3d6000fd5b505050506040513d601f19601f820116820180604052508101906106699190611a27565b6001600160a01b03169291906113c5565b806002546106889190611a9b565b6002556040517f27c1a614c467759cd1aef8a5219f67898e35f6a6b619887e18a15b528d777c69906106bd9033908490611aae565b60405180910390a150565b6106d0611436565b6014811061071b5760405162461bcd60e51b8152602060048201526018602482015277636c61696d696e6720746f6f206d616e79207661756c747360401b60448201526064016103ce565b6000805b828110156108035733600090815260066020526040812085858481811061074857610748611ac7565b905060200201358154811061075f5761075f611ac7565b6000918252602090912001549050600160008281526005602052604090205460ff166001811115610792576107926117f1565b1480156107bb57506000818152600560208181526040808420338552909201905290205460ff16155b156107f0576107e3818686858181106107d6576107d6611ac7565b905060200201353361148f565b6107ed9084611a9b565b92505b50806107fb81611add565b91505061071f565b50600081116108245760405162461bcd60e51b81526004016103ce90611af6565b6002548111156108465760405162461bcd60e51b81526004016103ce90611b1a565b806003546108549190611b51565b600355600254610865908290611b51565b600255600154604051631c2d8fb360e31b8152600080516020611cf483398151915260048201526108f991339184916001600160a01b03169063e16c7d98906024015b602060405180830381865afa1580156108c5573d6000803e3d6000fd5b505050506040513d601f19601f820116820180604052508101906108e99190611a27565b6001600160a01b0316919061157a565b7ffc30cddea38e2bf4d6ea7d3f9ed3b6ad7f176419f4963bd81318067a4aee73fe338260405161092a929190611aae565b60405180910390a15061093d6001600055565b5050565b600083815260076020526040812054819085906001600160a01b0316331461097b5760405162461bcd60e51b81526004016103ce90611b64565b60008681526008602052604090205460ff166109f85760405162461bcd60e51b815260206004820152603660248201527f70617274696369706174696f6e5265776172647320617265206e6f7420656e61604482015275189b195908199bdc881d1a1a5cc818dbdb9d1c9858dd60521b60648201526084016103ce565b60008581526005602052604090206001015415610a4e5760405162461bcd60e51b815260206004820152601460248201527315985d5b1d081b5d5cdd081b9bdd08195e1a5cdd60621b60448201526064016103ce565b428411610a995760405162461bcd60e51b8152602060048201526019602482015278656e64206d75737420626520696e207468652066757475726560381b60448201526064016103ce565b600086815260046020526040812054600354610ab59190611a9b565b9050600254811180610ac75750600254155b15610ad9576000809350935050610b45565b60038181556000878152600560209081526040808320600181018a90558b845260048352928190205493830193909355915188815290917f19d13963668fd7f19816e2da6d8a8864e93a626ab66f6bd6e6abf5f8839d1411910160405180910390a16001879450945050505b50935093915050565b600154604051631c2d8fb360e31b8152600080516020611cb483398151915260048201526001600160a01b039091169063e16c7d9890602401602060405180830381865afa158015610ba4573d6000803e3d6000fd5b505050506040513d601f19601f82011682018060405250810190610bc89190611a27565b6001600160a01b031663d09a20c5600080516020611cd4833981519152336040518363ffffffff1660e01b8152600401610c03929190611a44565b60006040518083038186803b158015610c1b57600080fd5b505afa158015610c2f573d6000803e3d6000fd5b5050505060008111610c535760405162461bcd60e51b81526004016103ce90611a5b565b60008281526004602090815260409182902083905581518481529081018390527f75727c9b45c833cb72140f38a953f79839e659fc206f190eea1b07045617e06591016105b9565b60066020528160005260406000208181548110610cb757600080fd5b90600052602060002001600091509150505481565b610cd4611436565b336000908152600660205260408120805483908110610cf557610cf5611ac7565b6000918252602090912001549050600160008281526005602052604090205460ff166001811115610d2857610d286117f1565b14610d695760405162461bcd60e51b81526020600482015260116024820152703b30bab63a1034b9903737ba1037b832b760791b60448201526064016103ce565b6000818152600560208181526040808420338552909201905290205460ff1615610dc75760405162461bcd60e51b815260206004820152600f60248201526e185b1c9958591e4818db185a5b5959608a1b60448201526064016103ce565b6000610dd482843361148f565b905060008111610df65760405162461bcd60e51b81526004016103ce90611af6565b600254811115610e185760405162461bcd60e51b81526004016103ce90611b1a565b80600354610e269190611b51565b600355600254610e37908290611b51565b600255600154604051631c2d8fb360e31b8152600080516020611cf48339815191526004820152610e7e91339184916001600160a01b03169063e16c7d98906024016108a8565b7ffc30cddea38e2bf4d6ea7d3f9ed3b6ad7f176419f4963bd81318067a4aee73fe3382604051610eaf929190611aae565b60405180910390a15050610ec36001600055565b50565b60008481526007602052604090205484906001600160a01b03163314610efe5760405162461bcd60e51b81526004016103ce90611b64565b6000848152600560205260409020600101548490610f2e5760405162461bcd60e51b81526004016103ce906119f5565b60008581526005602052604081205460ff166001811115610f5157610f516117f1565b14610f6e5760405162461bcd60e51b81526004016103ce90611bb2565b600085815260056020526040902060020154610f8b908490611a9b565b600086815260056020908152604080832060028101949094556001600160a01b038816808452600490940182528083208790556006825280832080546001810182559084529282902090920188905581518881529081019290925281018490527fbac56fd2879311ebf368181dfbf41a90a7cfa7560f55c36563bcfce2a776f4a29060600160405180910390a1505050505050565b600154604051631c2d8fb360e31b8152600080516020611cb483398151915260048201526001600160a01b039091169063e16c7d9890602401602060405180830381865afa158015611076573d6000803e3d6000fd5b505050506040513d601f19601f8201168201806040525081019061109a9190611a27565b6001600160a01b031663d09a20c5600080516020611cd4833981519152336040518363ffffffff1660e01b81526004016110d5929190611a44565b60006040518083038186803b1580156110ed57600080fd5b505afa158015611101573d6000803e3d6000fd5b50505060008281526008602052604090819020805460ff19811660ff918216801591821790935592519193507fb5892f43148bca6ca8a82cc9087f6e71b528358bf884d904ec5cca65ff5c5f93926105b99286928692169092835290151560208301521515604082015260600190565b6001600160a01b0381166000908152600660209081526040918290208054835181840281018401909452808452606093928301828280156111d157602002820191906000526020600020905b8154815260200190600101908083116111bd575b50505050509050919050565b60008281526007602052604090205482906001600160a01b031633146112155760405162461bcd60e51b81526004016103ce90611b64565b60008281526005602052604090206001015482906112455760405162461bcd60e51b81526004016103ce906119f5565b60008381526005602052604081205460ff166001811115611268576112686117f1565b146112855760405162461bcd60e51b81526004016103ce90611bb2565b6000838152600560205260409020600101544210156112e25760405162461bcd60e51b81526020600482015260196024820152783bb0b4ba103a34b6361032b7322a34b6b29034b99037bb32b960391b60448201526064016103ce565b600083815260056020908152604091829020805460ff1916600117905590518481527f31b0aa36783855ee03b759334d419a25ead53cf249ce84862eec1138dcefe525910160405180910390a150505050565b60008281526005602052604081206001015483906113655760405162461bcd60e51b81526004016103ce906119f5565b60008481526005602090815260408083206001600160a01b03871684526004019091529020541580159061045e5750505060009182526005602081815260408085206001600160a01b0394909416855292909101905290205460ff161590565b6040516001600160a01b03808516602483015283166044820152606481018290526114309085906323b872dd60e01b906084015b60408051601f198184030181529190526020810180516001600160e01b03166001600160e01b03199093169290921790915261159e565b50505050565b6002600054036114885760405162461bcd60e51b815260206004820152601f60248201527f5265656e7472616e637947756172643a207265656e7472616e742063616c6c0060448201526064016103ce565b6002600055565b60008381526005602090815260408083206001600160a01b0385168452600401909152812054801561156d57600085815260056020526040812060028101546003909101546114df908490611be5565b6114e99190611bfc565b600087815260056020526040902060030154909150611509908290611b51565b600087815260056020818152604080842060038101959095556001600160a01b0389168452939091018152828220805460ff19166001179055600690522080548690811061155957611559611ac7565b600091825260208220015591506115739050565b60009150505b9392505050565b6115998363a9059cbb60e01b84846040516024016113f9929190611aae565b505050565b60006115f3826040518060400160405280602081526020017f5361666545524332303a206c6f772d6c6576656c2063616c6c206661696c6564815250856001600160a01b03166116709092919063ffffffff16565b80519091501561159957808060200190518101906116119190611c1e565b6115995760405162461bcd60e51b815260206004820152602a60248201527f5361666545524332303a204552433230206f7065726174696f6e20646964206e6044820152691bdd081cdd58d8d9595960b21b60648201526084016103ce565b606061045e848460008585600080866001600160a01b031685876040516116979190611c64565b60006040518083038185875af1925050503d80600081146116d4576040519150601f19603f3d011682016040523d82523d6000602084013e6116d9565b606091505b50915091506116ea878383876116f5565b979650505050505050565b6060831561176457825160000361175d576001600160a01b0385163b61175d5760405162461bcd60e51b815260206004820152601d60248201527f416464726573733a2063616c6c20746f206e6f6e2d636f6e747261637400000060448201526064016103ce565b508161045e565b61045e83838151156117795781518083602001fd5b8060405162461bcd60e51b81526004016103ce9190611c80565b6001600160a01b0381168114610ec357600080fd5b600080604083850312156117bb57600080fd5b8235915060208301356117cd81611793565b809150509250929050565b6000602082840312156117ea57600080fd5b5035919050565b634e487b7160e01b600052602160045260246000fd5b6002811061182557634e487b7160e01b600052602160045260246000fd5b9052565b602081016118378284611807565b92915050565b6000806020838503121561185057600080fd5b823567ffffffffffffffff8082111561186857600080fd5b818501915085601f83011261187c57600080fd5b81358181111561188b57600080fd5b8660208260051b85010111156118a057600080fd5b60209290920196919550909350505050565b6000806000606084860312156118c757600080fd5b505081359360208301359350604090920135919050565b600080604083850312156118f157600080fd5b50508035926020909101359150565b6000806040838503121561191357600080fd5b823561191e81611793565b946020939093013593505050565b6080810161193a8287611807565b84602083015283604083015282606083015295945050505050565b6000806000806080858703121561196b57600080fd5b8435935060208501359250604085013561198481611793565b9396929550929360600135925050565b6000602082840312156119a657600080fd5b813561157381611793565b6020808252825182820181905260009190848201906040850190845b818110156119e9578351835292840192918401916001016119cd565b50909695505050505050565b602080825260189082015277155b9a5b9a5d1a585b1a5e9959081d985d5b1d081cdb1bdd60421b604082015260600190565b600060208284031215611a3957600080fd5b815161157381611793565b9182526001600160a01b0316602082015260400190565b60208082526010908201526f06d757374206265206c617267657220360841b604082015260600190565b634e487b7160e01b600052601160045260246000fd5b8082018082111561183757611837611a85565b6001600160a01b03929092168252602082015260400190565b634e487b7160e01b600052603260045260246000fd5b600060018201611aef57611aef611a85565b5060010190565b6020808252600a90820152696e6f207265776172647360b01b604082015260600190565b6020808252601b908201527f6e6f7420656e6f7567682066756e647320666f72207061796f75740000000000604082015260600190565b8181038181111561183757611837611a85565b6020808252602e908201527f43616e206f6e6c792062652063616c6c65642062792074686520636f6e74726f60408201526d1b1b1a5b99c818dbdb9d1c9858dd60921b606082015260800190565b60208082526019908201527815985d5b1d081b5d5cdd081899481a5b9a5d1a585b1a5e9959603a1b604082015260600190565b808202811582820484141761183757611837611a85565b600082611c1957634e487b7160e01b600052601260045260246000fd5b500490565b600060208284031215611c3057600080fd5b8151801515811461157357600080fd5b60005b83811015611c5b578181015183820152602001611c43565b50506000910152565b60008251611c76818460208701611c40565b9190910192915050565b6020815260008251806020840152611c9f816040850160208701611c40565b601f01601f1916919091016040019291505056fe15fa0125f52e5705da1148bfcf00974823c4381bee4314203ede255f9477b73ed0a4ad96d49edb1c33461cebc6fb2609190f32c904e3c3f5877edb4488dee91e69e547947a4514871bf84679401f91758bd0fe92e4c005143f6d0e5213dab0cba2646970667358221220b21e3556a63d670878b407de5de6b96e544cfa6de90d98c0d8fecffb900a2b8e64736f6c63430008110033",
  "linkReferences": {},
  "deployedLinkReferences": {}
}