{
  "_format": "hh-sol-artifact-1",
  "contractName": "ThreeXWhaleProcessing",
  "sourceName": "contracts/core/defi/three-x/ThreeXWhaleProcessing.sol",
  "abi": [
    {
      "inputs": [
        {
          "internalType": "contract IContractRegistry",
          "name": "__contractRegistry",
          "type": "address"
        },
        {
          "internalType": "contract IBasicIssuanceModule",
          "name": "_basicIssuanceModule",
          "type": "address"
        },
        {
          "internalType": "contract IStaking",
          "name": "_staking",
          "type": "address"
        },
        {
          "internalType": "contract Curve3Pool",
          "name": "_threePool",
          "type": "address"
        },
        {
          "internalType": "contract IERC20[3]",
          "name": "_token",
          "type": "address[3]"
        }
      ],
      "stateMutability": "nonpayable",
      "type": "constructor"
    },
    {
      "anonymous": false,
      "inputs": [
        {
          "indexed": true,
          "internalType": "address",
          "name": "account",
          "type": "address"
        },
        {
          "indexed": false,
          "internalType": "enum BatchType",
          "name": "batchType",
          "type": "uint8"
        },
        {
          "indexed": false,
          "internalType": "uint256",
          "name": "shares",
          "type": "uint256"
        },
        {
          "indexed": false,
          "internalType": "uint256",
          "name": "claimedToken",
          "type": "uint256"
        }
      ],
      "name": "Claimed",
      "type": "event"
    },
    {
      "anonymous": false,
      "inputs": [
        {
          "indexed": true,
          "internalType": "address",
          "name": "from",
          "type": "address"
        },
        {
          "indexed": false,
          "internalType": "uint256",
          "name": "deposit",
          "type": "uint256"
        }
      ],
      "name": "Deposit",
      "type": "event"
    },
    {
      "anonymous": false,
      "inputs": [
        {
          "indexed": false,
          "internalType": "uint256",
          "name": "amount",
          "type": "uint256"
        },
        {
          "indexed": true,
          "internalType": "address",
          "name": "account",
          "type": "address"
        }
      ],
      "name": "DepositedUnclaimedSetTokenForRedeem",
      "type": "event"
    },
    {
      "anonymous": false,
      "inputs": [
        {
          "indexed": false,
          "internalType": "bytes32",
          "name": "feeType",
          "type": "bytes32"
        },
        {
          "indexed": false,
          "internalType": "uint256",
          "name": "newRedemptionFee",
          "type": "uint256"
        },
        {
          "indexed": false,
          "internalType": "address",
          "name": "newFeeRecipient",
          "type": "address"
        },
        {
          "indexed": false,
          "internalType": "address",
          "name": "toke",
          "type": "address"
        }
      ],
      "name": "FeeUpdated",
      "type": "event"
    },
    {
      "anonymous": false,
      "inputs": [
        {
          "indexed": false,
          "internalType": "bytes32",
          "name": "feeType",
          "type": "bytes32"
        },
        {
          "indexed": false,
          "internalType": "address",
          "name": "recipient",
          "type": "address"
        },
        {
          "indexed": false,
          "internalType": "uint256",
          "name": "amount",
          "type": "uint256"
        },
        {
          "indexed": false,
          "internalType": "address",
          "name": "token",
          "type": "address"
        }
      ],
      "name": "FeesClaimed",
      "type": "event"
    },
    {
      "anonymous": false,
      "inputs": [
        {
          "indexed": false,
          "internalType": "uint256",
          "name": "inputAmount",
          "type": "uint256"
        },
        {
          "indexed": false,
          "internalType": "uint256",
          "name": "outputAmount",
          "type": "uint256"
        }
      ],
      "name": "Minted",
      "type": "event"
    },
    {
      "anonymous": false,
      "inputs": [
        {
          "indexed": false,
          "internalType": "address",
          "name": "account",
          "type": "address"
        }
      ],
      "name": "Paused",
      "type": "event"
    },
    {
      "anonymous": false,
      "inputs": [
        {
          "components": [
            {
              "internalType": "uint256",
              "name": "batchCooldown",
              "type": "uint256"
            },
            {
              "internalType": "uint256",
              "name": "mintThreshold",
              "type": "uint256"
            },
            {
              "internalType": "uint256",
              "name": "redeemThreshold",
              "type": "uint256"
            }
          ],
          "indexed": false,
          "internalType": "struct AbstractBatchController.ProcessingThreshold",
          "name": "prevThreshold",
          "type": "tuple"
        },
        {
          "components": [
            {
              "internalType": "uint256",
              "name": "batchCooldown",
              "type": "uint256"
            },
            {
              "internalType": "uint256",
              "name": "mintThreshold",
              "type": "uint256"
            },
            {
              "internalType": "uint256",
              "name": "redeemThreshold",
              "type": "uint256"
            }
          ],
          "indexed": false,
          "internalType": "struct AbstractBatchController.ProcessingThreshold",
          "name": "newTreshold",
          "type": "tuple"
        }
      ],
      "name": "ProcessingThresholdUpdated",
      "type": "event"
    },
    {
      "anonymous": false,
      "inputs": [
        {
          "indexed": false,
          "internalType": "uint256",
          "name": "suppliedTokenAmount",
          "type": "uint256"
        },
        {
          "indexed": false,
          "internalType": "uint256",
          "name": "outputAmount",
          "type": "uint256"
        }
      ],
      "name": "Redeemed",
      "type": "event"
    },
    {
      "anonymous": false,
      "inputs": [
        {
          "components": [
            {
              "internalType": "uint256",
              "name": "mintBps",
              "type": "uint256"
            },
            {
              "internalType": "uint256",
              "name": "redeemBps",
              "type": "uint256"
            }
          ],
          "indexed": false,
          "internalType": "struct Slippage",
          "name": "prev",
          "type": "tuple"
        },
        {
          "components": [
            {
              "internalType": "uint256",
              "name": "mintBps",
              "type": "uint256"
            },
            {
              "internalType": "uint256",
              "name": "redeemBps",
              "type": "uint256"
            }
          ],
          "indexed": false,
          "internalType": "struct Slippage",
          "name": "current",
          "type": "tuple"
        }
      ],
      "name": "SlippageUpdated",
      "type": "event"
    },
    {
      "anonymous": false,
      "inputs": [
        {
          "indexed": false,
          "internalType": "address",
          "name": "beforeAddress",
          "type": "address"
        },
        {
          "indexed": false,
          "internalType": "address",
          "name": "afterAddress",
          "type": "address"
        }
      ],
      "name": "StakingUpdated",
      "type": "event"
    },
    {
      "anonymous": false,
      "inputs": [
        {
          "indexed": false,
          "internalType": "address",
          "name": "account",
          "type": "address"
        }
      ],
      "name": "Unpaused",
      "type": "event"
    },
    {
      "anonymous": false,
      "inputs": [
        {
          "indexed": true,
          "internalType": "address",
          "name": "to",
          "type": "address"
        },
        {
          "indexed": false,
          "internalType": "uint256",
          "name": "amount",
          "type": "uint256"
        }
      ],
      "name": "Withdrawal",
      "type": "event"
    },
    {
      "anonymous": false,
      "inputs": [
        {
          "indexed": false,
          "internalType": "bytes32",
          "name": "batchId",
          "type": "bytes32"
        },
        {
          "indexed": false,
          "internalType": "uint256",
          "name": "amount",
          "type": "uint256"
        },
        {
          "indexed": true,
          "internalType": "address",
          "name": "to",
          "type": "address"
        }
      ],
      "name": "WithdrawnFromBatch",
      "type": "event"
    },
    {
      "inputs": [
        {
          "internalType": "address",
          "name": "owner",
          "type": "address"
        }
      ],
      "name": "acceptClientAccess",
      "outputs": [],
      "stateMutability": "nonpayable",
      "type": "function"
    },
    {
      "inputs": [],
      "name": "basicIssuanceModule",
      "outputs": [
        {
          "internalType": "contract IBasicIssuanceModule",
          "name": "",
          "type": "address"
        }
      ],
      "stateMutability": "view",
      "type": "function"
    },
    {
      "inputs": [],
      "name": "batchStorage",
      "outputs": [
        {
          "internalType": "contract AbstractBatchStorage",
          "name": "",
          "type": "address"
        }
      ],
      "stateMutability": "view",
      "type": "function"
    },
    {
      "inputs": [
        {
          "internalType": "bytes32",
          "name": "batchId",
          "type": "bytes32"
        },
        {
          "internalType": "address",
          "name": "_claimFor",
          "type": "address"
        }
      ],
      "name": "claim",
      "outputs": [
        {
          "internalType": "uint256",
          "name": "",
          "type": "uint256"
        }
      ],
      "stateMutability": "nonpayable",
      "type": "function"
    },
    {
      "inputs": [
        {
          "internalType": "bytes32",
          "name": "_batchId",
          "type": "bytes32"
        }
      ],
      "name": "claimAndStake",
      "outputs": [],
      "stateMutability": "nonpayable",
      "type": "function"
    },
    {
      "inputs": [
        {
          "internalType": "bytes32",
          "name": "feeType",
          "type": "bytes32"
        }
      ],
      "name": "claimFee",
      "outputs": [],
      "stateMutability": "nonpayable",
      "type": "function"
    },
    {
      "inputs": [
        {
          "internalType": "bytes32",
          "name": "_batchId",
          "type": "bytes32"
        },
        {
          "internalType": "address",
          "name": "_claimFor",
          "type": "address"
        }
      ],
      "name": "claimForAndStake",
      "outputs": [],
      "stateMutability": "nonpayable",
      "type": "function"
    },
    {
      "inputs": [],
      "name": "contractName",
      "outputs": [
        {
          "internalType": "bytes32",
          "name": "",
          "type": "bytes32"
        }
      ],
      "stateMutability": "view",
      "type": "function"
    },
    {
      "inputs": [],
      "name": "currentMintBatchId",
      "outputs": [
        {
          "internalType": "bytes32",
          "name": "",
          "type": "bytes32"
        }
      ],
      "stateMutability": "view",
      "type": "function"
    },
    {
      "inputs": [],
      "name": "currentRedeemBatchId",
      "outputs": [
        {
          "internalType": "bytes32",
          "name": "",
          "type": "bytes32"
        }
      ],
      "stateMutability": "view",
      "type": "function"
    },
    {
      "inputs": [
        {
          "internalType": "uint256",
          "name": "amount",
          "type": "uint256"
        },
        {
          "internalType": "address",
          "name": "depositFor",
          "type": "address"
        }
      ],
      "name": "depositForMint",
      "outputs": [],
      "stateMutability": "nonpayable",
      "type": "function"
    },
    {
      "inputs": [
        {
          "internalType": "uint256",
          "name": "amount",
          "type": "uint256"
        }
      ],
      "name": "depositForRedeem",
      "outputs": [],
      "stateMutability": "nonpayable",
      "type": "function"
    },
    {
      "inputs": [
        {
          "internalType": "uint256",
          "name": "",
          "type": "uint256"
        }
      ],
      "name": "feeTypes",
      "outputs": [
        {
          "internalType": "bytes32",
          "name": "",
          "type": "bytes32"
        }
      ],
      "stateMutability": "view",
      "type": "function"
    },
    {
      "inputs": [
        {
          "internalType": "bytes32",
          "name": "",
          "type": "bytes32"
        }
      ],
      "name": "fees",
      "outputs": [
        {
          "internalType": "uint256",
          "name": "accumulated",
          "type": "uint256"
        },
        {
          "internalType": "uint256",
          "name": "bps",
          "type": "uint256"
        },
        {
          "internalType": "address",
          "name": "recipient",
          "type": "address"
        },
        {
          "internalType": "contract IERC20",
          "name": "token",
          "type": "address"
        }
      ],
      "stateMutability": "view",
      "type": "function"
    },
    {
      "inputs": [
        {
          "internalType": "bytes32",
          "name": "_id",
          "type": "bytes32"
        },
        {
          "internalType": "address",
          "name": "_owner",
          "type": "address"
        }
      ],
      "name": "getAccountBalance",
      "outputs": [
        {
          "internalType": "uint256",
          "name": "",
          "type": "uint256"
        }
      ],
      "stateMutability": "view",
      "type": "function"
    },
    {
      "inputs": [
        {
          "internalType": "address",
          "name": "account",
          "type": "address"
        }
      ],
      "name": "getAccountBatchIds",
      "outputs": [
        {
          "internalType": "bytes32[]",
          "name": "",
          "type": "bytes32[]"
        }
      ],
      "stateMutability": "view",
      "type": "function"
    },
    {
      "inputs": [
        {
          "internalType": "address",
          "name": "_account",
          "type": "address"
        }
      ],
      "name": "getAccountBatches",
      "outputs": [
        {
          "internalType": "bytes32[]",
          "name": "",
          "type": "bytes32[]"
        }
      ],
      "stateMutability": "view",
      "type": "function"
    },
    {
      "inputs": [
        {
          "internalType": "bytes32",
          "name": "batchId",
          "type": "bytes32"
        }
      ],
      "name": "getBatch",
      "outputs": [
        {
          "components": [
            {
              "internalType": "bytes32",
              "name": "id",
              "type": "bytes32"
            },
            {
              "internalType": "enum BatchType",
              "name": "batchType",
              "type": "uint8"
            },
            {
              "internalType": "bytes32",
              "name": "batchId",
              "type": "bytes32"
            },
            {
              "internalType": "bool",
              "name": "claimable",
              "type": "bool"
            },
            {
              "internalType": "uint256",
              "name": "unclaimedShares",
              "type": "uint256"
            },
            {
              "internalType": "uint256",
              "name": "sourceTokenBalance",
              "type": "uint256"
            },
            {
              "internalType": "uint256",
              "name": "targetTokenBalance",
              "type": "uint256"
            },
            {
              "internalType": "contract IERC20",
              "name": "sourceToken",
              "type": "address"
            },
            {
              "internalType": "contract IERC20",
              "name": "targetToken",
              "type": "address"
            },
            {
              "internalType": "address",
              "name": "owner",
              "type": "address"
            }
          ],
          "internalType": "struct Batch",
          "name": "",
          "type": "tuple"
        }
      ],
      "stateMutability": "view",
      "type": "function"
    },
    {
      "inputs": [
        {
          "internalType": "bytes32",
          "name": "batchId",
          "type": "bytes32"
        }
      ],
      "name": "getBatchType",
      "outputs": [
        {
          "internalType": "enum BatchType",
          "name": "",
          "type": "uint8"
        }
      ],
      "stateMutability": "view",
      "type": "function"
    },
    {
      "inputs": [
        {
          "internalType": "address",
          "name": "newClient",
          "type": "address"
        }
      ],
      "name": "grantClientAccess",
      "outputs": [],
      "stateMutability": "nonpayable",
      "type": "function"
    },
    {
      "inputs": [],
      "name": "lastMintedAt",
      "outputs": [
        {
          "internalType": "uint256",
          "name": "",
          "type": "uint256"
        }
      ],
      "stateMutability": "view",
      "type": "function"
    },
    {
      "inputs": [],
      "name": "lastRedeemedAt",
      "outputs": [
        {
          "internalType": "uint256",
          "name": "",
          "type": "uint256"
        }
      ],
      "stateMutability": "view",
      "type": "function"
    },
    {
      "inputs": [
        {
          "internalType": "uint256",
          "name": "_amount",
          "type": "uint256"
        },
        {
          "internalType": "uint256",
          "name": "_minMintAmount",
          "type": "uint256"
        },
        {
          "internalType": "bool",
          "name": "_stake",
          "type": "bool"
        }
      ],
      "name": "mint",
      "outputs": [],
      "stateMutability": "nonpayable",
      "type": "function"
    },
    {
      "inputs": [
        {
          "internalType": "uint256",
          "name": "_amount",
          "type": "uint256"
        },
        {
          "internalType": "int128",
          "name": "_fromIndex",
          "type": "int128"
        },
        {
          "internalType": "int128",
          "name": "_toIndex",
          "type": "int128"
        },
        {
          "internalType": "uint256",
          "name": "_minMintAmount",
          "type": "uint256"
        },
        {
          "internalType": "bool",
          "name": "_stake",
          "type": "bool"
        }
      ],
      "name": "mint",
      "outputs": [],
      "stateMutability": "nonpayable",
      "type": "function"
    },
    {
      "inputs": [],
      "name": "mintBatchTokens",
      "outputs": [
        {
          "internalType": "contract IERC20",
          "name": "targetToken",
          "type": "address"
        },
        {
          "internalType": "contract IERC20",
          "name": "sourceToken",
          "type": "address"
        }
      ],
      "stateMutability": "view",
      "type": "function"
    },
    {
      "inputs": [
        {
          "internalType": "bytes32[]",
          "name": "batchIds",
          "type": "bytes32[]"
        },
        {
          "internalType": "uint256[]",
          "name": "shares",
          "type": "uint256[]"
        },
        {
          "internalType": "bool",
          "name": "mint",
          "type": "bool"
        }
      ],
      "name": "moveUnclaimedIntoCurrentBatch",
      "outputs": [],
      "stateMutability": "nonpayable",
      "type": "function"
    },
    {
      "inputs": [],
      "name": "pause",
      "outputs": [],
      "stateMutability": "nonpayable",
      "type": "function"
    },
    {
      "inputs": [],
      "name": "paused",
      "outputs": [
        {
          "internalType": "bool",
          "name": "",
          "type": "bool"
        }
      ],
      "stateMutability": "view",
      "type": "function"
    },
    {
      "inputs": [],
      "name": "processingThreshold",
      "outputs": [
        {
          "internalType": "uint256",
          "name": "batchCooldown",
          "type": "uint256"
        },
        {
          "internalType": "uint256",
          "name": "mintThreshold",
          "type": "uint256"
        },
        {
          "internalType": "uint256",
          "name": "redeemThreshold",
          "type": "uint256"
        }
      ],
      "stateMutability": "view",
      "type": "function"
    },
    {
      "inputs": [
        {
          "internalType": "uint256",
          "name": "_amount",
          "type": "uint256"
        },
        {
          "internalType": "int128",
          "name": "_fromIndex",
          "type": "int128"
        },
        {
          "internalType": "int128",
          "name": "_toIndex",
          "type": "int128"
        },
        {
          "internalType": "uint256",
          "name": "_minRedeemAmount",
          "type": "uint256"
        }
      ],
      "name": "redeem",
      "outputs": [],
      "stateMutability": "nonpayable",
      "type": "function"
    },
    {
      "inputs": [
        {
          "internalType": "uint256",
          "name": "_amount",
          "type": "uint256"
        },
        {
          "internalType": "uint256",
          "name": "_minRedeemAmount",
          "type": "uint256"
        }
      ],
      "name": "redeem",
      "outputs": [],
      "stateMutability": "nonpayable",
      "type": "function"
    },
    {
      "inputs": [],
      "name": "redeemBatchTokens",
      "outputs": [
        {
          "internalType": "contract IERC20",
          "name": "targetToken",
          "type": "address"
        },
        {
          "internalType": "contract IERC20",
          "name": "sourceToken",
          "type": "address"
        }
      ],
      "stateMutability": "view",
      "type": "function"
    },
    {
      "inputs": [],
      "name": "setApprovals",
      "outputs": [],
      "stateMutability": "nonpayable",
      "type": "function"
    },
    {
      "inputs": [
        {
          "internalType": "contract AbstractBatchStorage",
          "name": "_address",
          "type": "address"
        }
      ],
      "name": "setBatchStorage",
      "outputs": [],
      "stateMutability": "nonpayable",
      "type": "function"
    },
    {
      "inputs": [
        {
          "internalType": "bytes32",
          "name": "feeType",
          "type": "bytes32"
        },
        {
          "internalType": "uint256",
          "name": "bps",
          "type": "uint256"
        },
        {
          "internalType": "address",
          "name": "recipient",
          "type": "address"
        },
        {
          "internalType": "contract IERC20",
          "name": "token",
          "type": "address"
        }
      ],
      "name": "setFee",
      "outputs": [],
      "stateMutability": "nonpayable",
      "type": "function"
    },
    {
      "inputs": [
        {
          "internalType": "uint256",
          "name": "_cooldown",
          "type": "uint256"
        },
        {
          "internalType": "uint256",
          "name": "_mintThreshold",
          "type": "uint256"
        },
        {
          "internalType": "uint256",
          "name": "_redeemThreshold",
          "type": "uint256"
        }
      ],
      "name": "setProcessingThreshold",
      "outputs": [],
      "stateMutability": "nonpayable",
      "type": "function"
    },
    {
      "inputs": [
        {
          "internalType": "uint256",
          "name": "_mintSlippage",
          "type": "uint256"
        },
        {
          "internalType": "uint256",
          "name": "_redeemSlippage",
          "type": "uint256"
        }
      ],
      "name": "setSlippage",
      "outputs": [],
      "stateMutability": "nonpayable",
      "type": "function"
    },
    {
      "inputs": [
        {
          "internalType": "address",
          "name": "_staking",
          "type": "address"
        }
      ],
      "name": "setStaking",
      "outputs": [],
      "stateMutability": "nonpayable",
      "type": "function"
    },
    {
      "inputs": [],
      "name": "slippage",
      "outputs": [
        {
          "internalType": "uint256",
          "name": "mintBps",
          "type": "uint256"
        },
        {
          "internalType": "uint256",
          "name": "redeemBps",
          "type": "uint256"
        }
      ],
      "stateMutability": "view",
      "type": "function"
    },
    {
      "inputs": [],
      "name": "staking",
      "outputs": [
        {
          "internalType": "contract IStaking",
          "name": "",
          "type": "address"
        }
      ],
      "stateMutability": "view",
      "type": "function"
    },
    {
      "inputs": [
        {
          "internalType": "uint256",
          "name": "",
          "type": "uint256"
        }
      ],
      "name": "token",
      "outputs": [
        {
          "internalType": "contract IERC20",
          "name": "",
          "type": "address"
        }
      ],
      "stateMutability": "view",
      "type": "function"
    },
    {
      "inputs": [],
      "name": "unpause",
      "outputs": [],
      "stateMutability": "nonpayable",
      "type": "function"
    },
    {
      "inputs": [
        {
          "internalType": "bytes32",
          "name": "_batchId",
          "type": "bytes32"
        },
        {
          "internalType": "uint256",
          "name": "_amountToWithdraw",
          "type": "uint256"
        },
        {
          "internalType": "address",
          "name": "_withdrawFor",
          "type": "address"
        }
      ],
      "name": "withdrawFromBatch",
      "outputs": [
        {
          "internalType": "uint256",
          "name": "",
          "type": "uint256"
        }
      ],
      "stateMutability": "nonpayable",
      "type": "function"
    },
    {
      "inputs": [
        {
          "internalType": "bytes32",
          "name": "_batchId",
          "type": "bytes32"
        },
        {
          "internalType": "uint256",
          "name": "_amountToWithdraw",
          "type": "uint256"
        },
        {
          "internalType": "address",
          "name": "_withdrawFor",
          "type": "address"
        },
        {
          "internalType": "address",
          "name": "_recipient",
          "type": "address"
        }
      ],
      "name": "withdrawFromBatch",
      "outputs": [
        {
          "internalType": "uint256",
          "name": "",
          "type": "uint256"
        }
      ],
      "stateMutability": "nonpayable",
      "type": "function"
    }
  ],
  "bytecode": "0x60806040523480156200001157600080fd5b5060405162005987380380620059878339810160408190526200003491620003c6565b6004546000805460ff19169055600180556001600160a01b039081169086908116620000955760405162461bcd60e51b815260206004820152600c60248201526b5a65726f206164647265737360a01b604482015260640160405180910390fd5b600480546001600160a01b03199081166001600160a01b03938416179091556014805482168884161790556015805490911691851691909117905550620000e06016826003620002f8565b50600680546001600160a01b0319166001600160a01b0385161790556000620001297f704ad3a59be98f184239509fa87569e37a7bbe9669c628d3185d41415cecb98862000267565b9050806001600160a01b03166317fa15a46040518163ffffffff1660e01b81526004016040805180830381865afa15801562000169573d6000803e3d6000fd5b505050506040513d601f19601f820116820180604052508101906200018f919062000491565b8051601280546001600160a01b03199081166001600160a01b03938416179091556020909201516013805490931690821617909155604080516354eb1aa360e11b815281519284169263a9d63546926004808401939192918290030181865afa15801562000201573d6000803e3d6000fd5b505050506040513d601f19601f8201168201806040525081019062000227919062000491565b8051601080546001600160a01b03199081166001600160a01b0393841617909155602090920151601180549093169116179055506200051e945050505050565b60006200027f826200028560201b62001ac41760201c565b92915050565b60048054604051631c2d8fb360e31b81529182018390526000916001600160a01b039091169063e16c7d9890602401602060405180830381865afa158015620002d2573d6000803e3d6000fd5b505050506040513d601f19601f820116820180604052508101906200027f9190620004f7565b826003810192821562000343579160200282015b828111156200034357825182546001600160a01b0319166001600160a01b039091161782556020909201916001909101906200030c565b506200035192915062000355565b5090565b5b8082111562000351576000815560010162000356565b6001600160a01b03811681146200038257600080fd5b50565b634e487b7160e01b600052604160045260246000fd5b604051606081016001600160401b0381118282101715620003c057620003c062000385565b60405290565b600080600080600060e08688031215620003df57600080fd5b8551620003ec816200036c565b8095505060208087015162000401816200036c565b604088015190955062000414816200036c565b606088015190945062000427816200036c565b9250609f870188136200043957600080fd5b620004436200039b565b8060e089018a8111156200045657600080fd5b60808a015b818110156200047f57805162000471816200036c565b84529284019284016200045b565b50508093505050509295509295909350565b600060408284031215620004a457600080fd5b604080519081016001600160401b0381118282101715620004c957620004c962000385565b6040528251620004d9816200036c565b81526020830151620004eb816200036c565b60208201529392505050565b6000602082840312156200050a57600080fd5b815162000517816200036c565b9392505050565b615459806200052e6000396000f3fe608060405234801561001057600080fd5b50600436106102745760003560e01c806375d0c0dc11610151578063ab1fc17f116100c3578063e0f9de0511610087578063e0f9de05146105ce578063ed42136f146105e1578063eddcb7d114610601578063f1230cb51461060a578063f238c5551461061d578063f7ddab951461063057600080fd5b8063ab1fc17f1461031c578063bc9ef3e014610542578063cbcc5ea214610555578063cdb5661f14610568578063df90677e146105bb57600080fd5b806390d1f2451161011557806390d1f245146104c6578063961b7d86146104cf57806396c144f0146104e25780639b00f16f146104f55780639db95d0514610508578063a9d635461461052857600080fd5b806375d0c0dc146104715780637cbc2373146104905780638456cb59146104a35780638757b15b146104ab5780638ff39099146104b357600080fd5b80633e032a3b116101ea5780635a3f0ca0116101ae5780635a3f0ca0146104065780635a5929951461040f5780635c975abb146104225780635d7ef611146104385780635f4bb80b1461044b578063620723a91461045e57600080fd5b80633e032a3b146103a25780633f4ba83a146103c55780634a7603d8146103cd5780634cf088d9146103e057806350e2c07f146103f357600080fd5b806327c56c171161023c57806327c56c171461030957806328d3ef0b1461031c578063348a355f1461033c5780633845b2061461034f5780633af3bfb51461037c5780633d3f60b91461038f57600080fd5b8063044215c61461027957806317fa15a4146102a2578063264c7984146102ca57806326bc8b4f146102e157806327360d69146102f6575b600080fd5b61028c61028736600461467a565b610643565b6040516102999190614693565b60405180910390f35b6012546013546102bc916001600160a01b03908116911682565b6040516102999291906146a7565b6102d3600c5481565b604051908152602001610299565b6102f46102ef3660046146d6565b610663565b005b6102f461030436600461467a565b610732565b6102f461031736600461467a565b61077c565b61032f61032a3660046146d6565b610786565b60405161029991906146f3565b6102f461034a3660046146d6565b610802565b600954600a54600b5461036192919083565b60408051938452602084019290925290820152606001610299565b6102d361038a366004614737565b610891565b6102f461039d366004614787565b6108a7565b6007546008546103b0919082565b60408051928352602083019190915201610299565b6102f46109bf565b6102d36103db3660046147cb565b610a2a565b60065461028c906001600160a01b031681565b60145461028c906001600160a01b031681565b6102d3600d5481565b6102f461041d3660046146d6565b610aa5565b60005460ff166040519015158152602001610299565b6102f46104463660046147cb565b610b50565b6102f4610459366004614809565b610c71565b6102d361046c366004614837565b610c7f565b6102d3745468726565585768616c6550726f63657373696e6760581b81565b6102f461049e366004614881565b610c96565b6102f4610ca3565b6102f4610d0a565b6102f46104c13660046146d6565b611203565b6102d3600f5481565b6102f46104dd3660046147cb565b6112cd565b6102d36104f03660046147cb565b611314565b6102f4610503366004614837565b6113fd565b61051b61051636600461467a565b611465565b60405161029991906148db565b6010546011546102bc916001600160a01b03908116911682565b6102f4610550366004614881565b6114f5565b6102f461056336600461467a565b6115c6565b6105ab61057636600461467a565b600260208190526000918252604090912080546001820154928201546003909201549092916001600160a01b03908116911684565b60405161029994939291906148e9565b6102f46105c9366004614910565b61167e565b6102f46105dc366004614987565b611771565b6105f46105ef36600461467a565b611901565b6040516102999190614a0a565b6102d3600e5481565b60055461028c906001600160a01b031681565b6102f461062b366004614aaa565b611977565b6102d361063e36600461467a565b611aa3565b6016816003811061065357600080fd5b01546001600160a01b0316905081565b6000805160206153c483398151915260008051602061540483398151915261068b8233611b34565b1515600114806106a657506106a08133611b34565b15156001145b6106cb5760405162461bcd60e51b81526004016106c290614af7565b60405180910390fd5b6005546040516326bc8b4f60e01b81526001600160a01b03909116906326bc8b4f906106fb908690600401614693565b600060405180830381600087803b15801561071557600080fd5b505af1158015610729573d6000803e3d6000fd5b50505050505050565b61073a611bac565b610742611c05565b61074b33611c4d565b601154610763906001600160a01b0316333084611cb3565b61077081600f5433611d1e565b61077960018055565b50565b6107798133610b50565b6005546040516328d3ef0b60e01b81526060916001600160a01b0316906328d3ef0b906107b7908590600401614693565b600060405180830381865afa1580156107d4573d6000803e3d6000fd5b505050506040513d6000823e601f3d908101601f191682016040526107fc9190810190614be2565b92915050565b6000805160206153c483398151915260008051602061540483398151915261082a8233611b34565b151560011480610845575061083f8133611b34565b15156001145b6108615760405162461bcd60e51b81526004016106c290614af7565b60055460405163348a355f60e01b81526001600160a01b039091169063348a355f906106fb908690600401614693565b600061089f84848485611dde565b949350505050565b60006108c06000805160206153e4833981519152611fe2565b90506000816001600160a01b031663a9d635466040518163ffffffff1660e01b81526004016040805180830381865afa158015610901573d6000803e3d6000fd5b505050506040513d601f19601f820116820180604052508101906109259190614c77565b6020810151909150610942906001600160a01b0316333089611cb3565b600061094f878585611fed565b905084600f0b86600f0b1461096c5761096986868361222a565b90505b8381101561098c5760405162461bcd60e51b81526004016106c290614cb8565b61072933826016886001600160801b0316600381106109ad576109ad614ce3565b01546001600160a01b0316919061232e565b6000805160206153c48339815191526000805160206154048339815191526109e78233611b34565b151560011480610a0257506109fc8133611b34565b15156001145b610a1e5760405162461bcd60e51b81526004016106c290614af7565b610a2661234d565b5050565b60055460405163ed09e19d60e01b81526000916001600160a01b03169063ed09e19d90610a5d9086908690600401614cf9565b602060405180830381865afa158015610a7a573d6000803e3d6000fd5b505050506040513d601f19601f82011682018060405250810190610a9e9190614d10565b9392505050565b6000805160206153c4833981519152600080516020615404833981519152610acd8233611b34565b151560011480610ae85750610ae28133611b34565b15156001145b610b045760405162461bcd60e51b81526004016106c290614af7565b600580546001600160a01b0319166001600160a01b038516179055600e54600003610b3557610b336000612399565b505b600f54600003610b4b57610b496001612399565b505b505050565b600080600080610b618686306124d0565b50929650909450925090506000836001811115610b8057610b806148a3565b14610bc05760405162461bcd60e51b815260206004820152601060248201526f77726f6e67206261746368207479706560801b60448201526064016106c2565b836001600160a01b03167f8d2dd554e7207f2edcec3f94a370536aa5b74554b28e814f77ec34780a185524848484604051610bfd93929190614d29565b60405180910390a26006546040516328ba35d960e11b81526001600160a01b03909116906351746bb290610c379084908990600401614cf9565b600060405180830381600087803b158015610c5157600080fd5b505af1158015610c65573d6000803e3d6000fd5b50505050505050505050565b610b4b836001808585611977565b6000610c8d85858585611dde565b95945050505050565b610a2682600180846108a7565b6000805160206153c4833981519152600080516020615404833981519152610ccb8233611b34565b151560011480610ce65750610ce08133611b34565b15156001145b610d025760405162461bcd60e51b81526004016106c290614af7565b610a266127a4565b6000610d236000805160206153e4833981519152611fe2565b601454601254604051637a4ffd0360e01b81529293506000926001600160a01b0392831692637a4ffd0392610d6792911690670de0b6b3a764000090600401614d48565b600060405180830381865afa158015610d84573d6000803e3d6000fd5b505050506040513d6000823e601f3d908101601f19168201604052610dac9190810190614dc7565b50905060005b8151811015611086576000836001600160a01b031663222b7f3d848481518110610dde57610dde614ce3565b60200260200101516040518263ffffffff1660e01b8152600401610e029190614693565b60a060405180830381865afa158015610e1f573d6000803e3d6000fd5b505050506040513d601f19601f82011682018060405250810190610e439190614e8b565b90506000816000015190506000826060015190506000866001600160a01b031663dc73e49c6040518163ffffffff1660e01b8152600401602060405180830381865afa158015610e97573d6000803e3d6000fd5b505050506040513d601f19601f82011682018060405250810190610ebb9190614f22565b905084600003610f3257601354610edd906001600160a01b03168360006127e1565b601354610ef6906001600160a01b0316836000196127e1565b6020840151610f11906001600160a01b0385169060006127e1565b6020840151610f2d906001600160a01b038516906000196127e1565b610fd3565b6080840151601354610f51916001600160a01b039091169060006127e1565b6080840151601354610f71916001600160a01b03909116906000196127e1565b6080840151610f8c906001600160a01b0383169060006127e1565b6080840151610fa8906001600160a01b038316906000196127e1565b610fbd6001600160a01b0382168360006127e1565b610fd36001600160a01b038216836000196127e1565b61100b868681518110610fe857610fe8614ce3565b60200260200101516000856001600160a01b03166127e19092919063ffffffff16565b61104486868151811061102057611020614ce3565b6020026020010151600019856001600160a01b03166127e19092919063ffffffff16565b6110596001600160a01b0384168360006127e1565b61106f6001600160a01b038416836000196127e1565b50505050808061107e90614f55565b915050610db2565b5060005b60038110156111635760155460405163c661065760e01b815260048101839052611118916001600160a01b031690600090829063c6610657906024015b602060405180830381865afa1580156110e4573d6000803e3d6000fd5b505050506040513d601f19601f820116820180604052508101906111089190614f22565b6001600160a01b031691906127e1565b60155460405163c661065760e01b815260048101839052611151916001600160a01b03169060001990829063c6610657906024016110c7565b8061115b81614f55565b91505061108a565b5060135461117c906001600160a01b03168360006127e1565b601354611195906001600160a01b0316836000196127e1565b6006546012546111b3916001600160a01b03918216911660006127e1565b6006546012546111d2916001600160a01b0391821691166000196127e1565b6011546111ea906001600160a01b03168360006127e1565b601154610a26906001600160a01b0316836000196127e1565b6000805160206153c483398151915260008051602061540483398151915261122b8233611b34565b15156001148061124657506112408133611b34565b15156001145b6112625760405162461bcd60e51b81526004016106c290614af7565b6006546040517fcfa056eb826b2a28817aa38ccb94f12ba8a1309598f7ea19bef6fd67fe04b61e916112a1916001600160a01b039091169086906146a7565b60405180910390a15050600680546001600160a01b0319166001600160a01b0392909216919091179055565b6112d5611bac565b6112dd611c05565b6112e633611c4d565b6013546112fe906001600160a01b0316333085611cb3565b61130b82600e5483611d1e565b610a2660018055565b60008060008060006113278787306124d0565b509350935093509350836001600160a01b03167f8d2dd554e7207f2edcec3f94a370536aa5b74554b28e814f77ec34780a18552484848460405161136d93929190614d29565b60405180910390a260405163ed42136f60e01b8152600481018890526113f39085908390309063ed42136f9060240161014060405180830381865afa1580156113ba573d6000803e3d6000fd5b505050506040513d601f19601f820116820180604052508101906113de9190614f88565b61010001516001600160a01b0316919061232e565b9695505050505050565b6000805160206153c4833981519152611415816128e4565b611421858585856128ee565b7fa7c79afdc73dec24d368c41b55ade0a2b56064448d144da36767545a952c11348585858560405161145694939291906148e9565b60405180910390a15050505050565b60055460405163ed42136f60e01b81526004810183905260009182916001600160a01b039091169063ed42136f9060240161014060405180830381865afa1580156114b4573d6000803e3d6000fd5b505050506040513d601f19601f820116820180604052508101906114d89190614f88565b905080604001516000036114eb57600080fd5b6020015192915050565b6000805160206153c483398151915260008051602061540483398151915261151d8233611b34565b15156001148061153857506115328133611b34565b15156001145b6115545760405162461bcd60e51b81526004016106c290614af7565b60408051808201825285815260208082018681528351600754815260085492810192909252825182850152516060820152915190917fa801034ba86d5e2f5d9165b6e24a6425dd65a938d9292b9c34205aada84624ea919081900360800190a180516007556020015160085550505050565b60008181526002602081815260409283902083516080810185528154808252600183015493820193909352928101546001600160a01b0390811694840185905260039091015416606083018190529192611620929161232e565b60008281526002602052604080822091909155818101518251606084015192517f5c2e7c9af26a3bccf808a71ac773567389d32f592ec33281af48e6c7628875cf93611672938793909290919061502d565b60405180910390a15050565b6000805160206153c48339815191526000805160206154048339815191526116a68233611b34565b1515600114806116c157506116bb8133611b34565b15156001145b6116dd5760405162461bcd60e51b81526004016106c290614af7565b6040805160608082018352878252602080830188815283850188815285516009548152600a5493810193909352600b5483870152845193830193909352516080820152905160a0820152915190917f949dd1444f2ae003066f20ed4f2625a810b4061f3f403a7f2020e4be3bb68f1a919081900360c00190a180516009556020810151600a5560400151600b555050505050565b611779611c05565b8382146117c35760405162461bcd60e51b81526020600482015260186024820152770c2e4e4c2f240d8cadccee8d0e640daeae6e840dac2e8c6d60431b60448201526064016106c2565b6000805b858110156118c3576005546001600160a01b031663f03002488888848181106117f2576117f2614ce3565b905060200201358561180657600f5461180a565b600e545b3389898781811061181d5761181d614ce3565b905060200201356040518563ffffffff1660e01b8152600401611862949392919093845260208401929092526001600160a01b03166040830152606082015260800190565b6020604051808303816000875af1158015611881573d6000803e3d6000fd5b505050506040513d601f19601f820116820180604052508101906118a59190614d10565b6118af9083615054565b9150806118bb81614f55565b9150506117c7565b5060405181815233907fcf29fe34c5408281e0161cb9b531aa716cd272861340d6c3eef925b37998f5ee9060200160405180910390a2505050505050565b611909614625565b60055460405163ed42136f60e01b8152600481018490526001600160a01b039091169063ed42136f9060240161014060405180830381865afa158015611953573d6000803e3d6000fd5b505050506040513d601f19601f820116820180604052508101906107fc9190614f88565b6119ac3330876016886001600160801b03166003811061199957611999614ce3565b01546001600160a01b0316929190611cb3565b60006119c56000805160206153e4833981519152611fe2565b905085600f86810b9086900b146119e4576119e186868961222a565b90505b60006119f18286856129d0565b905084811015611a135760405162461bcd60e51b81526004016106c290614cb8565b8315611a82576006546040516328ba35d960e11b81526001600160a01b03909116906351746bb290611a4b9084903390600401614cf9565b600060405180830381600087803b158015611a6557600080fd5b505af1158015611a79573d6000803e3d6000fd5b50505050611a99565b601254611a99906001600160a01b0316338361232e565b5050505050505050565b60038181548110611ab357600080fd5b600091825260209091200154905081565b60048054604051631c2d8fb360e31b81529182018390526000916001600160a01b039091169063e16c7d9890602401602060405180830381865afa158015611b10573d6000803e3d6000fd5b505050506040513d601f19601f820116820180604052508101906107fc9190614f22565b6000611b3e612c1d565b6001600160a01b03166391d1485484846040518363ffffffff1660e01b8152600401611b6b929190614cf9565b602060405180830381865afa158015611b88573d6000803e3d6000fd5b505050506040513d601f19601f82011682018060405250810190610a9e9190615067565b600260015403611bfe5760405162461bcd60e51b815260206004820152601f60248201527f5265656e7472616e637947756172643a207265656e7472616e742063616c6c0060448201526064016106c2565b6002600155565b60005460ff1615611c4b5760405162461bcd60e51b815260206004820152601060248201526f14185d5cd8589b194e881c185d5cd95960821b60448201526064016106c2565b565b611c55612c1d565b6001600160a01b031663db47d436826040518263ffffffff1660e01b8152600401611c809190614693565b60006040518083038186803b158015611c9857600080fd5b505afa158015611cac573d6000803e3d6000fd5b5050505050565b6040516001600160a01b0380851660248301528316604482015260648101829052610b499085906323b872dd60e01b906084015b60408051601f198184030181529190526020810180516001600160e01b03166001600160e01b031990931692909217909152612c4d565b600554604051633655218f60e21b81526001600160a01b039091169063d954863c90611d5290859085908890600401615084565b6020604051808303816000875af1158015611d71573d6000803e3d6000fd5b505050506040513d601f19601f82011682018060405250810190611d959190614d10565b50806001600160a01b03167fe1fffcc4923d04b559f4d29a8bfc6cda04eb5b0d3c460751c2402c5c5cc9109c84604051611dd191815260200190565b60405180910390a2505050565b6000611e0a7f0e2dda614c917409f328faa7e8f62272f5bfaf5c28cbe7d5490197df7be8aa7833611b34565b80611e1d5750336001600160a01b038416145b611e395760405162461bcd60e51b81526004016106c2906150a3565b336001600160a01b03841614611f185760055460405163ed42136f60e01b8152600481018790526001600160a01b0390911690635eddd9c990829063ed42136f9060240161014060405180830381865afa158015611e9b573d6000803e3d6000fd5b505050506040513d601f19601f82011682018060405250810190611ebf9190614f88565b60e001513388886040518563ffffffff1660e01b8152600401611ee594939291906150da565b600060405180830381600087803b158015611eff57600080fd5b505af1158015611f13573d6000803e3d6000fd5b505050505b600554604051631a0a12a760e21b81526000916001600160a01b0316906368284a9c90611f4f90899088908a90899060040161502d565b6020604051808303816000875af1158015611f6e573d6000803e3d6000fd5b505050506040513d601f19601f82011682018060405250810190611f929190614d10565b60408051888152602081018390529192506001600160a01b038616917f08afc380d5171e1371c567cd7562cc8ff4e9c38c66d5e479c613fdf38106d845910160405180910390a295945050505050565b60006107fc82611ac4565b601454601154604051637a4ffd0360e01b8152600092839283926001600160a01b0392831692637a4ffd039261202a929116908a90600401614d48565b600060405180830381865afa158015612047573d6000803e3d6000fd5b505050506040513d6000823e601f3d908101601f1916820160405261206f9190810190614dc7565b915091506000846001600160a01b03166308a03f7784846040518363ffffffff1660e01b81526004016120a3929190615103565b602060405180830381865afa1580156120c0573d6000803e3d6000fd5b505050506040513d601f19601f820116820180604052508101906120e49190614d10565b9050846001600160a01b031663e0dcb6cc82876001600160a01b0316633e032a3b6040518163ffffffff1660e01b81526004016040805180830381865afa158015612133573d6000803e3d6000fd5b505050506040513d601f19601f820116820180604052508101906121579190615187565b602001516040516001600160e01b031960e085901b16815260048101929092526024820152604401602060405180830381865afa15801561219c573d6000803e3d6000fd5b505050506040513d601f19601f820116820180604052508101906121c09190614d10565b86106121d7576121d08786612d1f565b93506121e6565b6121e387878786612e81565b93505b60408051888152602081018690527f6f73b7b8d37df32ea60a45eadc8fc3d2d716d705ee099bd506817482ce84731691015b60405180910390a15050509392505050565b601554604051630f7c084960e21b8152600f85810b600483015284900b602482015260448101839052600060648201819052916001600160a01b031690633df0212490608401600060405180830381600087803b15801561228a57600080fd5b505af115801561229e573d6000803e3d6000fd5b505050506016836001600160801b0316600381106122be576122be614ce3565b01546040516370a0823160e01b81526001600160a01b03909116906370a08231906122ed903090600401614693565b602060405180830381865afa15801561230a573d6000803e3d6000fd5b505050506040513d601f19601f8201168201806040525081019061089f9190614d10565b610b4b8363a9059cbb60e01b8484604051602401611ce7929190614d48565b61235561319f565b6000805460ff191690557f5db9ee0a495bf2e6ff9c91a7834c1ba4fdd244a5e8aa4e537bd38aeae4b073aa335b60405161238f9190614693565b60405180910390a1565b6000808260018111156123ae576123ae6148a3565b600003612434576005546040516341b2ce6160e01b81526001600160a01b03909116906341b2ce61906123e9906000906012906004016151b9565b6020604051808303816000875af1158015612408573d6000803e3d6000fd5b505050506040513d601f19601f8201168201806040525081019061242c9190614d10565b600e81905590505b826001811115612446576124466148a3565b6001036107fc576005546040516341b2ce6160e01b81526001600160a01b03909116906341b2ce6190612481906001906010906004016151b9565b6020604051808303816000875af11580156124a0573d6000803e3d6000fd5b505050506040513d601f19601f820116820180604052508101906124c49190614d10565b600f8190559392505050565b6000806000806124de614625565b6125087f0e2dda614c917409f328faa7e8f62272f5bfaf5c28cbe7d5490197df7be8aa7833611b34565b8061251b5750336001600160a01b038816145b6125375760405162461bcd60e51b81526004016106c2906150a3565b60055460405163ed42136f60e01b8152600481018a90526000916001600160a01b03169063ed42136f9060240161014060405180830381865afa158015612582573d6000803e3d6000fd5b505050506040513d601f19601f820116820180604052508101906125a69190614f88565b9050336001600160a01b0389161461270a5760055460405163094ec07b60e31b81526000916001600160a01b03169063155ab552908c908c908490634a7603d8906125f79085908590600401614cf9565b602060405180830381865afa158015612614573d6000803e3d6000fd5b505050506040513d601f19601f820116820180604052508101906126389190614d10565b6040518463ffffffff1660e01b815260040161265693929190615084565b606060405180830381865afa158015612673573d6000803e3d6000fd5b505050506040513d601f19601f8201168201806040525081019061269791906151ed565b5050600554610100840151604051635eddd9c960e01b81529293506001600160a01b0390911691635eddd9c9916126d69133908f9087906004016150da565b600060405180830381600087803b1580156126f057600080fd5b505af1158015612704573d6000803e3d6000fd5b50505050505b600554604051632d6c632d60e11b815260009182916001600160a01b0390911690635ad8c65a90612745908e908e9086908f9060040161502d565b60408051808303816000875af1158015612763573d6000803e3d6000fd5b505050506040513d601f19601f82011682018060405250810190612787919061521b565b6020850151339e909d50909b509099509297509195505050505050565b6127ac611c05565b6000805460ff191660011790557f62e78cea01bee320cd4e420270b5ea74000d11b0c9f74754ebdbfc544b05a2586123823390565b80158061285a5750604051636eb1769f60e11b81526001600160a01b0384169063dd62ed3e9061281790309086906004016146a7565b602060405180830381865afa158015612834573d6000803e3d6000fd5b505050506040513d601f19601f820116820180604052508101906128589190614d10565b155b6128c55760405162461bcd60e51b815260206004820152603660248201527f5361666545524332303a20617070726f76652066726f6d206e6f6e2d7a65726f60448201527520746f206e6f6e2d7a65726f20616c6c6f77616e636560501b60648201526084016106c2565b610b4b8363095ea7b360e01b8484604051602401611ce7929190614d48565b61077981336131e8565b60648311156129305760405162461bcd60e51b815260206004820152600e60248201526d646f6e742062652067726565647960901b60448201526064016106c2565b6000848152600260205260409020600301546001600160a01b031661298557600380546001810182556000919091527fc2575a0e9e593c00f959f8c92f12db2869c3395a3b0502d05e2516446f71f85b018490555b6000938452600260208190526040909420600181019390935592820180546001600160a01b039283166001600160a01b03199182161790915560039092018054919093169116179055565b601454601254604051637a4ffd0360e01b8152600092839283926001600160a01b0392831692637a4ffd0392612a1592911690670de0b6b3a764000090600401614d48565b600060405180830381865afa158015612a32573d6000803e3d6000fd5b505050506040513d6000823e601f3d908101601f19168201604052612a5a9190810190614dc7565b915091506000846001600160a01b03166308a03f7784846040518363ffffffff1660e01b8152600401612a8e929190615103565b602060405180830381865afa158015612aab573d6000803e3d6000fd5b505050506040513d601f19601f82011682018060405250810190612acf9190614d10565b90506001600160a01b03851663ed344442612aef8964e8d4a5100061523f565b83886001600160a01b0316633e032a3b6040518163ffffffff1660e01b81526004016040805180830381865afa158015612b2d573d6000803e3d6000fd5b505050506040513d601f19601f82011682018060405250810190612b519190615187565b5160405160e085901b6001600160e01b0319168152600481019390935260248301919091526044820152606401602060405180830381865afa158015612b9b573d6000803e3d6000fd5b505050506040513d601f19601f82011682018060405250810190612bbf9190614d10565b8610612bd657612bcf8786613251565b9350612be7565b612be4878787868686613354565b93505b60408051888152602081018690527f8a9dcf4e150b1153011b29fec302d5be0c13e84fa8f56ab78587f778a32a90dd9101612218565b6000612c487f15fa0125f52e5705da1148bfcf00974823c4381bee4314203ede255f9477b73e611fe2565b905090565b6000612ca2826040518060400160405280602081526020017f5361666545524332303a206c6f772d6c6576656c2063616c6c206661696c6564815250856001600160a01b031661395a9092919063ffffffff16565b805190915015610b4b5780806020019051810190612cc09190615067565b610b4b5760405162461bcd60e51b815260206004820152602a60248201527f5361666545524332303a204552433230206f7065726174696f6e20646964206e6044820152691bdd081cdd58d8d9595960b21b60648201526084016106c2565b600080826001600160a01b03166390d1f2456040518163ffffffff1660e01b8152600401602060405180830381865afa158015612d60573d6000803e3d6000fd5b505050506040513d601f19601f82011682018060405250810190612d849190614d10565b6040516327360d6960e01b8152600481018690529091506001600160a01b038416906327360d6990602401600060405180830381600087803b158015612dc957600080fd5b505af1158015612ddd573d6000803e3d6000fd5b50505050826001600160a01b031663784e71f96040518163ffffffff1660e01b8152600401600060405180830381600087803b158015612e1c57600080fd5b505af1158015612e30573d6000803e3d6000fd5b505060405163096c144f60e41b81526001600160a01b03861692506396c144f09150612e629084903090600401614cf9565b6020604051808303816000875af115801561230a573d6000803e3d6000fd5b6000612e8c85613969565b601454601154604051635c833bfd60e01b81526001600160a01b0392831692635c833bfd92612ec49291169089903090600401615256565b600060405180830381600087803b158015612ede57600080fd5b505af1158015612ef2573d6000803e3d6000fd5b5050505060005b82518110156130c1576000846001600160a01b031663222b7f3d858481518110612f2557612f25614ce3565b60200260200101516040518263ffffffff1660e01b8152600401612f499190614693565b60a060405180830381865afa158015612f66573d6000803e3d6000fd5b505050506040513d601f19601f82011682018060405250810190612f8a9190614e8b565b9050613034848381518110612fa157612fa1614ce3565b60200260200101516001600160a01b03166370a08231306040518263ffffffff1660e01b8152600401612fd49190614693565b602060405180830381865afa158015612ff1573d6000803e3d6000fd5b505050506040513d601f19601f820116820180604052508101906130159190614d10565b85848151811061302757613027614ce3565b60200260200101516139a4565b80516040516370a0823160e01b81526130ae916001600160a01b0316906370a0823190613065903090600401614693565b602060405180830381865afa158015613082573d6000803e3d6000fd5b505050506040513d601f19601f820116820180604052508101906130a69190614d10565b828488613a10565b50806130b981614f55565b915050612ef9565b506572656465656d60d01b600090815260026020527faa2f102b1a6a86665c2de8f0cb41220c8ef9a2be9996f61bbaf4fc54eb7d3bce546010546040516370a0823160e01b81526001600160a01b03909116906370a0823190613128903090600401614693565b602060405180830381865afa158015613145573d6000803e3d6000fd5b505050506040513d601f19601f820116820180604052508101906131699190614d10565b6131739190615279565b90506113f36572656465656d60d01b61318c8784615279565b60105484906001600160a01b0316613cb6565b60005460ff16611c4b5760405162461bcd60e51b815260206004820152601460248201527314185d5cd8589b194e881b9bdd081c185d5cd95960621b60448201526064016106c2565b6131f0612c1d565b6001600160a01b031663d09a20c583836040518363ffffffff1660e01b815260040161321d929190614cf9565b60006040518083038186803b15801561323557600080fd5b505afa158015613249573d6000803e3d6000fd5b505050505050565b600080826001600160a01b031663eddcb7d16040518163ffffffff1660e01b8152600401602060405180830381865afa158015613292573d6000803e3d6000fd5b505050506040513d601f19601f820116820180604052508101906132b69190614d10565b604051634b0dbec360e11b81529091506001600160a01b0384169063961b7d86906132e79087903090600401614cf9565b600060405180830381600087803b15801561330157600080fd5b505af1158015613315573d6000803e3d6000fd5b50505050826001600160a01b031663e3424c936040518163ffffffff1660e01b8152600401600060405180830381600087803b158015612e1c57600080fd5b600080879050600084516001600160401b0381111561337557613375614b2e565b60405190808252806020026020018201604052801561339e578160200160208202803683370190505b509050600085516001600160401b038111156133bc576133bc614b2e565b6040519080825280602002602001820160405280156133e5578160200160208202803683370190505b50905060005b87518110156134a95761343488828151811061340957613409614ce3565b602002602001015188838151811061342357613423614ce3565b60200260200101518d89858e613da3565b84838151811061344657613446614ce3565b6020026020010184848151811061345f5761345f614ce3565b602002602001018281525082815250505082818151811061348257613482614ce3565b6020026020010151846134959190615279565b9350806134a181614f55565b9150506133eb565b5060005b875181101561370f576000896001600160a01b031663222b7f3d8a84815181106134d9576134d9614ce3565b60200260200101516040518263ffffffff1660e01b81526004016134fd9190614693565b60a060405180830381865afa15801561351a573d6000803e3d6000fd5b505050506040513d601f19601f8201168201806040525081019061353e9190614e8b565b90506000851561356e5761356b8685858151811061355e5761355e614ce3565b602002602001015161410f565b90505b61359e85848151811061358357613583614ce3565b6020026020010151826135969190615054565b83858e61412e565b81516040516370a0823160e01b815261362f916001600160a01b0316906370a08231906135cf903090600401614693565b602060405180830381865afa1580156135ec573d6000803e3d6000fd5b505050506040513d601f19601f820116820180604052508101906136109190614d10565b8b858151811061362257613622614ce3565b60200260200101516143cc565b6014548a516136fa916001600160a01b0316908c908690811061365457613654614ce3565b60200260200101516001600160a01b03166370a08231306040518263ffffffff1660e01b81526004016136879190614693565b602060405180830381865afa1580156136a4573d6000803e3d6000fd5b505050506040513d601f19601f820116820180604052508101906136c89190614d10565b8c86815181106136da576136da614ce3565b60200260200101516001600160a01b03166143f99092919063ffffffff16565b5050808061370790614f55565b9150506134ad565b5060008660008151811061372557613725614ce3565b60200260200101518860008151811061374057613740614ce3565b60200260200101516001600160a01b03166370a08231306040518263ffffffff1660e01b81526004016137739190614693565b602060405180830381865afa158015613790573d6000803e3d6000fd5b505050506040513d601f19601f820116820180604052508101906137b49190614d10565b6137c690670de0b6b3a764000061523f565b6137d0919061528c565b905060015b88518110156138b7576138a3828983815181106137f4576137f4614ce3565b60200260200101518b848151811061380e5761380e614ce3565b60200260200101516001600160a01b03166370a08231306040518263ffffffff1660e01b81526004016138419190614693565b602060405180830381865afa15801561385e573d6000803e3d6000fd5b505050506040513d601f19601f820116820180604052508101906138829190614d10565b61389490670de0b6b3a764000061523f565b61389e919061528c565b614496565b9150806138af81614f55565b9150506137d5565b506138e0631b5a5b9d60e21b6138cd8c84615279565b60125484906001600160a01b0316613cb6565b6014546012546040516336bc7a3d60e11b81529297506001600160a01b0391821692636d78f47a9261391a92169085903090600401615256565b600060405180830381600087803b15801561393457600080fd5b505af1158015613948573d6000803e3d6000fd5b50505050505050509695505050505050565b606061089f84846000856144ac565b601454601154613987916001600160a01b03918216911660006127e1565b601454601154610779916001600160a01b039182169116836127e1565b604051632e1a7d4d60e01b8152600481018390526001600160a01b03821690632e1a7d4d906024015b6020604051808303816000875af11580156139ec573d6000803e3d6000fd5b505050506040513d601f19601f82011682018060405250810190610b4b9190614d10565b81600003613a9357602083015160405163517a55a360e01b8152600481018690526001602482018190526000604483015260648201526001600160a01b039091169063517a55a3906084015b600060405180830381600087803b158015613a7657600080fd5b505af1158015613a8a573d6000803e3d6000fd5b50505050610b49565b6060830151604051630d2680e960e11b81526004810186905260006024820181905260448201526001600160a01b0390911690631a4d01d290606401600060405180830381600087803b158015613ae957600080fd5b505af1158015613afd573d6000803e3d6000fd5b505050506000816001600160a01b031663dc73e49c6040518163ffffffff1660e01b8152600401602060405180830381865afa158015613b41573d6000803e3d6000fd5b505050506040513d601f19601f82011682018060405250810190613b659190614f22565b6001600160a01b03166370a08231306040518263ffffffff1660e01b8152600401613b909190614693565b602060405180830381865afa158015613bad573d6000803e3d6000fd5b505050506040513d601f19601f82011682018060405250810190613bd19190614d10565b905083608001516001600160a01b031663ee7b495030836000866001600160a01b031663dc73e49c6040518163ffffffff1660e01b8152600401602060405180830381865afa158015613c28573d6000803e3d6000fd5b505050506040513d601f19601f82011682018060405250810190613c4c9190614f22565b6010546040516001600160e01b031960e088901b168152613c7d95949392916001600160a01b0316906004016152ae565b600060405180830381600087803b158015613c9757600080fd5b505af1158015613cab573d6000803e3d6000fd5b505050505050505050565b6000848152600260208181526040808420815160808101835281548152600182015493810193909352928301546001600160a01b03908116918301919091526003909201548216606082018190529091841614613d4a5760405162461bcd60e51b81526020600482015260126024820152710cccaca40e8ded6cadc40dad2e6dac2e8c6d60731b60448201526064016106c2565b613d70612710826020015186613d60919061523f565b613d6a919061528c565b86614496565b600087815260026020526040812080549297508792909190613d93908490615054565b909155506113f390508585615279565b6000806000836001600160a01b031663222b7f3d8a6040518263ffffffff1660e01b8152600401613dd49190614693565b60a060405180830381865afa158015613df1573d6000803e3d6000fd5b505050506040513d601f19601f82011682018060405250810190613e159190614e8b565b905060008515613f1f57670de0b6b3a764000082604001516001600160a01b03166357de26a46040518163ffffffff1660e01b8152600401602060405180830381865afa158015613e6a573d6000803e3d6000fd5b505050506040513d601f19601f82011682018060405250810190613e8e9190614d10565b613ea090671bc16d674ec80000615279565b83606001516001600160a01b031663bb7b8b806040518163ffffffff1660e01b8152600401602060405180830381865afa158015613ee2573d6000803e3d6000fd5b505050506040513d601f19601f82011682018060405250810190613f069190614d10565b613f10919061523f565b613f1a919061528c565b613f85565b81606001516001600160a01b031663bb7b8b806040518163ffffffff1660e01b8152600401602060405180830381865afa158015613f61573d6000803e3d6000fd5b505050506040513d601f19601f82011682018060405250810190613f859190614d10565b90506000670de0b6b3a7640000828c6001600160a01b03166399530b066040518163ffffffff1660e01b8152600401602060405180830381865afa158015613fd1573d6000803e3d6000fd5b505050506040513d601f19601f82011682018060405250810190613ff59190614d10565b613fff919061523f565b614009919061528c565b90506000670de0b6b3a7640000614020838d61523f565b61402a919061528c565b90506000670de0b6b3a7640000838e6001600160a01b03166370a08231306040518263ffffffff1660e01b81526004016140649190614693565b602060405180830381865afa158015614081573d6000803e3d6000fd5b505050506040513d601f19601f820116820180604052508101906140a59190614d10565b6140af919061523f565b6140b9919061528c565b9050896140ce83670de0b6b3a764000061523f565b6140d8919061528c565b95506140e964e8d4a510008261528c565b6140f38c8861410f565b6140fd9190615279565b96505050505050965096945050505050565b6000670de0b6b3a7640000614124838561523f565b610a9e919061528c565b8160000361418c5782606001516001600160a01b031663029b2f3460405180608001604052806000815260200187815260200160008152602001600081525060006040518363ffffffff1660e01b8152600401613a5c9291906152e0565b82608001516001600160a01b031663b044d1e030866000856001600160a01b031663dc73e49c6040518163ffffffff1660e01b8152600401602060405180830381865afa1580156141e1573d6000803e3d6000fd5b505050506040513d601f19601f820116820180604052508101906142059190614f22565b6013546040516001600160e01b031960e088901b16815261423695949392916001600160a01b0316906004016152ae565b600060405180830381600087803b15801561425057600080fd5b505af1158015614264573d6000803e3d6000fd5b505050506000816001600160a01b031663dc73e49c6040518163ffffffff1660e01b8152600401602060405180830381865afa1580156142a8573d6000803e3d6000fd5b505050506040513d601f19601f820116820180604052508101906142cc9190614f22565b6001600160a01b03166370a08231306040518263ffffffff1660e01b81526004016142f79190614693565b602060405180830381865afa158015614314573d6000803e3d6000fd5b505050506040513d601f19601f820116820180604052508101906143389190614d10565b905083606001516001600160a01b0316634515cef3604051806060016040528084815260200160008152602001600081525060006040518363ffffffff1660e01b8152600401614389929190615318565b6020604051808303816000875af11580156143a8573d6000803e3d6000fd5b505050506040513d601f19601f820116820180604052508101906132499190614d10565b60405163b6b55f2560e01b8152600481018390526001600160a01b0382169063b6b55f25906024016139cd565b600081846001600160a01b031663dd62ed3e30866040518363ffffffff1660e01b815260040161442a9291906146a7565b602060405180830381865afa158015614447573d6000803e3d6000fd5b505050506040513d601f19601f8201168201806040525081019061446b9190614d10565b6144759190615054565b9050610b498463095ea7b360e01b8584604051602401611ce7929190614d48565b60008183106144a55781610a9e565b5090919050565b60608247101561450d5760405162461bcd60e51b815260206004820152602660248201527f416464726573733a20696e73756666696369656e742062616c616e636520666f6044820152651c8818d85b1b60d21b60648201526084016106c2565b600080866001600160a01b031685876040516145299190615374565b60006040518083038185875af1925050503d8060008114614566576040519150601f19603f3d011682016040523d82523d6000602084013e61456b565b606091505b509150915061457c87838387614587565b979650505050505050565b606083156145f65782516000036145ef576001600160a01b0385163b6145ef5760405162461bcd60e51b815260206004820152601d60248201527f416464726573733a2063616c6c20746f206e6f6e2d636f6e747261637400000060448201526064016106c2565b508161089f565b61089f838381511561460b5781518083602001fd5b8060405162461bcd60e51b81526004016106c29190615390565b60408051610140810190915260008082526020820190815260006020820181905260408201819052606082018190526080820181905260a0820181905260c0820181905260e082018190526101009091015290565b60006020828403121561468c57600080fd5b5035919050565b6001600160a01b0391909116815260200190565b6001600160a01b0392831681529116602082015260400190565b6001600160a01b038116811461077957600080fd5b6000602082840312156146e857600080fd5b8135610a9e816146c1565b6020808252825182820181905260009190848201906040850190845b8181101561472b5783518352928401929184019160010161470f565b50909695505050505050565b60008060006060848603121561474c57600080fd5b83359250602084013591506040840135614765816146c1565b809150509250925092565b8035600f81900b811461478257600080fd5b919050565b6000806000806080858703121561479d57600080fd5b843593506147ad60208601614770565b92506147bb60408601614770565b9396929550929360600135925050565b600080604083850312156147de57600080fd5b8235915060208301356147f0816146c1565b809150509250929050565b801515811461077957600080fd5b60008060006060848603121561481e57600080fd5b83359250602084013591506040840135614765816147fb565b6000806000806080858703121561484d57600080fd5b84359350602085013592506040850135614866816146c1565b91506060850135614876816146c1565b939692955090935050565b6000806040838503121561489457600080fd5b50508035926020909101359150565b634e487b7160e01b600052602160045260246000fd5b600281106148d757634e487b7160e01b600052602160045260246000fd5b9052565b602081016107fc82846148b9565b93845260208401929092526001600160a01b03908116604084015216606082015260800190565b60008060006060848603121561492557600080fd5b505081359360208301359350604090920135919050565b60008083601f84011261494e57600080fd5b5081356001600160401b0381111561496557600080fd5b6020830191508360208260051b850101111561498057600080fd5b9250929050565b60008060008060006060868803121561499f57600080fd5b85356001600160401b03808211156149b657600080fd5b6149c289838a0161493c565b909750955060208801359150808211156149db57600080fd5b506149e88882890161493c565b90945092505060408601356149fc816147fb565b809150509295509295909350565b81518152602080830151610140830191614a26908401826148b9565b50604083015160408301526060830151614a44606084018215159052565b506080830151608083015260a083015160a083015260c083015160c083015260e0830151614a7d60e08401826001600160a01b03169052565b50610100838101516001600160a01b03908116918401919091526101209384015116929091019190915290565b600080600080600060a08688031215614ac257600080fd5b85359450614ad260208701614770565b9350614ae060408701614770565b92506060860135915060808601356149fc816147fb565b6020808252601c908201527f796f7520646f6e7420686176652074686520726967687420726f6c6500000000604082015260600190565b634e487b7160e01b600052604160045260246000fd5b604080519081016001600160401b0381118282101715614b6657614b66614b2e565b60405290565b60405161014081016001600160401b0381118282101715614b6657614b66614b2e565b604051601f8201601f191681016001600160401b0381118282101715614bb757614bb7614b2e565b604052919050565b60006001600160401b03821115614bd857614bd8614b2e565b5060051b60200190565b60006020808385031215614bf557600080fd5b82516001600160401b03811115614c0b57600080fd5b8301601f81018513614c1c57600080fd5b8051614c2f614c2a82614bbf565b614b8f565b81815260059190911b82018301908381019087831115614c4e57600080fd5b928401925b8284101561457c57835182529284019290840190614c53565b8051614782816146c1565b600060408284031215614c8957600080fd5b614c91614b44565b8251614c9c816146c1565b81526020830151614cac816146c1565b60208201529392505050565b6020808252601190820152700e6d8d2e0e0c2ceca40e8dede40d0d2ced607b1b604082015260600190565b634e487b7160e01b600052603260045260246000fd5b9182526001600160a01b0316602082015260400190565b600060208284031215614d2257600080fd5b5051919050565b60608101614d3782866148b9565b602082019390935260400152919050565b6001600160a01b03929092168252602082015260400190565b600082601f830112614d7257600080fd5b81516020614d82614c2a83614bbf565b82815260059290921b84018101918181019086841115614da157600080fd5b8286015b84811015614dbc5780518352918301918301614da5565b509695505050505050565b60008060408385031215614dda57600080fd5b82516001600160401b0380821115614df157600080fd5b818501915085601f830112614e0557600080fd5b81516020614e15614c2a83614bbf565b82815260059290921b84018101918181019089841115614e3457600080fd5b948201945b83861015614e5b578551614e4c816146c1565b82529482019490820190614e39565b91880151919650909350505080821115614e7457600080fd5b50614e8185828601614d61565b9150509250929050565b600060a08284031215614e9d57600080fd5b60405160a081018181106001600160401b0382111715614ebf57614ebf614b2e565b6040528251614ecd816146c1565b81526020830151614edd816146c1565b60208201526040830151614ef0816146c1565b60408201526060830151614f03816146c1565b60608201526080830151614f16816146c1565b60808201529392505050565b600060208284031215614f3457600080fd5b8151610a9e816146c1565b634e487b7160e01b600052601160045260246000fd5b600060018201614f6757614f67614f3f565b5060010190565b80516002811061478257600080fd5b8051614782816147fb565b60006101408284031215614f9b57600080fd5b614fa3614b6c565b82518152614fb360208401614f6e565b602082015260408301516040820152614fce60608401614f7d565b60608201526080830151608082015260a083015160a082015260c083015160c0820152614ffd60e08401614c6c565b60e0820152610100615010818501614c6c565b90820152610120615022848201614c6c565b908201529392505050565b9384526001600160a01b039283166020850152604084019190915216606082015260800190565b808201808211156107fc576107fc614f3f565b60006020828403121561507957600080fd5b8151610a9e816147fb565b9283526001600160a01b03919091166020830152604082015260600190565b6020808252601d908201527f796f752063616e74207472616e73666572206f746865722066756e6473000000604082015260600190565b6001600160a01b0394851681529290931660208301526040820152606081019190915260800190565b604080825283519082018190526000906020906060840190828701845b828110156151455781516001600160a01b031684529284019290840190600101615120565b5050508381038285015284518082528583019183019060005b8181101561517a5783518352928401929184019160010161515e565b5090979650505050505050565b60006040828403121561519957600080fd5b6151a1614b44565b82518152602083015160208201528091505092915050565b606081016151c782856148b9565b82546001600160a01b039081166020840152600190930154909216604090910152919050565b60008060006060848603121561520257600080fd5b8351925060208401519150604084015190509250925092565b6000806040838503121561522e57600080fd5b505080516020909101519092909150565b80820281158282048414176107fc576107fc614f3f565b6001600160a01b0393841681526020810192909252909116604082015260600190565b818103818111156107fc576107fc614f3f565b6000826152a957634e487b7160e01b600052601260045260246000fd5b500490565b6001600160a01b0395861681526020810194909452604084019290925283166060830152909116608082015260a00190565b60a08101818460005b60048110156153085781518352602092830192909101906001016152e9565b5050508260808301529392505050565b60808101818460005b6003811015615340578151835260209283019290910190600101615321565b5050508260608301529392505050565b60005b8381101561536b578181015183820152602001615353565b50506000910152565b60008251615386818460208701615350565b9190910192915050565b60208152600082518060208401526153af816040850160208701615350565b601f01601f1916919091016040019291505056fed0a4ad96d49edb1c33461cebc6fb2609190f32c904e3c3f5877edb4488dee91e704ad3a59be98f184239509fa87569e37a7bbe9669c628d3185d41415cecb98855435dd261a4b9b3364963f7738a7a662ad9c84396d64be3365284bb7f0a5041a2646970667358221220288f8b3265e5fdea18cc0bc34368fc89502815977eeb52066850cc5cb7d80b2564736f6c63430008110033",
  "linkReferences": {},
  "deployedLinkReferences": {}
}