{
  "_format": "hh-sol-artifact-1",
  "contractName": "LBPManager",
  "sourceName": "contracts/lbp/LBPManager.sol",
  "abi": [
    {
      "inputs": [
        {
          "components": [
            {
              "internalType": "contract ILBPFactory",
              "name": "lbpFactory",
              "type": "address"
            },
            {
              "internalType": "contract ILBPVault",
              "name": "vault",
              "type": "address"
            }
          ],
          "internalType": "struct LBPManager.Balancer",
          "name": "_balancer",
          "type": "tuple"
        },
        {
          "internalType": "string",
          "name": "_name",
          "type": "string"
        },
        {
          "internalType": "string",
          "name": "_symbol",
          "type": "string"
        },
        {
          "internalType": "contract IERC20[]",
          "name": "_tokens",
          "type": "address[]"
        },
        {
          "internalType": "uint256[]",
          "name": "_tokenAmounts",
          "type": "uint256[]"
        },
        {
          "internalType": "uint256[]",
          "name": "_startWeights",
          "type": "uint256[]"
        },
        {
          "internalType": "uint256[]",
          "name": "_endWeights",
          "type": "uint256[]"
        },
        {
          "internalType": "uint256",
          "name": "_swapFee",
          "type": "uint256"
        },
        {
          "internalType": "uint256",
          "name": "_durationInSeconds",
          "type": "uint256"
        },
        {
          "internalType": "uint256",
          "name": "_startTime",
          "type": "uint256"
        },
        {
          "components": [
            {
              "internalType": "address",
              "name": "agent",
              "type": "address"
            },
            {
              "internalType": "address",
              "name": "treasury",
              "type": "address"
            }
          ],
          "internalType": "struct LBPManager.DAO",
          "name": "_dao",
          "type": "tuple"
        }
      ],
      "stateMutability": "nonpayable",
      "type": "constructor"
    },
    {
      "anonymous": false,
      "inputs": [
        {
          "indexed": false,
          "internalType": "address",
          "name": "poolAddress",
          "type": "address"
        }
      ],
      "name": "CreatedPool",
      "type": "event"
    },
    {
      "anonymous": false,
      "inputs": [
        {
          "indexed": false,
          "internalType": "bytes32",
          "name": "poolID",
          "type": "bytes32"
        }
      ],
      "name": "ExitedPool",
      "type": "event"
    },
    {
      "anonymous": false,
      "inputs": [
        {
          "indexed": false,
          "internalType": "bytes32",
          "name": "poolID",
          "type": "bytes32"
        }
      ],
      "name": "JoinedPool",
      "type": "event"
    },
    {
      "anonymous": false,
      "inputs": [
        {
          "indexed": false,
          "internalType": "bool",
          "name": "enabled",
          "type": "bool"
        }
      ],
      "name": "SwapEnabled",
      "type": "event"
    },
    {
      "inputs": [],
      "name": "balancer",
      "outputs": [
        {
          "internalType": "contract ILBPFactory",
          "name": "lbpFactory",
          "type": "address"
        },
        {
          "internalType": "contract ILBPVault",
          "name": "vault",
          "type": "address"
        }
      ],
      "stateMutability": "view",
      "type": "function"
    },
    {
      "inputs": [],
      "name": "dao",
      "outputs": [
        {
          "internalType": "address",
          "name": "agent",
          "type": "address"
        },
        {
          "internalType": "address",
          "name": "treasury",
          "type": "address"
        }
      ],
      "stateMutability": "view",
      "type": "function"
    },
    {
      "inputs": [],
      "name": "deployLBP",
      "outputs": [],
      "stateMutability": "nonpayable",
      "type": "function"
    },
    {
      "inputs": [],
      "name": "enableTrading",
      "outputs": [],
      "stateMutability": "nonpayable",
      "type": "function"
    },
    {
      "inputs": [],
      "name": "lbp",
      "outputs": [
        {
          "internalType": "contract ILBP",
          "name": "",
          "type": "address"
        }
      ],
      "stateMutability": "view",
      "type": "function"
    },
    {
      "inputs": [],
      "name": "pause",
      "outputs": [],
      "stateMutability": "nonpayable",
      "type": "function"
    },
    {
      "inputs": [],
      "name": "poolConfig",
      "outputs": [
        {
          "internalType": "string",
          "name": "name",
          "type": "string"
        },
        {
          "internalType": "string",
          "name": "symbol",
          "type": "string"
        },
        {
          "internalType": "uint256",
          "name": "durationInSeconds",
          "type": "uint256"
        },
        {
          "internalType": "uint256",
          "name": "swapFee",
          "type": "uint256"
        },
        {
          "internalType": "address",
          "name": "owner",
          "type": "address"
        },
        {
          "internalType": "bool",
          "name": "swapEnabledOnStart",
          "type": "bool"
        },
        {
          "internalType": "uint256",
          "name": "startTime",
          "type": "uint256"
        },
        {
          "internalType": "bool",
          "name": "deployed",
          "type": "bool"
        },
        {
          "internalType": "address",
          "name": "pauser",
          "type": "address"
        }
      ],
      "stateMutability": "view",
      "type": "function"
    },
    {
      "inputs": [],
      "name": "unpause",
      "outputs": [],
      "stateMutability": "nonpayable",
      "type": "function"
    },
    {
      "inputs": [],
      "name": "withdrawFromPool",
      "outputs": [],
      "stateMutability": "nonpayable",
      "type": "function"
    }
  ],
  "bytecode": "0x60806040523480156200001157600080fd5b506040516200225038038062002250833981016040819052620000349162000796565b8a51600180546001600160a01b039283166001600160a01b03199182161790915560208d015160028054919093169116179055610e10831180156200007b57506206978083105b620000cd5760405162461bcd60e51b815260206004820152601960248201527f6475726174696f6e206973206f7574206f6620626f756e64730000000000000060448201526064015b60405180910390fd5b4282116200011e5760405162461bcd60e51b815260206004820152601c60248201527f73746172742074696d65206d75737420626520696e20667574757265000000006044820152606401620000c4565b8051600e80546001600160a01b03199081166001600160a01b0393841617909155602080840151600f80549093169316929092179055604080516101a0810182528c81529182018b90528101899052606081018890526080810187905260a0810186905260c0810184905260e081018590523061010082015260006101208201819052610140820184905261016082015233610180820152600380620001c58d826200099c565b5060208201516001820190620001dc90826200099c565b5060408201518051620001fa91600284019160209091019062000476565b506060820151805162000218916003840191602090910190620004e0565b506080820151805162000236916004840191602090910190620004e0565b5060a0820151805162000254916005840191602090910190620004e0565b5060c0820151600682015560e08201516007820155610100808301516008830180546101208601511515600160a01b026001600160a81b03199182166001600160a01b0394851617179091556101408501516009850155610160850151600a909401805461018090960151909216909202610100600160a81b0319931515939093169390911692909217179055620002eb620002fc565b505050505050505050505062000aa9565b600080620003096200040a565b60025460405163095ea7b360e01b81526001600160a01b039182166004820152600019602482015292945090925083169063095ea7b3906044016020604051808303816000875af115801562000363573d6000803e3d6000fd5b505050506040513d601f19601f8201168201806040525081019062000389919062000a68565b5060025460405163095ea7b360e01b81526001600160a01b03918216600482015260001960248201529082169063095ea7b3906044016020604051808303816000875af1158015620003df573d6000803e3d6000fd5b505050506040513d601f19601f8201168201806040525081019062000405919062000a68565b505050565b600080600360020160008154811062000427576200042762000a93565b600091825260209091200154600580546001600160a01b0390921691600190811062000457576200045762000a93565b60009182526020909120015490936001600160a01b0390911692509050565b828054828255906000526020600020908101928215620004ce579160200282015b82811115620004ce57825182546001600160a01b0319166001600160a01b0390911617825560209092019160019091019062000497565b50620004dc9291506200051e565b5090565b828054828255906000526020600020908101928215620004ce579160200282015b82811115620004ce57825182559160200191906001019062000501565b5b80821115620004dc57600081556001016200051f565b634e487b7160e01b600052604160045260246000fd5b604051601f8201601f191681016001600160401b038111828210171562000576576200057662000535565b604052919050565b6001600160a01b03811681146200059457600080fd5b50565b600060408284031215620005aa57600080fd5b604080519081016001600160401b0381118282101715620005cf57620005cf62000535565b80604052508091508251620005e4816200057e565b81526020830151620005f6816200057e565b6020919091015292915050565b600082601f8301126200061557600080fd5b81516001600160401b0381111562000631576200063162000535565b602062000647601f8301601f191682016200054b565b82815285828487010111156200065c57600080fd5b60005b838110156200067c5785810183015182820184015282016200065f565b506000928101909101919091529392505050565b60006001600160401b03821115620006ac57620006ac62000535565b5060051b60200190565b600082601f830112620006c857600080fd5b81516020620006e1620006db8362000690565b6200054b565b82815260059290921b840181019181810190868411156200070157600080fd5b8286015b84811015620007295780516200071b816200057e565b835291830191830162000705565b509695505050505050565b600082601f8301126200074657600080fd5b8151602062000759620006db8362000690565b82815260059290921b840181019181810190868411156200077957600080fd5b8286015b848110156200072957805183529183019183016200077d565b60008060008060008060008060008060006101a08c8e031215620007b957600080fd5b620007c58d8d62000597565b60408d0151909b506001600160401b03811115620007e257600080fd5b620007f08e828f0162000603565b60608e0151909b5090506001600160401b038111156200080f57600080fd5b6200081d8e828f0162000603565b60808e0151909a5090506001600160401b038111156200083c57600080fd5b6200084a8e828f01620006b6565b60a08e015190995090506001600160401b038111156200086957600080fd5b620008778e828f0162000734565b60c08e015190985090506001600160401b038111156200089657600080fd5b620008a48e828f0162000734565b60e08e015190975090506001600160401b03811115620008c357600080fd5b620008d18e828f0162000734565b9550506101008c015193506101208c015192506101408c01519150620008fc8d6101608e0162000597565b90509295989b509295989b9093969950565b600181811c908216806200092357607f821691505b6020821081036200094457634e487b7160e01b600052602260045260246000fd5b50919050565b601f8211156200040557600081815260208120601f850160051c81016020861015620009735750805b601f850160051c820191505b8181101562000994578281556001016200097f565b505050505050565b81516001600160401b03811115620009b857620009b862000535565b620009d081620009c984546200090e565b846200094a565b602080601f83116001811462000a085760008415620009ef5750858301515b600019600386901b1c1916600185901b17855562000994565b600085815260208120601f198616915b8281101562000a395788860151825594840194600190910190840162000a18565b508582101562000a585787850151600019600388901b60f8161c191681555b5050505050600190811b01905550565b60006020828403121562000a7b57600080fd5b8151801515811462000a8c57600080fd5b9392505050565b634e487b7160e01b600052603260045260246000fd5b6117978062000ab96000396000f3fe608060405234801561001057600080fd5b50600436106100835760003560e01c8063092f7de71461008857806326c0e5c5146100b15780633f4ba83a146100bb5780634162169f146100c35780638456cb59146100fd5780638a8c523c146101055780639695e1951461010d578063d8519dda1461012a578063e563037e14610132575b600080fd5b60005461009b906001600160a01b031681565b6040516100a89190611228565b60405180910390f35b6100b961014c565b005b6100b9610486565b600e54600f546100dd916001600160a01b03908116911682565b604080516001600160a01b039384168152929091166020830152016100a8565b6100b9610655565b6100b96107ed565b6101156108f6565b6040516100a899989796959493929190611282565b6100b9610a58565b6001546002546100dd916001600160a01b03908116911682565b600d5460ff166101775760405162461bcd60e51b815260040161016e906112f1565b60405180910390fd5b600e546001600160a01b031633146101c45760405162461bcd60e51b815260206004820152601060248201526f6e6f7420746f6461792c20627564647960801b604482015260640161016e565b60008060009054906101000a90046001600160a01b03166001600160a01b03166338fff2d06040518163ffffffff1660e01b8152600401602060405180830381865afa158015610218573d6000803e3d6000fd5b505050506040513d601f19601f8201168201806040525081019061023c9190611328565b60055490915060009067ffffffffffffffff81111561025d5761025d611341565b604051908082528060200260200182016040528015610286578160200160208202803683370190505b50905060005b6005548110156102c75760008282815181106102aa576102aa611357565b6020908102919091010152806102bf81611383565b91505061028c565b5060008054604051633806be4b60e21b815260048101929092526001600160a01b03169063e01af92c90602401600060405180830381600087803b15801561030e57600080fd5b505af1158015610322573d6000803e3d6000fd5b5050604080516005805460a06020820284018101909452608083018181526000965092945084936103919392919085018282801561038957602002820191906000526020600020905b81546001600160a01b0316815260019091019060200180831161036b575b505050505090565b81526020810184905260400160016103a886610cf1565b60408051602081019390935282015260600160408051601f19818403018152918152908252600060209290920191909152600254600f549151638bdb391360e01b81529293506001600160a01b0390811692638bdb391392610416928892309290911690879060040161146e565b600060405180830381600087803b15801561043057600080fd5b505af1158015610444573d6000803e3d6000fd5b505050507f0139ec377d0a521e725f8ccba653dd7cea5bbc10c1f284590ee683c86fb5397e8360405161047991815260200190565b60405180910390a1505050565b600d5461010090046001600160a01b031633146104e55760405162461bcd60e51b815260206004820152601e60248201527f6e6f7420616c6c6f77656420746f20756e70617573652074726164696e670000604482015260640161016e565b600d5460ff166105375760405162461bcd60e51b815260206004820152601d60248201527f706f6f6c206861736e2774206265656e206465706c6f79656420796574000000604482015260640161016e565b60008054906101000a90046001600160a01b03166001600160a01b03166347bc4d926040518163ffffffff1660e01b8152600401602060405180830381865afa158015610588573d6000803e3d6000fd5b505050506040513d601f19601f820116820180604052508101906105ac91906114aa565b156105f45760405162461bcd60e51b81526020600482015260186024820152771cddd85c081a5cc8185b1c9958591e48191a5cd8589b195960421b604482015260640161016e565b600054604051633806be4b60e21b8152600160048201526001600160a01b039091169063e01af92c906024015b600060405180830381600087803b15801561063b57600080fd5b505af115801561064f573d6000803e3d6000fd5b50505050565b600d5461010090046001600160a01b031633146106b45760405162461bcd60e51b815260206004820152601c60248201527f6e6f7420616c6c6f77656420746f2070617573652074726164696e6700000000604482015260640161016e565b600d5460ff166106fe5760405162461bcd60e51b81526020600482015260156024820152741c1bdbdb081b9bdd081e595d0819195c1b1bde5959605a1b604482015260640161016e565b60008054906101000a90046001600160a01b03166001600160a01b03166347bc4d926040518163ffffffff1660e01b8152600401602060405180830381865afa15801561074f573d6000803e3d6000fd5b505050506040513d601f19601f8201168201806040525081019061077391906114aa565b15156001146107bc5760405162461bcd60e51b81526020600482015260156024820152741c1bdbdb081b5d5cdd081899481d5b9c185d5cd959605a1b604482015260640161016e565b60008054604051633806be4b60e21b815260048101929092526001600160a01b03169063e01af92c90602401610621565b600d5460ff1661080f5760405162461bcd60e51b815260040161016e906112f1565b600c544210156108615760405162461bcd60e51b815260206004820152601e60248201527f54726164696e672063616e206e6f7420626520656e61626c6564207965740000604482015260640161016e565b600054604051633806be4b60e21b8152600160048201526001600160a01b039091169063e01af92c90602401600060405180830381600087803b1580156108a757600080fd5b505af11580156108bb573d6000803e3d6000fd5b5050604051600181527fb9bbb15e341600c8d067a0cadeba219905d5ba6d422b193c9c32265d26fc51c89250602001905060405180910390a1565b600380548190610905906114d3565b80601f0160208091040260200160405190810160405280929190818152602001828054610931906114d3565b801561097e5780601f106109535761010080835404028352916020019161097e565b820191906000526020600020905b81548152906001019060200180831161096157829003601f168201915b505050505090806001018054610993906114d3565b80601f01602080910402602001604051908101604052809291908181526020018280546109bf906114d3565b8015610a0c5780601f106109e157610100808354040283529160200191610a0c565b820191906000526020600020905b8154815290600101906020018083116109ef57829003601f168201915b5050506006840154600785015460088601546009870154600a90970154959692959194506001600160a01b03808216945060ff600160a01b909204821693929182169161010090041689565b600e546001600160a01b03163314610aab5760405162461bcd60e51b81526020600482015260166024820152754f6e6c792044414f2063616e2063616c6c207468697360501b604482015260640161016e565b600d5460ff161515600103610b0d5760405162461bcd60e51b815260206004820152602260248201527f54686520706f6f6c2068617320616c7265616479206265656e206465706c6f79604482015261195960f21b606482015260840161016e565b610b15610ddf565b610b725760405162461bcd60e51b815260206004820152602860248201527f4d616e6167657220646f6573206e6f74206861766520656e6f75676820706f6f6044820152676c20746f6b656e7360c01b606482015260840161016e565b600d805460ff1916600190811790915554600a54600b54604051632367971960e01b81526001600160a01b0393841693632367971993610bd193600393600493600593600793909291811691600160a01b90910460ff169086016115e6565b6020604051808303816000875af1158015610bf0573d6000803e3d6000fd5b505050506040513d601f19601f82011682018060405250810190610c1491906116b1565b600080546001600160a01b0319166001600160a01b039290921691821790556040517f862036d3286b6c0c3d81e0731e5523949a342fd1b5090ca0703aaba60f23869a91610c6191611228565b60405180910390a1600954600c54600091610c7b916116cc565b600054600c54604051633e56920560e01b81529293506001600160a01b0390911691633e56920591610cb49185906008906004016116e5565b600060405180830381600087803b158015610cce57600080fd5b505af1158015610ce2573d6000803e3d6000fd5b50505050610cee610f1e565b50565b60025460405163f6c0092760e01b81526004810183905260009182916001600160a01b039091169063f6c009279060240160408051808303816000875af1158015610d40573d6000803e3d6000fd5b505050506040513d601f19601f82011682018060405250810190610d64919061170d565b506040516370a0823160e01b815290915081906001600160a01b038216906370a0823190610d96903090600401611228565b602060405180830381865afa158015610db3573d6000803e3d6000fd5b505050506040513d601f19601f82011682018060405250810190610dd79190611328565b949350505050565b6000806000610dec6111c2565b9150915060038001600081548110610e0657610e06611357565b9060005260206000200154826001600160a01b03166370a08231306040518263ffffffff1660e01b8152600401610e3d9190611228565b602060405180830381865afa158015610e5a573d6000803e3d6000fd5b505050506040513d601f19601f82011682018060405250810190610e7e9190611328565b10158015610f175750600680546001908110610e9c57610e9c611357565b9060005260206000200154816001600160a01b03166370a08231306040518263ffffffff1660e01b8152600401610ed39190611228565b602060405180830381865afa158015610ef0573d6000803e3d6000fd5b505050506040513d601f19601f82011682018060405250810190610f149190611328565b10155b9250505090565b60055460009067ffffffffffffffff811115610f3c57610f3c611341565b604051908082528060200260200182016040528015610f65578160200160208202803683370190505b50905060005b600554811015610fa757600019828281518110610f8a57610f8a611357565b602090810291909101015280610f9f81611383565b915050610f6b565b50604080516005805460a0602082028401810190945260808301818152600094849361100e939091850182828015610389576020028201919060005260206000209081546001600160a01b0316815260019091019060200180831161036b57505050505090565b815260208101849052604001600060405161102f9190600690602001611748565b60408051601f19818403018152918152908252600060209283018190526002549054825163038fff2d60e41b815292519495506001600160a01b039182169463b95cac289491909216926338fff2d092600480830193928290030181865afa15801561109f573d6000803e3d6000fd5b505050506040513d601f19601f820116820180604052508101906110c39190611328565b3030856040518563ffffffff1660e01b81526004016110e5949392919061146e565b600060405180830381600087803b1580156110ff57600080fd5b505af1158015611113573d6000803e3d6000fd5b505050507f3ab359279172d20fb74f51c485585571b77bb1dc3b6b1430ecd2bf80543148bb60008054906101000a90046001600160a01b03166001600160a01b03166338fff2d06040518163ffffffff1660e01b8152600401602060405180830381865afa158015611189573d6000803e3d6000fd5b505050506040513d601f19601f820116820180604052508101906111ad9190611328565b60405190815260200160405180910390a15050565b60008060036002016000815481106111dc576111dc611357565b600091825260209091200154600580546001600160a01b0390921691600190811061120957611209611357565b60009182526020909120015490936001600160a01b0390911692509050565b6001600160a01b0391909116815260200190565b6000815180845260005b8181101561126257602081850181015186830182015201611246565b506000602082860101526020601f19601f83011685010191505092915050565b60006101208083526112968184018d61123c565b905082810360208401526112aa818c61123c565b604084019a909a52505060608101969096526001600160a01b03948516608087015292151560a086015260c0850191909152151560e0840152166101009091015292915050565b6020808252601e908201527f506f6f6c20686173206e6f74206265656e206465706c6f796564207965740000604082015260600190565b60006020828403121561133a57600080fd5b5051919050565b634e487b7160e01b600052604160045260246000fd5b634e487b7160e01b600052603260045260246000fd5b634e487b7160e01b600052601160045260246000fd5b6000600182016113955761139561136d565b5060010190565b600081518084526020808501945080840160005b838110156113cc578151875295820195908201906001016113b0565b509495945050505050565b8051608080845281519084018190526000916020919082019060a0860190845b8181101561141c5783516001600160a01b0316835292840192918401916001016113f7565b505082850151915085810383870152611435818361139c565b9250505060408301518482036040860152611450828261123c565b9150506060830151611466606086018215159052565b509392505050565b8481526001600160a01b038481166020830152831660408201526080606082018190526000906114a0908301846113d7565b9695505050505050565b6000602082840312156114bc57600080fd5b815180151581146114cc57600080fd5b9392505050565b600181811c908216806114e757607f821691505b60208210810361150757634e487b7160e01b600052602260045260246000fd5b50919050565b8054600090600181811c908083168061152757607f831692505b6020808410820361154857634e487b7160e01b600052602260045260246000fd5b838852602088018280156115635760018114611579576115a4565b60ff198716825285151560051b820197506115a4565b60008981526020902060005b8781101561159e57815484820152908601908401611585565b83019850505b5050505050505092915050565b6000815480845260208085019450836000528060002060005b838110156113cc578154875295820195600191820191016115ca565b60e0815260006115f960e083018a61150d565b60208382038185015261160c828b61150d565b8481036040860152895480825260008b81528381209450918301915b8181101561164d5784546001600160a01b031683526001948501949284019201611628565b50508481036060860152611661818a6115b1565b935050505084608083015261168160a08301856001600160a01b03169052565b82151560c083015298975050505050505050565b80516001600160a01b03811681146116ac57600080fd5b919050565b6000602082840312156116c357600080fd5b6114cc82611695565b808201808211156116df576116df61136d565b92915050565b83815282602082015260606040820152600061170460608301846115b1565b95945050505050565b6000806040838503121561172057600080fd5b61172983611695565b915060208301516003811061173d57600080fd5b809150509250929050565b828152604060208201526000610dd760408301846115b156fea2646970667358221220f1786a73aba8a85fa70cafecfac17e04b89e4dcf6725f860eddb7ea6f584049e64736f6c63430008110033",
  "linkReferences": {},
  "deployedLinkReferences": {}
}