{
  "_format": "hh-sol-artifact-1",
  "contractName": "MockCurveMetapool",
  "sourceName": "contracts/mocks/MockCurveMetapool.sol",
  "abi": [
    {
      "inputs": [
        {
          "internalType": "address",
          "name": "token_",
          "type": "address"
        },
        {
          "internalType": "address",
          "name": "lpToken_",
          "type": "address"
        },
        {
          "internalType": "address",
          "name": "threeCrv_",
          "type": "address"
        },
        {
          "internalType": "address",
          "name": "dai_",
          "type": "address"
        },
        {
          "internalType": "address",
          "name": "usdc_",
          "type": "address"
        },
        {
          "internalType": "address",
          "name": "usdt_",
          "type": "address"
        }
      ],
      "stateMutability": "nonpayable",
      "type": "constructor"
    },
    {
      "inputs": [
        {
          "internalType": "uint256[2]",
          "name": "amounts",
          "type": "uint256[2]"
        },
        {
          "internalType": "uint256",
          "name": "min_mint_amounts",
          "type": "uint256"
        }
      ],
      "name": "add_liquidity",
      "outputs": [
        {
          "internalType": "uint256",
          "name": "",
          "type": "uint256"
        }
      ],
      "stateMutability": "nonpayable",
      "type": "function"
    },
    {
      "inputs": [],
      "name": "base_coins",
      "outputs": [
        {
          "internalType": "address[3]",
          "name": "",
          "type": "address[3]"
        }
      ],
      "stateMutability": "view",
      "type": "function"
    },
    {
      "inputs": [
        {
          "internalType": "uint256",
          "name": "_token_amount",
          "type": "uint256"
        },
        {
          "internalType": "int128",
          "name": "i",
          "type": "int128"
        }
      ],
      "name": "calc_withdraw_one_coin",
      "outputs": [
        {
          "internalType": "uint256",
          "name": "",
          "type": "uint256"
        }
      ],
      "stateMutability": "pure",
      "type": "function"
    },
    {
      "inputs": [],
      "name": "coins",
      "outputs": [
        {
          "internalType": "address[2]",
          "name": "",
          "type": "address[2]"
        }
      ],
      "stateMutability": "view",
      "type": "function"
    },
    {
      "inputs": [
        {
          "internalType": "int128",
          "name": "i",
          "type": "int128"
        },
        {
          "internalType": "int128",
          "name": "j",
          "type": "int128"
        },
        {
          "internalType": "uint256",
          "name": "dx",
          "type": "uint256"
        }
      ],
      "name": "exchange",
      "outputs": [
        {
          "internalType": "uint256",
          "name": "",
          "type": "uint256"
        }
      ],
      "stateMutability": "nonpayable",
      "type": "function"
    },
    {
      "inputs": [
        {
          "internalType": "uint256",
          "name": "dx",
          "type": "uint256"
        }
      ],
      "name": "exchange_underlying",
      "outputs": [
        {
          "internalType": "uint256",
          "name": "",
          "type": "uint256"
        }
      ],
      "stateMutability": "nonpayable",
      "type": "function"
    },
    {
      "inputs": [],
      "name": "get_virtual_price",
      "outputs": [
        {
          "internalType": "uint256",
          "name": "",
          "type": "uint256"
        }
      ],
      "stateMutability": "view",
      "type": "function"
    },
    {
      "inputs": [],
      "name": "lpToken",
      "outputs": [
        {
          "internalType": "contract MockERC20",
          "name": "",
          "type": "address"
        }
      ],
      "stateMutability": "view",
      "type": "function"
    },
    {
      "inputs": [
        {
          "internalType": "uint256",
          "name": "_token_amount",
          "type": "uint256"
        },
        {
          "internalType": "int128",
          "name": "i",
          "type": "int128"
        },
        {
          "internalType": "uint256",
          "name": "_min_amount",
          "type": "uint256"
        }
      ],
      "name": "remove_liquidity_one_coin",
      "outputs": [
        {
          "internalType": "uint256",
          "name": "",
          "type": "uint256"
        }
      ],
      "stateMutability": "nonpayable",
      "type": "function"
    },
    {
      "inputs": [
        {
          "internalType": "uint256",
          "name": "mintSlippageBps_",
          "type": "uint256"
        }
      ],
      "name": "setMintSlippage",
      "outputs": [],
      "stateMutability": "nonpayable",
      "type": "function"
    },
    {
      "inputs": [
        {
          "internalType": "uint256",
          "name": "virtualPrice_",
          "type": "uint256"
        }
      ],
      "name": "setVirtualPrice",
      "outputs": [],
      "stateMutability": "nonpayable",
      "type": "function"
    },
    {
      "inputs": [
        {
          "internalType": "uint256",
          "name": "withdrawalSlippageBps_",
          "type": "uint256"
        }
      ],
      "name": "setWithdrawalSlippage",
      "outputs": [],
      "stateMutability": "nonpayable",
      "type": "function"
    },
    {
      "inputs": [],
      "name": "threeCrv",
      "outputs": [
        {
          "internalType": "contract MockERC20",
          "name": "",
          "type": "address"
        }
      ],
      "stateMutability": "view",
      "type": "function"
    }
  ],
  "bytecode": "0x6080604052670de0b6b3a7640000600655600a60075560006008556127106009553480156200002d57600080fd5b5060405162000edf38038062000edf833981016040819052620000509162000183565b600280546001600160a01b038089166001600160a01b031992831681178455600080548a84169085161790556001805489841690851681179091556003805489851690861617905560048054888516908616179055600580549387169390941692909217909255604080518082019091529182526020820152620000d891600a9190620000e5565b5050505050505062000204565b8280548282559060005260206000209081019282156200013d579160200282015b828111156200013d57825182546001600160a01b0319166001600160a01b0390911617825560209092019160019091019062000106565b506200014b9291506200014f565b5090565b5b808211156200014b576000815560010162000150565b80516001600160a01b03811681146200017e57600080fd5b919050565b60008060008060008060c087890312156200019d57600080fd5b620001a88762000166565b9550620001b86020880162000166565b9450620001c86040880162000166565b9350620001d86060880162000166565b9250620001e86080880162000166565b9150620001f860a0880162000166565b90509295509295509295565b610ccb80620002146000396000f3fe608060405234801561001057600080fd5b50600436106100bf5760003560e01c806347bf3cb11161007c57806347bf3cb11461016557806356878436146101785780635fcbd2851461018b578063b05100aa1461019e578063bb7b8b80146101b1578063bc34bf7a146101b9578063cc2b27d7146101ce57600080fd5b80630b4c7e4d146100c457806313143ecd146100ea5780631a4d01d2146100ff57806322fcefbe146101125780632da9a6941461012757806331df733814610152575b600080fd5b6100d76100d2366004610a2f565b6101e0565b6040519081526020015b60405180910390f35b6100fd6100f8366004610a5d565b600655565b005b6100d761010d366004610a8d565b61038d565b61011a610604565b6040516100e19190610ac2565b60015461013a906001600160a01b031681565b6040516001600160a01b0390911681526020016100e1565b6100d7610160366004610a5d565b610633565b6100d7610173366004610afc565b610729565b6100fd610186366004610a5d565b600755565b60005461013a906001600160a01b031681565b6100fd6101ac366004610a5d565b600855565b6006546100d7565b6101c16109b8565b6040516100e19190610b28565b6100d76101dc366004610b59565b5090565b60008060005b600a5460ff82161015610383576000612710600854878460ff166002811061021057610210610b85565b602002013561021f9190610bb1565b6102299190610bc8565b868360ff166002811061023e5761023e610b85565b602002013561024d9190610bea565b9050600a8260ff168154811061026557610265610b85565b6000918252602090912001546001600160a01b03166323b872dd33308960ff87166002811061029657610296610b85565b60200201356040518463ffffffff1660e01b81526004016102b993929190610bfd565b6020604051808303816000875af11580156102d8573d6000803e3d6000fd5b505050506040513d601f19601f820116820180604052508101906102fc9190610c21565b506000546040516340c10f1960e01b81526001600160a01b03909116906340c10f199061032f9033908590600401610c4a565b600060405180830381600087803b15801561034957600080fd5b505af115801561035d573d6000803e3d6000fd5b50505050808361036d9190610c63565b925050808061037b90610c76565b9150506101e6565b5090505b92915050565b600080546040516323b872dd60e01b81526001600160a01b03909116906323b872dd906103c290339030908990600401610bfd565b6020604051808303816000875af11580156103e1573d6000803e3d6000fd5b505050506040513d601f19601f820116820180604052508101906104059190610c21565b506000612710600754866104199190610bb1565b6104239190610bc8565b905060006104318287610bea565b90506000859050600a816001600160801b03168154811061045457610454610b85565b60009182526020909120015460405163095ea7b360e01b81526001600160a01b039091169063095ea7b39061048f9030908690600401610c4a565b6020604051808303816000875af11580156104ae573d6000803e3d6000fd5b505050506040513d601f19601f820116820180604052508101906104d29190610c21565b50600a816001600160801b0316815481106104ef576104ef610b85565b6000918252602090912001546040516340c10f1960e01b81526001600160a01b03909116906340c10f199061052a9030908690600401610c4a565b600060405180830381600087803b15801561054457600080fd5b505af1158015610558573d6000803e3d6000fd5b50505050600a816001600160801b03168154811061057857610578610b85565b6000918252602090912001546040516323b872dd60e01b81526001600160a01b03909116906323b872dd906105b590309033908790600401610bfd565b6020604051808303816000875af11580156105d4573d6000803e3d6000fd5b505050506040513d601f19601f820116820180604052508101906105f89190610c21565b50909695505050505050565b61060c6109f3565b50604080518082019091526002546001600160a01b03908116825260015416602082015290565b600480546040516323b872dd60e01b81526000926001600160a01b03909216916323b872dd916106699133913091889101610bfd565b6020604051808303816000875af1158015610688573d6000803e3d6000fd5b505050506040513d601f19601f820116820180604052508101906106ac9190610c21565b5060025460405163a9059cbb60e01b81526001600160a01b039091169063a9059cbb906106df9033908690600401610c4a565b6020604051808303816000875af11580156106fe573d6000803e3d6000fd5b505050506040513d601f19601f820116820180604052508101906107229190610c21565b5090919050565b600083600f0b6000036107b3576003546040516323b872dd60e01b81526001600160a01b03909116906323b872dd9061076a90339030908790600401610bfd565b6020604051808303816000875af1158015610789573d6000803e3d6000fd5b505050506040513d601f19601f820116820180604052508101906107ad9190610c21565b5061082c565b6002546040516323b872dd60e01b81526001600160a01b03909116906323b872dd906107e790339030908790600401610bfd565b6020604051808303816000875af1158015610806573d6000803e3d6000fd5b505050506040513d601f19601f8201168201806040525081019061082a9190610c21565b505b82600f0b6000036108ae5760035460405163a9059cbb60e01b81526001600160a01b039091169063a9059cbb906108699033908690600401610c4a565b6020604051808303816000875af1158015610888573d6000803e3d6000fd5b505050506040513d601f19601f820116820180604052508101906108ac9190610c21565b505b82600f0b60010361092f576004805460405163a9059cbb60e01b81526001600160a01b039091169163a9059cbb916108ea913391879101610c4a565b6020604051808303816000875af1158015610909573d6000803e3d6000fd5b505050506040513d601f19601f8201168201806040525081019061092d9190610c21565b505b82600f0b6003036109b15760025460405163a9059cbb60e01b81526001600160a01b039091169063a9059cbb9061096c9033908690600401610c4a565b6020604051808303816000875af115801561098b573d6000803e3d6000fd5b505050506040513d601f19601f820116820180604052508101906109af9190610c21565b505b5092915050565b6109c0610a11565b50604080516060810182526003546001600160a01b03908116825260045481166020830152600554169181019190915290565b60405180604001604052806002906020820280368337509192915050565b60405180606001604052806003906020820280368337509192915050565b60008060608385031215610a4257600080fd5b6040830184811115610a5357600080fd5b9294923593505050565b600060208284031215610a6f57600080fd5b5035919050565b8035600f81900b8114610a8857600080fd5b919050565b600080600060608486031215610aa257600080fd5b83359250610ab260208501610a76565b9150604084013590509250925092565b60408101818360005b6002811015610af35781516001600160a01b0316835260209283019290910190600101610acb565b50505092915050565b600080600060608486031215610b1157600080fd5b610b1a84610a76565b9250610ab260208501610a76565b60608101818360005b6003811015610af35781516001600160a01b0316835260209283019290910190600101610b31565b60008060408385031215610b6c57600080fd5b82359150610b7c60208401610a76565b90509250929050565b634e487b7160e01b600052603260045260246000fd5b634e487b7160e01b600052601160045260246000fd5b808202811582820484141761038757610387610b9b565b600082610be557634e487b7160e01b600052601260045260246000fd5b500490565b8181038181111561038757610387610b9b565b6001600160a01b039384168152919092166020820152604081019190915260600190565b600060208284031215610c3357600080fd5b81518015158114610c4357600080fd5b9392505050565b6001600160a01b03929092168252602082015260400190565b8082018082111561038757610387610b9b565b600060ff821660ff8103610c8c57610c8c610b9b565b6001019291505056fea2646970667358221220e618b95e9abe87d747578ad29d3a2b203ee5a7edcfbbf2522ce3f5b7255fa04364736f6c63430008110033",
  "linkReferences": {},
  "deployedLinkReferences": {}
}