{
  "_format": "hh-sol-artifact-1",
  "contractName": "MockYearnV2Vault",
  "sourceName": "contracts/mocks/MockYearnV2Vault.sol",
  "abi": [
    {
      "inputs": [
        {
          "internalType": "address",
          "name": "token_",
          "type": "address"
        }
      ],
      "stateMutability": "nonpayable",
      "type": "constructor"
    },
    {
      "anonymous": false,
      "inputs": [
        {
          "indexed": true,
          "internalType": "address",
          "name": "owner",
          "type": "address"
        },
        {
          "indexed": true,
          "internalType": "address",
          "name": "spender",
          "type": "address"
        },
        {
          "indexed": false,
          "internalType": "uint256",
          "name": "value",
          "type": "uint256"
        }
      ],
      "name": "Approval",
      "type": "event"
    },
    {
      "anonymous": false,
      "inputs": [
        {
          "indexed": true,
          "internalType": "address",
          "name": "from",
          "type": "address"
        },
        {
          "indexed": true,
          "internalType": "address",
          "name": "to",
          "type": "address"
        },
        {
          "indexed": false,
          "internalType": "uint256",
          "name": "value",
          "type": "uint256"
        }
      ],
      "name": "Transfer",
      "type": "event"
    },
    {
      "inputs": [],
      "name": "__decimals",
      "outputs": [
        {
          "internalType": "uint8",
          "name": "",
          "type": "uint8"
        }
      ],
      "stateMutability": "view",
      "type": "function"
    },
    {
      "inputs": [
        {
          "internalType": "address",
          "name": "owner",
          "type": "address"
        },
        {
          "internalType": "address",
          "name": "spender",
          "type": "address"
        }
      ],
      "name": "allowance",
      "outputs": [
        {
          "internalType": "uint256",
          "name": "",
          "type": "uint256"
        }
      ],
      "stateMutability": "view",
      "type": "function"
    },
    {
      "inputs": [
        {
          "internalType": "address",
          "name": "spender",
          "type": "address"
        },
        {
          "internalType": "uint256",
          "name": "amount",
          "type": "uint256"
        }
      ],
      "name": "approve",
      "outputs": [
        {
          "internalType": "bool",
          "name": "",
          "type": "bool"
        }
      ],
      "stateMutability": "nonpayable",
      "type": "function"
    },
    {
      "inputs": [],
      "name": "balance",
      "outputs": [
        {
          "internalType": "uint256",
          "name": "",
          "type": "uint256"
        }
      ],
      "stateMutability": "view",
      "type": "function"
    },
    {
      "inputs": [
        {
          "internalType": "address",
          "name": "account",
          "type": "address"
        }
      ],
      "name": "balanceOf",
      "outputs": [
        {
          "internalType": "uint256",
          "name": "",
          "type": "uint256"
        }
      ],
      "stateMutability": "view",
      "type": "function"
    },
    {
      "inputs": [
        {
          "internalType": "address",
          "name": "from_",
          "type": "address"
        },
        {
          "internalType": "uint256",
          "name": "amount_",
          "type": "uint256"
        }
      ],
      "name": "burn",
      "outputs": [],
      "stateMutability": "nonpayable",
      "type": "function"
    },
    {
      "inputs": [],
      "name": "decimals",
      "outputs": [
        {
          "internalType": "uint8",
          "name": "",
          "type": "uint8"
        }
      ],
      "stateMutability": "view",
      "type": "function"
    },
    {
      "inputs": [
        {
          "internalType": "address",
          "name": "spender",
          "type": "address"
        },
        {
          "internalType": "uint256",
          "name": "subtractedValue",
          "type": "uint256"
        }
      ],
      "name": "decreaseAllowance",
      "outputs": [
        {
          "internalType": "bool",
          "name": "",
          "type": "bool"
        }
      ],
      "stateMutability": "nonpayable",
      "type": "function"
    },
    {
      "inputs": [
        {
          "internalType": "uint256",
          "name": "amount",
          "type": "uint256"
        },
        {
          "internalType": "address",
          "name": "recipient",
          "type": "address"
        }
      ],
      "name": "deposit",
      "outputs": [
        {
          "internalType": "uint256",
          "name": "",
          "type": "uint256"
        }
      ],
      "stateMutability": "nonpayable",
      "type": "function"
    },
    {
      "inputs": [
        {
          "internalType": "uint256",
          "name": "amount",
          "type": "uint256"
        }
      ],
      "name": "deposit",
      "outputs": [
        {
          "internalType": "uint256",
          "name": "",
          "type": "uint256"
        }
      ],
      "stateMutability": "nonpayable",
      "type": "function"
    },
    {
      "inputs": [],
      "name": "depositLimit",
      "outputs": [
        {
          "internalType": "uint256",
          "name": "",
          "type": "uint256"
        }
      ],
      "stateMutability": "view",
      "type": "function"
    },
    {
      "inputs": [
        {
          "internalType": "address",
          "name": "spender",
          "type": "address"
        },
        {
          "internalType": "uint256",
          "name": "addedValue",
          "type": "uint256"
        }
      ],
      "name": "increaseAllowance",
      "outputs": [
        {
          "internalType": "bool",
          "name": "",
          "type": "bool"
        }
      ],
      "stateMutability": "nonpayable",
      "type": "function"
    },
    {
      "inputs": [
        {
          "internalType": "uint256",
          "name": "multiplier",
          "type": "uint256"
        }
      ],
      "name": "increasePricePerFullShare",
      "outputs": [],
      "stateMutability": "nonpayable",
      "type": "function"
    },
    {
      "inputs": [],
      "name": "maxAvailableShares",
      "outputs": [
        {
          "internalType": "uint256",
          "name": "",
          "type": "uint256"
        }
      ],
      "stateMutability": "view",
      "type": "function"
    },
    {
      "inputs": [
        {
          "internalType": "address",
          "name": "to_",
          "type": "address"
        },
        {
          "internalType": "uint256",
          "name": "amount_",
          "type": "uint256"
        }
      ],
      "name": "mint",
      "outputs": [],
      "stateMutability": "nonpayable",
      "type": "function"
    },
    {
      "inputs": [],
      "name": "name",
      "outputs": [
        {
          "internalType": "string",
          "name": "",
          "type": "string"
        }
      ],
      "stateMutability": "view",
      "type": "function"
    },
    {
      "inputs": [],
      "name": "pricePerShare",
      "outputs": [
        {
          "internalType": "uint256",
          "name": "",
          "type": "uint256"
        }
      ],
      "stateMutability": "view",
      "type": "function"
    },
    {
      "inputs": [],
      "name": "restoreStubbedBalance",
      "outputs": [],
      "stateMutability": "nonpayable",
      "type": "function"
    },
    {
      "inputs": [],
      "name": "restoreTotalAssets",
      "outputs": [],
      "stateMutability": "nonpayable",
      "type": "function"
    },
    {
      "inputs": [
        {
          "internalType": "uint256",
          "name": "newDepositLimit",
          "type": "uint256"
        }
      ],
      "name": "setDepositLimit",
      "outputs": [],
      "stateMutability": "nonpayable",
      "type": "function"
    },
    {
      "inputs": [
        {
          "internalType": "uint256",
          "name": "pricePerFullShare",
          "type": "uint256"
        }
      ],
      "name": "setPricePerFullShare",
      "outputs": [],
      "stateMutability": "nonpayable",
      "type": "function"
    },
    {
      "inputs": [
        {
          "internalType": "address",
          "name": "stubbedAccount",
          "type": "address"
        },
        {
          "internalType": "uint256",
          "name": "amount",
          "type": "uint256"
        }
      ],
      "name": "stubAccountBalance",
      "outputs": [],
      "stateMutability": "nonpayable",
      "type": "function"
    },
    {
      "inputs": [
        {
          "internalType": "uint256",
          "name": "amount",
          "type": "uint256"
        }
      ],
      "name": "stubTotalAssets",
      "outputs": [],
      "stateMutability": "nonpayable",
      "type": "function"
    },
    {
      "inputs": [],
      "name": "symbol",
      "outputs": [
        {
          "internalType": "string",
          "name": "",
          "type": "string"
        }
      ],
      "stateMutability": "view",
      "type": "function"
    },
    {
      "inputs": [],
      "name": "token",
      "outputs": [
        {
          "internalType": "contract MockERC20",
          "name": "",
          "type": "address"
        }
      ],
      "stateMutability": "view",
      "type": "function"
    },
    {
      "inputs": [],
      "name": "totalAssets",
      "outputs": [
        {
          "internalType": "uint256",
          "name": "",
          "type": "uint256"
        }
      ],
      "stateMutability": "view",
      "type": "function"
    },
    {
      "inputs": [],
      "name": "totalSupply",
      "outputs": [
        {
          "internalType": "uint256",
          "name": "",
          "type": "uint256"
        }
      ],
      "stateMutability": "view",
      "type": "function"
    },
    {
      "inputs": [
        {
          "internalType": "address",
          "name": "to",
          "type": "address"
        },
        {
          "internalType": "uint256",
          "name": "amount",
          "type": "uint256"
        }
      ],
      "name": "transfer",
      "outputs": [
        {
          "internalType": "bool",
          "name": "",
          "type": "bool"
        }
      ],
      "stateMutability": "nonpayable",
      "type": "function"
    },
    {
      "inputs": [
        {
          "internalType": "address",
          "name": "from",
          "type": "address"
        },
        {
          "internalType": "address",
          "name": "to",
          "type": "address"
        },
        {
          "internalType": "uint256",
          "name": "amount",
          "type": "uint256"
        }
      ],
      "name": "transferFrom",
      "outputs": [
        {
          "internalType": "bool",
          "name": "",
          "type": "bool"
        }
      ],
      "stateMutability": "nonpayable",
      "type": "function"
    },
    {
      "inputs": [
        {
          "internalType": "uint256",
          "name": "amount",
          "type": "uint256"
        }
      ],
      "name": "withdraw",
      "outputs": [
        {
          "internalType": "uint256",
          "name": "",
          "type": "uint256"
        }
      ],
      "stateMutability": "nonpayable",
      "type": "function"
    }
  ],
  "bytecode": "0x60806040526005805460ff191660121790556000196006553480156200002457600080fd5b506040516200198a3803806200198a8339810160408190526200004791620000fa565b6040518060400160405280601381526020017f4d6f636b206372765553445820795661756c7400000000000000000000000000815250604051806040016040528060068152602001650f2ecaaa688b60d31b815250601282828160039081620000b19190620001d1565b506004620000c08282620001d1565b5050600580546001600160a01b03909616610100026001600160a81b031990961660ff90931692909217949094179055506200029d915050565b6000602082840312156200010d57600080fd5b81516001600160a01b03811681146200012557600080fd5b9392505050565b634e487b7160e01b600052604160045260246000fd5b600181811c908216806200015757607f821691505b6020821081036200017857634e487b7160e01b600052602260045260246000fd5b50919050565b601f821115620001cc57600081815260208120601f850160051c81016020861015620001a75750805b601f850160051c820191505b81811015620001c857828155600101620001b3565b5050505b505050565b81516001600160401b03811115620001ed57620001ed6200012c565b6200020581620001fe845462000142565b846200017e565b602080601f8311600181146200023d5760008415620002245750858301515b600019600386901b1c1916600185901b178555620001c8565b600085815260208120601f198616915b828110156200026e578886015182559484019460019091019084016200024d565b50858210156200028d5787850151600019600388901b60f8161c191681555b5050505050600190811b01905550565b6116dd80620002ad6000396000f3fe608060405234801561001057600080fd5b506004361061019a5760003560e01c80637a48fac0116100e4578063a9059cbb11610092578063a9059cbb1461036a578063b69ef8a81461037d578063b6b55f2514610385578063bdc8144b14610398578063c3819fb6146103ab578063dd62ed3e146103be578063ecf70858146103d1578063fc0c546a146103d957600080fd5b80637a48fac0146102fe57806382a89b211461030d5780638ea2da7d1461032757806395d89b411461033457806399530b061461033c5780639dc29fac14610344578063a457c2d71461035757600080fd5b8063299aacaa1161014c578063299aacaa146102425780632e1a7d4d1461027e578063313ce5671461029157806339509351146102aa57806340c10f19146102bd5780636e553f65146102d057806370a08231146102e357806375de2902146102f657600080fd5b806301e1d1141461019f578063054133da146101ba57806306fdde03146101cf578063095ea7b3146101e457806318160ddd146102075780632127dfbd1461020f57806323b872dd1461022f575b600080fd5b6101a76103fe565b6040519081526020015b60405180910390f35b6101cd6101c83660046113f2565b61048c565b005b6101d7610612565b6040516101b1919061140b565b6101f76101f2366004611475565b6106a4565b60405190151581526020016101b1565b6002546101a7565b6101cd61021d3660046113f2565b6007805460ff19166001179055600855565b6101f761023d36600461149f565b6106be565b6101cd610250366004611475565b600980546001600160a01b03909316610100026001600160a81b031990931692909217600117909155600a55565b6101a761028c3660046113f2565b6106e2565b60055460ff165b60405160ff90911681526020016101b1565b6101f76102b8366004611475565b6107f6565b6101cd6102cb366004611475565b610818565b6101a76102de3660046114db565b610826565b6101a76102f1366004611507565b6108b5565b6101a7610906565b6101cd6007805460ff19169055565b6101cd600980546001600160a81b03191690556000600a55565b6005546102989060ff1681565b6101d7610911565b6101a7610920565b6101cd610352366004611475565b61095f565b6101f7610365366004611475565b610969565b6101f7610378366004611475565b6109e9565b6101a76109f7565b6101a76103933660046113f2565b610a2d565b6101cd6103a63660046113f2565b600655565b6101cd6103b93660046113f2565b610ab5565b6101a76103cc366004611522565b610c0b565b6006546101a7565b6005546103f19061010090046001600160a01b031681565b6040516101b1919061154c565b60075460009060ff16610485576005546040516370a0823160e01b81526101009091046001600160a01b0316906370a082319061043f90309060040161154c565b602060405180830381865afa15801561045c573d6000803e3d6000fd5b505050506040513d601f19601f820116820180604052508101906104809190611560565b905090565b5060085490565b60006104b2670de0b6b3a76400006104ac846104a6610920565b90610c36565b90610c42565b6005546040516370a0823160e01b815291925061010090046001600160a01b031690639dc29fac90309083906370a08231906104f290849060040161154c565b602060405180830381865afa15801561050f573d6000803e3d6000fd5b505050506040513d601f19601f820116820180604052508101906105339190611560565b6040518363ffffffff1660e01b8152600401610550929190611579565b600060405180830381600087803b15801561056a57600080fd5b505af115801561057e573d6000803e3d6000fd5b5050505060006105a3670de0b6b3a76400006104ac61059c60025490565b8590610c36565b6005546040516340c10f1960e01b815291925061010090046001600160a01b0316906340c10f19906105db9030908590600401611579565b600060405180830381600087803b1580156105f557600080fd5b505af1158015610609573d6000803e3d6000fd5b50505050505050565b60606003805461062190611592565b80601f016020809104026020016040519081016040528092919081815260200182805461064d90611592565b801561069a5780601f1061066f5761010080835404028352916020019161069a565b820191906000526020600020905b81548152906001019060200180831161067d57829003601f168201915b5050505050905090565b6000336106b2818585610c4e565b60019150505b92915050565b6000336106cc858285610d73565b6106d7858585610ded565b506001949350505050565b6000806106ee83610f7f565b90506106fa33846110c6565b60055460405163095ea7b360e01b81526101009091046001600160a01b03169063095ea7b3906107309030908590600401611579565b6020604051808303816000875af115801561074f573d6000803e3d6000fd5b505050506040513d601f19601f8201168201806040525081019061077391906115cc565b506005546040516323b872dd60e01b81526101009091046001600160a01b0316906323b872dd906107ac903090339086906004016115ee565b6020604051808303816000875af11580156107cb573d6000803e3d6000fd5b505050506040513d601f19601f820116820180604052508101906107ef91906115cc565b5092915050565b6000336106b28185856108098383610c0b565b6108139190611628565b610c4e565b61082282826111de565b5050565b6005546040516323b872dd60e01b815260009161010090046001600160a01b0316906323b872dd90610860903390309088906004016115ee565b6020604051808303816000875af115801561087f573d6000803e3d6000fd5b505050506040513d601f19601f820116820180604052508101906108a391906115cc565b506108ae828461128b565b9392505050565b60095460009060ff1680156108dc57506009546001600160a01b0383811661010090920416145b6108fe576001600160a01b0382166000908152602081905260409020546106b8565b5050600a5490565b600061048060025490565b60606004805461062190611592565b600061092b60025490565b60000361093f5750670de0b6b3a764000090565b61048061094b60025490565b6104ac670de0b6b3a76400006104a66109f7565b61082282826110c6565b600033816109778286610c0b565b9050838110156109dc5760405162461bcd60e51b815260206004820152602560248201527f45524332303a2064656372656173656420616c6c6f77616e63652062656c6f77604482015264207a65726f60d81b60648201526084015b60405180910390fd5b6106d78286868403610c4e565b6000336106b2818585610ded565b6005546040516370a0823160e01b815260009161010090046001600160a01b0316906370a082319061043f90309060040161154c565b6005546040516323b872dd60e01b815260009161010090046001600160a01b0316906323b872dd90610a67903390309087906004016115ee565b6020604051808303816000875af1158015610a86573d6000803e3d6000fd5b505050506040513d601f19601f82011682018060405250810190610aaa91906115cc565b506106b8338361128b565b6005546040516370a0823160e01b81526101009091046001600160a01b031690639dc29fac90309083906370a0823190610af390849060040161154c565b602060405180830381865afa158015610b10573d6000803e3d6000fd5b505050506040513d601f19601f82011682018060405250810190610b349190611560565b6040518363ffffffff1660e01b8152600401610b51929190611579565b600060405180830381600087803b158015610b6b57600080fd5b505af1158015610b7f573d6000803e3d6000fd5b505050506000610b9d670de0b6b3a76400006104ac61059c60025490565b6005546040516340c10f1960e01b815291925061010090046001600160a01b0316906340c10f1990610bd59030908590600401611579565b600060405180830381600087803b158015610bef57600080fd5b505af1158015610c03573d6000803e3d6000fd5b505050505050565b6001600160a01b03918216600090815260016020908152604080832093909416825291909152205490565b60006108ae828461163b565b60006108ae8284611652565b6001600160a01b038316610cb05760405162461bcd60e51b8152602060048201526024808201527f45524332303a20617070726f76652066726f6d20746865207a65726f206164646044820152637265737360e01b60648201526084016109d3565b6001600160a01b038216610d115760405162461bcd60e51b815260206004820152602260248201527f45524332303a20617070726f766520746f20746865207a65726f206164647265604482015261737360f01b60648201526084016109d3565b6001600160a01b0383811660008181526001602090815260408083209487168084529482529182902085905590518481527f8c5be1e5ebec7d5bd14f71427d1e84f3dd0314c0f7b2291e5b200ac8c7c3b92591015b60405180910390a3505050565b6000610d7f8484610c0b565b90506000198114610de75781811015610dda5760405162461bcd60e51b815260206004820152601d60248201527f45524332303a20696e73756666696369656e7420616c6c6f77616e636500000060448201526064016109d3565b610de78484848403610c4e565b50505050565b6001600160a01b038316610e515760405162461bcd60e51b815260206004820152602560248201527f45524332303a207472616e736665722066726f6d20746865207a65726f206164604482015264647265737360d81b60648201526084016109d3565b6001600160a01b038216610eb35760405162461bcd60e51b815260206004820152602360248201527f45524332303a207472616e7366657220746f20746865207a65726f206164647260448201526265737360e81b60648201526084016109d3565b6001600160a01b03831660009081526020819052604090205481811015610f2b5760405162461bcd60e51b815260206004820152602660248201527f45524332303a207472616e7366657220616d6f756e7420657863656564732062604482015265616c616e636560d01b60648201526084016109d3565b6001600160a01b0384811660008181526020818152604080832087870390559387168083529184902080548701905592518581529092600080516020611688833981519152910160405180910390a3610de7565b6000306001600160a01b03166318160ddd6040518163ffffffff1660e01b8152600401602060405180830381865afa158015610fbf573d6000803e3d6000fd5b505050506040513d601f19601f82011682018060405250810190610fe39190611560565b600003610fee575090565b306001600160a01b03166318160ddd6040518163ffffffff1660e01b8152600401602060405180830381865afa15801561102c573d6000803e3d6000fd5b505050506040513d601f19601f820116820180604052508101906110509190611560565b306001600160a01b03166301e1d1146040518163ffffffff1660e01b8152600401602060405180830381865afa15801561108e573d6000803e3d6000fd5b505050506040513d601f19601f820116820180604052508101906110b29190611560565b6110bc908461163b565b6106b89190611652565b6001600160a01b0382166111265760405162461bcd60e51b815260206004820152602160248201527f45524332303a206275726e2066726f6d20746865207a65726f206164647265736044820152607360f81b60648201526084016109d3565b6001600160a01b0382166000908152602081905260409020548181101561119a5760405162461bcd60e51b815260206004820152602260248201527f45524332303a206275726e20616d6f756e7420657863656564732062616c616e604482015261636560f01b60648201526084016109d3565b6001600160a01b0383166000818152602081815260408083208686039055600280548790039055518581529192916000805160206116888339815191529101610d66565b6001600160a01b0382166112345760405162461bcd60e51b815260206004820152601f60248201527f45524332303a206d696e7420746f20746865207a65726f20616464726573730060448201526064016109d3565b80600260008282546112469190611628565b90915550506001600160a01b03821660008181526020818152604080832080548601905551848152600080516020611688833981519152910160405180910390a35050565b60008060009050306001600160a01b03166318160ddd6040518163ffffffff1660e01b8152600401602060405180830381865afa1580156112d0573d6000803e3d6000fd5b505050506040513d601f19601f820116820180604052508101906112f49190611560565b6000036113025750816113e8565b82306001600160a01b03166301e1d1146040518163ffffffff1660e01b8152600401602060405180830381865afa158015611341573d6000803e3d6000fd5b505050506040513d601f19601f820116820180604052508101906113659190611560565b61136f9190611674565b306001600160a01b03166318160ddd6040518163ffffffff1660e01b8152600401602060405180830381865afa1580156113ad573d6000803e3d6000fd5b505050506040513d601f19601f820116820180604052508101906113d19190611560565b6113db908561163b565b6113e59190611652565b90505b6108ae84826111de565b60006020828403121561140457600080fd5b5035919050565b600060208083528351808285015260005b818110156114385785810183015185820160400152820161141c565b506000604082860101526040601f19601f8301168501019250505092915050565b80356001600160a01b038116811461147057600080fd5b919050565b6000806040838503121561148857600080fd5b61149183611459565b946020939093013593505050565b6000806000606084860312156114b457600080fd5b6114bd84611459565b92506114cb60208501611459565b9150604084013590509250925092565b600080604083850312156114ee57600080fd5b823591506114fe60208401611459565b90509250929050565b60006020828403121561151957600080fd5b6108ae82611459565b6000806040838503121561153557600080fd5b61153e83611459565b91506114fe60208401611459565b6001600160a01b0391909116815260200190565b60006020828403121561157257600080fd5b5051919050565b6001600160a01b03929092168252602082015260400190565b600181811c908216806115a657607f821691505b6020821081036115c657634e487b7160e01b600052602260045260246000fd5b50919050565b6000602082840312156115de57600080fd5b815180151581146108ae57600080fd5b6001600160a01b039384168152919092166020820152604081019190915260600190565b634e487b7160e01b600052601160045260246000fd5b808201808211156106b8576106b8611612565b80820281158282048414176106b8576106b8611612565b60008261166f57634e487b7160e01b600052601260045260246000fd5b500490565b818103818111156106b8576106b861161256feddf252ad1be2c89b69c2b068fc378daa952ba7f163c4a11628f55a4df523b3efa2646970667358221220985a61781aa5780314126a02060457cb3413c8af6b40ad9b4bd2cb2c659078be64736f6c63430008110033",
  "linkReferences": {},
  "deployedLinkReferences": {}
}