{
  "_format": "hh-sol-artifact-1",
  "contractName": "KeeperIncentiveHelper",
  "sourceName": "contracts/test_helpers/KeeperIncentiveHelper.sol",
  "abi": [
    {
      "inputs": [
        {
          "internalType": "contract IKeeperIncentiveV2",
          "name": "keeperIncentive_",
          "type": "address"
        }
      ],
      "stateMutability": "nonpayable",
      "type": "constructor"
    },
    {
      "anonymous": false,
      "inputs": [
        {
          "indexed": false,
          "internalType": "address",
          "name": "account",
          "type": "address"
        }
      ],
      "name": "FunctionCalled",
      "type": "event"
    },
    {
      "anonymous": false,
      "inputs": [
        {
          "indexed": false,
          "internalType": "address",
          "name": "account",
          "type": "address"
        }
      ],
      "name": "Tipped",
      "type": "event"
    },
    {
      "inputs": [],
      "name": "contractName",
      "outputs": [
        {
          "internalType": "bytes32",
          "name": "",
          "type": "bytes32"
        }
      ],
      "stateMutability": "view",
      "type": "function"
    },
    {
      "inputs": [
        {
          "internalType": "uint8",
          "name": "i",
          "type": "uint8"
        }
      ],
      "name": "incentivisedFunction",
      "outputs": [],
      "stateMutability": "nonpayable",
      "type": "function"
    },
    {
      "inputs": [],
      "name": "incentivisedFunctionLegacy",
      "outputs": [],
      "stateMutability": "nonpayable",
      "type": "function"
    },
    {
      "inputs": [],
      "name": "keeperIncentive",
      "outputs": [
        {
          "internalType": "contract IKeeperIncentiveV2",
          "name": "",
          "type": "address"
        }
      ],
      "stateMutability": "view",
      "type": "function"
    },
    {
      "inputs": [
        {
          "internalType": "address",
          "name": "_rewardToken",
          "type": "address"
        },
        {
          "internalType": "address",
          "name": "_keeper",
          "type": "address"
        },
        {
          "internalType": "uint256",
          "name": "_i",
          "type": "uint256"
        },
        {
          "internalType": "uint256",
          "name": "_amount",
          "type": "uint256"
        }
      ],
      "name": "tipIncentive",
      "outputs": [],
      "stateMutability": "nonpayable",
      "type": "function"
    },
    {
      "inputs": [
        {
          "internalType": "address",
          "name": "_rewardToken",
          "type": "address"
        },
        {
          "internalType": "address",
          "name": "_keeper",
          "type": "address"
        },
        {
          "internalType": "uint256",
          "name": "_i",
          "type": "uint256"
        },
        {
          "internalType": "uint256",
          "name": "_amount",
          "type": "uint256"
        },
        {
          "internalType": "uint256",
          "name": "_burnPercentage",
          "type": "uint256"
        }
      ],
      "name": "tipIncentiveWithBurn",
      "outputs": [],
      "stateMutability": "nonpayable",
      "type": "function"
    }
  ],
  "bytecode": "0x60a06040527f4b6565706572496e63656e7469766548656c706572000000000000000000000060805234801561003457600080fd5b50604051610a3a380380610a3a83398101604081905261005391610078565b600080546001600160a01b0319166001600160a01b03929092169190911790556100a8565b60006020828403121561008a57600080fd5b81516001600160a01b03811681146100a157600080fd5b9392505050565b6080516109716100c96000396000818160b2015261025a01526109716000f3fe608060405234801561001057600080fd5b50600436106100625760003560e01c80630ce475be146100675780632cc139b11461007c5780632ea8d7cd146100a557806375d0c0dc146100ad578063ee250278146100e2578063fd27aba9146100f5575b600080fd5b61007a6100753660046107d9565b610108565b005b60005461008f906001600160a01b031681565b60405161009c919061081b565b60405180910390f35b61007a610247565b6100d47f000000000000000000000000000000000000000000000000000000000000000081565b60405190815260200161009c565b61007a6100f036600461082f565b61030a565b61007a61010336600461087c565b610451565b61011d6001600160a01b0385163330846104f1565b60005460405163095ea7b360e01b81526001600160a01b039182166004820152602481018390529085169063095ea7b3906044016020604051808303816000875af1158015610170573d6000803e3d6000fd5b505050506040513d601f19601f8201168201806040525081019061019491906108a6565b506000546040516304d855d760e11b81526001600160a01b03868116600483015285811660248301526044820185905260648201849052909116906309b0abae90608401600060405180830381600087803b1580156101f257600080fd5b505af1158015610206573d6000803e3d6000fd5b505050507f6e6dc9fb40a5073d46db20aeeb93e8a1b65bcd97624d5be4bcb7105fd7256b5833604051610239919061081b565b60405180910390a150505050565b6000805460405163156e3bf360e21b81527f0000000000000000000000000000000000000000000000000000000000000000600482015260248101929092523360448301526001600160a01b0316906355b8efcc90606401600060405180830381600087803b1580156102b957600080fd5b505af11580156102cd573d6000803e3d6000fd5b505050507f02bd09a7b664c69b1dd1010bba77cd5117065da368f2f0d034767eec1a109b5833604051610300919061081b565b60405180910390a1565b61031f6001600160a01b0386163330856104f1565b60005460405163095ea7b360e01b81526001600160a01b039182166004820152602481018490529086169063095ea7b3906044016020604051808303816000875af1158015610372573d6000803e3d6000fd5b505050506040513d601f19601f8201168201806040525081019061039691906108a6565b50600054604051633fc2b36b60e11b81526001600160a01b038781166004830152868116602483015260448201869052606482018590526084820184905290911690637f8566d69060a401600060405180830381600087803b1580156103fb57600080fd5b505af115801561040f573d6000803e3d6000fd5b505050507f6e6dc9fb40a5073d46db20aeeb93e8a1b65bcd97624d5be4bcb7105fd7256b5833604051610442919061081b565b60405180910390a15050505050565b60005460405163c4b405bb60e01b815260ff831660048201523360248201526001600160a01b039091169063c4b405bb90604401600060405180830381600087803b15801561049f57600080fd5b505af11580156104b3573d6000803e3d6000fd5b505050507f02bd09a7b664c69b1dd1010bba77cd5117065da368f2f0d034767eec1a109b58336040516104e6919061081b565b60405180910390a150565b604080516001600160a01b0385811660248301528416604482015260648082018490528251808303909101815260849091019091526020810180516001600160e01b03166323b872dd60e01b17905261054b908590610551565b50505050565b60006105a6826040518060400160405280602081526020017f5361666545524332303a206c6f772d6c6576656c2063616c6c206661696c6564815250856001600160a01b031661062d9092919063ffffffff16565b80519091501561062857808060200190518101906105c491906108a6565b6106285760405162461bcd60e51b815260206004820152602a60248201527f5361666545524332303a204552433230206f7065726174696f6e20646964206e6044820152691bdd081cdd58d8d9595960b21b60648201526084015b60405180910390fd5b505050565b606061063c8484600085610644565b949350505050565b6060824710156106a55760405162461bcd60e51b815260206004820152602660248201527f416464726573733a20696e73756666696369656e742062616c616e636520666f6044820152651c8818d85b1b60d21b606482015260840161061f565b600080866001600160a01b031685876040516106c191906108ec565b60006040518083038185875af1925050503d80600081146106fe576040519150601f19603f3d011682016040523d82523d6000602084013e610703565b606091505b50915091506107148783838761071f565b979650505050505050565b6060831561078e578251600003610787576001600160a01b0385163b6107875760405162461bcd60e51b815260206004820152601d60248201527f416464726573733a2063616c6c20746f206e6f6e2d636f6e7472616374000000604482015260640161061f565b508161063c565b61063c83838151156107a35781518083602001fd5b8060405162461bcd60e51b815260040161061f9190610908565b80356001600160a01b03811681146107d457600080fd5b919050565b600080600080608085870312156107ef57600080fd5b6107f8856107bd565b9350610806602086016107bd565b93969395505050506040820135916060013590565b6001600160a01b0391909116815260200190565b600080600080600060a0868803121561084757600080fd5b610850866107bd565b945061085e602087016107bd565b94979496505050506040830135926060810135926080909101359150565b60006020828403121561088e57600080fd5b813560ff8116811461089f57600080fd5b9392505050565b6000602082840312156108b857600080fd5b8151801515811461089f57600080fd5b60005b838110156108e35781810151838201526020016108cb565b50506000910152565b600082516108fe8184602087016108c8565b9190910192915050565b60208152600082518060208401526109278160408501602087016108c8565b601f01601f1916919091016040019291505056fea264697066735822122077e540743dd9c2d228fa25e415a8b4507cacfe2b0fe1fe6466477fac66fdf43264736f6c63430008110033",
  "linkReferences": {},
  "deployedLinkReferences": {}
}