{
  "_format": "hh-sol-artifact-1",
  "contractName": "MockCurveThreepool",
  "sourceName": "contracts/mocks/MockCurveThreepool.sol",
  "abi": [
    {
      "inputs": [
        {
          "internalType": "address",
          "name": "lpToken_",
          "type": "address"
        },
        {
          "internalType": "address",
          "name": "dai_",
          "type": "address"
        },
        {
          "internalType": "address",
          "name": "usdc_",
          "type": "address"
        },
        {
          "internalType": "address",
          "name": "usdt_",
          "type": "address"
        }
      ],
      "stateMutability": "nonpayable",
      "type": "constructor"
    },
    {
      "anonymous": false,
      "inputs": [
        {
          "indexed": false,
          "internalType": "uint256",
          "name": "amount",
          "type": "uint256"
        }
      ],
      "name": "EchoValues",
      "type": "event"
    },
    {
      "anonymous": false,
      "inputs": [
        {
          "indexed": false,
          "internalType": "uint256",
          "name": "lpToken",
          "type": "uint256"
        },
        {
          "indexed": false,
          "internalType": "address",
          "name": "account",
          "type": "address"
        }
      ],
      "name": "LiquidityAdded",
      "type": "event"
    },
    {
      "inputs": [
        {
          "internalType": "uint256[3]",
          "name": "amounts",
          "type": "uint256[3]"
        },
        {
          "internalType": "uint256",
          "name": "",
          "type": "uint256"
        }
      ],
      "name": "add_liquidity",
      "outputs": [
        {
          "internalType": "uint256",
          "name": "",
          "type": "uint256"
        }
      ],
      "stateMutability": "nonpayable",
      "type": "function"
    },
    {
      "inputs": [
        {
          "internalType": "uint256[3]",
          "name": "amounts",
          "type": "uint256[3]"
        }
      ],
      "name": "calc_token_amount",
      "outputs": [
        {
          "internalType": "uint256",
          "name": "",
          "type": "uint256"
        }
      ],
      "stateMutability": "pure",
      "type": "function"
    },
    {
      "inputs": [
        {
          "internalType": "uint256",
          "name": "_token_amount",
          "type": "uint256"
        }
      ],
      "name": "calc_withdraw_one_coin",
      "outputs": [
        {
          "internalType": "uint256",
          "name": "",
          "type": "uint256"
        }
      ],
      "stateMutability": "pure",
      "type": "function"
    },
    {
      "inputs": [
        {
          "internalType": "uint256",
          "name": "i",
          "type": "uint256"
        }
      ],
      "name": "coins",
      "outputs": [
        {
          "internalType": "address",
          "name": "",
          "type": "address"
        }
      ],
      "stateMutability": "view",
      "type": "function"
    },
    {
      "inputs": [
        {
          "internalType": "int128",
          "name": "i",
          "type": "int128"
        },
        {
          "internalType": "int128",
          "name": "j",
          "type": "int128"
        },
        {
          "internalType": "uint256",
          "name": "dx",
          "type": "uint256"
        }
      ],
      "name": "exchange",
      "outputs": [
        {
          "internalType": "uint256",
          "name": "",
          "type": "uint256"
        }
      ],
      "stateMutability": "nonpayable",
      "type": "function"
    },
    {
      "inputs": [],
      "name": "get_virtual_price",
      "outputs": [
        {
          "internalType": "uint256",
          "name": "",
          "type": "uint256"
        }
      ],
      "stateMutability": "view",
      "type": "function"
    },
    {
      "inputs": [
        {
          "internalType": "uint256",
          "name": "_token_amount",
          "type": "uint256"
        },
        {
          "internalType": "int128",
          "name": "i",
          "type": "int128"
        },
        {
          "internalType": "uint256",
          "name": "min_amount",
          "type": "uint256"
        }
      ],
      "name": "remove_liquidity_one_coin",
      "outputs": [],
      "stateMutability": "nonpayable",
      "type": "function"
    },
    {
      "inputs": [
        {
          "internalType": "uint256",
          "name": "virtualPrice_",
          "type": "uint256"
        }
      ],
      "name": "setVirtualPrice",
      "outputs": [],
      "stateMutability": "nonpayable",
      "type": "function"
    },
    {
      "inputs": [
        {
          "internalType": "uint256",
          "name": "withdrawalSlippageBps_",
          "type": "uint256"
        }
      ],
      "name": "setWithdrawalSlippage",
      "outputs": [],
      "stateMutability": "nonpayable",
      "type": "function"
    }
  ],
  "bytecode": "0x6080604052670de0b6b3a7640000600455600a60055561271060065534801561002757600080fd5b506040516109493803806109498339810160408190526100469161014c565b600080546001600160a01b038087166001600160a01b0319928316179092556001805486841690831681179091556002805486851690841681179091556003805494861694909316841783556040805160608101825292835260208301919091528101929092526100b9916007916100c3565b50505050506101a0565b826003810192821561010b579160200282015b8281111561010b57825182546001600160a01b0319166001600160a01b039091161782556020909201916001909101906100d6565b5061011792915061011b565b5090565b5b80821115610117576000815560010161011c565b80516001600160a01b038116811461014757600080fd5b919050565b6000806000806080858703121561016257600080fd5b61016b85610130565b935061017960208601610130565b925061018760408601610130565b915061019560608601610130565b905092959194509250565b61079a806101af6000396000f3fe608060405234801561001057600080fd5b50600436106100835760003560e01c806313143ecd146100885780631a4d01d21461009d5780634515cef3146100b057806347bf3cb1146100d657806356878436146100e95780635b6f1b5a146100fc57806382cfbabc1461010e578063bb7b8b801461011f578063c661065714610127575b600080fd5b61009b61009636600461056b565b600455565b005b61009b6100ab36600461059b565b610152565b6100c36100be3660046105e1565b61027d565b6040519081526020015b60405180910390f35b6100c36100e436600461060c565b610429565b61009b6100f736600461056b565b600555565b6100c361010a366004610638565b3590565b6100c361011c36600461056b565b90565b6004546100c3565b61013a61013536600461056b565b610545565b6040516001600160a01b0390911681526020016100cd565b6000546040516323b872dd60e01b81526001600160a01b03909116906323b872dd906101869033903090889060040161065b565b6020604051808303816000875af11580156101a5573d6000803e3d6000fd5b505050506040513d601f19601f820116820180604052508101906101c9919061067f565b506000612710600554856101dd91906106b7565b6101e791906106ce565b905060006101f582866106f0565b90506007846001600160801b03166003811061021357610213610703565b01546040516340c10f1960e01b81526001600160a01b03909116906340c10f19906102449033908590600401610719565b600060405180830381600087803b15801561025e57600080fd5b505af1158015610272573d6000803e3d6000fd5b505050505050505050565b60008060005b60038160ff1610156103e75760078160ff16600381106102a5576102a5610703565b01546001600160a01b03166323b872dd33308860ff8616600381106102cc576102cc610703565b60200201356040518463ffffffff1660e01b81526004016102ef9392919061065b565b6020604051808303816000875af115801561030e573d6000803e3d6000fd5b505050506040513d601f19601f82011682018060405250810190610332919061067f565b506000546001600160a01b03166340c10f19338760ff85166003811061035a5761035a610703565b60200201356040518363ffffffff1660e01b815260040161037c929190610719565b600060405180830381600087803b15801561039657600080fd5b505af11580156103aa573d6000803e3d6000fd5b50505050848160ff16600381106103c3576103c3610703565b6020020135826103d39190610732565b9150806103df81610745565b915050610283565b50604080518281523360208201527f71e08e60a6135c7d231e95d525019e0473070c375b5449a8a4aa5d50040a947c910160405180910390a190505b92915050565b60006007846001600160801b03166003811061044757610447610703565b01546040516323b872dd60e01b81526001600160a01b03909116906323b872dd9061047a9033903090879060040161065b565b6020604051808303816000875af1158015610499573d6000803e3d6000fd5b505050506040513d601f19601f820116820180604052508101906104bd919061067f565b506007836001600160801b0316600381106104da576104da610703565b01546040516340c10f1960e01b81526001600160a01b03909116906340c10f199061050b9033908690600401610719565b600060405180830381600087803b15801561052557600080fd5b505af1158015610539573d6000803e3d6000fd5b50939695505050505050565b60006007826003811061055a5761055a610703565b01546001600160a01b031692915050565b60006020828403121561057d57600080fd5b5035919050565b8035600f81900b811461059657600080fd5b919050565b6000806000606084860312156105b057600080fd5b833592506105c060208501610584565b9150604084013590509250925092565b806060810183101561042357600080fd5b600080608083850312156105f457600080fd5b6105fe84846105d0565b946060939093013593505050565b60008060006060848603121561062157600080fd5b61062a84610584565b92506105c060208501610584565b60006060828403121561064a57600080fd5b61065483836105d0565b9392505050565b6001600160a01b039384168152919092166020820152604081019190915260600190565b60006020828403121561069157600080fd5b8151801515811461065457600080fd5b634e487b7160e01b600052601160045260246000fd5b8082028115828204841417610423576104236106a1565b6000826106eb57634e487b7160e01b600052601260045260246000fd5b500490565b81810381811115610423576104236106a1565b634e487b7160e01b600052603260045260246000fd5b6001600160a01b03929092168252602082015260400190565b80820180821115610423576104236106a1565b600060ff821660ff810361075b5761075b6106a1565b6001019291505056fea26469706673582212204d76542d8757cecc4e3df5deb4ad1e6ac773199702e3d47352f2f1c083c64e6164736f6c63430008110033",
  "linkReferences": {},
  "deployedLinkReferences": {}
}