{
  "_format": "hh-sol-artifact-1",
  "contractName": "ButterBatchProcessingZapper",
  "sourceName": "contracts/core/defi/butter/ButterBatchProcessingZapper.sol",
  "abi": [
    {
      "inputs": [
        {
          "internalType": "contract IContractRegistry",
          "name": "_contractRegistry",
          "type": "address"
        },
        {
          "internalType": "contract Curve3Pool",
          "name": "_curve3Pool",
          "type": "address"
        },
        {
          "internalType": "contract IERC20",
          "name": "_threeCrv",
          "type": "address"
        }
      ],
      "stateMutability": "nonpayable",
      "type": "constructor"
    },
    {
      "anonymous": false,
      "inputs": [
        {
          "indexed": false,
          "internalType": "bytes32",
          "name": "batchId",
          "type": "bytes32"
        },
        {
          "indexed": false,
          "internalType": "uint256",
          "name": "stableCoinIndex",
          "type": "uint256"
        },
        {
          "indexed": false,
          "internalType": "uint256",
          "name": "threeCurveAmount",
          "type": "uint256"
        },
        {
          "indexed": false,
          "internalType": "uint256",
          "name": "stableCoinAmount",
          "type": "uint256"
        },
        {
          "indexed": false,
          "internalType": "address",
          "name": "account",
          "type": "address"
        }
      ],
      "name": "ClaimedIntoStable",
      "type": "event"
    },
    {
      "anonymous": false,
      "inputs": [
        {
          "indexed": false,
          "internalType": "uint256",
          "name": "threeCurveAmount",
          "type": "uint256"
        },
        {
          "indexed": false,
          "internalType": "address",
          "name": "account",
          "type": "address"
        }
      ],
      "name": "ZappedIntoBatch",
      "type": "event"
    },
    {
      "anonymous": false,
      "inputs": [
        {
          "indexed": false,
          "internalType": "bytes32",
          "name": "batchId",
          "type": "bytes32"
        },
        {
          "indexed": false,
          "internalType": "uint256",
          "name": "stableCoinIndex",
          "type": "uint256"
        },
        {
          "indexed": false,
          "internalType": "uint256",
          "name": "threeCurveAmount",
          "type": "uint256"
        },
        {
          "indexed": false,
          "internalType": "uint256",
          "name": "stableCoinAmount",
          "type": "uint256"
        },
        {
          "indexed": false,
          "internalType": "address",
          "name": "account",
          "type": "address"
        }
      ],
      "name": "ZappedOutOfBatch",
      "type": "event"
    },
    {
      "inputs": [
        {
          "internalType": "bytes32",
          "name": "_batchId",
          "type": "bytes32"
        },
        {
          "internalType": "uint8",
          "name": "_stableCoinIndex",
          "type": "uint8"
        },
        {
          "internalType": "uint256",
          "name": "_min_amount",
          "type": "uint256"
        }
      ],
      "name": "claimAndSwapToStable",
      "outputs": [],
      "stateMutability": "nonpayable",
      "type": "function"
    },
    {
      "inputs": [],
      "name": "setApprovals",
      "outputs": [],
      "stateMutability": "nonpayable",
      "type": "function"
    },
    {
      "inputs": [
        {
          "internalType": "uint256[3]",
          "name": "_amounts",
          "type": "uint256[3]"
        },
        {
          "internalType": "uint256",
          "name": "_min_mint_amounts",
          "type": "uint256"
        }
      ],
      "name": "zapIntoBatch",
      "outputs": [],
      "stateMutability": "nonpayable",
      "type": "function"
    },
    {
      "inputs": [
        {
          "internalType": "bytes32",
          "name": "_batchId",
          "type": "bytes32"
        },
        {
          "internalType": "uint256",
          "name": "_amountToWithdraw",
          "type": "uint256"
        },
        {
          "internalType": "uint256",
          "name": "_stableCoinIndex",
          "type": "uint256"
        },
        {
          "internalType": "uint256",
          "name": "_min_amount",
          "type": "uint256"
        }
      ],
      "name": "zapOutOfBatch",
      "outputs": [],
      "stateMutability": "nonpayable",
      "type": "function"
    }
  ],
  "bytecode": "0x608060405234801561001057600080fd5b506040516112b43803806112b483398101604081905261002f91610089565b600080546001600160a01b039485166001600160a01b0319918216179091556001805493851693821693909317909255600280549190931691161790556100d6565b6001600160a01b038116811461008657600080fd5b50565b60008060006060848603121561009e57600080fd5b83516100a981610071565b60208501519093506100ba81610071565b60408501519092506100cb81610071565b809150509250925092565b6111cf806100e56000396000f3fe608060405234801561001057600080fd5b506004361061004c5760003560e01c8063785575fe146100515780638757b15b14610066578063bb03c5c21461006e578063ea2b15c514610081575b600080fd5b61006461005f366004610e21565b610094565b005b6100646101dc565b61006461007c366004610e93565b6103a8565b61006461008f366004610f16565b610672565b600054604051631c2d8fb360e31b815260008051602061117a83398151915260048201526001600160a01b039091169063e16c7d9890602401602060405180830381865afa1580156100ea573d6000803e3d6000fd5b505050506040513d601f19601f8201168201806040525081019061010e9190610f70565b604051633af3bfb560e01b815260048101869052602481018590523360448201526001600160a01b039190911690633af3bfb590606401600060405180830381600087803b15801561015f57600080fd5b505af1158015610173573d6000803e3d6000fd5b505050506000610184848484610897565b6040805187815260208101869052908101869052606081018290523360808201529091507f42550746ecb0bd1f73bf9d214ee3c4fb2abda2381279e724f22c17479bd3d0dd9060a00160405180910390a15050505050565b60005b60038110156102b85760015460405163c661065760e01b81526004810183905261026d916001600160a01b031690600090829063c6610657906024015b602060405180830381865afa158015610239573d6000803e3d6000fd5b505050506040513d601f19601f8201168201806040525081019061025d9190610f70565b6001600160a01b03169190610a71565b60015460405163c661065760e01b8152600481018390526102a6916001600160a01b03169060001990829063c66106579060240161021c565b806102b081610f92565b9150506101df565b5060008054604051631c2d8fb360e31b815260008051602061117a83398151915260048201526001600160a01b039091169063e16c7d9890602401602060405180830381865afa158015610310573d6000803e3d6000fd5b505050506040513d601f19601f820116820180604052508101906103349190610f70565b60025490915061034f906001600160a01b0316826000610a71565b600254610368906001600160a01b031682600019610a71565b600154600254610386916001600160a01b0391821691166000610a71565b6001546002546103a5916001600160a01b039182169116600019610a71565b50565b60008054604051631c2d8fb360e31b815260008051602061117a83398151915260048201526001600160a01b039091169063e16c7d9890602401602060405180830381865afa1580156103ff573d6000803e3d6000fd5b505050506040513d601f19601f820116820180604052508101906104239190610f70565b905060005b60038110156104fc57600084826003811061044557610445610fb9565b602002015111156104ea576104ea333086846003811061046757610467610fb9565b602002015160015460405163c661065760e01b8152600481018790526001600160a01b039091169063c661065790602401602060405180830381865afa1580156104b5573d6000803e3d6000fd5b505050506040513d601f19601f820116820180604052508101906104d99190610f70565b6001600160a01b0316929190610bbe565b806104f481610f92565b915050610428565b50600154604051634515cef360e01b81526001600160a01b0390911690634515cef39061052f9086908690600401610fcf565b600060405180830381600087803b15801561054957600080fd5b505af115801561055d573d6000803e3d6000fd5b50506002546040516370a0823160e01b8152306004820152600093506001600160a01b0390911691506370a0823190602401602060405180830381865afa1580156105ac573d6000803e3d6000fd5b505050506040513d601f19601f820116820180604052508101906105d09190611007565b604051634b0dbec360e11b81529091506001600160a01b0383169063961b7d86906106019084903390600401611020565b600060405180830381600087803b15801561061b57600080fd5b505af115801561062f573d6000803e3d6000fd5b505050507fa59c8e0fff5360b5d65a99cba38825db122305108affae79287f0029d5b4b6e38133604051610664929190611020565b60405180910390a150505050565b60008054604051631c2d8fb360e31b815260008051602061117a83398151915260048201526001600160a01b039091169063e16c7d9890602401602060405180830381865afa1580156106c9573d6000803e3d6000fd5b505050506040513d601f19601f820116820180604052508101906106ed9190610f70565b9050600160405163c81e25ab60e01b8152600481018690526001600160a01b0383169063c81e25ab9060240161010060405180830381865afa158015610737573d6000803e3d6000fd5b505050506040513d601f19601f8201168201806040525081019061075b919061105d565b51600181111561076d5761076d611037565b146107b65760405162461bcd60e51b81526020600482015260146024820152733732b2b239903a37903932ba3ab9371019b1b93b60611b60448201526064015b60405180910390fd5b60405163096c144f60e41b81526000906001600160a01b038316906396c144f0906107e79088903390600401611020565b6020604051808303816000875af1158015610806573d6000803e3d6000fd5b505050506040513d601f19601f8201168201806040525081019061082a9190611007565b9050600061083c828660ff1686610897565b6040805188815260ff88166020820152908101849052606081018290523360808201529091507fe9d2383025140dae2b3de6cd6606d7934b8bf45eb77710c7ec3b99832479b9ef9060a00160405180910390a1505050505050565b600154604051630d2680e960e11b815260048101859052600f84900b6024820152604481018390526000916001600160a01b031690631a4d01d290606401600060405180830381600087803b1580156108ef57600080fd5b505af1158015610903573d6000803e3d6000fd5b505060015460405163c661065760e01b815260048101879052600093506001600160a01b03909116915063c661065790602401602060405180830381865afa158015610953573d6000803e3d6000fd5b505050506040513d601f19601f820116820180604052508101906109779190610f70565b6040516370a0823160e01b81523060048201526001600160a01b0391909116906370a0823190602401602060405180830381865afa1580156109bd573d6000803e3d6000fd5b505050506040513d601f19601f820116820180604052508101906109e19190611007565b60015460405163c661065760e01b815260048101879052919250610a6991339184916001600160a01b039091169063c661065790602401602060405180830381865afa158015610a35573d6000803e3d6000fd5b505050506040513d601f19601f82011682018060405250810190610a599190610f70565b6001600160a01b03169190610bfc565b949350505050565b801580610aeb5750604051636eb1769f60e11b81523060048201526001600160a01b03838116602483015284169063dd62ed3e90604401602060405180830381865afa158015610ac5573d6000803e3d6000fd5b505050506040513d601f19601f82011682018060405250810190610ae99190611007565b155b610b565760405162461bcd60e51b815260206004820152603660248201527f5361666545524332303a20617070726f76652066726f6d206e6f6e2d7a65726f60448201527520746f206e6f6e2d7a65726f20616c6c6f77616e636560501b60648201526084016107ad565b6040516001600160a01b038316602482015260448101829052610bb990849063095ea7b360e01b906064015b60408051601f198184030181529190526020810180516001600160e01b03166001600160e01b031990931692909217909152610c2c565b505050565b6040516001600160a01b0380851660248301528316604482015260648101829052610bf69085906323b872dd60e01b90608401610b82565b50505050565b6040516001600160a01b038316602482015260448101829052610bb990849063a9059cbb60e01b90606401610b82565b6000610c81826040518060400160405280602081526020017f5361666545524332303a206c6f772d6c6576656c2063616c6c206661696c6564815250856001600160a01b0316610cfe9092919063ffffffff16565b805190915015610bb95780806020019051810190610c9f91906110eb565b610bb95760405162461bcd60e51b815260206004820152602a60248201527f5361666545524332303a204552433230206f7065726174696f6e20646964206e6044820152691bdd081cdd58d8d9595960b21b60648201526084016107ad565b6060610a69848460008585600080866001600160a01b03168587604051610d25919061112a565b60006040518083038185875af1925050503d8060008114610d62576040519150601f19603f3d011682016040523d82523d6000602084013e610d67565b606091505b5091509150610d7887838387610d83565b979650505050505050565b60608315610df2578251600003610deb576001600160a01b0385163b610deb5760405162461bcd60e51b815260206004820152601d60248201527f416464726573733a2063616c6c20746f206e6f6e2d636f6e747261637400000060448201526064016107ad565b5081610a69565b610a698383815115610e075781518083602001fd5b8060405162461bcd60e51b81526004016107ad9190611146565b60008060008060808587031215610e3757600080fd5b5050823594602084013594506040840135936060013592509050565b634e487b7160e01b600052604160045260246000fd5b604051610100810167ffffffffffffffff81118282101715610e8d57610e8d610e53565b60405290565b60008060808385031215610ea657600080fd5b83601f840112610eb557600080fd5b6040516060810181811067ffffffffffffffff82111715610ed857610ed8610e53565b604052806060850186811115610eed57600080fd5b855b81811015610f07578035835260209283019201610eef565b50919691359550909350505050565b600080600060608486031215610f2b57600080fd5b83359250602084013560ff81168114610f4357600080fd5b929592945050506040919091013590565b80516001600160a01b0381168114610f6b57600080fd5b919050565b600060208284031215610f8257600080fd5b610f8b82610f54565b9392505050565b600060018201610fb257634e487b7160e01b600052601160045260246000fd5b5060010190565b634e487b7160e01b600052603260045260246000fd5b60808101818460005b6003811015610ff7578151835260209283019290910190600101610fd8565b5050508260608301529392505050565b60006020828403121561101957600080fd5b5051919050565b9182526001600160a01b0316602082015260400190565b634e487b7160e01b600052602160045260246000fd5b80518015158114610f6b57600080fd5b6000610100828403121561107057600080fd5b611078610e69565b82516002811061108757600080fd5b81526020838101519082015261109f6040840161104d565b6040820152606083015160608201526080830151608082015260a083015160a08201526110ce60c08401610f54565b60c08201526110df60e08401610f54565b60e08201529392505050565b6000602082840312156110fd57600080fd5b610f8b8261104d565b60005b83811015611121578181015183820152602001611109565b50506000910152565b6000825161113c818460208701611106565b9190910192915050565b6020815260008251806020840152611165816040850160208701611106565b601f01601f1916919091016040019291505056fefb26f2de09cbdd77bda206caa88a51cf315bec7a1760f4b707df697147879b81a26469706673582212200198c6ad2fca10b8bb9132c2e702d62b350b8f94832abb610afa734969db752e64736f6c63430008110033",
  "linkReferences": {},
  "deployedLinkReferences": {}
}