{
  "_format": "hh-sol-artifact-1",
  "contractName": "Faucet",
  "sourceName": "contracts/test_helpers/Faucet.sol",
  "abi": [
    {
      "inputs": [
        {
          "internalType": "address",
          "name": "uniswap_",
          "type": "address"
        }
      ],
      "stateMutability": "nonpayable",
      "type": "constructor"
    },
    {
      "inputs": [],
      "name": "cDai",
      "outputs": [
        {
          "internalType": "contract CDai",
          "name": "",
          "type": "address"
        }
      ],
      "stateMutability": "view",
      "type": "function"
    },
    {
      "inputs": [],
      "name": "crv",
      "outputs": [
        {
          "internalType": "address",
          "name": "",
          "type": "address"
        }
      ],
      "stateMutability": "view",
      "type": "function"
    },
    {
      "inputs": [],
      "name": "crv3CryptoLP",
      "outputs": [
        {
          "internalType": "contract IERC20",
          "name": "",
          "type": "address"
        }
      ],
      "stateMutability": "view",
      "type": "function"
    },
    {
      "inputs": [],
      "name": "crv3CryptoPool",
      "outputs": [
        {
          "internalType": "contract Crv3CryptoPool",
          "name": "",
          "type": "address"
        }
      ],
      "stateMutability": "view",
      "type": "function"
    },
    {
      "inputs": [],
      "name": "crvAaveLP",
      "outputs": [
        {
          "internalType": "contract IERC20",
          "name": "",
          "type": "address"
        }
      ],
      "stateMutability": "view",
      "type": "function"
    },
    {
      "inputs": [],
      "name": "crvAavePool",
      "outputs": [
        {
          "internalType": "contract CrvAavePool",
          "name": "",
          "type": "address"
        }
      ],
      "stateMutability": "view",
      "type": "function"
    },
    {
      "inputs": [],
      "name": "crvCompLP",
      "outputs": [
        {
          "internalType": "contract IERC20",
          "name": "",
          "type": "address"
        }
      ],
      "stateMutability": "view",
      "type": "function"
    },
    {
      "inputs": [],
      "name": "crvCompPool",
      "outputs": [
        {
          "internalType": "contract CrvCompPool",
          "name": "",
          "type": "address"
        }
      ],
      "stateMutability": "view",
      "type": "function"
    },
    {
      "inputs": [],
      "name": "crvCvxCrvLP",
      "outputs": [
        {
          "internalType": "contract IERC20",
          "name": "",
          "type": "address"
        }
      ],
      "stateMutability": "view",
      "type": "function"
    },
    {
      "inputs": [],
      "name": "crvCvxCrvPool",
      "outputs": [
        {
          "internalType": "contract CrvCvxCrvPool",
          "name": "",
          "type": "address"
        }
      ],
      "stateMutability": "view",
      "type": "function"
    },
    {
      "inputs": [],
      "name": "crvIbBtcLP",
      "outputs": [
        {
          "internalType": "contract IERC20",
          "name": "",
          "type": "address"
        }
      ],
      "stateMutability": "view",
      "type": "function"
    },
    {
      "inputs": [],
      "name": "crvIbBtcPool",
      "outputs": [
        {
          "internalType": "contract CrvIbBtcPool",
          "name": "",
          "type": "address"
        }
      ],
      "stateMutability": "view",
      "type": "function"
    },
    {
      "inputs": [],
      "name": "crvSBtcLP",
      "outputs": [
        {
          "internalType": "contract IERC20",
          "name": "",
          "type": "address"
        }
      ],
      "stateMutability": "view",
      "type": "function"
    },
    {
      "inputs": [],
      "name": "crvSBtcPool",
      "outputs": [
        {
          "internalType": "contract CrvSBtcPool",
          "name": "",
          "type": "address"
        }
      ],
      "stateMutability": "view",
      "type": "function"
    },
    {
      "inputs": [],
      "name": "crvSethLP",
      "outputs": [
        {
          "internalType": "contract IERC20",
          "name": "",
          "type": "address"
        }
      ],
      "stateMutability": "view",
      "type": "function"
    },
    {
      "inputs": [],
      "name": "crvSethPool",
      "outputs": [
        {
          "internalType": "contract CrvSethPool",
          "name": "",
          "type": "address"
        }
      ],
      "stateMutability": "view",
      "type": "function"
    },
    {
      "inputs": [],
      "name": "dai",
      "outputs": [
        {
          "internalType": "address",
          "name": "",
          "type": "address"
        }
      ],
      "stateMutability": "view",
      "type": "function"
    },
    {
      "inputs": [
        {
          "internalType": "uint256",
          "name": "amount",
          "type": "uint256"
        },
        {
          "internalType": "address",
          "name": "recipient",
          "type": "address"
        }
      ],
      "name": "sendCrv3CryptoLPTokens",
      "outputs": [],
      "stateMutability": "nonpayable",
      "type": "function"
    },
    {
      "inputs": [
        {
          "internalType": "uint256",
          "name": "amount",
          "type": "uint256"
        },
        {
          "internalType": "address",
          "name": "recipient",
          "type": "address"
        }
      ],
      "name": "sendCrvAaveLPTokens",
      "outputs": [],
      "stateMutability": "nonpayable",
      "type": "function"
    },
    {
      "inputs": [
        {
          "internalType": "uint256",
          "name": "amount",
          "type": "uint256"
        },
        {
          "internalType": "address",
          "name": "recipient",
          "type": "address"
        }
      ],
      "name": "sendCrvCompLPTokens",
      "outputs": [],
      "stateMutability": "nonpayable",
      "type": "function"
    },
    {
      "inputs": [
        {
          "internalType": "uint256",
          "name": "amount",
          "type": "uint256"
        },
        {
          "internalType": "address",
          "name": "recipient",
          "type": "address"
        }
      ],
      "name": "sendCrvCvxCrvLPTokens",
      "outputs": [],
      "stateMutability": "nonpayable",
      "type": "function"
    },
    {
      "inputs": [
        {
          "internalType": "uint256",
          "name": "amount",
          "type": "uint256"
        },
        {
          "internalType": "address",
          "name": "recipient",
          "type": "address"
        }
      ],
      "name": "sendCrvIbBtcLPTokens",
      "outputs": [],
      "stateMutability": "nonpayable",
      "type": "function"
    },
    {
      "inputs": [
        {
          "internalType": "uint256",
          "name": "amount",
          "type": "uint256"
        },
        {
          "internalType": "address",
          "name": "recipient",
          "type": "address"
        }
      ],
      "name": "sendCrvSethLPTokens",
      "outputs": [],
      "stateMutability": "nonpayable",
      "type": "function"
    },
    {
      "inputs": [
        {
          "internalType": "uint256",
          "name": "amount",
          "type": "uint256"
        },
        {
          "internalType": "address",
          "name": "recipient",
          "type": "address"
        }
      ],
      "name": "sendThreeCrv",
      "outputs": [],
      "stateMutability": "nonpayable",
      "type": "function"
    },
    {
      "inputs": [
        {
          "internalType": "address",
          "name": "token",
          "type": "address"
        },
        {
          "internalType": "uint256",
          "name": "amount",
          "type": "uint256"
        },
        {
          "internalType": "address",
          "name": "recipient",
          "type": "address"
        }
      ],
      "name": "sendTokens",
      "outputs": [
        {
          "internalType": "uint256[]",
          "name": "",
          "type": "uint256[]"
        }
      ],
      "stateMutability": "nonpayable",
      "type": "function"
    },
    {
      "inputs": [],
      "name": "threeCrv",
      "outputs": [
        {
          "internalType": "contract IERC20",
          "name": "",
          "type": "address"
        }
      ],
      "stateMutability": "view",
      "type": "function"
    },
    {
      "inputs": [],
      "name": "triPool",
      "outputs": [
        {
          "internalType": "address",
          "name": "",
          "type": "address"
        }
      ],
      "stateMutability": "view",
      "type": "function"
    },
    {
      "inputs": [],
      "name": "uniswap",
      "outputs": [
        {
          "internalType": "contract Uniswap",
          "name": "",
          "type": "address"
        }
      ],
      "stateMutability": "view",
      "type": "function"
    },
    {
      "inputs": [],
      "name": "usdt",
      "outputs": [
        {
          "internalType": "address",
          "name": "",
          "type": "address"
        }
      ],
      "stateMutability": "view",
      "type": "function"
    },
    {
      "inputs": [],
      "name": "wbtc",
      "outputs": [
        {
          "internalType": "address",
          "name": "",
          "type": "address"
        }
      ],
      "stateMutability": "view",
      "type": "function"
    },
    {
      "inputs": [],
      "name": "weth",
      "outputs": [
        {
          "internalType": "contract IWETH",
          "name": "",
          "type": "address"
        }
      ],
      "stateMutability": "view",
      "type": "function"
    }
  ],
  "bytecode": "0x6080604052600180546001600160a01b031990811673bebc44782c7db0a1a60cb6fe97d0b483032ff1c717909155600280548216736b175474e89094c44da98b954eedeac495271d0f179055600380548216736c3f90f043a72fa612cbac8115ee7e52bde6e49017905560048054821673dac17f958d2ee523a2206206994597c13d831ec717905560058054821673d51a44d3fae010294c616388b506acda1bfaae4617905560068054821673c4ad29ba4b3c580e6d59105fff484999997675ff17905560078054821673debf20617708857ebe4f679508e7b7863a8a8eee17905560088054821673fd2a8fa60abd58efe3eee34dd494cd491dc14900179055600980548216735d3a536e4d6dbd6114cc1ead35777bab948e3643179055600a8054821673a2b47e3d5c44877cca798226b7b8118f9bfb7a56179055600b8054821673845838df265dcd2c412a1dc9e959c7d08537f8a2179055600c8054821673d533a949740bb3306d119cc777fa900ba034cd52179055600d80548216739d0464996170c6b9e75eed71c68b99ddedf279e8908117909155600e805483169091179055600f80548216732260fac5e5542a773aa44fbcfedf7c193bc2c599179055601080548216737fc77b5c7614e1533320ea6ddc2eb61fa00a971417905560118054821673fbdca68601f835b27790d98bbb8ec7f05fdeaa9b90811790915560128054831673075b1bb99792c9e1041ba13afef80c91a1e70fb3179055601380548316909117905560148054821673c02aaa39b223fe8d0a0e5c4f27ead9083c756cc217905560158054821673c5424b857f758e906013f3555dad202e4bdb45671790556016805490911673a3d87fffce63b53e0d54faa1cc983b7eb0b74a9c1790553480156200029157600080fd5b506040516200209638038062002096833981016040819052620002b49162000810565b600080546001600160a01b0319166001600160a01b0383811691909117909155600954600254620002f99290811691166000196200043b602090811b62000fcf17901c565b600a5460095462000326916001600160a01b0391821691166000196200043b602090811b62000fcf17901c565b600d54600c5462000353916001600160a01b0391821691166000196200043b602090811b62000fcf17901c565b60075460025462000380916001600160a01b0391821691166000196200043b602090811b62000fcf17901c565b600154600254620003ad916001600160a01b0391821691166000196200043b602090811b62000fcf17901c565b600554600454620003da916001600160a01b0391821691166000196200043b602090811b62000fcf17901c565b601054600f5462000407916001600160a01b0391821691166000196200043b602090811b62000fcf17901c565b60115460125462000434916001600160a01b0391821691166000196200043b602090811b62000fcf17901c565b50620008f9565b801580620004b95750604051636eb1769f60e11b81523060048201526001600160a01b03838116602483015284169063dd62ed3e90604401602060405180830381865afa15801562000491573d6000803e3d6000fd5b505050506040513d601f19601f82011682018060405250810190620004b7919062000842565b155b620005315760405162461bcd60e51b815260206004820152603660248201527f5361666545524332303a20617070726f76652066726f6d206e6f6e2d7a65726f60448201527f20746f206e6f6e2d7a65726f20616c6c6f77616e63650000000000000000000060648201526084015b60405180910390fd5b604080516001600160a01b038416602482015260448082018490528251808303909101815260649091019091526020810180516001600160e01b0390811663095ea7b360e01b17909152620005899185916200058e16565b505050565b6000620005ea826040518060400160405280602081526020017f5361666545524332303a206c6f772d6c6576656c2063616c6c206661696c6564815250856001600160a01b03166200066c60201b6200110f179092919060201c565b8051909150156200058957808060200190518101906200060b91906200085c565b620005895760405162461bcd60e51b815260206004820152602a60248201527f5361666545524332303a204552433230206f7065726174696f6e20646964206e6044820152691bdd081cdd58d8d9595960b21b606482015260840162000528565b60606200067d848460008562000685565b949350505050565b606082471015620006e85760405162461bcd60e51b815260206004820152602660248201527f416464726573733a20696e73756666696369656e742062616c616e636520666f6044820152651c8818d85b1b60d21b606482015260840162000528565b600080866001600160a01b03168587604051620007069190620008a6565b60006040518083038185875af1925050503d806000811462000745576040519150601f19603f3d011682016040523d82523d6000602084013e6200074a565b606091505b5090925090506200075e8783838762000769565b979650505050505050565b60608315620007dd578251600003620007d5576001600160a01b0385163b620007d55760405162461bcd60e51b815260206004820152601d60248201527f416464726573733a2063616c6c20746f206e6f6e2d636f6e7472616374000000604482015260640162000528565b50816200067d565b6200067d8383815115620007f45781518083602001fd5b8060405162461bcd60e51b8152600401620005289190620008c4565b6000602082840312156200082357600080fd5b81516001600160a01b03811681146200083b57600080fd5b9392505050565b6000602082840312156200085557600080fd5b5051919050565b6000602082840312156200086f57600080fd5b815180151581146200083b57600080fd5b60005b838110156200089d57818101518382015260200162000883565b50506000910152565b60008251620008ba81846020870162000880565b9190910192915050565b6020815260008251806020840152620008e581604085016020870162000880565b601f01601f19169190910160400192915050565b61178d80620009096000396000f3fe608060405234801561001057600080fd5b50600436106101a55760003560e01c80634f9209c3116100ef5780639b089d55116100925780639b089d5514610384578063b7136c3a14610397578063d65b3b4f146103aa578063db405c1e146103bd578063ec879ad1146103d0578063f46c6fc0146103e3578063f4b9fa75146103f6578063f5b9c84e1461040957600080fd5b80634f9209c3146102ec5780636a4874a1146102ff5780637239e4821461031257806378bf592814610325578063791003b9146103385780637dbf2ccf1461034b578063880fe2511461035e5780638c27a3b71461037157600080fd5b80632da9a694116101575780632da9a694146102475780632f48ab7d1461025a578063371fc6ef1461026d5780633cdc5389146102805780633fc8cef3146102935780634217e287146102a65780634888a38c146102c65780634a3e03a6146102d957600080fd5b80631d6e7e68146101aa57806324ec78db146101d357806324fc88af146101e65780632681f7e4146101fb57806329f4a8141461020e5780632a8e5975146102215780632c499ae614610234575b600080fd5b6011546101bd906001600160a01b031681565b6040516101ca9190611371565b60405180910390f35b6013546101bd906001600160a01b031681565b6101f96101f436600461139d565b61041c565b005b6000546101bd906001600160a01b031681565b600e546101bd906001600160a01b031681565b6012546101bd906001600160a01b031681565b6101f961024236600461139d565b610697565b6003546101bd906001600160a01b031681565b6004546101bd906001600160a01b031681565b600b546101bd906001600160a01b031681565b600f546101bd906001600160a01b031681565b6014546101bd906001600160a01b031681565b6102b96102b43660046113cd565b610788565b6040516101ca919061140f565b6005546101bd906001600160a01b031681565b6010546101bd906001600160a01b031681565b6001546101bd906001600160a01b031681565b600c546101bd906001600160a01b031681565b600a546101bd906001600160a01b031681565b6008546101bd906001600160a01b031681565b6101f961034636600461139d565b61090e565b6101f961035936600461139d565b6109ff565b6007546101bd906001600160a01b031681565b600d546101bd906001600160a01b031681565b6009546101bd906001600160a01b031681565b6101f96103a536600461139d565b610ae9565b6101f96103b836600461139d565b610c66565b6015546101bd906001600160a01b031681565b6006546101bd906001600160a01b031681565b6101f96103f136600461139d565b610edb565b6002546101bd906001600160a01b031681565b6016546101bd906001600160a01b031681565b600f54600090610436906001600160a01b03168430610788565b60018151811061044857610448611453565b6020908102919091018101516010546040805160608101825260008082529481018490528082018590529051634515cef360e01b81529294506001600160a01b0390911692634515cef3926104a192919060040161148c565b600060405180830381600087803b1580156104bb57600080fd5b505af11580156104cf573d6000803e3d6000fd5b50506011546040805180820182526000815260125491516370a0823160e01b81526001600160a01b039384169550630b4c7e4d94509092602084019216906370a0823190610521903090600401611371565b602060405180830381865afa15801561053e573d6000803e3d6000fd5b505050506040513d601f19601f8201168201806040525081019061056291906114a7565b81525060006040518363ffffffff1660e01b81526004016105849291906114c0565b600060405180830381600087803b15801561059e57600080fd5b505af11580156105b2573d6000803e3d6000fd5b50506013546040516370a0823160e01b81526001600160a01b03909116925063a9059cbb9150849083906370a08231906105f0903090600401611371565b602060405180830381865afa15801561060d573d6000803e3d6000fd5b505050506040513d601f19601f8201168201806040525081019061063191906114a7565b6040518363ffffffff1660e01b815260040161064e9291906114f8565b6020604051808303816000875af115801561066d573d6000803e3d6000fd5b505050506040513d601f19601f820116820180604052508101906106919190611511565b50505050565b6002546000906106b1906001600160a01b03168430610788565b6001815181106106c3576106c3611453565b6020908102919091018101516001546040805160608101825283815260009481018590528082018590529051634515cef360e01b81529294506001600160a01b0390911692634515cef39261071c92919060040161148c565b600060405180830381600087803b15801561073657600080fd5b505af115801561074a573d6000803e3d6000fd5b50506003546040516370a0823160e01b81526001600160a01b03909116925063a9059cbb9150849083906370a08231906105f0903090600401611371565b6040805160028082526060808301845292600092919060208301908036833701905050905060008054906101000a90046001600160a01b03166001600160a01b031663ad5c46486040518163ffffffff1660e01b8152600401602060405180830381865afa1580156107fe573d6000803e3d6000fd5b505050506040513d601f19601f820116820180604052508101906108229190611550565b8160008151811061083557610835611453565b60200260200101906001600160a01b031690816001600160a01b031681525050848160018151811061086957610869611453565b6001600160a01b03928316602091820292909201015260005416637ff36ab561089a86670de0b6b3a764000061156d565b60008487426040518663ffffffff1660e01b81526004016108be9493929190611598565b60006040518083038185885af11580156108dc573d6000803e3d6000fd5b50505050506040513d6000823e601f3d908101601f191682016040526109059190810190611602565b95945050505050565b600454600090610928906001600160a01b03168430610788565b60018151811061093a5761093a611453565b6020908102919091018101516005546040805160608101825283815260009481018590528082018590529051634515cef360e01b81529294506001600160a01b0390911692634515cef39261099392919060040161148c565b600060405180830381600087803b1580156109ad57600080fd5b505af11580156109c1573d6000803e3d6000fd5b50506006546040516370a0823160e01b81526001600160a01b03909116925063a9059cbb9150849083906370a08231906105f0903090600401611371565b600c54600090610a19906001600160a01b03168430610788565b600181518110610a2b57610a2b611453565b602090810291909101810151600d5460408051808201825283815260009481018590529051630b4c7e4d60e01b81529294506001600160a01b0390911692630b4c7e4d92610a7d9291906004016114c0565b600060405180830381600087803b158015610a9757600080fd5b505af1158015610aab573d6000803e3d6000fd5b5050600e546040516370a0823160e01b81526001600160a01b03909116925063a9059cbb9150849083906370a08231906105f0903090600401611371565b6015546001600160a01b0316630b4c7e4d610b0c84670de0b6b3a764000061156d565b604051806040016040528086670de0b6b3a7640000610b2b919061156d565b8152602001600081525060006040518463ffffffff1660e01b8152600401610b549291906114c0565b6000604051808303818588803b158015610b6d57600080fd5b505af1158015610b81573d6000803e3d6000fd5b50506016546040516370a0823160e01b81526001600160a01b03909116935063a9059cbb925084915083906370a0823190610bc0903090600401611371565b602060405180830381865afa158015610bdd573d6000803e3d6000fd5b505050506040513d601f19601f82011682018060405250810190610c0191906114a7565b6040518363ffffffff1660e01b8152600401610c1e9291906114f8565b6020604051808303816000875af1158015610c3d573d6000803e3d6000fd5b505050506040513d601f19601f82011682018060405250810190610c619190611511565b505050565b600254600090610c80906001600160a01b03168430610788565b600181518110610c9257610c92611453565b602090810291909101015160095460405163140e25ad60e31b8152600481018390529192506001600160a01b03169063a0712d68906024016020604051808303816000875af1158015610ce9573d6000803e3d6000fd5b505050506040513d601f19601f82011682018060405250810190610d0d91906114a7565b506009546040516370a0823160e01b81526000916001600160a01b0316906370a0823190610d3f903090600401611371565b602060405180830381865afa158015610d5c573d6000803e3d6000fd5b505050506040513d601f19601f82011682018060405250810190610d8091906114a7565b600a546040805180820182528381526000602082018190529151630b4c7e4d60e01b81529394506001600160a01b0390921692630b4c7e4d92610dc79290916004016114c0565b600060405180830381600087803b158015610de157600080fd5b505af1158015610df5573d6000803e3d6000fd5b5050600b546040516370a0823160e01b81526001600160a01b03909116925063a9059cbb9150859083906370a0823190610e33903090600401611371565b602060405180830381865afa158015610e50573d6000803e3d6000fd5b505050506040513d601f19601f82011682018060405250810190610e7491906114a7565b6040518363ffffffff1660e01b8152600401610e919291906114f8565b6020604051808303816000875af1158015610eb0573d6000803e3d6000fd5b505050506040513d601f19601f82011682018060405250810190610ed49190611511565b5050505050565b600254600090610ef5906001600160a01b03168430610788565b600181518110610f0757610f07611453565b60209081029190910181015160075460408051606081018252838152600094810185905280820185905290516315b74c9d60e11b81529294506001600160a01b0390911692632b6e993a92610f639291906001906004016116c0565b600060405180830381600087803b158015610f7d57600080fd5b505af1158015610f91573d6000803e3d6000fd5b50506008546040516370a0823160e01b81526001600160a01b03909116925063a9059cbb9150849083906370a08231906105f0903090600401611371565b8015806110495750604051636eb1769f60e11b81523060048201526001600160a01b03838116602483015284169063dd62ed3e90604401602060405180830381865afa158015611023573d6000803e3d6000fd5b505050506040513d601f19601f8201168201806040525081019061104791906114a7565b155b6110b95760405162461bcd60e51b815260206004820152603660248201527f5361666545524332303a20617070726f76652066726f6d206e6f6e2d7a65726f60448201527520746f206e6f6e2d7a65726f20616c6c6f77616e636560501b60648201526084015b60405180910390fd5b610c618363095ea7b360e01b84846040516024016110d89291906114f8565b60408051601f198184030181529190526020810180516001600160e01b03166001600160e01b031990931692909217909152611126565b606061111e84846000856111f8565b949350505050565b600061117b826040518060400160405280602081526020017f5361666545524332303a206c6f772d6c6576656c2063616c6c206661696c6564815250856001600160a01b031661110f9092919063ffffffff16565b805190915015610c6157808060200190518101906111999190611511565b610c615760405162461bcd60e51b815260206004820152602a60248201527f5361666545524332303a204552433230206f7065726174696f6e20646964206e6044820152691bdd081cdd58d8d9595960b21b60648201526084016110b0565b6060824710156112595760405162461bcd60e51b815260206004820152602660248201527f416464726573733a20696e73756666696369656e742062616c616e636520666f6044820152651c8818d85b1b60d21b60648201526084016110b0565b600080866001600160a01b031685876040516112759190611708565b60006040518083038185875af1925050503d80600081146112b2576040519150601f19603f3d011682016040523d82523d6000602084013e6112b7565b606091505b50915091506112c8878383876112d3565b979650505050505050565b6060831561134257825160000361133b576001600160a01b0385163b61133b5760405162461bcd60e51b815260206004820152601d60248201527f416464726573733a2063616c6c20746f206e6f6e2d636f6e747261637400000060448201526064016110b0565b508161111e565b61111e83838151156113575781518083602001fd5b8060405162461bcd60e51b81526004016110b09190611724565b6001600160a01b0391909116815260200190565b6001600160a01b038116811461139a57600080fd5b50565b600080604083850312156113b057600080fd5b8235915060208301356113c281611385565b809150509250929050565b6000806000606084860312156113e257600080fd5b83356113ed81611385565b925060208401359150604084013561140481611385565b809150509250925092565b6020808252825182820181905260009190848201906040850190845b818110156114475783518352928401929184019160010161142b565b50909695505050505050565b634e487b7160e01b600052603260045260246000fd5b8060005b600381101561069157815184526020938401939091019060010161146d565b6080810161149a8285611469565b8260608301529392505050565b6000602082840312156114b957600080fd5b5051919050565b60608101818460005b60028110156114e85781518352602092830192909101906001016114c9565b5050508260408301529392505050565b6001600160a01b03929092168252602082015260400190565b60006020828403121561152357600080fd5b8151801515811461153357600080fd5b9392505050565b634e487b7160e01b600052604160045260246000fd5b60006020828403121561156257600080fd5b815161153381611385565b808202811582820484141761159257634e487b7160e01b600052601160045260246000fd5b92915050565b600060808201868352602060808185015281875180845260a086019150828901935060005b818110156115e25784516001600160a01b0316835293830193918301916001016115bd565b50506001600160a01b039690961660408501525050506060015292915050565b6000602080838503121561161557600080fd5b825167ffffffffffffffff8082111561162d57600080fd5b818501915085601f83011261164157600080fd5b8151818111156116535761165361153a565b8060051b604051601f19603f830116810181811085821117156116785761167861153a565b60405291825284820192508381018501918883111561169657600080fd5b938501935b828510156116b45784518452938501939285019261169b565b98975050505050505050565b60a081016116ce8286611469565b8360608301528215156080830152949350505050565b60005b838110156116ff5781810151838201526020016116e7565b50506000910152565b6000825161171a8184602087016116e4565b9190910192915050565b60208152600082518060208401526117438160408501602087016116e4565b601f01601f1916919091016040019291505056fea2646970667358221220b298948dda99588139382a74b43ae338f501aa7647c803c5910f3a4d074e270c64736f6c63430008110033",
  "linkReferences": {},
  "deployedLinkReferences": {}
}