{"contracts/core/dao/PopLocker.sol":{"PopLocker":{"abi":[{"inputs":[{"internalType":"contract IERC20","name":"_stakingToken","type":"address"},{"internalType":"contract IRewardsEscrow","name":"_rewardsEscrow","type":"address"}],"stateMutability":"nonpayable","type":"constructor"},{"anonymous":false,"inputs":[{"indexed":false,"internalType":"uint256","name":"_previousDuration","type":"uint256"},{"indexed":false,"internalType":"uint256","name":"_newDuration","type":"uint256"}],"name":"EscrowDurationUpdated","type":"event"},{"anonymous":false,"inputs":[{"indexed":true,"internalType":"address","name":"_user","type":"address"},{"indexed":true,"internalType":"address","name":"_kicked","type":"address"},{"indexed":false,"internalType":"uint256","name":"_reward","type":"uint256"}],"name":"KickReward","type":"event"},{"anonymous":false,"inputs":[{"indexed":true,"internalType":"address","name":"previousOwner","type":"address"},{"indexed":true,"internalType":"address","name":"newOwner","type":"address"}],"name":"OwnershipTransferred","type":"event"},{"anonymous":false,"inputs":[{"indexed":false,"internalType":"address","name":"_token","type":"address"},{"indexed":false,"internalType":"uint256","name":"_amount","type":"uint256"}],"name":"Recovered","type":"event"},{"anonymous":false,"inputs":[{"indexed":true,"internalType":"address","name":"_user","type":"address"},{"indexed":false,"internalType":"uint256","name":"_amount","type":"uint256"}],"name":"Relocked","type":"event"},{"anonymous":false,"inputs":[{"indexed":true,"internalType":"address","name":"_token","type":"address"},{"indexed":false,"internalType":"uint256","name":"_reward","type":"uint256"}],"name":"RewardAdded","type":"event"},{"anonymous":false,"inputs":[{"indexed":true,"internalType":"address","name":"_user","type":"address"},{"indexed":true,"internalType":"address","name":"_rewardsToken","type":"address"},{"indexed":false,"internalType":"uint256","name":"_reward","type":"uint256"}],"name":"RewardPaid","type":"event"},{"anonymous":false,"inputs":[{"indexed":false,"internalType":"address","name":"_previous","type":"address"},{"indexed":false,"internalType":"address","name":"_new","type":"address"}],"name":"RewardsEscrowUpdated","type":"event"},{"anonymous":false,"inputs":[{"indexed":true,"internalType":"address","name":"_user","type":"address"},{"indexed":false,"internalType":"uint256","name":"_paidAmount","type":"uint256"},{"indexed":false,"internalType":"uint256","name":"_lockedAmount","type":"uint256"},{"indexed":false,"internalType":"uint256","name":"_boostedAmount","type":"uint256"}],"name":"Staked","type":"event"},{"anonymous":false,"inputs":[{"indexed":true,"internalType":"address","name":"_user","type":"address"},{"indexed":false,"internalType":"uint256","name":"_amount","type":"uint256"}],"name":"Withdrawn","type":"event"},{"inputs":[{"internalType":"address","name":"_rewardsToken","type":"address"},{"internalType":"address","name":"_distributor","type":"address"},{"internalType":"bool","name":"_useBoost","type":"bool"}],"name":"addReward","outputs":[],"stateMutability":"nonpayable","type":"function"},{"inputs":[{"internalType":"address","name":"_rewardsToken","type":"address"},{"internalType":"address","name":"_distributor","type":"address"},{"internalType":"bool","name":"_approved","type":"bool"}],"name":"approveRewardDistributor","outputs":[],"stateMutability":"nonpayable","type":"function"},{"inputs":[{"internalType":"uint256","name":"_epoch","type":"uint256"},{"internalType":"address","name":"_user","type":"address"}],"name":"balanceAtEpochOf","outputs":[{"internalType":"uint256","name":"amount","type":"uint256"}],"stateMutability":"view","type":"function"},{"inputs":[{"internalType":"address","name":"_user","type":"address"}],"name":"balanceOf","outputs":[{"internalType":"uint256","name":"amount","type":"uint256"}],"stateMutability":"view","type":"function"},{"inputs":[{"internalType":"address","name":"","type":"address"}],"name":"balances","outputs":[{"internalType":"uint112","name":"locked","type":"uint112"},{"internalType":"uint112","name":"boosted","type":"uint112"},{"internalType":"uint32","name":"nextUnlockIndex","type":"uint32"}],"stateMutability":"view","type":"function"},{"inputs":[],"name":"boostPayment","outputs":[{"internalType":"address","name":"","type":"address"}],"stateMutability":"view","type":"function"},{"inputs":[],"name":"boostRate","outputs":[{"internalType":"uint256","name":"","type":"uint256"}],"stateMutability":"view","type":"function"},{"inputs":[],"name":"boostedSupply","outputs":[{"internalType":"uint256","name":"","type":"uint256"}],"stateMutability":"view","type":"function"},{"inputs":[],"name":"checkpointEpoch","outputs":[],"stateMutability":"nonpayable","type":"function"},{"inputs":[{"internalType":"address","name":"_account","type":"address"}],"name":"claimableRewards","outputs":[{"components":[{"internalType":"address","name":"token","type":"address"},{"internalType":"uint256","name":"amount","type":"uint256"}],"internalType":"struct PopLocker.EarnedData[]","name":"userRewards","type":"tuple[]"}],"stateMutability":"view","type":"function"},{"inputs":[],"name":"decimals","outputs":[{"internalType":"uint8","name":"","type":"uint8"}],"stateMutability":"view","type":"function"},{"inputs":[],"name":"denominator","outputs":[{"internalType":"uint256","name":"","type":"uint256"}],"stateMutability":"view","type":"function"},{"inputs":[],"name":"epochCount","outputs":[{"internalType":"uint256","name":"","type":"uint256"}],"stateMutability":"view","type":"function"},{"inputs":[{"internalType":"uint256","name":"","type":"uint256"}],"name":"epochs","outputs":[{"internalType":"uint224","name":"supply","type":"uint224"},{"internalType":"uint32","name":"date","type":"uint32"}],"stateMutability":"view","type":"function"},{"inputs":[],"name":"escrowDuration","outputs":[{"internalType":"uint256","name":"","type":"uint256"}],"stateMutability":"view","type":"function"},{"inputs":[{"internalType":"uint256","name":"_time","type":"uint256"}],"name":"findEpochId","outputs":[{"internalType":"uint256","name":"epoch","type":"uint256"}],"stateMutability":"view","type":"function"},{"inputs":[{"internalType":"address","name":"_account","type":"address"}],"name":"getReward","outputs":[],"stateMutability":"nonpayable","type":"function"},{"inputs":[{"internalType":"address","name":"_rewardsToken","type":"address"}],"name":"getRewardForDuration","outputs":[{"internalType":"uint256","name":"","type":"uint256"}],"stateMutability":"view","type":"function"},{"inputs":[],"name":"isShutdown","outputs":[{"internalType":"bool","name":"","type":"bool"}],"stateMutability":"view","type":"function"},{"inputs":[{"internalType":"address","name":"_account","type":"address"}],"name":"kickExpiredLocks","outputs":[],"stateMutability":"nonpayable","type":"function"},{"inputs":[],"name":"kickRewardEpochDelay","outputs":[{"internalType":"uint256","name":"","type":"uint256"}],"stateMutability":"view","type":"function"},{"inputs":[],"name":"kickRewardPerEpoch","outputs":[{"internalType":"uint256","name":"","type":"uint256"}],"stateMutability":"view","type":"function"},{"inputs":[{"internalType":"address","name":"_rewardsToken","type":"address"}],"name":"lastTimeRewardApplicable","outputs":[{"internalType":"uint256","name":"","type":"uint256"}],"stateMutability":"view","type":"function"},{"inputs":[{"internalType":"address","name":"_account","type":"address"},{"internalType":"uint256","name":"_amount","type":"uint256"},{"internalType":"uint256","name":"_spendRatio","type":"uint256"}],"name":"lock","outputs":[],"stateMutability":"nonpayable","type":"function"},{"inputs":[],"name":"lockDuration","outputs":[{"internalType":"uint256","name":"","type":"uint256"}],"stateMutability":"view","type":"function"},{"inputs":[{"internalType":"address","name":"_user","type":"address"}],"name":"lockedBalanceOf","outputs":[{"internalType":"uint256","name":"amount","type":"uint256"}],"stateMutability":"view","type":"function"},{"inputs":[{"internalType":"address","name":"_user","type":"address"}],"name":"lockedBalances","outputs":[{"internalType":"uint256","name":"total","type":"uint256"},{"internalType":"uint256","name":"unlockable","type":"uint256"},{"internalType":"uint256","name":"locked","type":"uint256"},{"components":[{"internalType":"uint112","name":"amount","type":"uint112"},{"internalType":"uint112","name":"boosted","type":"uint112"},{"internalType":"uint32","name":"unlockTime","type":"uint32"}],"internalType":"struct PopLocker.LockedBalance[]","name":"lockData","type":"tuple[]"}],"stateMutability":"view","type":"function"},{"inputs":[],"name":"lockedSupply","outputs":[{"internalType":"uint256","name":"","type":"uint256"}],"stateMutability":"view","type":"function"},{"inputs":[],"name":"maximumBoostPayment","outputs":[{"internalType":"uint256","name":"","type":"uint256"}],"stateMutability":"view","type":"function"},{"inputs":[],"name":"name","outputs":[{"internalType":"string","name":"","type":"string"}],"stateMutability":"view","type":"function"},{"inputs":[],"name":"nextBoostRate","outputs":[{"internalType":"uint256","name":"","type":"uint256"}],"stateMutability":"view","type":"function"},{"inputs":[],"name":"nextMaximumBoostPayment","outputs":[{"internalType":"uint256","name":"","type":"uint256"}],"stateMutability":"view","type":"function"},{"inputs":[{"internalType":"address","name":"_rewardsToken","type":"address"},{"internalType":"uint256","name":"_reward","type":"uint256"}],"name":"notifyRewardAmount","outputs":[],"stateMutability":"nonpayable","type":"function"},{"inputs":[],"name":"owner","outputs":[{"internalType":"address","name":"","type":"address"}],"stateMutability":"view","type":"function"},{"inputs":[{"internalType":"bool","name":"_relock","type":"bool"}],"name":"processExpiredLocks","outputs":[],"stateMutability":"nonpayable","type":"function"},{"inputs":[{"internalType":"bool","name":"_relock","type":"bool"},{"internalType":"uint256","name":"_spendRatio","type":"uint256"},{"internalType":"address","name":"_withdrawTo","type":"address"}],"name":"processExpiredLocks","outputs":[],"stateMutability":"nonpayable","type":"function"},{"inputs":[{"internalType":"address","name":"_tokenAddress","type":"address"},{"internalType":"uint256","name":"_tokenAmount","type":"uint256"}],"name":"recoverERC20","outputs":[],"stateMutability":"nonpayable","type":"function"},{"inputs":[],"name":"renounceOwnership","outputs":[],"stateMutability":"nonpayable","type":"function"},{"inputs":[{"internalType":"address","name":"","type":"address"}],"name":"rewardData","outputs":[{"internalType":"bool","name":"useBoost","type":"bool"},{"internalType":"uint40","name":"periodFinish","type":"uint40"},{"internalType":"uint208","name":"rewardRate","type":"uint208"},{"internalType":"uint40","name":"lastUpdateTime","type":"uint40"},{"internalType":"uint208","name":"rewardPerTokenStored","type":"uint208"}],"stateMutability":"view","type":"function"},{"inputs":[{"internalType":"address","name":"","type":"address"},{"internalType":"address","name":"","type":"address"}],"name":"rewardDistributors","outputs":[{"internalType":"bool","name":"","type":"bool"}],"stateMutability":"view","type":"function"},{"inputs":[{"internalType":"address","name":"_rewardsToken","type":"address"}],"name":"rewardPerToken","outputs":[{"internalType":"uint256","name":"","type":"uint256"}],"stateMutability":"view","type":"function"},{"inputs":[{"internalType":"uint256","name":"","type":"uint256"}],"name":"rewardTokens","outputs":[{"internalType":"address","name":"","type":"address"}],"stateMutability":"view","type":"function"},{"inputs":[{"internalType":"address","name":"_user","type":"address"}],"name":"rewardWeightOf","outputs":[{"internalType":"uint256","name":"amount","type":"uint256"}],"stateMutability":"view","type":"function"},{"inputs":[{"internalType":"address","name":"","type":"address"},{"internalType":"address","name":"","type":"address"}],"name":"rewards","outputs":[{"internalType":"uint256","name":"","type":"uint256"}],"stateMutability":"view","type":"function"},{"inputs":[],"name":"rewardsDuration","outputs":[{"internalType":"uint256","name":"","type":"uint256"}],"stateMutability":"view","type":"function"},{"inputs":[],"name":"rewardsEscrow","outputs":[{"internalType":"contract IRewardsEscrow","name":"","type":"address"}],"stateMutability":"view","type":"function"},{"inputs":[],"name":"setApprovals","outputs":[],"stateMutability":"nonpayable","type":"function"},{"inputs":[{"internalType":"uint256","name":"_max","type":"uint256"},{"internalType":"uint256","name":"_rate","type":"uint256"},{"internalType":"address","name":"_receivingAddress","type":"address"}],"name":"setBoost","outputs":[],"stateMutability":"nonpayable","type":"function"},{"inputs":[{"internalType":"uint256","name":"duration","type":"uint256"}],"name":"setEscrowDuration","outputs":[],"stateMutability":"nonpayable","type":"function"},{"inputs":[{"internalType":"uint256","name":"_rate","type":"uint256"},{"internalType":"uint256","name":"_delay","type":"uint256"}],"name":"setKickIncentive","outputs":[],"stateMutability":"nonpayable","type":"function"},{"inputs":[{"internalType":"address","name":"_rewardsEscrow","type":"address"}],"name":"setRewardsEscrow","outputs":[],"stateMutability":"nonpayable","type":"function"},{"inputs":[],"name":"shutdown","outputs":[],"stateMutability":"nonpayable","type":"function"},{"inputs":[],"name":"stakingToken","outputs":[{"internalType":"contract IERC20","name":"","type":"address"}],"stateMutability":"view","type":"function"},{"inputs":[],"name":"symbol","outputs":[{"internalType":"string","name":"","type":"string"}],"stateMutability":"view","type":"function"},{"inputs":[],"name":"totalSupply","outputs":[{"internalType":"uint256","name":"supply","type":"uint256"}],"stateMutability":"view","type":"function"},{"inputs":[{"internalType":"uint256","name":"_epoch","type":"uint256"}],"name":"totalSupplyAtEpoch","outputs":[{"internalType":"uint256","name":"supply","type":"uint256"}],"stateMutability":"view","type":"function"},{"inputs":[{"internalType":"address","name":"newOwner","type":"address"}],"name":"transferOwnership","outputs":[],"stateMutability":"nonpayable","type":"function"},{"inputs":[{"internalType":"address","name":"","type":"address"},{"internalType":"uint256","name":"","type":"uint256"}],"name":"userLocks","outputs":[{"internalType":"uint112","name":"amount","type":"uint112"},{"internalType":"uint112","name":"boosted","type":"uint112"},{"internalType":"uint32","name":"unlockTime","type":"uint32"}],"stateMutability":"view","type":"function"},{"inputs":[{"internalType":"address","name":"","type":"address"},{"internalType":"address","name":"","type":"address"}],"name":"userRewardPerTokenPaid","outputs":[{"internalType":"uint256","name":"","type":"uint256"}],"stateMutability":"view","type":"function"}],"devdoc":{"kind":"dev","methods":{"owner()":{"details":"Returns the address of the current owner."},"renounceOwnership()":{"details":"Leaves the contract without owner. It will not be possible to call `onlyOwner` functions anymore. Can only be called by the current owner. NOTE: Renouncing ownership will leave the contract without an owner, thereby removing any functionality that is only available to the owner."},"transferOwnership(address)":{"details":"Transfers ownership of the contract to a new account (`newOwner`). Can only be called by the current owner."}},"version":1},"evm":{"bytecode":{"linkReferences":{},"object":"60a0604052600060108190556127106011819055601291909155601355606460145560046015556016805460ff191690553480156200003d57600080fd5b506040516200452938038062004529833981016040819052620000609162000350565b600160009081556200007162000233565b600180546001600160a01b0319166001600160a01b038316908117909155604051919250906000907f8be0079c531659141344cd1fd0a4f28419497f9722a3daafe3b4186f6b6457e0908290a3506040805180820190915260158082527f566f7465204c6f636b656420504f5020546f6b656e000000000000000000000060209092019182526200010591601791620002b4565b50604080518082019091526005808252640766c504f560dc1b60209092019182526200013491601891620002b4565b50600960f91b608052600280546001600160a01b03199081166001600160a01b0385811691909117909255600380549091169183169190911790556301e133806006556000620001ad62093a8062000199428262000237602090811b6200213317901c565b6200027860201b620021651790919060201c565b60408051808201909152600080825263ffffffff92831660208301908152600c8054600181018255925291517fdf6966c971051c3d54ec59162606531493a51404a002842f56009d7e5cf4a8c790910180549251909316600160e01b026001600160e01b039182166001600160e01b031990931692909217161790555062000415915050565b3390565b6000808211620002645760405162461bcd60e51b81526004016200025b906200038e565b60405180910390fd5b8183816200026e57fe5b0490505b92915050565b600081158062000295575050808202828282816200029257fe5b04145b620002725760405162461bcd60e51b81526004016200025b90620003c5565b828054600181600116156101000203166002900490600052602060002090601f016020900481019282601f10620002f757805160ff191683800117855562000327565b8280016001018555821562000327579182015b82811115620003275782518255916020019190600101906200030a565b506200033592915062000339565b5090565b5b808211156200033557600081556001016200033a565b6000806040838503121562000363578182fd5b82516200037081620003fc565b60208401519092506200038381620003fc565b809150509250929050565b6020808252601c908201527f426f72696e674d6174683a206469766973696f6e206279207a65726f00000000604082015260600190565b60208082526018908201527f426f72696e674d6174683a204d756c204f766572666c6f770000000000000000604082015260600190565b6001600160a01b03811681146200041257600080fd5b50565b60805160f81c6140f66200043360003980610c1652506140f66000f3fe608060405234801561001057600080fd5b50600436106103195760003560e01c80638757b15b116101a9578063c00007b0116100ef578063e432488d1161009d578063e432488d14610681578063e465fe8014610689578063e70b9e271461069c578063f1229777146106af578063f2157932146106c2578063f2fde38b146106ca578063f8261597146106dd578063fc0e74d1146106f057610319565b8063c00007b0146105f7578063c1009f4b1461060a578063c6b61e4c14610612578063ca5c7b9114610633578063d3c45c761461063b578063dc01f60d1461064e578063e2ab691d1461066e57610319565b8063a81653c911610157578063a81653c91461058b578063a98e05bb1461059e578063aa33fedb146105a6578063b187bc22146105b9578063b5ed7a66146105c1578063b66503cf146105c9578063bcd11014146105dc578063bf86d690146105ef57610319565b80638757b15b1461053d578063887c7dc5146105455780638980f11f146105585780638da5cb5b1461056b57806395d89b411461057357806396ce07951461057b5780639bdc74671461058357610319565b806357c2c2ba1161026e57806370b36d791161021c57806370b36d79146104cf57806370e664cd146104e2578063715018a6146104f557806372f702f3146104fd57806375aadf61146105125780637bb7bed11461051a5780637bd48c7c1461052d578063829965cc1461053557610319565b806357c2c2ba14610455578063593557361461045d578063638634ee1461047057806363f1c8e2146104835780636724c910146104965780637035ab98146104a957806370a08231146104bc57610319565b80632fe87108116102cb5780632fe87108146103b9578063312ff839146103cc578063313ce567146103e1578063321bc347146103f6578063386a95251461040957806339fc97131461041157806348e5d9f81461043157610319565b8063045544431461031e5780630483a7f61461033c57806306fdde031461035f57806318160ddd146103745780631c6073951461037c57806327e235e31461038f5780632e9564e4146103b1575b600080fd5b6103266106f8565b6040516103339190613fa8565b60405180910390f35b61034f61034a366004613677565b6106ff565b6040516103339493929190613fde565b6103676108c5565b60405161033391906139c5565b61032661095b565b61032661038a366004613813565b610a31565b6103a261039d366004613677565b610b5d565b60405161033393929190613f60565b610326610b93565b6103266103c7366004613677565b610b99565b6103df6103da36600461376d565b610bc8565b005b6103e9610c14565b6040516103339190614060565b6103df6104043660046137e3565b610c38565b610326610cb7565b61042461041f366004613692565b610cbe565b6040516103339190613984565b61044461043f366004613677565b610cde565b60405161033395949392919061398f565b610326610d2a565b61032661046b366004613677565b610d30565b61032661047e366004613677565b610d54565b6103df610491366004613836565b610d82565b6103df6104a43660046136c6565b610e0f565b6103266104b7366004613692565b610ec7565b6103266104ca366004613677565b610ee4565b6103266104dd3660046137e3565b611008565b6103df6104f03660046137a5565b61112a565b6103df61116e565b6105056111f7565b60405161033391906138a0565b610326611206565b6105056105283660046137e3565b61120c565b610326611233565b610326611239565b6103df61123f565b6103df610553366004613677565b61127e565b6103df610566366004613710565b6112cf565b6105056113d5565b6103676113e4565b610326611445565b61032661144b565b6103df610599366004613857565b611451565b610505611522565b6103a26105b4366004613710565b611531565b61032661157d565b610326611583565b6103df6105d7366004613710565b611589565b6103266105ea366004613677565b61181f565b610424611855565b6103df610605366004613677565b61185e565b6103df611ba1565b6106256106203660046137e3565b611ba9565b604051610333929190613f89565b610326611bde565b6103df6106493660046136c6565b611be4565b61066161065c366004613677565b611d09565b604051610333919061392c565b6103df61067c36600461373a565b611e4a565b610326611e95565b6103df610697366004613677565b611e9b565b6103266106aa366004613692565b611f43565b6103266106bd366004613677565b611f60565b610505611f6b565b6103df6106d8366004613677565b611f7a565b6103266106eb3660046137e3565b61203b565b6103df6120e5565b626ebe0081565b6001600160a01b0381166000908152600e60209081526040808320600d9092528220805483928392606092600160e01b900463ffffffff1684815b84548110156108ad574285828154811061075057fe5b600091825260209091200154600160e01b900463ffffffff16111561087757816107cd57845481900367ffffffffffffffff8111801561078f57600080fd5b506040519080825280602002602001820160405280156107c957816020015b6107b6613629565b8152602001906001900390816107ae5790505b5095505b8481815481106107d957fe5b60009182526020918290206040805160608101825291909201546001600160701b038082168352600160701b8204169382019390935263ffffffff600160e01b9093049290921690820152865187908490811061083257fe5b6020026020010181905250818060010192505061087085828154811061085457fe5b60009182526020909120015488906001600160701b031661219c565b96506108a5565b6108a285828154811061088657fe5b60009182526020909120015489906001600160701b031661219c565b97505b60010161073a565b505090546001600160701b0316955050509193509193565b60178054604080516020601f60026000196101006001881615020190951694909404938401819004810282018101909252828152606093909290918301828280156109515780601f1061092657610100808354040283529160200191610951565b820191906000526020600020905b81548152906001019060200180831161093457829003601f168201915b5050505050905090565b60008061097562093a8061096f4282612133565b90612165565b9050600061098682626ebe006121bf565b600c80549192508390600019830183811061099d57fe5b600091825260209091200154600160e01b900463ffffffff1614156109c157600019015b60001981015b6001810115610a2a576000600c82815481106109df57fe5b60009182526020909120018054909150600160e01b900463ffffffff168410610a085750610a2a565b8054610a1e9087906001600160e01b031661219c565b955050600019016109c7565b5050505090565b6001600160a01b0381166000908152600e60205260408120600c805483919086908110610a5a57fe5b600091825260208220015463ffffffff600160e01b90910481169250610a87908390626ebe00906121bf16565b90506000610a9c62093a8061096f4282612133565b8454909150600019015b6001810115610b51576000610aea62093a80600c02878481548110610ac757fe5b60009182526020909120015463ffffffff600160e01b909104811691906121bf16565b9050848111158015610afb57508281105b15610b475783811115610b4157610b3a868381548110610b1757fe5b6000918252602090912001548890600160701b90046001600160701b031661219c565b9650610b47565b50610b51565b5060001901610aa6565b50505050505b92915050565b600d602052600090815260409020546001600160701b0380821691600160701b810490911690600160e01b900463ffffffff1683565b60115481565b6001600160a01b0381166000908152600d6020526040902054600160701b90046001600160701b03165b919050565b60026000541415610bf45760405162461bcd60e51b8152600401610beb90613e56565b60405180910390fd5b6002600081905550610c0c33826000333360006121e2565b506001600055565b7f000000000000000000000000000000000000000000000000000000000000000090565b610c4061278d565b6001600160a01b0316610c516113d5565b6001600160a01b031614610c775760405162461bcd60e51b8152600401610beb90613c7f565b7f21c46a061cb9c101660f51f5c9fc9768c5f6e8cf5dea8ca5cd03cb6db13956f360065482604051610caa929190613fd0565b60405180910390a1600655565b62093a8081565b600760209081526000928352604080842090915290825290205460ff1681565b6005602052600090815260409020805460019091015460ff82169164ffffffffff61010082048116926001600160d01b03600160301b90930483169291811691600160281b9091041685565b60065481565b6001600160a01b03166000908152600d60205260409020546001600160701b031690565b6001600160a01b038116600090815260056020526040812054610b5790610100900464ffffffffff16612791565b610d8a61278d565b6001600160a01b0316610d9b6113d5565b6001600160a01b031614610dc15760405162461bcd60e51b8152600401610beb90613c7f565b6101f4821115610de35760405162461bcd60e51b8152600401610beb90613b55565b6002811015610e045760405162461bcd60e51b8152600401610beb90613d22565b601491909155601555565b610e1761278d565b6001600160a01b0316610e286113d5565b6001600160a01b031614610e4e5760405162461bcd60e51b8152600401610beb90613c7f565b6001600160a01b03831660009081526005602052604090206001015464ffffffffff16610e8d5760405162461bcd60e51b8152600401610beb90613cb4565b6001600160a01b03928316600090815260076020908152604080832094909516825292909252919020805460ff1916911515919091179055565b600860209081526000928352604080842090915290825290205481565b6001600160a01b0381166000908152600e60209081526040808320600d90925290912080548254600160701b82046001600160701b0316939291600160e01b900463ffffffff1690815b81811015610fa75742858281548110610f4357fe5b600091825260209091200154600160e01b900463ffffffff1611610f9a57610f93858281548110610f7057fe5b6000918252602090912001548790600160701b90046001600160701b03166121bf565b9550610f9f565b610fa7565b600101610f2e565b506000610fbb62093a8061096f4282612133565b9050600082118015610fe4575080610fe262093a80600c02876001860381548110610ac757fe5b145b15610ffe57610ffb856001840381548110610f7057fe5b95505b5050505050919050565b60008061104962093a8061096f62093a80600c878154811061102657fe5b60009182526020909120015463ffffffff600160e01b9091048116919061213316565b9050600061105a82626ebe006121bf565b9050600061106f62093a8061096f4282612133565b905080600c868154811061107f57fe5b600091825260209091200154600160e01b900463ffffffff1614156110a657600019909401935b845b6001810115611121576000600c82815481106110c057fe5b60009182526020909120018054909150600160e01b900463ffffffff1684106110e95750611121565b611115600c83815481106110f957fe5b60009182526020909120015487906001600160e01b031661219c565b955050600019016110a8565b50505050919050565b6002600054141561114d5760405162461bcd60e51b8152600401610beb90613e56565b6002600081905550611164338484843360006121e2565b5050600160005550565b61117661278d565b6001600160a01b03166111876113d5565b6001600160a01b0316146111ad5760405162461bcd60e51b8152600401610beb90613c7f565b6001546040516000916001600160a01b0316907f8be0079c531659141344cd1fd0a4f28419497f9722a3daafe3b4186f6b6457e0908390a3600180546001600160a01b0319169055565b6002546001600160a01b031681565b600b5481565b6004818154811061121957fe5b6000918252602090912001546001600160a01b0316905081565b60125481565b600c5490565b60035460025461125d916001600160a01b039182169116600061279d565b60035460025461127c916001600160a01b03918216911660001961279d565b565b600260005414156112a15760405162461bcd60e51b8152600401610beb90613e56565b6002600081905550610c0c8160008084336112ca60155462093a8061216590919063ffffffff16565b6121e2565b6112d761278d565b6001600160a01b03166112e86113d5565b6001600160a01b03161461130e5760405162461bcd60e51b8152600401610beb90613c7f565b6002546001600160a01b038381169116141561133c5760405162461bcd60e51b8152600401610beb90613ceb565b6001600160a01b03821660009081526005602052604090206001015464ffffffffff161561137c5760405162461bcd60e51b8152600401610beb90613e1f565b6113986113876113d5565b6001600160a01b038416908361289c565b7f8c1256b8896378cd5044f80c202f9772b9d77dc85c8a6eb51967210b09bfaa2882826040516113c99291906138f2565b60405180910390a15050565b6001546001600160a01b031690565b60188054604080516020601f60026000196101006001881615020190951694909404938401819004810282018101909252828152606093909290918301828280156109515780601f1061092657610100808354040283529160200191610951565b61271081565b60145481565b61145961278d565b6001600160a01b031661146a6113d5565b6001600160a01b0316146114905760405162461bcd60e51b8152600401610beb90613c7f565b6105dc83106114b15760405162461bcd60e51b8152600401610beb90613b2b565b61753082106114d25760405162461bcd60e51b8152600401610beb90613b55565b6001600160a01b0381166114f85760405162461bcd60e51b8152600401610beb90613ba2565b601292909255601355600f80546001600160a01b0319166001600160a01b03909216919091179055565b600f546001600160a01b031681565b600e602052816000526040600020818154811061154a57fe5b6000918252602090912001546001600160701b038082169350600160701b8204169150600160e01b900463ffffffff1683565b60105481565b60135481565b6000808052600d6020527f81955a0a11e65eac625c29e8882660bae4e165a75d72780094acae8ece9a29ee8054600160701b90046001600160701b0316825b600454811015611754576000600482815481106115e157fe5b6000918252602090912001546001600160a01b03169050611609611604826128bb565b6129ca565b6001600160a01b03821660009081526005602052604090206001810180546001600160d01b0393909316600160281b02600160281b600160f81b0319909316929092179091555461166f9061166a9064ffffffffff61010090910416612791565b6129f7565b6001600160a01b038281166000908152600560205260409020600101805464ffffffffff191664ffffffffff939093169290921790915585161561174b576001600160a01b0381166000908152600560205260409020546116ec908690839060ff166116e55786546001600160701b03166116e7565b855b612a1e565b6001600160a01b0386811660008181526009602090815260408083209487168084529482528083209590955560058152848220600101549282526008815284822093825292909252919020600160281b9091046001600160d01b031690555b506001016115c8565b5050506001600160a01b038316600090815260076020908152604080832033845290915290205460ff1661179a5760405162461bcd60e51b8152600401610beb90613c57565b600082116117ba5760405162461bcd60e51b8152600401610beb90613c34565b6117c48383612a96565b6117d96001600160a01b038416333085612bc9565b826001600160a01b03167fac24935fd910bc682b5ccb1a07b718cadf8cf2f6d1404c4f3ddc3662dae40e29836040516118129190613fa8565b60405180910390a2505050565b6001600160a01b038116600090815260056020526040812054610b5790600160301b90046001600160d01b031662093a80612165565b60165460ff1681565b600260005414156118815760405162461bcd60e51b8152600401610beb90613e56565b600260009081556001600160a01b0382168152600d6020526040812080548392600160701b9091046001600160701b0316905b600454811015611a2f576000600482815481106118cd57fe5b6000918252602090912001546001600160a01b031690506118f0611604826128bb565b6001600160a01b03821660009081526005602052604090206001810180546001600160d01b0393909316600160281b02600160281b600160f81b031990931692909217909155546119519061166a9064ffffffffff61010090910416612791565b6001600160a01b038281166000908152600560205260409020600101805464ffffffffff191664ffffffffff9390931692909217909155851615611a26576001600160a01b0381166000908152600560205260409020546119c7908690839060ff166116e55786546001600160701b03166116e7565b6001600160a01b0386811660008181526009602090815260408083209487168084529482528083209590955560058152848220600101549282526008815284822093825292909252919020600160281b9091046001600160d01b031690555b506001016118b4565b50505060005b60045481101561116457600060048281548110611a4e57fe5b60009182526020808320909101546001600160a01b038781168452600983526040808520919092168085529252909120549091508015611b97576001600160a01b0380861660009081526009602090815260408083209386168352929052908120819055611abd82600a612133565b90506000611acc826009612165565b9050611ae26001600160a01b038516888461289c565b60035460065460405163e2ab691d60e01b81526001600160a01b039092169163e2ab691d91611b17918b91869160040161390b565b600060405180830381600087803b158015611b3157600080fd5b505af1158015611b45573d6000803e3d6000fd5b50505050836001600160a01b0316876001600160a01b03167f540798df468d7b23d11f156fdb954cb19ad414d150722a7b6d55ba369dea792e85604051611b8c9190613fa8565b60405180910390a350505b5050600101611a35565b61127c612bf0565b600c8181548110611bb657fe5b6000918252602090912001546001600160e01b0381169150600160e01b900463ffffffff1682565b600a5481565b611bec61278d565b6001600160a01b0316611bfd6113d5565b6001600160a01b031614611c235760405162461bcd60e51b8152600401610beb90613c7f565b6001600160a01b03831660009081526005602052604090206001015464ffffffffff1615611c5057600080fd5b6004805460018082019092557f8a35acfbc15ff81a39ae7d344fd709f28e8600b4aa8c65c6b64bfe7fe36bd19b0180546001600160a01b0319166001600160a01b039586169081179091556000908152600560209081526040808320808501805464ffffffffff19164264ffffffffff16908117909155815465ffffffffff0019166101009091021760ff1990811696151596909617905560078252808320959096168252939093529290912080549091169091179055565b60045460609067ffffffffffffffff81118015611d2557600080fd5b50604051908082528060200260200182016040528015611d5f57816020015b611d4c613649565b815260200190600190039081611d445790505b506001600160a01b0383166000908152600d60205260408120805492935091600160701b90046001600160701b0316905b8351811015611e4257600060048281548110611da857fe5b9060005260206000200160009054906101000a90046001600160a01b0316905080858381518110611dd557fe5b6020908102919091018101516001600160a01b039283169052908216600090815260059091526040902054611e1f908790839060ff166116e55786546001600160701b03166116e7565b858381518110611e2b57fe5b602090810291909101810151015250600101611d90565b505050919050565b60026000541415611e6d5760405162461bcd60e51b8152600401610beb90613e56565b6002600081905554611e8a906001600160a01b0316333085612bc9565b611164838383612d58565b60155481565b611ea361278d565b6001600160a01b0316611eb46113d5565b6001600160a01b031614611eda5760405162461bcd60e51b8152600401610beb90613c7f565b6003546040517fee4ec82b92f0e1fe230e6604a4752fa407a28069f106dc41e53edc28c4bc504e91611f19916001600160a01b039091169084906138b4565b60405180910390a1600380546001600160a01b0319166001600160a01b0392909216919091179055565b600960209081526000928352604080842090915290825290205481565b6000610b57826128bb565b6003546001600160a01b031681565b611f8261278d565b6001600160a01b0316611f936113d5565b6001600160a01b031614611fb95760405162461bcd60e51b8152600401610beb90613c7f565b6001600160a01b038116611fdf5760405162461bcd60e51b8152600401610beb90613a95565b6001546040516001600160a01b038084169216907f8be0079c531659141344cd1fd0a4f28419497f9722a3daafe3b4186f6b6457e090600090a3600180546001600160a01b0319166001600160a01b0392909216919091179055565b600c54600090600019018161205762093a8061096f8682612133565b935060005b60808110156120dd57828210612071576120dd565b600060026001848601010490506000600c828154811061208d57fe5b600091825260209091200154600160e01b900463ffffffff169050868114156120bc57509350610bc392505050565b868110156120cc578193506120d3565b6001820394505b505060010161205c565b509392505050565b6120ed61278d565b6001600160a01b03166120fe6113d5565b6001600160a01b0316146121245760405162461bcd60e51b8152600401610beb90613c7f565b6016805460ff19166001179055565b60008082116121545760405162461bcd60e51b8152600401610beb90613a5e565b81838161215d57fe5b049392505050565b60008115806121805750508082028282828161217d57fe5b04145b610b575760405162461bcd60e51b8152600401610beb90613ee3565b81810181811015610b575760405162461bcd60e51b8152600401610beb90613bcb565b80820382811115610b575760405162461bcd60e51b8152600401610beb906139f8565b6001600160a01b0386166000908152600d6020526040812080548892600160701b9091046001600160701b0316905b60045481101561238c5760006004828154811061222a57fe5b6000918252602090912001546001600160a01b0316905061224d611604826128bb565b6001600160a01b03821660009081526005602052604090206001810180546001600160d01b0393909316600160281b02600160281b600160f81b031990931692909217909155546122ae9061166a9064ffffffffff61010090910416612791565b6001600160a01b038281166000908152600560205260409020600101805464ffffffffff191664ffffffffff9390931692909217909155851615612383576001600160a01b038116600090815260056020526040902054612324908690839060ff166116e55786546001600160701b03166116e7565b6001600160a01b0386811660008181526009602090815260408083209487168084529482528083209590955560058152848220600101549282526008815284822093825292909252919020600160281b9091046001600160d01b031690555b50600101612211565b5050506001600160a01b0387166000908152600e60209081526040808320600d9092528220815460165492939192829190829060ff16806123fd57506123d242896121bf565b8660018403815481106123e157fe5b600091825260209091200154600160e01b900463ffffffff1611155b156124745784546001600160701b038082169550600160701b90910416925061242582613329565b855463ffffffff91909116600160e01b026001600160e01b03909116178555871561246f5761246c8887600185038154811061245d57fe5b9060005260206000200161334f565b90505b61257b565b8454600160e01b900463ffffffff16805b8381101561255b57612497428b6121bf565b8882815481106124a357fe5b600091825260209091200154600160e01b900463ffffffff1611156124c75761255b565b6124f48882815481106124d657fe5b6000918252602090912001546001600160701b0388811691166133e5565b955061252a88828154811061250557fe5b6000918252602090912001546001600160701b0387811691600160701b9004166133e5565b9450891561254f5761254c6125458b8a848154811061245d57fe5b849061219c565b92505b60019182019101612485565b50855463ffffffff909116600160e01b026001600160e01b039091161785555b6000846001600160701b0316116125a45760405162461bcd60e51b8152600401610beb90613b7c565b84546125b9906001600160701b031685613414565b85546001600160701b0319166001600160701b03918216178087556125e791600160701b9091041684613414565b8554600160701b600160e01b031916600160701b6001600160701b0392831602178655600a546126189186166121bf565b600a55600b54612631906001600160701b0385166121bf565b600b5580156126bc5761265661264682613443565b6001600160701b03861690613414565b600254909450612670906001600160a01b03168a8361289c565b8c6001600160a01b0316896001600160a01b03167f7e7ff29ed04cfb223bc9b02606f69520517c117ee82c9158ed2d96323c1ef385836040516126b39190613fa8565b60405180910390a35b8b1561271c576126d68a856001600160701b03168d612d58565b8c6001600160a01b03167fe2d155d9d74decc198a9a9b4f5bddb24ee0842ee745c9ce57e3573b971e50d9d8560405161270f9190613f4c565b60405180910390a261277e565b60025461273c906001600160a01b03168b6001600160701b03871661289c565b8c6001600160a01b03167f7084f5476618d8e60b11ef0d7d3f06914655adb8793e28ff7f018d4c76d505d5856040516127759190613f4c565b60405180910390a25b50505050505050505050505050565b3390565b6000610b57428361346c565b8015806128255750604051636eb1769f60e11b81526001600160a01b0384169063dd62ed3e906127d390309086906004016138b4565b60206040518083038186803b1580156127eb57600080fd5b505afa1580156127ff573d6000803e3d6000fd5b505050506040513d601f19601f8201168201806040525081019061282391906137fb565b155b6128415760405162461bcd60e51b8152600401610beb90613e8d565b6128978363095ea7b360e01b84846040516024016128609291906138f2565b60408051601f198184030181529190526020810180516001600160e01b03166001600160e01b031990931692909217909152613482565b505050565b6128978363a9059cbb60e01b84846040516024016128609291906138f2565b6000600b54600014156128fa57506001600160a01b038116600090815260056020526040902060010154600160281b90046001600160d01b0316610bc3565b6001600160a01b038216600090815260056020526040902054610b57906129989060ff1661292a57600a5461292e565b600b545b6001600160a01b0385166000908152600560205260409020805460019091015461299291670de0b6b3a76400009161096f916001600160d01b03600160301b82041691839164ffffffffff9182169161298c91610100900416612791565b906121bf565b90612133565b6001600160a01b038416600090815260056020526040902060010154600160281b90046001600160d01b03169061219c565b60006001600160d01b038211156129f35760405162461bcd60e51b8152600401610beb90613a27565b5090565b600064ffffffffff8211156129f35760405162461bcd60e51b8152600401610beb90613f15565b6001600160a01b038084166000818152600960209081526040808320948716808452948252808320549383526008825280832094835293905291822054612a8c9190612a8690670de0b6b3a76400009061299290612a7f9061298c8a6128bb565b8790612165565b9061219c565b90505b9392505050565b6001600160a01b03821660009081526005602052604090208054610100900464ffffffffff164210612af857612ad26116048362093a80612133565b81546001600160d01b0391909116600160301b0265ffffffffffff909116178155612b70565b8054600090612b1390610100900464ffffffffff16426121bf565b8254909150600090612b36908390600160301b90046001600160d01b0316612165565b9050612b4c61160462093a80612992878561219c565b83546001600160d01b0391909116600160301b0265ffffffffffff90911617835550505b612b79426129f7565b60018201805464ffffffffff191664ffffffffff92909216919091179055612ba761166a4262093a8061219c565b815464ffffffffff919091166101000265ffffffffff00199091161790555050565b612bea846323b872dd60e01b858585604051602401612860939291906138ce565b50505050565b6000612c0362093a8061096f4282612133565b600c805491925082906000198301838110612c1a57fe5b600091825260209091200154600160e01b900463ffffffff161015612d54575b600c80548391906000198101908110612c4f57fe5b600091825260209091200154600160e01b900463ffffffff1614612d30576000612cae62093a80600c6001600c805490500381548110612c8b57fe5b60009182526020909120015463ffffffff600160e01b9091048116919061219c16565b60408051808201909152600080825263ffffffff92831660208301908152600c8054600181018255925291517fdf6966c971051c3d54ec59162606531493a51404a002842f56009d7e5cf4a8c790910180549251909316600160e01b026001600160e01b039182166001600160e01b0319909316929092171617905550612c3a565b60135460115414612d42576013546011555b60125460105414612d54576012546010555b5050565b6001600160a01b0383166000908152600d6020526040812080548592600160701b9091046001600160701b0316905b600454811015612f0257600060048281548110612da057fe5b6000918252602090912001546001600160a01b03169050612dc3611604826128bb565b6001600160a01b03821660009081526005602052604090206001810180546001600160d01b0393909316600160281b02600160281b600160f81b03199093169290921790915554612e249061166a9064ffffffffff61010090910416612791565b6001600160a01b038281166000908152600560205260409020600101805464ffffffffff191664ffffffffff9390931692909217909155851615612ef9576001600160a01b038116600090815260056020526040902054612e9a908690839060ff166116e55786546001600160701b03166116e7565b6001600160a01b0386811660008181526009602090815260408083209487168084529482528083209590955560058152848220600101549282526008815284822093825292909252919020600160281b9091046001600160d01b031690555b50600101612d87565b50505060008311612f255760405162461bcd60e51b8152600401610beb90613adb565b601054821115612f475760405162461bcd60e51b8152600401610beb90613b03565b60165460ff1615612f6a5760405162461bcd60e51b8152600401610beb90613d45565b6001600160a01b0384166000908152600d60205260409020612f8a612bf0565b6000612f9c6127106129928787612165565b90506000612fc5601054600014612fb557601054612fb8565b60015b6011546129929088612165565b90506000612fdb612fd688856121bf565b613443565b90506000612ffc612fd6612ff56127106129928c88612165565b8a9061219c565b8554909150613014906001600160701b0316836133e5565b85546001600160701b0319166001600160701b039182161780875561304291600160701b90910416826133e5565b8554600160701b600160e01b031916600160701b6001600160701b0392831602178655600a5461307391841661219c565b600a55600b5461308c906001600160701b03831661219c565b600b5560006130a262093a8061096f4282612133565b905060006130b382626ebe0061219c565b6001600160a01b038c166000908152600e602052604090205490915080158061311d57506001600160a01b038c166000908152600e602052604090208054839190600019840190811061310257fe5b600091825260209091200154600160e01b900463ffffffff16105b156131cc576001600160a01b038c166000908152600e6020908152604080832081516060810183526001600160701b03808b16825289811682860190815263ffffffff808a16958401958652845460018101865594885295909620915191909201805495519351909416600160e01b026001600160e01b03938316600160701b02600160701b600160e01b0319929093166001600160701b03199096169590951716171691909117905561326c565b6001600160a01b038c166000908152600e60205260408120805460001984019081106131f457fe5b60009182526020909120018054909150613217906001600160701b0316876133e5565b81546001600160701b0319166001600160701b039182161780835561324591600160701b90910416866133e5565b81546001600160701b0391909116600160701b02600160701b600160e01b03199091161790555b600c805460009190600019810190811061328257fe5b600091825260209091200180549091506132ae906001600160e01b03166001600160701b038716613511565b81546001600160e01b0319166001600160e01b039190911617815587156132ec57600f546002546132ec916001600160a01b0391821691168a61289c565b8c6001600160a01b03167fb4caaf29adda3eefee3ad552a8e85058589bf834c7466cae4ee58787f70589ed8d888860405161277593929190613fb1565b600063ffffffff8211156129f35760405162461bcd60e51b8152600401610beb90613d9e565b60008061336762093a8061096f8161299242896121bf565b83549091506000906133949062093a809061299290859063ffffffff600160e01b9091048116906121bf16565b905060006133bb6133b38360010160145461216590919063ffffffff16565b61271061346c565b85549091506133db9061271090612992906001600160701b031684612165565b9695505050505050565b8181016001600160701b038083169082161015610b575760405162461bcd60e51b8152600401610beb90613bcb565b8082036001600160701b038084169082161115610b575760405162461bcd60e51b8152600401610beb906139f8565b60006001600160701b038211156129f35760405162461bcd60e51b8152600401610beb90613bfd565b600081831061347b5781612a8f565b5090919050565b60606134d7826040518060400160405280602081526020017f5361666545524332303a206c6f772d6c6576656c2063616c6c206661696c6564815250856001600160a01b03166135409092919063ffffffff16565b80519091501561289757808060200190518101906134f59190613789565b6128975760405162461bcd60e51b8152600401610beb90613dd5565b8181016001600160e01b038083169082161015610b575760405162461bcd60e51b8152600401610beb90613bcb565b6060612a8c848460008585613554856135ea565b6135705760405162461bcd60e51b8152600401610beb90613d67565b60006060866001600160a01b0316858760405161358d9190613884565b60006040518083038185875af1925050503d80600081146135ca576040519150601f19603f3d011682016040523d82523d6000602084013e6135cf565b606091505b50915091506135df8282866135f0565b979650505050505050565b3b151590565b606083156135ff575081612a8f565b82511561360f5782518084602001fd5b8160405162461bcd60e51b8152600401610beb91906139c5565b604080516060810182526000808252602082018190529181019190915290565b604080518082019091526000808252602082015290565b80356001600160a01b0381168114610b5757600080fd5b600060208284031215613688578081fd5b612a8f8383613660565b600080604083850312156136a4578081fd5b6136ae8484613660565b91506136bd8460208501613660565b90509250929050565b6000806000606084860312156136da578081fd5b83356136e58161409a565b925060208401356136f58161409a565b91506040840135613705816140b2565b809150509250925092565b60008060408385031215613722578182fd5b61372c8484613660565b946020939093013593505050565b60008060006060848603121561374e578283fd5b6137588585613660565b95602085013595506040909401359392505050565b60006020828403121561377e578081fd5b8135612a8f816140b2565b60006020828403121561379a578081fd5b8151612a8f816140b2565b6000806000606084860312156137b9578283fd5b83356137c4816140b2565b9250602084013591506137da8560408601613660565b90509250925092565b6000602082840312156137f4578081fd5b5035919050565b60006020828403121561380c578081fd5b5051919050565b60008060408385031215613825578182fd5b823591506136bd8460208501613660565b60008060408385031215613848578182fd5b50508035926020909101359150565b60008060006060848603121561386b578283fd5b833592506020840135915060408401356137058161409a565b6000825161389681846020870161406e565b9190910192915050565b6001600160a01b0391909116815260200190565b6001600160a01b0392831681529116602082015260400190565b6001600160a01b039384168152919092166020820152604081019190915260600190565b6001600160a01b03929092168252602082015260400190565b6001600160a01b039390931683526020830191909152604082015260600190565b602080825282518282018190526000919060409081850190868401855b8281101561397757815180516001600160a01b03168552860151868501529284019290850190600101613949565b5091979650505050505050565b901515815260200190565b941515855264ffffffffff93841660208601526001600160d01b0392831660408601529216606084015216608082015260a00190565b60006020825282518060208401526139e481604085016020870161406e565b601f01601f19169190910160400192915050565b602080825260159082015274426f72696e674d6174683a20556e646572666c6f7760581b604082015260600190565b6020808252601c908201527f426f72696e674d6174683a2075696e74323038204f766572666c6f7700000000604082015260600190565b6020808252601c908201527f426f72696e674d6174683a206469766973696f6e206279207a65726f00000000604082015260600190565b60208082526026908201527f4f776e61626c653a206e6577206f776e657220697320746865207a65726f206160408201526564647265737360d01b606082015260800190565b6020808252600e908201526d043616e6e6f74207374616b6520360941b604082015260600190565b6020808252600e908201526d1bdd995c881b585e081cdc195b9960921b604082015260600190565b60208082526010908201526f1bdd995c881b585e081c185e5b595b9d60821b604082015260600190565b6020808252600d908201526c6f766572206d6178207261746560981b604082015260600190565b6020808252600c908201526b6e6f20657870206c6f636b7360a01b604082015260600190565b6020808252600f908201526e696e76616c6964206164647265737360881b604082015260600190565b602080825260189082015277426f72696e674d6174683a20416464204f766572666c6f7760401b604082015260600190565b6020808252601c908201527f426f72696e674d6174683a2075696e74313132204f766572666c6f7700000000604082015260600190565b602080825260099082015268139bc81c995dd85c9960ba1b604082015260600190565b6020808252600e908201526d1b9bdd08185d5d1a1bdc9a5e995960921b604082015260600190565b6020808252818101527f4f776e61626c653a2063616c6c6572206973206e6f7420746865206f776e6572604082015260600190565b6020808252601c908201527f7265776172647320746f6b656e20646f6573206e6f7420657869737400000000604082015260600190565b6020808252601d908201527f43616e6e6f74207769746864726177207374616b696e6720746f6b656e000000604082015260600190565b6020808252600990820152686d696e2064656c617960b81b604082015260600190565b60208082526008908201526739b43aba3237bbb760c11b604082015260600190565b6020808252601d908201527f416464726573733a2063616c6c20746f206e6f6e2d636f6e7472616374000000604082015260600190565b6020808252601b908201527f426f72696e674d6174683a2075696e743332204f766572666c6f770000000000604082015260600190565b6020808252602a908201527f5361666545524332303a204552433230206f7065726174696f6e20646964206e6040820152691bdd081cdd58d8d9595960b21b606082015260800190565b6020808252601c908201527f43616e6e6f742077697468647261772072657761726420746f6b656e00000000604082015260600190565b6020808252601f908201527f5265656e7472616e637947756172643a207265656e7472616e742063616c6c00604082015260600190565b60208082526036908201527f5361666545524332303a20617070726f76652066726f6d206e6f6e2d7a65726f60408201527520746f206e6f6e2d7a65726f20616c6c6f77616e636560501b606082015260800190565b602080825260189082015277426f72696e674d6174683a204d756c204f766572666c6f7760401b604082015260600190565b6020808252601b908201527f426f72696e674d6174683a2075696e743430204f766572666c6f770000000000604082015260600190565b6001600160701b0391909116815260200190565b6001600160701b03938416815291909216602082015263ffffffff909116604082015260600190565b6001600160e01b0392909216825263ffffffff16602082015260400190565b90815260200190565b9283526001600160701b03918216602084015216604082015260600190565b918252602082015260400190565b6000608082018683526020868185015260408681860152606060808187015283875180865260a0880191508489019550865b8181101561404f57865180516001600160701b03908116855287820151168785015285015163ffffffff16858401529585019591830191600101614010565b50909b9a5050505050505050505050565b60ff91909116815260200190565b60005b83811015614089578181015183820152602001614071565b83811115612bea5750506000910152565b6001600160a01b03811681146140af57600080fd5b50565b80151581146140af57600080fdfea2646970667358221220416f85e4e8b536d3ce0e4215a41874773c09745124bf1576425660c9ca944ef164736f6c634300060c0033","opcodes":"PUSH1 0xA0 PUSH1 0x40 MSTORE PUSH1 0x0 PUSH1 0x10 DUP2 SWAP1 SSTORE PUSH2 0x2710 PUSH1 0x11 DUP2 SWAP1 SSTORE PUSH1 0x12 SWAP2 SWAP1 SWAP2 SSTORE PUSH1 0x13 SSTORE PUSH1 0x64 PUSH1 0x14 SSTORE PUSH1 0x4 PUSH1 0x15 SSTORE PUSH1 0x16 DUP1 SLOAD PUSH1 0xFF NOT AND SWAP1 SSTORE CALLVALUE DUP1 ISZERO PUSH3 0x3D JUMPI PUSH1 0x0 DUP1 REVERT JUMPDEST POP PUSH1 0x40 MLOAD PUSH3 0x4529 CODESIZE SUB DUP1 PUSH3 0x4529 DUP4 CODECOPY DUP2 ADD PUSH1 0x40 DUP2 SWAP1 MSTORE PUSH3 0x60 SWAP2 PUSH3 0x350 JUMP JUMPDEST PUSH1 0x1 PUSH1 0x0 SWAP1 DUP2 SSTORE PUSH3 0x71 PUSH3 0x233 JUMP JUMPDEST PUSH1 0x1 DUP1 SLOAD PUSH1 0x1 PUSH1 0x1 PUSH1 0xA0 SHL SUB NOT AND PUSH1 0x1 PUSH1 0x1 PUSH1 0xA0 SHL SUB DUP4 AND SWAP1 DUP2 OR SWAP1 SWAP2 SSTORE PUSH1 0x40 MLOAD SWAP2 SWAP3 POP SWAP1 PUSH1 0x0 SWAP1 PUSH32 0x8BE0079C531659141344CD1FD0A4F28419497F9722A3DAAFE3B4186F6B6457E0 SWAP1 DUP3 SWAP1 LOG3 POP PUSH1 0x40 DUP1 MLOAD DUP1 DUP3 ADD SWAP1 SWAP2 MSTORE PUSH1 0x15 DUP1 DUP3 MSTORE PUSH32 0x566F7465204C6F636B656420504F5020546F6B656E0000000000000000000000 PUSH1 0x20 SWAP1 SWAP3 ADD SWAP2 DUP3 MSTORE PUSH3 0x105 SWAP2 PUSH1 0x17 SWAP2 PUSH3 0x2B4 JUMP JUMPDEST POP PUSH1 0x40 DUP1 MLOAD DUP1 DUP3 ADD SWAP1 SWAP2 MSTORE PUSH1 0x5 DUP1 DUP3 MSTORE PUSH5 0x766C504F5 PUSH1 0xDC SHL PUSH1 0x20 SWAP1 SWAP3 ADD SWAP2 DUP3 MSTORE PUSH3 0x134 SWAP2 PUSH1 0x18 SWAP2 PUSH3 0x2B4 JUMP JUMPDEST POP PUSH1 0x9 PUSH1 0xF9 SHL PUSH1 0x80 MSTORE PUSH1 0x2 DUP1 SLOAD PUSH1 0x1 PUSH1 0x1 PUSH1 0xA0 SHL SUB NOT SWAP1 DUP2 AND PUSH1 0x1 PUSH1 0x1 PUSH1 0xA0 SHL SUB DUP6 DUP2 AND SWAP2 SWAP1 SWAP2 OR SWAP1 SWAP3 SSTORE PUSH1 0x3 DUP1 SLOAD SWAP1 SWAP2 AND SWAP2 DUP4 AND SWAP2 SWAP1 SWAP2 OR SWAP1 SSTORE PUSH4 0x1E13380 PUSH1 0x6 SSTORE PUSH1 0x0 PUSH3 0x1AD PUSH3 0x93A80 PUSH3 0x199 TIMESTAMP DUP3 PUSH3 0x237 PUSH1 0x20 SWAP1 DUP2 SHL PUSH3 0x2133 OR SWAP1 SHR JUMP JUMPDEST PUSH3 0x278 PUSH1 0x20 SHL PUSH3 0x2165 OR SWAP1 SWAP2 SWAP1 PUSH1 0x20 SHR JUMP JUMPDEST PUSH1 0x40 DUP1 MLOAD DUP1 DUP3 ADD SWAP1 SWAP2 MSTORE PUSH1 0x0 DUP1 DUP3 MSTORE PUSH4 0xFFFFFFFF SWAP3 DUP4 AND PUSH1 0x20 DUP4 ADD SWAP1 DUP2 MSTORE PUSH1 0xC DUP1 SLOAD PUSH1 0x1 DUP2 ADD DUP3 SSTORE SWAP3 MSTORE SWAP2 MLOAD PUSH32 0xDF6966C971051C3D54EC59162606531493A51404A002842F56009D7E5CF4A8C7 SWAP1 SWAP2 ADD DUP1 SLOAD SWAP3 MLOAD SWAP1 SWAP4 AND PUSH1 0x1 PUSH1 0xE0 SHL MUL PUSH1 0x1 PUSH1 0x1 PUSH1 0xE0 SHL SUB SWAP2 DUP3 AND PUSH1 0x1 PUSH1 0x1 PUSH1 0xE0 SHL SUB NOT SWAP1 SWAP4 AND SWAP3 SWAP1 SWAP3 OR AND OR SWAP1 SSTORE POP PUSH3 0x415 SWAP2 POP POP JUMP JUMPDEST CALLER SWAP1 JUMP JUMPDEST PUSH1 0x0 DUP1 DUP3 GT PUSH3 0x264 JUMPI PUSH1 0x40 MLOAD PUSH3 0x461BCD PUSH1 0xE5 SHL DUP2 MSTORE PUSH1 0x4 ADD PUSH3 0x25B SWAP1 PUSH3 0x38E JUMP JUMPDEST PUSH1 0x40 MLOAD DUP1 SWAP2 SUB SWAP1 REVERT JUMPDEST DUP2 DUP4 DUP2 PUSH3 0x26E JUMPI INVALID JUMPDEST DIV SWAP1 POP JUMPDEST SWAP3 SWAP2 POP POP JUMP JUMPDEST PUSH1 0x0 DUP2 ISZERO DUP1 PUSH3 0x295 JUMPI POP POP DUP1 DUP3 MUL DUP3 DUP3 DUP3 DUP2 PUSH3 0x292 JUMPI INVALID JUMPDEST DIV EQ JUMPDEST PUSH3 0x272 JUMPI PUSH1 0x40 MLOAD PUSH3 0x461BCD PUSH1 0xE5 SHL DUP2 MSTORE PUSH1 0x4 ADD PUSH3 0x25B SWAP1 PUSH3 0x3C5 JUMP JUMPDEST DUP3 DUP1 SLOAD PUSH1 0x1 DUP2 PUSH1 0x1 AND ISZERO PUSH2 0x100 MUL SUB AND PUSH1 0x2 SWAP1 DIV SWAP1 PUSH1 0x0 MSTORE PUSH1 0x20 PUSH1 0x0 KECCAK256 SWAP1 PUSH1 0x1F ADD PUSH1 0x20 SWAP1 DIV DUP2 ADD SWAP3 DUP3 PUSH1 0x1F LT PUSH3 0x2F7 JUMPI DUP1 MLOAD PUSH1 0xFF NOT AND DUP4 DUP1 ADD OR DUP6 SSTORE PUSH3 0x327 JUMP JUMPDEST DUP3 DUP1 ADD PUSH1 0x1 ADD DUP6 SSTORE DUP3 ISZERO PUSH3 0x327 JUMPI SWAP2 DUP3 ADD JUMPDEST DUP3 DUP2 GT ISZERO PUSH3 0x327 JUMPI DUP3 MLOAD DUP3 SSTORE SWAP2 PUSH1 0x20 ADD SWAP2 SWAP1 PUSH1 0x1 ADD SWAP1 PUSH3 0x30A JUMP JUMPDEST POP PUSH3 0x335 SWAP3 SWAP2 POP PUSH3 0x339 JUMP JUMPDEST POP SWAP1 JUMP JUMPDEST JUMPDEST DUP1 DUP3 GT ISZERO PUSH3 0x335 JUMPI PUSH1 0x0 DUP2 SSTORE PUSH1 0x1 ADD PUSH3 0x33A JUMP JUMPDEST PUSH1 0x0 DUP1 PUSH1 0x40 DUP4 DUP6 SUB SLT ISZERO PUSH3 0x363 JUMPI DUP2 DUP3 REVERT JUMPDEST DUP3 MLOAD PUSH3 0x370 DUP2 PUSH3 0x3FC JUMP JUMPDEST PUSH1 0x20 DUP5 ADD MLOAD SWAP1 SWAP3 POP PUSH3 0x383 DUP2 PUSH3 0x3FC JUMP JUMPDEST DUP1 SWAP2 POP POP SWAP3 POP SWAP3 SWAP1 POP JUMP JUMPDEST PUSH1 0x20 DUP1 DUP3 MSTORE PUSH1 0x1C SWAP1 DUP3 ADD MSTORE PUSH32 0x426F72696E674D6174683A206469766973696F6E206279207A65726F00000000 PUSH1 0x40 DUP3 ADD MSTORE PUSH1 0x60 ADD SWAP1 JUMP JUMPDEST PUSH1 0x20 DUP1 DUP3 MSTORE PUSH1 0x18 SWAP1 DUP3 ADD MSTORE PUSH32 0x426F72696E674D6174683A204D756C204F766572666C6F770000000000000000 PUSH1 0x40 DUP3 ADD MSTORE PUSH1 0x60 ADD SWAP1 JUMP JUMPDEST PUSH1 0x1 PUSH1 0x1 PUSH1 0xA0 SHL SUB DUP2 AND DUP2 EQ PUSH3 0x412 JUMPI PUSH1 0x0 DUP1 REVERT JUMPDEST POP JUMP JUMPDEST PUSH1 0x80 MLOAD PUSH1 0xF8 SHR PUSH2 0x40F6 PUSH3 0x433 PUSH1 0x0 CODECOPY DUP1 PUSH2 0xC16 MSTORE POP PUSH2 0x40F6 PUSH1 0x0 RETURN INVALID PUSH1 0x80 PUSH1 0x40 MSTORE CALLVALUE DUP1 ISZERO PUSH2 0x10 JUMPI PUSH1 0x0 DUP1 REVERT JUMPDEST POP PUSH1 0x4 CALLDATASIZE LT PUSH2 0x319 JUMPI PUSH1 0x0 CALLDATALOAD PUSH1 0xE0 SHR DUP1 PUSH4 0x8757B15B GT PUSH2 0x1A9 JUMPI DUP1 PUSH4 0xC00007B0 GT PUSH2 0xEF JUMPI DUP1 PUSH4 0xE432488D GT PUSH2 0x9D JUMPI DUP1 PUSH4 0xE432488D EQ PUSH2 0x681 JUMPI DUP1 PUSH4 0xE465FE80 EQ PUSH2 0x689 JUMPI DUP1 PUSH4 0xE70B9E27 EQ PUSH2 0x69C JUMPI DUP1 PUSH4 0xF1229777 EQ PUSH2 0x6AF JUMPI DUP1 PUSH4 0xF2157932 EQ PUSH2 0x6C2 JUMPI DUP1 PUSH4 0xF2FDE38B EQ PUSH2 0x6CA JUMPI DUP1 PUSH4 0xF8261597 EQ PUSH2 0x6DD JUMPI DUP1 PUSH4 0xFC0E74D1 EQ PUSH2 0x6F0 JUMPI PUSH2 0x319 JUMP JUMPDEST DUP1 PUSH4 0xC00007B0 EQ PUSH2 0x5F7 JUMPI DUP1 PUSH4 0xC1009F4B EQ PUSH2 0x60A JUMPI DUP1 PUSH4 0xC6B61E4C EQ PUSH2 0x612 JUMPI DUP1 PUSH4 0xCA5C7B91 EQ PUSH2 0x633 JUMPI DUP1 PUSH4 0xD3C45C76 EQ PUSH2 0x63B JUMPI DUP1 PUSH4 0xDC01F60D EQ PUSH2 0x64E JUMPI DUP1 PUSH4 0xE2AB691D EQ PUSH2 0x66E JUMPI PUSH2 0x319 JUMP JUMPDEST DUP1 PUSH4 0xA81653C9 GT PUSH2 0x157 JUMPI DUP1 PUSH4 0xA81653C9 EQ PUSH2 0x58B JUMPI DUP1 PUSH4 0xA98E05BB EQ PUSH2 0x59E JUMPI DUP1 PUSH4 0xAA33FEDB EQ PUSH2 0x5A6 JUMPI DUP1 PUSH4 0xB187BC22 EQ PUSH2 0x5B9 JUMPI DUP1 PUSH4 0xB5ED7A66 EQ PUSH2 0x5C1 JUMPI DUP1 PUSH4 0xB66503CF EQ PUSH2 0x5C9 JUMPI DUP1 PUSH4 0xBCD11014 EQ PUSH2 0x5DC JUMPI DUP1 PUSH4 0xBF86D690 EQ PUSH2 0x5EF JUMPI PUSH2 0x319 JUMP JUMPDEST DUP1 PUSH4 0x8757B15B EQ PUSH2 0x53D JUMPI DUP1 PUSH4 0x887C7DC5 EQ PUSH2 0x545 JUMPI DUP1 PUSH4 0x8980F11F EQ PUSH2 0x558 JUMPI DUP1 PUSH4 0x8DA5CB5B EQ PUSH2 0x56B JUMPI DUP1 PUSH4 0x95D89B41 EQ PUSH2 0x573 JUMPI DUP1 PUSH4 0x96CE0795 EQ PUSH2 0x57B JUMPI DUP1 PUSH4 0x9BDC7467 EQ PUSH2 0x583 JUMPI PUSH2 0x319 JUMP JUMPDEST DUP1 PUSH4 0x57C2C2BA GT PUSH2 0x26E JUMPI DUP1 PUSH4 0x70B36D79 GT PUSH2 0x21C JUMPI DUP1 PUSH4 0x70B36D79 EQ PUSH2 0x4CF JUMPI DUP1 PUSH4 0x70E664CD EQ PUSH2 0x4E2 JUMPI DUP1 PUSH4 0x715018A6 EQ PUSH2 0x4F5 JUMPI DUP1 PUSH4 0x72F702F3 EQ PUSH2 0x4FD JUMPI DUP1 PUSH4 0x75AADF61 EQ PUSH2 0x512 JUMPI DUP1 PUSH4 0x7BB7BED1 EQ PUSH2 0x51A JUMPI DUP1 PUSH4 0x7BD48C7C EQ PUSH2 0x52D JUMPI DUP1 PUSH4 0x829965CC EQ PUSH2 0x535 JUMPI PUSH2 0x319 JUMP JUMPDEST DUP1 PUSH4 0x57C2C2BA EQ PUSH2 0x455 JUMPI DUP1 PUSH4 0x59355736 EQ PUSH2 0x45D JUMPI DUP1 PUSH4 0x638634EE EQ PUSH2 0x470 JUMPI DUP1 PUSH4 0x63F1C8E2 EQ PUSH2 0x483 JUMPI DUP1 PUSH4 0x6724C910 EQ PUSH2 0x496 JUMPI DUP1 PUSH4 0x7035AB98 EQ PUSH2 0x4A9 JUMPI DUP1 PUSH4 0x70A08231 EQ PUSH2 0x4BC JUMPI PUSH2 0x319 JUMP JUMPDEST DUP1 PUSH4 0x2FE87108 GT PUSH2 0x2CB JUMPI DUP1 PUSH4 0x2FE87108 EQ PUSH2 0x3B9 JUMPI DUP1 PUSH4 0x312FF839 EQ PUSH2 0x3CC JUMPI DUP1 PUSH4 0x313CE567 EQ PUSH2 0x3E1 JUMPI DUP1 PUSH4 0x321BC347 EQ PUSH2 0x3F6 JUMPI DUP1 PUSH4 0x386A9525 EQ PUSH2 0x409 JUMPI DUP1 PUSH4 0x39FC9713 EQ PUSH2 0x411 JUMPI DUP1 PUSH4 0x48E5D9F8 EQ PUSH2 0x431 JUMPI PUSH2 0x319 JUMP JUMPDEST DUP1 PUSH4 0x4554443 EQ PUSH2 0x31E JUMPI DUP1 PUSH4 0x483A7F6 EQ PUSH2 0x33C JUMPI DUP1 PUSH4 0x6FDDE03 EQ PUSH2 0x35F JUMPI DUP1 PUSH4 0x18160DDD EQ PUSH2 0x374 JUMPI DUP1 PUSH4 0x1C607395 EQ PUSH2 0x37C JUMPI DUP1 PUSH4 0x27E235E3 EQ PUSH2 0x38F JUMPI DUP1 PUSH4 0x2E9564E4 EQ PUSH2 0x3B1 JUMPI JUMPDEST PUSH1 0x0 DUP1 REVERT JUMPDEST PUSH2 0x326 PUSH2 0x6F8 JUMP JUMPDEST PUSH1 0x40 MLOAD PUSH2 0x333 SWAP2 SWAP1 PUSH2 0x3FA8 JUMP JUMPDEST PUSH1 0x40 MLOAD DUP1 SWAP2 SUB SWAP1 RETURN JUMPDEST PUSH2 0x34F PUSH2 0x34A CALLDATASIZE PUSH1 0x4 PUSH2 0x3677 JUMP JUMPDEST PUSH2 0x6FF JUMP JUMPDEST PUSH1 0x40 MLOAD PUSH2 0x333 SWAP5 SWAP4 SWAP3 SWAP2 SWAP1 PUSH2 0x3FDE JUMP JUMPDEST PUSH2 0x367 PUSH2 0x8C5 JUMP JUMPDEST PUSH1 0x40 MLOAD PUSH2 0x333 SWAP2 SWAP1 PUSH2 0x39C5 JUMP JUMPDEST PUSH2 0x326 PUSH2 0x95B JUMP JUMPDEST PUSH2 0x326 PUSH2 0x38A CALLDATASIZE PUSH1 0x4 PUSH2 0x3813 JUMP JUMPDEST PUSH2 0xA31 JUMP JUMPDEST PUSH2 0x3A2 PUSH2 0x39D CALLDATASIZE PUSH1 0x4 PUSH2 0x3677 JUMP JUMPDEST PUSH2 0xB5D JUMP JUMPDEST PUSH1 0x40 MLOAD PUSH2 0x333 SWAP4 SWAP3 SWAP2 SWAP1 PUSH2 0x3F60 JUMP JUMPDEST PUSH2 0x326 PUSH2 0xB93 JUMP JUMPDEST PUSH2 0x326 PUSH2 0x3C7 CALLDATASIZE PUSH1 0x4 PUSH2 0x3677 JUMP JUMPDEST PUSH2 0xB99 JUMP JUMPDEST PUSH2 0x3DF PUSH2 0x3DA CALLDATASIZE PUSH1 0x4 PUSH2 0x376D JUMP JUMPDEST PUSH2 0xBC8 JUMP JUMPDEST STOP JUMPDEST PUSH2 0x3E9 PUSH2 0xC14 JUMP JUMPDEST PUSH1 0x40 MLOAD PUSH2 0x333 SWAP2 SWAP1 PUSH2 0x4060 JUMP JUMPDEST PUSH2 0x3DF PUSH2 0x404 CALLDATASIZE PUSH1 0x4 PUSH2 0x37E3 JUMP JUMPDEST PUSH2 0xC38 JUMP JUMPDEST PUSH2 0x326 PUSH2 0xCB7 JUMP JUMPDEST PUSH2 0x424 PUSH2 0x41F CALLDATASIZE PUSH1 0x4 PUSH2 0x3692 JUMP JUMPDEST PUSH2 0xCBE JUMP JUMPDEST PUSH1 0x40 MLOAD PUSH2 0x333 SWAP2 SWAP1 PUSH2 0x3984 JUMP JUMPDEST PUSH2 0x444 PUSH2 0x43F CALLDATASIZE PUSH1 0x4 PUSH2 0x3677 JUMP JUMPDEST PUSH2 0xCDE JUMP JUMPDEST PUSH1 0x40 MLOAD PUSH2 0x333 SWAP6 SWAP5 SWAP4 SWAP3 SWAP2 SWAP1 PUSH2 0x398F JUMP JUMPDEST PUSH2 0x326 PUSH2 0xD2A JUMP JUMPDEST PUSH2 0x326 PUSH2 0x46B CALLDATASIZE PUSH1 0x4 PUSH2 0x3677 JUMP JUMPDEST PUSH2 0xD30 JUMP JUMPDEST PUSH2 0x326 PUSH2 0x47E CALLDATASIZE PUSH1 0x4 PUSH2 0x3677 JUMP JUMPDEST PUSH2 0xD54 JUMP JUMPDEST PUSH2 0x3DF PUSH2 0x491 CALLDATASIZE PUSH1 0x4 PUSH2 0x3836 JUMP JUMPDEST PUSH2 0xD82 JUMP JUMPDEST PUSH2 0x3DF PUSH2 0x4A4 CALLDATASIZE PUSH1 0x4 PUSH2 0x36C6 JUMP JUMPDEST PUSH2 0xE0F JUMP JUMPDEST PUSH2 0x326 PUSH2 0x4B7 CALLDATASIZE PUSH1 0x4 PUSH2 0x3692 JUMP JUMPDEST PUSH2 0xEC7 JUMP JUMPDEST PUSH2 0x326 PUSH2 0x4CA CALLDATASIZE PUSH1 0x4 PUSH2 0x3677 JUMP JUMPDEST PUSH2 0xEE4 JUMP JUMPDEST PUSH2 0x326 PUSH2 0x4DD CALLDATASIZE PUSH1 0x4 PUSH2 0x37E3 JUMP JUMPDEST PUSH2 0x1008 JUMP JUMPDEST PUSH2 0x3DF PUSH2 0x4F0 CALLDATASIZE PUSH1 0x4 PUSH2 0x37A5 JUMP JUMPDEST PUSH2 0x112A JUMP JUMPDEST PUSH2 0x3DF PUSH2 0x116E JUMP JUMPDEST PUSH2 0x505 PUSH2 0x11F7 JUMP JUMPDEST PUSH1 0x40 MLOAD PUSH2 0x333 SWAP2 SWAP1 PUSH2 0x38A0 JUMP JUMPDEST PUSH2 0x326 PUSH2 0x1206 JUMP JUMPDEST PUSH2 0x505 PUSH2 0x528 CALLDATASIZE PUSH1 0x4 PUSH2 0x37E3 JUMP JUMPDEST PUSH2 0x120C JUMP JUMPDEST PUSH2 0x326 PUSH2 0x1233 JUMP JUMPDEST PUSH2 0x326 PUSH2 0x1239 JUMP JUMPDEST PUSH2 0x3DF PUSH2 0x123F JUMP JUMPDEST PUSH2 0x3DF PUSH2 0x553 CALLDATASIZE PUSH1 0x4 PUSH2 0x3677 JUMP JUMPDEST PUSH2 0x127E JUMP JUMPDEST PUSH2 0x3DF PUSH2 0x566 CALLDATASIZE PUSH1 0x4 PUSH2 0x3710 JUMP JUMPDEST PUSH2 0x12CF JUMP JUMPDEST PUSH2 0x505 PUSH2 0x13D5 JUMP JUMPDEST PUSH2 0x367 PUSH2 0x13E4 JUMP JUMPDEST PUSH2 0x326 PUSH2 0x1445 JUMP JUMPDEST PUSH2 0x326 PUSH2 0x144B JUMP JUMPDEST PUSH2 0x3DF PUSH2 0x599 CALLDATASIZE PUSH1 0x4 PUSH2 0x3857 JUMP JUMPDEST PUSH2 0x1451 JUMP JUMPDEST PUSH2 0x505 PUSH2 0x1522 JUMP JUMPDEST PUSH2 0x3A2 PUSH2 0x5B4 CALLDATASIZE PUSH1 0x4 PUSH2 0x3710 JUMP JUMPDEST PUSH2 0x1531 JUMP JUMPDEST PUSH2 0x326 PUSH2 0x157D JUMP JUMPDEST PUSH2 0x326 PUSH2 0x1583 JUMP JUMPDEST PUSH2 0x3DF PUSH2 0x5D7 CALLDATASIZE PUSH1 0x4 PUSH2 0x3710 JUMP JUMPDEST PUSH2 0x1589 JUMP JUMPDEST PUSH2 0x326 PUSH2 0x5EA CALLDATASIZE PUSH1 0x4 PUSH2 0x3677 JUMP JUMPDEST PUSH2 0x181F JUMP JUMPDEST PUSH2 0x424 PUSH2 0x1855 JUMP JUMPDEST PUSH2 0x3DF PUSH2 0x605 CALLDATASIZE PUSH1 0x4 PUSH2 0x3677 JUMP JUMPDEST PUSH2 0x185E JUMP JUMPDEST PUSH2 0x3DF PUSH2 0x1BA1 JUMP JUMPDEST PUSH2 0x625 PUSH2 0x620 CALLDATASIZE PUSH1 0x4 PUSH2 0x37E3 JUMP JUMPDEST PUSH2 0x1BA9 JUMP JUMPDEST PUSH1 0x40 MLOAD PUSH2 0x333 SWAP3 SWAP2 SWAP1 PUSH2 0x3F89 JUMP JUMPDEST PUSH2 0x326 PUSH2 0x1BDE JUMP JUMPDEST PUSH2 0x3DF PUSH2 0x649 CALLDATASIZE PUSH1 0x4 PUSH2 0x36C6 JUMP JUMPDEST PUSH2 0x1BE4 JUMP JUMPDEST PUSH2 0x661 PUSH2 0x65C CALLDATASIZE PUSH1 0x4 PUSH2 0x3677 JUMP JUMPDEST PUSH2 0x1D09 JUMP JUMPDEST PUSH1 0x40 MLOAD PUSH2 0x333 SWAP2 SWAP1 PUSH2 0x392C JUMP JUMPDEST PUSH2 0x3DF PUSH2 0x67C CALLDATASIZE PUSH1 0x4 PUSH2 0x373A JUMP JUMPDEST PUSH2 0x1E4A JUMP JUMPDEST PUSH2 0x326 PUSH2 0x1E95 JUMP JUMPDEST PUSH2 0x3DF PUSH2 0x697 CALLDATASIZE PUSH1 0x4 PUSH2 0x3677 JUMP JUMPDEST PUSH2 0x1E9B JUMP JUMPDEST PUSH2 0x326 PUSH2 0x6AA CALLDATASIZE PUSH1 0x4 PUSH2 0x3692 JUMP JUMPDEST PUSH2 0x1F43 JUMP JUMPDEST PUSH2 0x326 PUSH2 0x6BD CALLDATASIZE PUSH1 0x4 PUSH2 0x3677 JUMP JUMPDEST PUSH2 0x1F60 JUMP JUMPDEST PUSH2 0x505 PUSH2 0x1F6B JUMP JUMPDEST PUSH2 0x3DF PUSH2 0x6D8 CALLDATASIZE PUSH1 0x4 PUSH2 0x3677 JUMP JUMPDEST PUSH2 0x1F7A JUMP JUMPDEST PUSH2 0x326 PUSH2 0x6EB CALLDATASIZE PUSH1 0x4 PUSH2 0x37E3 JUMP JUMPDEST PUSH2 0x203B JUMP JUMPDEST PUSH2 0x3DF PUSH2 0x20E5 JUMP JUMPDEST PUSH3 0x6EBE00 DUP2 JUMP JUMPDEST PUSH1 0x1 PUSH1 0x1 PUSH1 0xA0 SHL SUB DUP2 AND PUSH1 0x0 SWAP1 DUP2 MSTORE PUSH1 0xE PUSH1 0x20 SWAP1 DUP2 MSTORE PUSH1 0x40 DUP1 DUP4 KECCAK256 PUSH1 0xD SWAP1 SWAP3 MSTORE DUP3 KECCAK256 DUP1 SLOAD DUP4 SWAP3 DUP4 SWAP3 PUSH1 0x60 SWAP3 PUSH1 0x1 PUSH1 0xE0 SHL SWAP1 DIV PUSH4 0xFFFFFFFF AND DUP5 DUP2 JUMPDEST DUP5 SLOAD DUP2 LT ISZERO PUSH2 0x8AD JUMPI TIMESTAMP DUP6 DUP3 DUP2 SLOAD DUP2 LT PUSH2 0x750 JUMPI INVALID JUMPDEST PUSH1 0x0 SWAP2 DUP3 MSTORE PUSH1 0x20 SWAP1 SWAP2 KECCAK256 ADD SLOAD PUSH1 0x1 PUSH1 0xE0 SHL SWAP1 DIV PUSH4 0xFFFFFFFF AND GT ISZERO PUSH2 0x877 JUMPI DUP2 PUSH2 0x7CD JUMPI DUP5 SLOAD DUP2 SWAP1 SUB PUSH8 0xFFFFFFFFFFFFFFFF DUP2 GT DUP1 ISZERO PUSH2 0x78F JUMPI PUSH1 0x0 DUP1 REVERT JUMPDEST POP PUSH1 0x40 MLOAD SWAP1 DUP1 DUP3 MSTORE DUP1 PUSH1 0x20 MUL PUSH1 0x20 ADD DUP3 ADD PUSH1 0x40 MSTORE DUP1 ISZERO PUSH2 0x7C9 JUMPI DUP2 PUSH1 0x20 ADD JUMPDEST PUSH2 0x7B6 PUSH2 0x3629 JUMP JUMPDEST DUP2 MSTORE PUSH1 0x20 ADD SWAP1 PUSH1 0x1 SWAP1 SUB SWAP1 DUP2 PUSH2 0x7AE JUMPI SWAP1 POP JUMPDEST POP SWAP6 POP JUMPDEST DUP5 DUP2 DUP2 SLOAD DUP2 LT PUSH2 0x7D9 JUMPI INVALID JUMPDEST PUSH1 0x0 SWAP2 DUP3 MSTORE PUSH1 0x20 SWAP2 DUP3 SWAP1 KECCAK256 PUSH1 0x40 DUP1 MLOAD PUSH1 0x60 DUP2 ADD DUP3 MSTORE SWAP2 SWAP1 SWAP3 ADD SLOAD PUSH1 0x1 PUSH1 0x1 PUSH1 0x70 SHL SUB DUP1 DUP3 AND DUP4 MSTORE PUSH1 0x1 PUSH1 0x70 SHL DUP3 DIV AND SWAP4 DUP3 ADD SWAP4 SWAP1 SWAP4 MSTORE PUSH4 0xFFFFFFFF PUSH1 0x1 PUSH1 0xE0 SHL SWAP1 SWAP4 DIV SWAP3 SWAP1 SWAP3 AND SWAP1 DUP3 ADD MSTORE DUP7 MLOAD DUP8 SWAP1 DUP5 SWAP1 DUP2 LT PUSH2 0x832 JUMPI INVALID JUMPDEST PUSH1 0x20 MUL PUSH1 0x20 ADD ADD DUP2 SWAP1 MSTORE POP DUP2 DUP1 PUSH1 0x1 ADD SWAP3 POP POP PUSH2 0x870 DUP6 DUP3 DUP2 SLOAD DUP2 LT PUSH2 0x854 JUMPI INVALID JUMPDEST PUSH1 0x0 SWAP2 DUP3 MSTORE PUSH1 0x20 SWAP1 SWAP2 KECCAK256 ADD SLOAD DUP9 SWAP1 PUSH1 0x1 PUSH1 0x1 PUSH1 0x70 SHL SUB AND PUSH2 0x219C JUMP JUMPDEST SWAP7 POP PUSH2 0x8A5 JUMP JUMPDEST PUSH2 0x8A2 DUP6 DUP3 DUP2 SLOAD DUP2 LT PUSH2 0x886 JUMPI INVALID JUMPDEST PUSH1 0x0 SWAP2 DUP3 MSTORE PUSH1 0x20 SWAP1 SWAP2 KECCAK256 ADD SLOAD DUP10 SWAP1 PUSH1 0x1 PUSH1 0x1 PUSH1 0x70 SHL SUB AND PUSH2 0x219C JUMP JUMPDEST SWAP8 POP JUMPDEST PUSH1 0x1 ADD PUSH2 0x73A JUMP JUMPDEST POP POP SWAP1 SLOAD PUSH1 0x1 PUSH1 0x1 PUSH1 0x70 SHL SUB AND SWAP6 POP POP POP SWAP2 SWAP4 POP SWAP2 SWAP4 JUMP JUMPDEST PUSH1 0x17 DUP1 SLOAD PUSH1 0x40 DUP1 MLOAD PUSH1 0x20 PUSH1 0x1F PUSH1 0x2 PUSH1 0x0 NOT PUSH2 0x100 PUSH1 0x1 DUP9 AND ISZERO MUL ADD SWAP1 SWAP6 AND SWAP5 SWAP1 SWAP5 DIV SWAP4 DUP5 ADD DUP2 SWAP1 DIV DUP2 MUL DUP3 ADD DUP2 ADD SWAP1 SWAP3 MSTORE DUP3 DUP2 MSTORE PUSH1 0x60 SWAP4 SWAP1 SWAP3 SWAP1 SWAP2 DUP4 ADD DUP3 DUP3 DUP1 ISZERO PUSH2 0x951 JUMPI DUP1 PUSH1 0x1F LT PUSH2 0x926 JUMPI PUSH2 0x100 DUP1 DUP4 SLOAD DIV MUL DUP4 MSTORE SWAP2 PUSH1 0x20 ADD SWAP2 PUSH2 0x951 JUMP JUMPDEST DUP3 ADD SWAP2 SWAP1 PUSH1 0x0 MSTORE PUSH1 0x20 PUSH1 0x0 KECCAK256 SWAP1 JUMPDEST DUP2 SLOAD DUP2 MSTORE SWAP1 PUSH1 0x1 ADD SWAP1 PUSH1 0x20 ADD DUP1 DUP4 GT PUSH2 0x934 JUMPI DUP3 SWAP1 SUB PUSH1 0x1F AND DUP3 ADD SWAP2 JUMPDEST POP POP POP POP POP SWAP1 POP SWAP1 JUMP JUMPDEST PUSH1 0x0 DUP1 PUSH2 0x975 PUSH3 0x93A80 PUSH2 0x96F TIMESTAMP DUP3 PUSH2 0x2133 JUMP JUMPDEST SWAP1 PUSH2 0x2165 JUMP JUMPDEST SWAP1 POP PUSH1 0x0 PUSH2 0x986 DUP3 PUSH3 0x6EBE00 PUSH2 0x21BF JUMP JUMPDEST PUSH1 0xC DUP1 SLOAD SWAP2 SWAP3 POP DUP4 SWAP1 PUSH1 0x0 NOT DUP4 ADD DUP4 DUP2 LT PUSH2 0x99D JUMPI INVALID JUMPDEST PUSH1 0x0 SWAP2 DUP3 MSTORE PUSH1 0x20 SWAP1 SWAP2 KECCAK256 ADD SLOAD PUSH1 0x1 PUSH1 0xE0 SHL SWAP1 DIV PUSH4 0xFFFFFFFF AND EQ ISZERO PUSH2 0x9C1 JUMPI PUSH1 0x0 NOT ADD JUMPDEST PUSH1 0x0 NOT DUP2 ADD JUMPDEST PUSH1 0x1 DUP2 ADD ISZERO PUSH2 0xA2A JUMPI PUSH1 0x0 PUSH1 0xC DUP3 DUP2 SLOAD DUP2 LT PUSH2 0x9DF JUMPI INVALID JUMPDEST PUSH1 0x0 SWAP2 DUP3 MSTORE PUSH1 0x20 SWAP1 SWAP2 KECCAK256 ADD DUP1 SLOAD SWAP1 SWAP2 POP PUSH1 0x1 PUSH1 0xE0 SHL SWAP1 DIV PUSH4 0xFFFFFFFF AND DUP5 LT PUSH2 0xA08 JUMPI POP PUSH2 0xA2A JUMP JUMPDEST DUP1 SLOAD PUSH2 0xA1E SWAP1 DUP8 SWAP1 PUSH1 0x1 PUSH1 0x1 PUSH1 0xE0 SHL SUB AND PUSH2 0x219C JUMP JUMPDEST SWAP6 POP POP PUSH1 0x0 NOT ADD PUSH2 0x9C7 JUMP JUMPDEST POP POP POP POP SWAP1 JUMP JUMPDEST PUSH1 0x1 PUSH1 0x1 PUSH1 0xA0 SHL SUB DUP2 AND PUSH1 0x0 SWAP1 DUP2 MSTORE PUSH1 0xE PUSH1 0x20 MSTORE PUSH1 0x40 DUP2 KECCAK256 PUSH1 0xC DUP1 SLOAD DUP4 SWAP2 SWAP1 DUP7 SWAP1 DUP2 LT PUSH2 0xA5A JUMPI INVALID JUMPDEST PUSH1 0x0 SWAP2 DUP3 MSTORE PUSH1 0x20 DUP3 KECCAK256 ADD SLOAD PUSH4 0xFFFFFFFF PUSH1 0x1 PUSH1 0xE0 SHL SWAP1 SWAP2 DIV DUP2 AND SWAP3 POP PUSH2 0xA87 SWAP1 DUP4 SWAP1 PUSH3 0x6EBE00 SWAP1 PUSH2 0x21BF AND JUMP JUMPDEST SWAP1 POP PUSH1 0x0 PUSH2 0xA9C PUSH3 0x93A80 PUSH2 0x96F TIMESTAMP DUP3 PUSH2 0x2133 JUMP JUMPDEST DUP5 SLOAD SWAP1 SWAP2 POP PUSH1 0x0 NOT ADD JUMPDEST PUSH1 0x1 DUP2 ADD ISZERO PUSH2 0xB51 JUMPI PUSH1 0x0 PUSH2 0xAEA PUSH3 0x93A80 PUSH1 0xC MUL DUP8 DUP5 DUP2 SLOAD DUP2 LT PUSH2 0xAC7 JUMPI INVALID JUMPDEST PUSH1 0x0 SWAP2 DUP3 MSTORE PUSH1 0x20 SWAP1 SWAP2 KECCAK256 ADD SLOAD PUSH4 0xFFFFFFFF PUSH1 0x1 PUSH1 0xE0 SHL SWAP1 SWAP2 DIV DUP2 AND SWAP2 SWAP1 PUSH2 0x21BF AND JUMP JUMPDEST SWAP1 POP DUP5 DUP2 GT ISZERO DUP1 ISZERO PUSH2 0xAFB JUMPI POP DUP3 DUP2 LT JUMPDEST ISZERO PUSH2 0xB47 JUMPI DUP4 DUP2 GT ISZERO PUSH2 0xB41 JUMPI PUSH2 0xB3A DUP7 DUP4 DUP2 SLOAD DUP2 LT PUSH2 0xB17 JUMPI INVALID JUMPDEST PUSH1 0x0 SWAP2 DUP3 MSTORE PUSH1 0x20 SWAP1 SWAP2 KECCAK256 ADD SLOAD DUP9 SWAP1 PUSH1 0x1 PUSH1 0x70 SHL SWAP1 DIV PUSH1 0x1 PUSH1 0x1 PUSH1 0x70 SHL SUB AND PUSH2 0x219C JUMP JUMPDEST SWAP7 POP PUSH2 0xB47 JUMP JUMPDEST POP PUSH2 0xB51 JUMP JUMPDEST POP PUSH1 0x0 NOT ADD PUSH2 0xAA6 JUMP JUMPDEST POP POP POP POP POP JUMPDEST SWAP3 SWAP2 POP POP JUMP JUMPDEST PUSH1 0xD PUSH1 0x20 MSTORE PUSH1 0x0 SWAP1 DUP2 MSTORE PUSH1 0x40 SWAP1 KECCAK256 SLOAD PUSH1 0x1 PUSH1 0x1 PUSH1 0x70 SHL SUB DUP1 DUP3 AND SWAP2 PUSH1 0x1 PUSH1 0x70 SHL DUP2 DIV SWAP1 SWAP2 AND SWAP1 PUSH1 0x1 PUSH1 0xE0 SHL SWAP1 DIV PUSH4 0xFFFFFFFF AND DUP4 JUMP JUMPDEST PUSH1 0x11 SLOAD DUP2 JUMP JUMPDEST PUSH1 0x1 PUSH1 0x1 PUSH1 0xA0 SHL SUB DUP2 AND PUSH1 0x0 SWAP1 DUP2 MSTORE PUSH1 0xD PUSH1 0x20 MSTORE PUSH1 0x40 SWAP1 KECCAK256 SLOAD PUSH1 0x1 PUSH1 0x70 SHL SWAP1 DIV PUSH1 0x1 PUSH1 0x1 PUSH1 0x70 SHL SUB AND JUMPDEST SWAP2 SWAP1 POP JUMP JUMPDEST PUSH1 0x2 PUSH1 0x0 SLOAD EQ ISZERO PUSH2 0xBF4 JUMPI PUSH1 0x40 MLOAD PUSH3 0x461BCD PUSH1 0xE5 SHL DUP2 MSTORE PUSH1 0x4 ADD PUSH2 0xBEB SWAP1 PUSH2 0x3E56 JUMP JUMPDEST PUSH1 0x40 MLOAD DUP1 SWAP2 SUB SWAP1 REVERT JUMPDEST PUSH1 0x2 PUSH1 0x0 DUP2 SWAP1 SSTORE POP PUSH2 0xC0C CALLER DUP3 PUSH1 0x0 CALLER CALLER PUSH1 0x0 PUSH2 0x21E2 JUMP JUMPDEST POP PUSH1 0x1 PUSH1 0x0 SSTORE JUMP JUMPDEST PUSH32 0x0 SWAP1 JUMP JUMPDEST PUSH2 0xC40 PUSH2 0x278D JUMP JUMPDEST PUSH1 0x1 PUSH1 0x1 PUSH1 0xA0 SHL SUB AND PUSH2 0xC51 PUSH2 0x13D5 JUMP JUMPDEST PUSH1 0x1 PUSH1 0x1 PUSH1 0xA0 SHL SUB AND EQ PUSH2 0xC77 JUMPI PUSH1 0x40 MLOAD PUSH3 0x461BCD PUSH1 0xE5 SHL DUP2 MSTORE PUSH1 0x4 ADD PUSH2 0xBEB SWAP1 PUSH2 0x3C7F JUMP JUMPDEST PUSH32 0x21C46A061CB9C101660F51F5C9FC9768C5F6E8CF5DEA8CA5CD03CB6DB13956F3 PUSH1 0x6 SLOAD DUP3 PUSH1 0x40 MLOAD PUSH2 0xCAA SWAP3 SWAP2 SWAP1 PUSH2 0x3FD0 JUMP JUMPDEST PUSH1 0x40 MLOAD DUP1 SWAP2 SUB SWAP1 LOG1 PUSH1 0x6 SSTORE JUMP JUMPDEST PUSH3 0x93A80 DUP2 JUMP JUMPDEST PUSH1 0x7 PUSH1 0x20 SWAP1 DUP2 MSTORE PUSH1 0x0 SWAP3 DUP4 MSTORE PUSH1 0x40 DUP1 DUP5 KECCAK256 SWAP1 SWAP2 MSTORE SWAP1 DUP3 MSTORE SWAP1 KECCAK256 SLOAD PUSH1 0xFF AND DUP2 JUMP JUMPDEST PUSH1 0x5 PUSH1 0x20 MSTORE PUSH1 0x0 SWAP1 DUP2 MSTORE PUSH1 0x40 SWAP1 KECCAK256 DUP1 SLOAD PUSH1 0x1 SWAP1 SWAP2 ADD SLOAD PUSH1 0xFF DUP3 AND SWAP2 PUSH5 0xFFFFFFFFFF PUSH2 0x100 DUP3 DIV DUP2 AND SWAP3 PUSH1 0x1 PUSH1 0x1 PUSH1 0xD0 SHL SUB PUSH1 0x1 PUSH1 0x30 SHL SWAP1 SWAP4 DIV DUP4 AND SWAP3 SWAP2 DUP2 AND SWAP2 PUSH1 0x1 PUSH1 0x28 SHL SWAP1 SWAP2 DIV AND DUP6 JUMP JUMPDEST PUSH1 0x6 SLOAD DUP2 JUMP JUMPDEST PUSH1 0x1 PUSH1 0x1 PUSH1 0xA0 SHL SUB AND PUSH1 0x0 SWAP1 DUP2 MSTORE PUSH1 0xD PUSH1 0x20 MSTORE PUSH1 0x40 SWAP1 KECCAK256 SLOAD PUSH1 0x1 PUSH1 0x1 PUSH1 0x70 SHL SUB AND SWAP1 JUMP JUMPDEST PUSH1 0x1 PUSH1 0x1 PUSH1 0xA0 SHL SUB DUP2 AND PUSH1 0x0 SWAP1 DUP2 MSTORE PUSH1 0x5 PUSH1 0x20 MSTORE PUSH1 0x40 DUP2 KECCAK256 SLOAD PUSH2 0xB57 SWAP1 PUSH2 0x100 SWAP1 DIV PUSH5 0xFFFFFFFFFF AND PUSH2 0x2791 JUMP JUMPDEST PUSH2 0xD8A PUSH2 0x278D JUMP JUMPDEST PUSH1 0x1 PUSH1 0x1 PUSH1 0xA0 SHL SUB AND PUSH2 0xD9B PUSH2 0x13D5 JUMP JUMPDEST PUSH1 0x1 PUSH1 0x1 PUSH1 0xA0 SHL SUB AND EQ PUSH2 0xDC1 JUMPI PUSH1 0x40 MLOAD PUSH3 0x461BCD PUSH1 0xE5 SHL DUP2 MSTORE PUSH1 0x4 ADD PUSH2 0xBEB SWAP1 PUSH2 0x3C7F JUMP JUMPDEST PUSH2 0x1F4 DUP3 GT ISZERO PUSH2 0xDE3 JUMPI PUSH1 0x40 MLOAD PUSH3 0x461BCD PUSH1 0xE5 SHL DUP2 MSTORE PUSH1 0x4 ADD PUSH2 0xBEB SWAP1 PUSH2 0x3B55 JUMP JUMPDEST PUSH1 0x2 DUP2 LT ISZERO PUSH2 0xE04 JUMPI PUSH1 0x40 MLOAD PUSH3 0x461BCD PUSH1 0xE5 SHL DUP2 MSTORE PUSH1 0x4 ADD PUSH2 0xBEB SWAP1 PUSH2 0x3D22 JUMP JUMPDEST PUSH1 0x14 SWAP2 SWAP1 SWAP2 SSTORE PUSH1 0x15 SSTORE JUMP JUMPDEST PUSH2 0xE17 PUSH2 0x278D JUMP JUMPDEST PUSH1 0x1 PUSH1 0x1 PUSH1 0xA0 SHL SUB AND PUSH2 0xE28 PUSH2 0x13D5 JUMP JUMPDEST PUSH1 0x1 PUSH1 0x1 PUSH1 0xA0 SHL SUB AND EQ PUSH2 0xE4E JUMPI PUSH1 0x40 MLOAD PUSH3 0x461BCD PUSH1 0xE5 SHL DUP2 MSTORE PUSH1 0x4 ADD PUSH2 0xBEB SWAP1 PUSH2 0x3C7F JUMP JUMPDEST PUSH1 0x1 PUSH1 0x1 PUSH1 0xA0 SHL SUB DUP4 AND PUSH1 0x0 SWAP1 DUP2 MSTORE PUSH1 0x5 PUSH1 0x20 MSTORE PUSH1 0x40 SWAP1 KECCAK256 PUSH1 0x1 ADD SLOAD PUSH5 0xFFFFFFFFFF AND PUSH2 0xE8D JUMPI PUSH1 0x40 MLOAD PUSH3 0x461BCD PUSH1 0xE5 SHL DUP2 MSTORE PUSH1 0x4 ADD PUSH2 0xBEB SWAP1 PUSH2 0x3CB4 JUMP JUMPDEST PUSH1 0x1 PUSH1 0x1 PUSH1 0xA0 SHL SUB SWAP3 DUP4 AND PUSH1 0x0 SWAP1 DUP2 MSTORE PUSH1 0x7 PUSH1 0x20 SWAP1 DUP2 MSTORE PUSH1 0x40 DUP1 DUP4 KECCAK256 SWAP5 SWAP1 SWAP6 AND DUP3 MSTORE SWAP3 SWAP1 SWAP3 MSTORE SWAP2 SWAP1 KECCAK256 DUP1 SLOAD PUSH1 0xFF NOT AND SWAP2 ISZERO ISZERO SWAP2 SWAP1 SWAP2 OR SWAP1 SSTORE JUMP JUMPDEST PUSH1 0x8 PUSH1 0x20 SWAP1 DUP2 MSTORE PUSH1 0x0 SWAP3 DUP4 MSTORE PUSH1 0x40 DUP1 DUP5 KECCAK256 SWAP1 SWAP2 MSTORE SWAP1 DUP3 MSTORE SWAP1 KECCAK256 SLOAD DUP2 JUMP JUMPDEST PUSH1 0x1 PUSH1 0x1 PUSH1 0xA0 SHL SUB DUP2 AND PUSH1 0x0 SWAP1 DUP2 MSTORE PUSH1 0xE PUSH1 0x20 SWAP1 DUP2 MSTORE PUSH1 0x40 DUP1 DUP4 KECCAK256 PUSH1 0xD SWAP1 SWAP3 MSTORE SWAP1 SWAP2 KECCAK256 DUP1 SLOAD DUP3 SLOAD PUSH1 0x1 PUSH1 0x70 SHL DUP3 DIV PUSH1 0x1 PUSH1 0x1 PUSH1 0x70 SHL SUB AND SWAP4 SWAP3 SWAP2 PUSH1 0x1 PUSH1 0xE0 SHL SWAP1 DIV PUSH4 0xFFFFFFFF AND SWAP1 DUP2 JUMPDEST DUP2 DUP2 LT ISZERO PUSH2 0xFA7 JUMPI TIMESTAMP DUP6 DUP3 DUP2 SLOAD DUP2 LT PUSH2 0xF43 JUMPI INVALID JUMPDEST PUSH1 0x0 SWAP2 DUP3 MSTORE PUSH1 0x20 SWAP1 SWAP2 KECCAK256 ADD SLOAD PUSH1 0x1 PUSH1 0xE0 SHL SWAP1 DIV PUSH4 0xFFFFFFFF AND GT PUSH2 0xF9A JUMPI PUSH2 0xF93 DUP6 DUP3 DUP2 SLOAD DUP2 LT PUSH2 0xF70 JUMPI INVALID JUMPDEST PUSH1 0x0 SWAP2 DUP3 MSTORE PUSH1 0x20 SWAP1 SWAP2 KECCAK256 ADD SLOAD DUP8 SWAP1 PUSH1 0x1 PUSH1 0x70 SHL SWAP1 DIV PUSH1 0x1 PUSH1 0x1 PUSH1 0x70 SHL SUB AND PUSH2 0x21BF JUMP JUMPDEST SWAP6 POP PUSH2 0xF9F JUMP JUMPDEST PUSH2 0xFA7 JUMP JUMPDEST PUSH1 0x1 ADD PUSH2 0xF2E JUMP JUMPDEST POP PUSH1 0x0 PUSH2 0xFBB PUSH3 0x93A80 PUSH2 0x96F TIMESTAMP DUP3 PUSH2 0x2133 JUMP JUMPDEST SWAP1 POP PUSH1 0x0 DUP3 GT DUP1 ISZERO PUSH2 0xFE4 JUMPI POP DUP1 PUSH2 0xFE2 PUSH3 0x93A80 PUSH1 0xC MUL DUP8 PUSH1 0x1 DUP7 SUB DUP2 SLOAD DUP2 LT PUSH2 0xAC7 JUMPI INVALID JUMPDEST EQ JUMPDEST ISZERO PUSH2 0xFFE JUMPI PUSH2 0xFFB DUP6 PUSH1 0x1 DUP5 SUB DUP2 SLOAD DUP2 LT PUSH2 0xF70 JUMPI INVALID JUMPDEST SWAP6 POP JUMPDEST POP POP POP POP POP SWAP2 SWAP1 POP JUMP JUMPDEST PUSH1 0x0 DUP1 PUSH2 0x1049 PUSH3 0x93A80 PUSH2 0x96F PUSH3 0x93A80 PUSH1 0xC DUP8 DUP2 SLOAD DUP2 LT PUSH2 0x1026 JUMPI INVALID JUMPDEST PUSH1 0x0 SWAP2 DUP3 MSTORE PUSH1 0x20 SWAP1 SWAP2 KECCAK256 ADD SLOAD PUSH4 0xFFFFFFFF PUSH1 0x1 PUSH1 0xE0 SHL SWAP1 SWAP2 DIV DUP2 AND SWAP2 SWAP1 PUSH2 0x2133 AND JUMP JUMPDEST SWAP1 POP PUSH1 0x0 PUSH2 0x105A DUP3 PUSH3 0x6EBE00 PUSH2 0x21BF JUMP JUMPDEST SWAP1 POP PUSH1 0x0 PUSH2 0x106F PUSH3 0x93A80 PUSH2 0x96F TIMESTAMP DUP3 PUSH2 0x2133 JUMP JUMPDEST SWAP1 POP DUP1 PUSH1 0xC DUP7 DUP2 SLOAD DUP2 LT PUSH2 0x107F JUMPI INVALID JUMPDEST PUSH1 0x0 SWAP2 DUP3 MSTORE PUSH1 0x20 SWAP1 SWAP2 KECCAK256 ADD SLOAD PUSH1 0x1 PUSH1 0xE0 SHL SWAP1 DIV PUSH4 0xFFFFFFFF AND EQ ISZERO PUSH2 0x10A6 JUMPI PUSH1 0x0 NOT SWAP1 SWAP5 ADD SWAP4 JUMPDEST DUP5 JUMPDEST PUSH1 0x1 DUP2 ADD ISZERO PUSH2 0x1121 JUMPI PUSH1 0x0 PUSH1 0xC DUP3 DUP2 SLOAD DUP2 LT PUSH2 0x10C0 JUMPI INVALID JUMPDEST PUSH1 0x0 SWAP2 DUP3 MSTORE PUSH1 0x20 SWAP1 SWAP2 KECCAK256 ADD DUP1 SLOAD SWAP1 SWAP2 POP PUSH1 0x1 PUSH1 0xE0 SHL SWAP1 DIV PUSH4 0xFFFFFFFF AND DUP5 LT PUSH2 0x10E9 JUMPI POP PUSH2 0x1121 JUMP JUMPDEST PUSH2 0x1115 PUSH1 0xC DUP4 DUP2 SLOAD DUP2 LT PUSH2 0x10F9 JUMPI INVALID JUMPDEST PUSH1 0x0 SWAP2 DUP3 MSTORE PUSH1 0x20 SWAP1 SWAP2 KECCAK256 ADD SLOAD DUP8 SWAP1 PUSH1 0x1 PUSH1 0x1 PUSH1 0xE0 SHL SUB AND PUSH2 0x219C JUMP JUMPDEST SWAP6 POP POP PUSH1 0x0 NOT ADD PUSH2 0x10A8 JUMP JUMPDEST POP POP POP POP SWAP2 SWAP1 POP JUMP JUMPDEST PUSH1 0x2 PUSH1 0x0 SLOAD EQ ISZERO PUSH2 0x114D JUMPI PUSH1 0x40 MLOAD PUSH3 0x461BCD PUSH1 0xE5 SHL DUP2 MSTORE PUSH1 0x4 ADD PUSH2 0xBEB SWAP1 PUSH2 0x3E56 JUMP JUMPDEST PUSH1 0x2 PUSH1 0x0 DUP2 SWAP1 SSTORE POP PUSH2 0x1164 CALLER DUP5 DUP5 DUP5 CALLER PUSH1 0x0 PUSH2 0x21E2 JUMP JUMPDEST POP POP PUSH1 0x1 PUSH1 0x0 SSTORE POP JUMP JUMPDEST PUSH2 0x1176 PUSH2 0x278D JUMP JUMPDEST PUSH1 0x1 PUSH1 0x1 PUSH1 0xA0 SHL SUB AND PUSH2 0x1187 PUSH2 0x13D5 JUMP JUMPDEST PUSH1 0x1 PUSH1 0x1 PUSH1 0xA0 SHL SUB AND EQ PUSH2 0x11AD JUMPI PUSH1 0x40 MLOAD PUSH3 0x461BCD PUSH1 0xE5 SHL DUP2 MSTORE PUSH1 0x4 ADD PUSH2 0xBEB SWAP1 PUSH2 0x3C7F JUMP JUMPDEST PUSH1 0x1 SLOAD PUSH1 0x40 MLOAD PUSH1 0x0 SWAP2 PUSH1 0x1 PUSH1 0x1 PUSH1 0xA0 SHL SUB AND SWAP1 PUSH32 0x8BE0079C531659141344CD1FD0A4F28419497F9722A3DAAFE3B4186F6B6457E0 SWAP1 DUP4 SWAP1 LOG3 PUSH1 0x1 DUP1 SLOAD PUSH1 0x1 PUSH1 0x1 PUSH1 0xA0 SHL SUB NOT AND SWAP1 SSTORE JUMP JUMPDEST PUSH1 0x2 SLOAD PUSH1 0x1 PUSH1 0x1 PUSH1 0xA0 SHL SUB AND DUP2 JUMP JUMPDEST PUSH1 0xB SLOAD DUP2 JUMP JUMPDEST PUSH1 0x4 DUP2 DUP2 SLOAD DUP2 LT PUSH2 0x1219 JUMPI INVALID JUMPDEST PUSH1 0x0 SWAP2 DUP3 MSTORE PUSH1 0x20 SWAP1 SWAP2 KECCAK256 ADD SLOAD PUSH1 0x1 PUSH1 0x1 PUSH1 0xA0 SHL SUB AND SWAP1 POP DUP2 JUMP JUMPDEST PUSH1 0x12 SLOAD DUP2 JUMP JUMPDEST PUSH1 0xC SLOAD SWAP1 JUMP JUMPDEST PUSH1 0x3 SLOAD PUSH1 0x2 SLOAD PUSH2 0x125D SWAP2 PUSH1 0x1 PUSH1 0x1 PUSH1 0xA0 SHL SUB SWAP2 DUP3 AND SWAP2 AND PUSH1 0x0 PUSH2 0x279D JUMP JUMPDEST PUSH1 0x3 SLOAD PUSH1 0x2 SLOAD PUSH2 0x127C SWAP2 PUSH1 0x1 PUSH1 0x1 PUSH1 0xA0 SHL SUB SWAP2 DUP3 AND SWAP2 AND PUSH1 0x0 NOT PUSH2 0x279D JUMP JUMPDEST JUMP JUMPDEST PUSH1 0x2 PUSH1 0x0 SLOAD EQ ISZERO PUSH2 0x12A1 JUMPI PUSH1 0x40 MLOAD PUSH3 0x461BCD PUSH1 0xE5 SHL DUP2 MSTORE PUSH1 0x4 ADD PUSH2 0xBEB SWAP1 PUSH2 0x3E56 JUMP JUMPDEST PUSH1 0x2 PUSH1 0x0 DUP2 SWAP1 SSTORE POP PUSH2 0xC0C DUP2 PUSH1 0x0 DUP1 DUP5 CALLER PUSH2 0x12CA PUSH1 0x15 SLOAD PUSH3 0x93A80 PUSH2 0x2165 SWAP1 SWAP2 SWAP1 PUSH4 0xFFFFFFFF AND JUMP JUMPDEST PUSH2 0x21E2 JUMP JUMPDEST PUSH2 0x12D7 PUSH2 0x278D JUMP JUMPDEST PUSH1 0x1 PUSH1 0x1 PUSH1 0xA0 SHL SUB AND PUSH2 0x12E8 PUSH2 0x13D5 JUMP JUMPDEST PUSH1 0x1 PUSH1 0x1 PUSH1 0xA0 SHL SUB AND EQ PUSH2 0x130E JUMPI PUSH1 0x40 MLOAD PUSH3 0x461BCD PUSH1 0xE5 SHL DUP2 MSTORE PUSH1 0x4 ADD PUSH2 0xBEB SWAP1 PUSH2 0x3C7F JUMP JUMPDEST PUSH1 0x2 SLOAD PUSH1 0x1 PUSH1 0x1 PUSH1 0xA0 SHL SUB DUP4 DUP2 AND SWAP2 AND EQ ISZERO PUSH2 0x133C JUMPI PUSH1 0x40 MLOAD PUSH3 0x461BCD PUSH1 0xE5 SHL DUP2 MSTORE PUSH1 0x4 ADD PUSH2 0xBEB SWAP1 PUSH2 0x3CEB JUMP JUMPDEST PUSH1 0x1 PUSH1 0x1 PUSH1 0xA0 SHL SUB DUP3 AND PUSH1 0x0 SWAP1 DUP2 MSTORE PUSH1 0x5 PUSH1 0x20 MSTORE PUSH1 0x40 SWAP1 KECCAK256 PUSH1 0x1 ADD SLOAD PUSH5 0xFFFFFFFFFF AND ISZERO PUSH2 0x137C JUMPI PUSH1 0x40 MLOAD PUSH3 0x461BCD PUSH1 0xE5 SHL DUP2 MSTORE PUSH1 0x4 ADD PUSH2 0xBEB SWAP1 PUSH2 0x3E1F JUMP JUMPDEST PUSH2 0x1398 PUSH2 0x1387 PUSH2 0x13D5 JUMP JUMPDEST PUSH1 0x1 PUSH1 0x1 PUSH1 0xA0 SHL SUB DUP5 AND SWAP1 DUP4 PUSH2 0x289C JUMP JUMPDEST PUSH32 0x8C1256B8896378CD5044F80C202F9772B9D77DC85C8A6EB51967210B09BFAA28 DUP3 DUP3 PUSH1 0x40 MLOAD PUSH2 0x13C9 SWAP3 SWAP2 SWAP1 PUSH2 0x38F2 JUMP JUMPDEST PUSH1 0x40 MLOAD DUP1 SWAP2 SUB SWAP1 LOG1 POP POP JUMP JUMPDEST PUSH1 0x1 SLOAD PUSH1 0x1 PUSH1 0x1 PUSH1 0xA0 SHL SUB AND SWAP1 JUMP JUMPDEST PUSH1 0x18 DUP1 SLOAD PUSH1 0x40 DUP1 MLOAD PUSH1 0x20 PUSH1 0x1F PUSH1 0x2 PUSH1 0x0 NOT PUSH2 0x100 PUSH1 0x1 DUP9 AND ISZERO MUL ADD SWAP1 SWAP6 AND SWAP5 SWAP1 SWAP5 DIV SWAP4 DUP5 ADD DUP2 SWAP1 DIV DUP2 MUL DUP3 ADD DUP2 ADD SWAP1 SWAP3 MSTORE DUP3 DUP2 MSTORE PUSH1 0x60 SWAP4 SWAP1 SWAP3 SWAP1 SWAP2 DUP4 ADD DUP3 DUP3 DUP1 ISZERO PUSH2 0x951 JUMPI DUP1 PUSH1 0x1F LT PUSH2 0x926 JUMPI PUSH2 0x100 DUP1 DUP4 SLOAD DIV MUL DUP4 MSTORE SWAP2 PUSH1 0x20 ADD SWAP2 PUSH2 0x951 JUMP JUMPDEST PUSH2 0x2710 DUP2 JUMP JUMPDEST PUSH1 0x14 SLOAD DUP2 JUMP JUMPDEST PUSH2 0x1459 PUSH2 0x278D JUMP JUMPDEST PUSH1 0x1 PUSH1 0x1 PUSH1 0xA0 SHL SUB AND PUSH2 0x146A PUSH2 0x13D5 JUMP JUMPDEST PUSH1 0x1 PUSH1 0x1 PUSH1 0xA0 SHL SUB AND EQ PUSH2 0x1490 JUMPI PUSH1 0x40 MLOAD PUSH3 0x461BCD PUSH1 0xE5 SHL DUP2 MSTORE PUSH1 0x4 ADD PUSH2 0xBEB SWAP1 PUSH2 0x3C7F JUMP JUMPDEST PUSH2 0x5DC DUP4 LT PUSH2 0x14B1 JUMPI PUSH1 0x40 MLOAD PUSH3 0x461BCD PUSH1 0xE5 SHL DUP2 MSTORE PUSH1 0x4 ADD PUSH2 0xBEB SWAP1 PUSH2 0x3B2B JUMP JUMPDEST PUSH2 0x7530 DUP3 LT PUSH2 0x14D2 JUMPI PUSH1 0x40 MLOAD PUSH3 0x461BCD PUSH1 0xE5 SHL DUP2 MSTORE PUSH1 0x4 ADD PUSH2 0xBEB SWAP1 PUSH2 0x3B55 JUMP JUMPDEST PUSH1 0x1 PUSH1 0x1 PUSH1 0xA0 SHL SUB DUP2 AND PUSH2 0x14F8 JUMPI PUSH1 0x40 MLOAD PUSH3 0x461BCD PUSH1 0xE5 SHL DUP2 MSTORE PUSH1 0x4 ADD PUSH2 0xBEB SWAP1 PUSH2 0x3BA2 JUMP JUMPDEST PUSH1 0x12 SWAP3 SWAP1 SWAP3 SSTORE PUSH1 0x13 SSTORE PUSH1 0xF DUP1 SLOAD PUSH1 0x1 PUSH1 0x1 PUSH1 0xA0 SHL SUB NOT AND PUSH1 0x1 PUSH1 0x1 PUSH1 0xA0 SHL SUB SWAP1 SWAP3 AND SWAP2 SWAP1 SWAP2 OR SWAP1 SSTORE JUMP JUMPDEST PUSH1 0xF SLOAD PUSH1 0x1 PUSH1 0x1 PUSH1 0xA0 SHL SUB AND DUP2 JUMP JUMPDEST PUSH1 0xE PUSH1 0x20 MSTORE DUP2 PUSH1 0x0 MSTORE PUSH1 0x40 PUSH1 0x0 KECCAK256 DUP2 DUP2 SLOAD DUP2 LT PUSH2 0x154A JUMPI INVALID JUMPDEST PUSH1 0x0 SWAP2 DUP3 MSTORE PUSH1 0x20 SWAP1 SWAP2 KECCAK256 ADD SLOAD PUSH1 0x1 PUSH1 0x1 PUSH1 0x70 SHL SUB DUP1 DUP3 AND SWAP4 POP PUSH1 0x1 PUSH1 0x70 SHL DUP3 DIV AND SWAP2 POP PUSH1 0x1 PUSH1 0xE0 SHL SWAP1 DIV PUSH4 0xFFFFFFFF AND DUP4 JUMP JUMPDEST PUSH1 0x10 SLOAD DUP2 JUMP JUMPDEST PUSH1 0x13 SLOAD DUP2 JUMP JUMPDEST PUSH1 0x0 DUP1 DUP1 MSTORE PUSH1 0xD PUSH1 0x20 MSTORE PUSH32 0x81955A0A11E65EAC625C29E8882660BAE4E165A75D72780094ACAE8ECE9A29EE DUP1 SLOAD PUSH1 0x1 PUSH1 0x70 SHL SWAP1 DIV PUSH1 0x1 PUSH1 0x1 PUSH1 0x70 SHL SUB AND DUP3 JUMPDEST PUSH1 0x4 SLOAD DUP2 LT ISZERO PUSH2 0x1754 JUMPI PUSH1 0x0 PUSH1 0x4 DUP3 DUP2 SLOAD DUP2 LT PUSH2 0x15E1 JUMPI INVALID JUMPDEST PUSH1 0x0 SWAP2 DUP3 MSTORE PUSH1 0x20 SWAP1 SWAP2 KECCAK256 ADD SLOAD PUSH1 0x1 PUSH1 0x1 PUSH1 0xA0 SHL SUB AND SWAP1 POP PUSH2 0x1609 PUSH2 0x1604 DUP3 PUSH2 0x28BB JUMP JUMPDEST PUSH2 0x29CA JUMP JUMPDEST PUSH1 0x1 PUSH1 0x1 PUSH1 0xA0 SHL SUB DUP3 AND PUSH1 0x0 SWAP1 DUP2 MSTORE PUSH1 0x5 PUSH1 0x20 MSTORE PUSH1 0x40 SWAP1 KECCAK256 PUSH1 0x1 DUP2 ADD DUP1 SLOAD PUSH1 0x1 PUSH1 0x1 PUSH1 0xD0 SHL SUB SWAP4 SWAP1 SWAP4 AND PUSH1 0x1 PUSH1 0x28 SHL MUL PUSH1 0x1 PUSH1 0x28 SHL PUSH1 0x1 PUSH1 0xF8 SHL SUB NOT SWAP1 SWAP4 AND SWAP3 SWAP1 SWAP3 OR SWAP1 SWAP2 SSTORE SLOAD PUSH2 0x166F SWAP1 PUSH2 0x166A SWAP1 PUSH5 0xFFFFFFFFFF PUSH2 0x100 SWAP1 SWAP2 DIV AND PUSH2 0x2791 JUMP JUMPDEST PUSH2 0x29F7 JUMP JUMPDEST PUSH1 0x1 PUSH1 0x1 PUSH1 0xA0 SHL SUB DUP3 DUP2 AND PUSH1 0x0 SWAP1 DUP2 MSTORE PUSH1 0x5 PUSH1 0x20 MSTORE PUSH1 0x40 SWAP1 KECCAK256 PUSH1 0x1 ADD DUP1 SLOAD PUSH5 0xFFFFFFFFFF NOT AND PUSH5 0xFFFFFFFFFF SWAP4 SWAP1 SWAP4 AND SWAP3 SWAP1 SWAP3 OR SWAP1 SWAP2 SSTORE DUP6 AND ISZERO PUSH2 0x174B JUMPI PUSH1 0x1 PUSH1 0x1 PUSH1 0xA0 SHL SUB DUP2 AND PUSH1 0x0 SWAP1 DUP2 MSTORE PUSH1 0x5 PUSH1 0x20 MSTORE PUSH1 0x40 SWAP1 KECCAK256 SLOAD PUSH2 0x16EC SWAP1 DUP7 SWAP1 DUP4 SWAP1 PUSH1 0xFF AND PUSH2 0x16E5 JUMPI DUP7 SLOAD PUSH1 0x1 PUSH1 0x1 PUSH1 0x70 SHL SUB AND PUSH2 0x16E7 JUMP JUMPDEST DUP6 JUMPDEST PUSH2 0x2A1E JUMP JUMPDEST PUSH1 0x1 PUSH1 0x1 PUSH1 0xA0 SHL SUB DUP7 DUP2 AND PUSH1 0x0 DUP2 DUP2 MSTORE PUSH1 0x9 PUSH1 0x20 SWAP1 DUP2 MSTORE PUSH1 0x40 DUP1 DUP4 KECCAK256 SWAP5 DUP8 AND DUP1 DUP5 MSTORE SWAP5 DUP3 MSTORE DUP1 DUP4 KECCAK256 SWAP6 SWAP1 SWAP6 SSTORE PUSH1 0x5 DUP2 MSTORE DUP5 DUP3 KECCAK256 PUSH1 0x1 ADD SLOAD SWAP3 DUP3 MSTORE PUSH1 0x8 DUP2 MSTORE DUP5 DUP3 KECCAK256 SWAP4 DUP3 MSTORE SWAP3 SWAP1 SWAP3 MSTORE SWAP2 SWAP1 KECCAK256 PUSH1 0x1 PUSH1 0x28 SHL SWAP1 SWAP2 DIV PUSH1 0x1 PUSH1 0x1 PUSH1 0xD0 SHL SUB AND SWAP1 SSTORE JUMPDEST POP PUSH1 0x1 ADD PUSH2 0x15C8 JUMP JUMPDEST POP POP POP PUSH1 0x1 PUSH1 0x1 PUSH1 0xA0 SHL SUB DUP4 AND PUSH1 0x0 SWAP1 DUP2 MSTORE PUSH1 0x7 PUSH1 0x20 SWAP1 DUP2 MSTORE PUSH1 0x40 DUP1 DUP4 KECCAK256 CALLER DUP5 MSTORE SWAP1 SWAP2 MSTORE SWAP1 KECCAK256 SLOAD PUSH1 0xFF AND PUSH2 0x179A JUMPI PUSH1 0x40 MLOAD PUSH3 0x461BCD PUSH1 0xE5 SHL DUP2 MSTORE PUSH1 0x4 ADD PUSH2 0xBEB SWAP1 PUSH2 0x3C57 JUMP JUMPDEST PUSH1 0x0 DUP3 GT PUSH2 0x17BA JUMPI PUSH1 0x40 MLOAD PUSH3 0x461BCD PUSH1 0xE5 SHL DUP2 MSTORE PUSH1 0x4 ADD PUSH2 0xBEB SWAP1 PUSH2 0x3C34 JUMP JUMPDEST PUSH2 0x17C4 DUP4 DUP4 PUSH2 0x2A96 JUMP JUMPDEST PUSH2 0x17D9 PUSH1 0x1 PUSH1 0x1 PUSH1 0xA0 SHL SUB DUP5 AND CALLER ADDRESS DUP6 PUSH2 0x2BC9 JUMP JUMPDEST DUP3 PUSH1 0x1 PUSH1 0x1 PUSH1 0xA0 SHL SUB AND PUSH32 0xAC24935FD910BC682B5CCB1A07B718CADF8CF2F6D1404C4F3DDC3662DAE40E29 DUP4 PUSH1 0x40 MLOAD PUSH2 0x1812 SWAP2 SWAP1 PUSH2 0x3FA8 JUMP JUMPDEST PUSH1 0x40 MLOAD DUP1 SWAP2 SUB SWAP1 LOG2 POP POP POP JUMP JUMPDEST PUSH1 0x1 PUSH1 0x1 PUSH1 0xA0 SHL SUB DUP2 AND PUSH1 0x0 SWAP1 DUP2 MSTORE PUSH1 0x5 PUSH1 0x20 MSTORE PUSH1 0x40 DUP2 KECCAK256 SLOAD PUSH2 0xB57 SWAP1 PUSH1 0x1 PUSH1 0x30 SHL SWAP1 DIV PUSH1 0x1 PUSH1 0x1 PUSH1 0xD0 SHL SUB AND PUSH3 0x93A80 PUSH2 0x2165 JUMP JUMPDEST PUSH1 0x16 SLOAD PUSH1 0xFF AND DUP2 JUMP JUMPDEST PUSH1 0x2 PUSH1 0x0 SLOAD EQ ISZERO PUSH2 0x1881 JUMPI PUSH1 0x40 MLOAD PUSH3 0x461BCD PUSH1 0xE5 SHL DUP2 MSTORE PUSH1 0x4 ADD PUSH2 0xBEB SWAP1 PUSH2 0x3E56 JUMP JUMPDEST PUSH1 0x2 PUSH1 0x0 SWAP1 DUP2 SSTORE PUSH1 0x1 PUSH1 0x1 PUSH1 0xA0 SHL SUB DUP3 AND DUP2 MSTORE PUSH1 0xD PUSH1 0x20 MSTORE PUSH1 0x40 DUP2 KECCAK256 DUP1 SLOAD DUP4 SWAP3 PUSH1 0x1 PUSH1 0x70 SHL SWAP1 SWAP2 DIV PUSH1 0x1 PUSH1 0x1 PUSH1 0x70 SHL SUB AND SWAP1 JUMPDEST PUSH1 0x4 SLOAD DUP2 LT ISZERO PUSH2 0x1A2F JUMPI PUSH1 0x0 PUSH1 0x4 DUP3 DUP2 SLOAD DUP2 LT PUSH2 0x18CD JUMPI INVALID JUMPDEST PUSH1 0x0 SWAP2 DUP3 MSTORE PUSH1 0x20 SWAP1 SWAP2 KECCAK256 ADD SLOAD PUSH1 0x1 PUSH1 0x1 PUSH1 0xA0 SHL SUB AND SWAP1 POP PUSH2 0x18F0 PUSH2 0x1604 DUP3 PUSH2 0x28BB JUMP JUMPDEST PUSH1 0x1 PUSH1 0x1 PUSH1 0xA0 SHL SUB DUP3 AND PUSH1 0x0 SWAP1 DUP2 MSTORE PUSH1 0x5 PUSH1 0x20 MSTORE PUSH1 0x40 SWAP1 KECCAK256 PUSH1 0x1 DUP2 ADD DUP1 SLOAD PUSH1 0x1 PUSH1 0x1 PUSH1 0xD0 SHL SUB SWAP4 SWAP1 SWAP4 AND PUSH1 0x1 PUSH1 0x28 SHL MUL PUSH1 0x1 PUSH1 0x28 SHL PUSH1 0x1 PUSH1 0xF8 SHL SUB NOT SWAP1 SWAP4 AND SWAP3 SWAP1 SWAP3 OR SWAP1 SWAP2 SSTORE SLOAD PUSH2 0x1951 SWAP1 PUSH2 0x166A SWAP1 PUSH5 0xFFFFFFFFFF PUSH2 0x100 SWAP1 SWAP2 DIV AND PUSH2 0x2791 JUMP JUMPDEST PUSH1 0x1 PUSH1 0x1 PUSH1 0xA0 SHL SUB DUP3 DUP2 AND PUSH1 0x0 SWAP1 DUP2 MSTORE PUSH1 0x5 PUSH1 0x20 MSTORE PUSH1 0x40 SWAP1 KECCAK256 PUSH1 0x1 ADD DUP1 SLOAD PUSH5 0xFFFFFFFFFF NOT AND PUSH5 0xFFFFFFFFFF SWAP4 SWAP1 SWAP4 AND SWAP3 SWAP1 SWAP3 OR SWAP1 SWAP2 SSTORE DUP6 AND ISZERO PUSH2 0x1A26 JUMPI PUSH1 0x1 PUSH1 0x1 PUSH1 0xA0 SHL SUB DUP2 AND PUSH1 0x0 SWAP1 DUP2 MSTORE PUSH1 0x5 PUSH1 0x20 MSTORE PUSH1 0x40 SWAP1 KECCAK256 SLOAD PUSH2 0x19C7 SWAP1 DUP7 SWAP1 DUP4 SWAP1 PUSH1 0xFF AND PUSH2 0x16E5 JUMPI DUP7 SLOAD PUSH1 0x1 PUSH1 0x1 PUSH1 0x70 SHL SUB AND PUSH2 0x16E7 JUMP JUMPDEST PUSH1 0x1 PUSH1 0x1 PUSH1 0xA0 SHL SUB DUP7 DUP2 AND PUSH1 0x0 DUP2 DUP2 MSTORE PUSH1 0x9 PUSH1 0x20 SWAP1 DUP2 MSTORE PUSH1 0x40 DUP1 DUP4 KECCAK256 SWAP5 DUP8 AND DUP1 DUP5 MSTORE SWAP5 DUP3 MSTORE DUP1 DUP4 KECCAK256 SWAP6 SWAP1 SWAP6 SSTORE PUSH1 0x5 DUP2 MSTORE DUP5 DUP3 KECCAK256 PUSH1 0x1 ADD SLOAD SWAP3 DUP3 MSTORE PUSH1 0x8 DUP2 MSTORE DUP5 DUP3 KECCAK256 SWAP4 DUP3 MSTORE SWAP3 SWAP1 SWAP3 MSTORE SWAP2 SWAP1 KECCAK256 PUSH1 0x1 PUSH1 0x28 SHL SWAP1 SWAP2 DIV PUSH1 0x1 PUSH1 0x1 PUSH1 0xD0 SHL SUB AND SWAP1 SSTORE JUMPDEST POP PUSH1 0x1 ADD PUSH2 0x18B4 JUMP JUMPDEST POP POP POP PUSH1 0x0 JUMPDEST PUSH1 0x4 SLOAD DUP2 LT ISZERO PUSH2 0x1164 JUMPI PUSH1 0x0 PUSH1 0x4 DUP3 DUP2 SLOAD DUP2 LT PUSH2 0x1A4E JUMPI INVALID JUMPDEST PUSH1 0x0 SWAP2 DUP3 MSTORE PUSH1 0x20 DUP1 DUP4 KECCAK256 SWAP1 SWAP2 ADD SLOAD PUSH1 0x1 PUSH1 0x1 PUSH1 0xA0 SHL SUB DUP8 DUP2 AND DUP5 MSTORE PUSH1 0x9 DUP4 MSTORE PUSH1 0x40 DUP1 DUP6 KECCAK256 SWAP2 SWAP1 SWAP3 AND DUP1 DUP6 MSTORE SWAP3 MSTORE SWAP1 SWAP2 KECCAK256 SLOAD SWAP1 SWAP2 POP DUP1 ISZERO PUSH2 0x1B97 JUMPI PUSH1 0x1 PUSH1 0x1 PUSH1 0xA0 SHL SUB DUP1 DUP7 AND PUSH1 0x0 SWAP1 DUP2 MSTORE PUSH1 0x9 PUSH1 0x20 SWAP1 DUP2 MSTORE PUSH1 0x40 DUP1 DUP4 KECCAK256 SWAP4 DUP7 AND DUP4 MSTORE SWAP3 SWAP1 MSTORE SWAP1 DUP2 KECCAK256 DUP2 SWAP1 SSTORE PUSH2 0x1ABD DUP3 PUSH1 0xA PUSH2 0x2133 JUMP JUMPDEST SWAP1 POP PUSH1 0x0 PUSH2 0x1ACC DUP3 PUSH1 0x9 PUSH2 0x2165 JUMP JUMPDEST SWAP1 POP PUSH2 0x1AE2 PUSH1 0x1 PUSH1 0x1 PUSH1 0xA0 SHL SUB DUP6 AND DUP9 DUP5 PUSH2 0x289C JUMP JUMPDEST PUSH1 0x3 SLOAD PUSH1 0x6 SLOAD PUSH1 0x40 MLOAD PUSH4 0xE2AB691D PUSH1 0xE0 SHL DUP2 MSTORE PUSH1 0x1 PUSH1 0x1 PUSH1 0xA0 SHL SUB SWAP1 SWAP3 AND SWAP2 PUSH4 0xE2AB691D SWAP2 PUSH2 0x1B17 SWAP2 DUP12 SWAP2 DUP7 SWAP2 PUSH1 0x4 ADD PUSH2 0x390B JUMP JUMPDEST PUSH1 0x0 PUSH1 0x40 MLOAD DUP1 DUP4 SUB DUP2 PUSH1 0x0 DUP8 DUP1 EXTCODESIZE ISZERO DUP1 ISZERO PUSH2 0x1B31 JUMPI PUSH1 0x0 DUP1 REVERT JUMPDEST POP GAS CALL ISZERO DUP1 ISZERO PUSH2 0x1B45 JUMPI RETURNDATASIZE PUSH1 0x0 DUP1 RETURNDATACOPY RETURNDATASIZE PUSH1 0x0 REVERT JUMPDEST POP POP POP POP DUP4 PUSH1 0x1 PUSH1 0x1 PUSH1 0xA0 SHL SUB AND DUP8 PUSH1 0x1 PUSH1 0x1 PUSH1 0xA0 SHL SUB AND PUSH32 0x540798DF468D7B23D11F156FDB954CB19AD414D150722A7B6D55BA369DEA792E DUP6 PUSH1 0x40 MLOAD PUSH2 0x1B8C SWAP2 SWAP1 PUSH2 0x3FA8 JUMP JUMPDEST PUSH1 0x40 MLOAD DUP1 SWAP2 SUB SWAP1 LOG3 POP POP JUMPDEST POP POP PUSH1 0x1 ADD PUSH2 0x1A35 JUMP JUMPDEST PUSH2 0x127C PUSH2 0x2BF0 JUMP JUMPDEST PUSH1 0xC DUP2 DUP2 SLOAD DUP2 LT PUSH2 0x1BB6 JUMPI INVALID JUMPDEST PUSH1 0x0 SWAP2 DUP3 MSTORE PUSH1 0x20 SWAP1 SWAP2 KECCAK256 ADD SLOAD PUSH1 0x1 PUSH1 0x1 PUSH1 0xE0 SHL SUB DUP2 AND SWAP2 POP PUSH1 0x1 PUSH1 0xE0 SHL SWAP1 DIV PUSH4 0xFFFFFFFF AND DUP3 JUMP JUMPDEST PUSH1 0xA SLOAD DUP2 JUMP JUMPDEST PUSH2 0x1BEC PUSH2 0x278D JUMP JUMPDEST PUSH1 0x1 PUSH1 0x1 PUSH1 0xA0 SHL SUB AND PUSH2 0x1BFD PUSH2 0x13D5 JUMP JUMPDEST PUSH1 0x1 PUSH1 0x1 PUSH1 0xA0 SHL SUB AND EQ PUSH2 0x1C23 JUMPI PUSH1 0x40 MLOAD PUSH3 0x461BCD PUSH1 0xE5 SHL DUP2 MSTORE PUSH1 0x4 ADD PUSH2 0xBEB SWAP1 PUSH2 0x3C7F JUMP JUMPDEST PUSH1 0x1 PUSH1 0x1 PUSH1 0xA0 SHL SUB DUP4 AND PUSH1 0x0 SWAP1 DUP2 MSTORE PUSH1 0x5 PUSH1 0x20 MSTORE PUSH1 0x40 SWAP1 KECCAK256 PUSH1 0x1 ADD SLOAD PUSH5 0xFFFFFFFFFF AND ISZERO PUSH2 0x1C50 JUMPI PUSH1 0x0 DUP1 REVERT JUMPDEST PUSH1 0x4 DUP1 SLOAD PUSH1 0x1 DUP1 DUP3 ADD SWAP1 SWAP3 SSTORE PUSH32 0x8A35ACFBC15FF81A39AE7D344FD709F28E8600B4AA8C65C6B64BFE7FE36BD19B ADD DUP1 SLOAD PUSH1 0x1 PUSH1 0x1 PUSH1 0xA0 SHL SUB NOT AND PUSH1 0x1 PUSH1 0x1 PUSH1 0xA0 SHL SUB SWAP6 DUP7 AND SWAP1 DUP2 OR SWAP1 SWAP2 SSTORE PUSH1 0x0 SWAP1 DUP2 MSTORE PUSH1 0x5 PUSH1 0x20 SWAP1 DUP2 MSTORE PUSH1 0x40 DUP1 DUP4 KECCAK256 DUP1 DUP6 ADD DUP1 SLOAD PUSH5 0xFFFFFFFFFF NOT AND TIMESTAMP PUSH5 0xFFFFFFFFFF AND SWAP1 DUP2 OR SWAP1 SWAP2 SSTORE DUP2 SLOAD PUSH6 0xFFFFFFFFFF00 NOT AND PUSH2 0x100 SWAP1 SWAP2 MUL OR PUSH1 0xFF NOT SWAP1 DUP2 AND SWAP7 ISZERO ISZERO SWAP7 SWAP1 SWAP7 OR SWAP1 SSTORE PUSH1 0x7 DUP3 MSTORE DUP1 DUP4 KECCAK256 SWAP6 SWAP1 SWAP7 AND DUP3 MSTORE SWAP4 SWAP1 SWAP4 MSTORE SWAP3 SWAP1 SWAP2 KECCAK256 DUP1 SLOAD SWAP1 SWAP2 AND SWAP1 SWAP2 OR SWAP1 SSTORE JUMP JUMPDEST PUSH1 0x4 SLOAD PUSH1 0x60 SWAP1 PUSH8 0xFFFFFFFFFFFFFFFF DUP2 GT DUP1 ISZERO PUSH2 0x1D25 JUMPI PUSH1 0x0 DUP1 REVERT JUMPDEST POP PUSH1 0x40 MLOAD SWAP1 DUP1 DUP3 MSTORE DUP1 PUSH1 0x20 MUL PUSH1 0x20 ADD DUP3 ADD PUSH1 0x40 MSTORE DUP1 ISZERO PUSH2 0x1D5F JUMPI DUP2 PUSH1 0x20 ADD JUMPDEST PUSH2 0x1D4C PUSH2 0x3649 JUMP JUMPDEST DUP2 MSTORE PUSH1 0x20 ADD SWAP1 PUSH1 0x1 SWAP1 SUB SWAP1 DUP2 PUSH2 0x1D44 JUMPI SWAP1 POP JUMPDEST POP PUSH1 0x1 PUSH1 0x1 PUSH1 0xA0 SHL SUB DUP4 AND PUSH1 0x0 SWAP1 DUP2 MSTORE PUSH1 0xD PUSH1 0x20 MSTORE PUSH1 0x40 DUP2 KECCAK256 DUP1 SLOAD SWAP3 SWAP4 POP SWAP2 PUSH1 0x1 PUSH1 0x70 SHL SWAP1 DIV PUSH1 0x1 PUSH1 0x1 PUSH1 0x70 SHL SUB AND SWAP1 JUMPDEST DUP4 MLOAD DUP2 LT ISZERO PUSH2 0x1E42 JUMPI PUSH1 0x0 PUSH1 0x4 DUP3 DUP2 SLOAD DUP2 LT PUSH2 0x1DA8 JUMPI INVALID JUMPDEST SWAP1 PUSH1 0x0 MSTORE PUSH1 0x20 PUSH1 0x0 KECCAK256 ADD PUSH1 0x0 SWAP1 SLOAD SWAP1 PUSH2 0x100 EXP SWAP1 DIV PUSH1 0x1 PUSH1 0x1 PUSH1 0xA0 SHL SUB AND SWAP1 POP DUP1 DUP6 DUP4 DUP2 MLOAD DUP2 LT PUSH2 0x1DD5 JUMPI INVALID JUMPDEST PUSH1 0x20 SWAP1 DUP2 MUL SWAP2 SWAP1 SWAP2 ADD DUP2 ADD MLOAD PUSH1 0x1 PUSH1 0x1 PUSH1 0xA0 SHL SUB SWAP3 DUP4 AND SWAP1 MSTORE SWAP1 DUP3 AND PUSH1 0x0 SWAP1 DUP2 MSTORE PUSH1 0x5 SWAP1 SWAP2 MSTORE PUSH1 0x40 SWAP1 KECCAK256 SLOAD PUSH2 0x1E1F SWAP1 DUP8 SWAP1 DUP4 SWAP1 PUSH1 0xFF AND PUSH2 0x16E5 JUMPI DUP7 SLOAD PUSH1 0x1 PUSH1 0x1 PUSH1 0x70 SHL SUB AND PUSH2 0x16E7 JUMP JUMPDEST DUP6 DUP4 DUP2 MLOAD DUP2 LT PUSH2 0x1E2B JUMPI INVALID JUMPDEST PUSH1 0x20 SWAP1 DUP2 MUL SWAP2 SWAP1 SWAP2 ADD DUP2 ADD MLOAD ADD MSTORE POP PUSH1 0x1 ADD PUSH2 0x1D90 JUMP JUMPDEST POP POP POP SWAP2 SWAP1 POP JUMP JUMPDEST PUSH1 0x2 PUSH1 0x0 SLOAD EQ ISZERO PUSH2 0x1E6D JUMPI PUSH1 0x40 MLOAD PUSH3 0x461BCD PUSH1 0xE5 SHL DUP2 MSTORE PUSH1 0x4 ADD PUSH2 0xBEB SWAP1 PUSH2 0x3E56 JUMP JUMPDEST PUSH1 0x2 PUSH1 0x0 DUP2 SWAP1 SSTORE SLOAD PUSH2 0x1E8A SWAP1 PUSH1 0x1 PUSH1 0x1 PUSH1 0xA0 SHL SUB AND CALLER ADDRESS DUP6 PUSH2 0x2BC9 JUMP JUMPDEST PUSH2 0x1164 DUP4 DUP4 DUP4 PUSH2 0x2D58 JUMP JUMPDEST PUSH1 0x15 SLOAD DUP2 JUMP JUMPDEST PUSH2 0x1EA3 PUSH2 0x278D JUMP JUMPDEST PUSH1 0x1 PUSH1 0x1 PUSH1 0xA0 SHL SUB AND PUSH2 0x1EB4 PUSH2 0x13D5 JUMP JUMPDEST PUSH1 0x1 PUSH1 0x1 PUSH1 0xA0 SHL SUB AND EQ PUSH2 0x1EDA JUMPI PUSH1 0x40 MLOAD PUSH3 0x461BCD PUSH1 0xE5 SHL DUP2 MSTORE PUSH1 0x4 ADD PUSH2 0xBEB SWAP1 PUSH2 0x3C7F JUMP JUMPDEST PUSH1 0x3 SLOAD PUSH1 0x40 MLOAD PUSH32 0xEE4EC82B92F0E1FE230E6604A4752FA407A28069F106DC41E53EDC28C4BC504E SWAP2 PUSH2 0x1F19 SWAP2 PUSH1 0x1 PUSH1 0x1 PUSH1 0xA0 SHL SUB SWAP1 SWAP2 AND SWAP1 DUP5 SWAP1 PUSH2 0x38B4 JUMP JUMPDEST PUSH1 0x40 MLOAD DUP1 SWAP2 SUB SWAP1 LOG1 PUSH1 0x3 DUP1 SLOAD PUSH1 0x1 PUSH1 0x1 PUSH1 0xA0 SHL SUB NOT AND PUSH1 0x1 PUSH1 0x1 PUSH1 0xA0 SHL SUB SWAP3 SWAP1 SWAP3 AND SWAP2 SWAP1 SWAP2 OR SWAP1 SSTORE JUMP JUMPDEST PUSH1 0x9 PUSH1 0x20 SWAP1 DUP2 MSTORE PUSH1 0x0 SWAP3 DUP4 MSTORE PUSH1 0x40 DUP1 DUP5 KECCAK256 SWAP1 SWAP2 MSTORE SWAP1 DUP3 MSTORE SWAP1 KECCAK256 SLOAD DUP2 JUMP JUMPDEST PUSH1 0x0 PUSH2 0xB57 DUP3 PUSH2 0x28BB JUMP JUMPDEST PUSH1 0x3 SLOAD PUSH1 0x1 PUSH1 0x1 PUSH1 0xA0 SHL SUB AND DUP2 JUMP JUMPDEST PUSH2 0x1F82 PUSH2 0x278D JUMP JUMPDEST PUSH1 0x1 PUSH1 0x1 PUSH1 0xA0 SHL SUB AND PUSH2 0x1F93 PUSH2 0x13D5 JUMP JUMPDEST PUSH1 0x1 PUSH1 0x1 PUSH1 0xA0 SHL SUB AND EQ PUSH2 0x1FB9 JUMPI PUSH1 0x40 MLOAD PUSH3 0x461BCD PUSH1 0xE5 SHL DUP2 MSTORE PUSH1 0x4 ADD PUSH2 0xBEB SWAP1 PUSH2 0x3C7F JUMP JUMPDEST PUSH1 0x1 PUSH1 0x1 PUSH1 0xA0 SHL SUB DUP2 AND PUSH2 0x1FDF JUMPI PUSH1 0x40 MLOAD PUSH3 0x461BCD PUSH1 0xE5 SHL DUP2 MSTORE PUSH1 0x4 ADD PUSH2 0xBEB SWAP1 PUSH2 0x3A95 JUMP JUMPDEST PUSH1 0x1 SLOAD PUSH1 0x40 MLOAD PUSH1 0x1 PUSH1 0x1 PUSH1 0xA0 SHL SUB DUP1 DUP5 AND SWAP3 AND SWAP1 PUSH32 0x8BE0079C531659141344CD1FD0A4F28419497F9722A3DAAFE3B4186F6B6457E0 SWAP1 PUSH1 0x0 SWAP1 LOG3 PUSH1 0x1 DUP1 SLOAD PUSH1 0x1 PUSH1 0x1 PUSH1 0xA0 SHL SUB NOT AND PUSH1 0x1 PUSH1 0x1 PUSH1 0xA0 SHL SUB SWAP3 SWAP1 SWAP3 AND SWAP2 SWAP1 SWAP2 OR SWAP1 SSTORE JUMP JUMPDEST PUSH1 0xC SLOAD PUSH1 0x0 SWAP1 PUSH1 0x0 NOT ADD DUP2 PUSH2 0x2057 PUSH3 0x93A80 PUSH2 0x96F DUP7 DUP3 PUSH2 0x2133 JUMP JUMPDEST SWAP4 POP PUSH1 0x0 JUMPDEST PUSH1 0x80 DUP2 LT ISZERO PUSH2 0x20DD JUMPI DUP3 DUP3 LT PUSH2 0x2071 JUMPI PUSH2 0x20DD JUMP JUMPDEST PUSH1 0x0 PUSH1 0x2 PUSH1 0x1 DUP5 DUP7 ADD ADD DIV SWAP1 POP PUSH1 0x0 PUSH1 0xC DUP3 DUP2 SLOAD DUP2 LT PUSH2 0x208D JUMPI INVALID JUMPDEST PUSH1 0x0 SWAP2 DUP3 MSTORE PUSH1 0x20 SWAP1 SWAP2 KECCAK256 ADD SLOAD PUSH1 0x1 PUSH1 0xE0 SHL SWAP1 DIV PUSH4 0xFFFFFFFF AND SWAP1 POP DUP7 DUP2 EQ ISZERO PUSH2 0x20BC JUMPI POP SWAP4 POP PUSH2 0xBC3 SWAP3 POP POP POP JUMP JUMPDEST DUP7 DUP2 LT ISZERO PUSH2 0x20CC JUMPI DUP2 SWAP4 POP PUSH2 0x20D3 JUMP JUMPDEST PUSH1 0x1 DUP3 SUB SWAP5 POP JUMPDEST POP POP PUSH1 0x1 ADD PUSH2 0x205C JUMP JUMPDEST POP SWAP4 SWAP3 POP POP POP JUMP JUMPDEST PUSH2 0x20ED PUSH2 0x278D JUMP JUMPDEST PUSH1 0x1 PUSH1 0x1 PUSH1 0xA0 SHL SUB AND PUSH2 0x20FE PUSH2 0x13D5 JUMP JUMPDEST PUSH1 0x1 PUSH1 0x1 PUSH1 0xA0 SHL SUB AND EQ PUSH2 0x2124 JUMPI PUSH1 0x40 MLOAD PUSH3 0x461BCD PUSH1 0xE5 SHL DUP2 MSTORE PUSH1 0x4 ADD PUSH2 0xBEB SWAP1 PUSH2 0x3C7F JUMP JUMPDEST PUSH1 0x16 DUP1 SLOAD PUSH1 0xFF NOT AND PUSH1 0x1 OR SWAP1 SSTORE JUMP JUMPDEST PUSH1 0x0 DUP1 DUP3 GT PUSH2 0x2154 JUMPI PUSH1 0x40 MLOAD PUSH3 0x461BCD PUSH1 0xE5 SHL DUP2 MSTORE PUSH1 0x4 ADD PUSH2 0xBEB SWAP1 PUSH2 0x3A5E JUMP JUMPDEST DUP2 DUP4 DUP2 PUSH2 0x215D JUMPI INVALID JUMPDEST DIV SWAP4 SWAP3 POP POP POP JUMP JUMPDEST PUSH1 0x0 DUP2 ISZERO DUP1 PUSH2 0x2180 JUMPI POP POP DUP1 DUP3 MUL DUP3 DUP3 DUP3 DUP2 PUSH2 0x217D JUMPI INVALID JUMPDEST DIV EQ JUMPDEST PUSH2 0xB57 JUMPI PUSH1 0x40 MLOAD PUSH3 0x461BCD PUSH1 0xE5 SHL DUP2 MSTORE PUSH1 0x4 ADD PUSH2 0xBEB SWAP1 PUSH2 0x3EE3 JUMP JUMPDEST DUP2 DUP2 ADD DUP2 DUP2 LT ISZERO PUSH2 0xB57 JUMPI PUSH1 0x40 MLOAD PUSH3 0x461BCD PUSH1 0xE5 SHL DUP2 MSTORE PUSH1 0x4 ADD PUSH2 0xBEB SWAP1 PUSH2 0x3BCB JUMP JUMPDEST DUP1 DUP3 SUB DUP3 DUP2 GT ISZERO PUSH2 0xB57 JUMPI PUSH1 0x40 MLOAD PUSH3 0x461BCD PUSH1 0xE5 SHL DUP2 MSTORE PUSH1 0x4 ADD PUSH2 0xBEB SWAP1 PUSH2 0x39F8 JUMP JUMPDEST PUSH1 0x1 PUSH1 0x1 PUSH1 0xA0 SHL SUB DUP7 AND PUSH1 0x0 SWAP1 DUP2 MSTORE PUSH1 0xD PUSH1 0x20 MSTORE PUSH1 0x40 DUP2 KECCAK256 DUP1 SLOAD DUP9 SWAP3 PUSH1 0x1 PUSH1 0x70 SHL SWAP1 SWAP2 DIV PUSH1 0x1 PUSH1 0x1 PUSH1 0x70 SHL SUB AND SWAP1 JUMPDEST PUSH1 0x4 SLOAD DUP2 LT ISZERO PUSH2 0x238C JUMPI PUSH1 0x0 PUSH1 0x4 DUP3 DUP2 SLOAD DUP2 LT PUSH2 0x222A JUMPI INVALID JUMPDEST PUSH1 0x0 SWAP2 DUP3 MSTORE PUSH1 0x20 SWAP1 SWAP2 KECCAK256 ADD SLOAD PUSH1 0x1 PUSH1 0x1 PUSH1 0xA0 SHL SUB AND SWAP1 POP PUSH2 0x224D PUSH2 0x1604 DUP3 PUSH2 0x28BB JUMP JUMPDEST PUSH1 0x1 PUSH1 0x1 PUSH1 0xA0 SHL SUB DUP3 AND PUSH1 0x0 SWAP1 DUP2 MSTORE PUSH1 0x5 PUSH1 0x20 MSTORE PUSH1 0x40 SWAP1 KECCAK256 PUSH1 0x1 DUP2 ADD DUP1 SLOAD PUSH1 0x1 PUSH1 0x1 PUSH1 0xD0 SHL SUB SWAP4 SWAP1 SWAP4 AND PUSH1 0x1 PUSH1 0x28 SHL MUL PUSH1 0x1 PUSH1 0x28 SHL PUSH1 0x1 PUSH1 0xF8 SHL SUB NOT SWAP1 SWAP4 AND SWAP3 SWAP1 SWAP3 OR SWAP1 SWAP2 SSTORE SLOAD PUSH2 0x22AE SWAP1 PUSH2 0x166A SWAP1 PUSH5 0xFFFFFFFFFF PUSH2 0x100 SWAP1 SWAP2 DIV AND PUSH2 0x2791 JUMP JUMPDEST PUSH1 0x1 PUSH1 0x1 PUSH1 0xA0 SHL SUB DUP3 DUP2 AND PUSH1 0x0 SWAP1 DUP2 MSTORE PUSH1 0x5 PUSH1 0x20 MSTORE PUSH1 0x40 SWAP1 KECCAK256 PUSH1 0x1 ADD DUP1 SLOAD PUSH5 0xFFFFFFFFFF NOT AND PUSH5 0xFFFFFFFFFF SWAP4 SWAP1 SWAP4 AND SWAP3 SWAP1 SWAP3 OR SWAP1 SWAP2 SSTORE DUP6 AND ISZERO PUSH2 0x2383 JUMPI PUSH1 0x1 PUSH1 0x1 PUSH1 0xA0 SHL SUB DUP2 AND PUSH1 0x0 SWAP1 DUP2 MSTORE PUSH1 0x5 PUSH1 0x20 MSTORE PUSH1 0x40 SWAP1 KECCAK256 SLOAD PUSH2 0x2324 SWAP1 DUP7 SWAP1 DUP4 SWAP1 PUSH1 0xFF AND PUSH2 0x16E5 JUMPI DUP7 SLOAD PUSH1 0x1 PUSH1 0x1 PUSH1 0x70 SHL SUB AND PUSH2 0x16E7 JUMP JUMPDEST PUSH1 0x1 PUSH1 0x1 PUSH1 0xA0 SHL SUB DUP7 DUP2 AND PUSH1 0x0 DUP2 DUP2 MSTORE PUSH1 0x9 PUSH1 0x20 SWAP1 DUP2 MSTORE PUSH1 0x40 DUP1 DUP4 KECCAK256 SWAP5 DUP8 AND DUP1 DUP5 MSTORE SWAP5 DUP3 MSTORE DUP1 DUP4 KECCAK256 SWAP6 SWAP1 SWAP6 SSTORE PUSH1 0x5 DUP2 MSTORE DUP5 DUP3 KECCAK256 PUSH1 0x1 ADD SLOAD SWAP3 DUP3 MSTORE PUSH1 0x8 DUP2 MSTORE DUP5 DUP3 KECCAK256 SWAP4 DUP3 MSTORE SWAP3 SWAP1 SWAP3 MSTORE SWAP2 SWAP1 KECCAK256 PUSH1 0x1 PUSH1 0x28 SHL SWAP1 SWAP2 DIV PUSH1 0x1 PUSH1 0x1 PUSH1 0xD0 SHL SUB AND SWAP1 SSTORE JUMPDEST POP PUSH1 0x1 ADD PUSH2 0x2211 JUMP JUMPDEST POP POP POP PUSH1 0x1 PUSH1 0x1 PUSH1 0xA0 SHL SUB DUP8 AND PUSH1 0x0 SWAP1 DUP2 MSTORE PUSH1 0xE PUSH1 0x20 SWAP1 DUP2 MSTORE PUSH1 0x40 DUP1 DUP4 KECCAK256 PUSH1 0xD SWAP1 SWAP3 MSTORE DUP3 KECCAK256 DUP2 SLOAD PUSH1 0x16 SLOAD SWAP3 SWAP4 SWAP2 SWAP3 DUP3 SWAP2 SWAP1 DUP3 SWAP1 PUSH1 0xFF AND DUP1 PUSH2 0x23FD JUMPI POP PUSH2 0x23D2 TIMESTAMP DUP10 PUSH2 0x21BF JUMP JUMPDEST DUP7 PUSH1 0x1 DUP5 SUB DUP2 SLOAD DUP2 LT PUSH2 0x23E1 JUMPI INVALID JUMPDEST PUSH1 0x0 SWAP2 DUP3 MSTORE PUSH1 0x20 SWAP1 SWAP2 KECCAK256 ADD SLOAD PUSH1 0x1 PUSH1 0xE0 SHL SWAP1 DIV PUSH4 0xFFFFFFFF AND GT ISZERO JUMPDEST ISZERO PUSH2 0x2474 JUMPI DUP5 SLOAD PUSH1 0x1 PUSH1 0x1 PUSH1 0x70 SHL SUB DUP1 DUP3 AND SWAP6 POP PUSH1 0x1 PUSH1 0x70 SHL SWAP1 SWAP2 DIV AND SWAP3 POP PUSH2 0x2425 DUP3 PUSH2 0x3329 JUMP JUMPDEST DUP6 SLOAD PUSH4 0xFFFFFFFF SWAP2 SWAP1 SWAP2 AND PUSH1 0x1 PUSH1 0xE0 SHL MUL PUSH1 0x1 PUSH1 0x1 PUSH1 0xE0 SHL SUB SWAP1 SWAP2 AND OR DUP6 SSTORE DUP8 ISZERO PUSH2 0x246F JUMPI PUSH2 0x246C DUP9 DUP8 PUSH1 0x1 DUP6 SUB DUP2 SLOAD DUP2 LT PUSH2 0x245D JUMPI INVALID JUMPDEST SWAP1 PUSH1 0x0 MSTORE PUSH1 0x20 PUSH1 0x0 KECCAK256 ADD PUSH2 0x334F JUMP JUMPDEST SWAP1 POP JUMPDEST PUSH2 0x257B JUMP JUMPDEST DUP5 SLOAD PUSH1 0x1 PUSH1 0xE0 SHL SWAP1 DIV PUSH4 0xFFFFFFFF AND DUP1 JUMPDEST DUP4 DUP2 LT ISZERO PUSH2 0x255B JUMPI PUSH2 0x2497 TIMESTAMP DUP12 PUSH2 0x21BF JUMP JUMPDEST DUP9 DUP3 DUP2 SLOAD DUP2 LT PUSH2 0x24A3 JUMPI INVALID JUMPDEST PUSH1 0x0 SWAP2 DUP3 MSTORE PUSH1 0x20 SWAP1 SWAP2 KECCAK256 ADD SLOAD PUSH1 0x1 PUSH1 0xE0 SHL SWAP1 DIV PUSH4 0xFFFFFFFF AND GT ISZERO PUSH2 0x24C7 JUMPI PUSH2 0x255B JUMP JUMPDEST PUSH2 0x24F4 DUP9 DUP3 DUP2 SLOAD DUP2 LT PUSH2 0x24D6 JUMPI INVALID JUMPDEST PUSH1 0x0 SWAP2 DUP3 MSTORE PUSH1 0x20 SWAP1 SWAP2 KECCAK256 ADD SLOAD PUSH1 0x1 PUSH1 0x1 PUSH1 0x70 SHL SUB DUP9 DUP2 AND SWAP2 AND PUSH2 0x33E5 JUMP JUMPDEST SWAP6 POP PUSH2 0x252A DUP9 DUP3 DUP2 SLOAD DUP2 LT PUSH2 0x2505 JUMPI INVALID JUMPDEST PUSH1 0x0 SWAP2 DUP3 MSTORE PUSH1 0x20 SWAP1 SWAP2 KECCAK256 ADD SLOAD PUSH1 0x1 PUSH1 0x1 PUSH1 0x70 SHL SUB DUP8 DUP2 AND SWAP2 PUSH1 0x1 PUSH1 0x70 SHL SWAP1 DIV AND PUSH2 0x33E5 JUMP JUMPDEST SWAP5 POP DUP10 ISZERO PUSH2 0x254F JUMPI PUSH2 0x254C PUSH2 0x2545 DUP12 DUP11 DUP5 DUP2 SLOAD DUP2 LT PUSH2 0x245D JUMPI INVALID JUMPDEST DUP5 SWAP1 PUSH2 0x219C JUMP JUMPDEST SWAP3 POP JUMPDEST PUSH1 0x1 SWAP2 DUP3 ADD SWAP2 ADD PUSH2 0x2485 JUMP JUMPDEST POP DUP6 SLOAD PUSH4 0xFFFFFFFF SWAP1 SWAP2 AND PUSH1 0x1 PUSH1 0xE0 SHL MUL PUSH1 0x1 PUSH1 0x1 PUSH1 0xE0 SHL SUB SWAP1 SWAP2 AND OR DUP6 SSTORE JUMPDEST PUSH1 0x0 DUP5 PUSH1 0x1 PUSH1 0x1 PUSH1 0x70 SHL SUB AND GT PUSH2 0x25A4 JUMPI PUSH1 0x40 MLOAD PUSH3 0x461BCD PUSH1 0xE5 SHL DUP2 MSTORE PUSH1 0x4 ADD PUSH2 0xBEB SWAP1 PUSH2 0x3B7C JUMP JUMPDEST DUP5 SLOAD PUSH2 0x25B9 SWAP1 PUSH1 0x1 PUSH1 0x1 PUSH1 0x70 SHL SUB AND DUP6 PUSH2 0x3414 JUMP JUMPDEST DUP6 SLOAD PUSH1 0x1 PUSH1 0x1 PUSH1 0x70 SHL SUB NOT AND PUSH1 0x1 PUSH1 0x1 PUSH1 0x70 SHL SUB SWAP2 DUP3 AND OR DUP1 DUP8 SSTORE PUSH2 0x25E7 SWAP2 PUSH1 0x1 PUSH1 0x70 SHL SWAP1 SWAP2 DIV AND DUP5 PUSH2 0x3414 JUMP JUMPDEST DUP6 SLOAD PUSH1 0x1 PUSH1 0x70 SHL PUSH1 0x1 PUSH1 0xE0 SHL SUB NOT AND PUSH1 0x1 PUSH1 0x70 SHL PUSH1 0x1 PUSH1 0x1 PUSH1 0x70 SHL SUB SWAP3 DUP4 AND MUL OR DUP7 SSTORE PUSH1 0xA SLOAD PUSH2 0x2618 SWAP2 DUP7 AND PUSH2 0x21BF JUMP JUMPDEST PUSH1 0xA SSTORE PUSH1 0xB SLOAD PUSH2 0x2631 SWAP1 PUSH1 0x1 PUSH1 0x1 PUSH1 0x70 SHL SUB DUP6 AND PUSH2 0x21BF JUMP JUMPDEST PUSH1 0xB SSTORE DUP1 ISZERO PUSH2 0x26BC JUMPI PUSH2 0x2656 PUSH2 0x2646 DUP3 PUSH2 0x3443 JUMP JUMPDEST PUSH1 0x1 PUSH1 0x1 PUSH1 0x70 SHL SUB DUP7 AND SWAP1 PUSH2 0x3414 JUMP JUMPDEST PUSH1 0x2 SLOAD SWAP1 SWAP5 POP PUSH2 0x2670 SWAP1 PUSH1 0x1 PUSH1 0x1 PUSH1 0xA0 SHL SUB AND DUP11 DUP4 PUSH2 0x289C JUMP JUMPDEST DUP13 PUSH1 0x1 PUSH1 0x1 PUSH1 0xA0 SHL SUB AND DUP10 PUSH1 0x1 PUSH1 0x1 PUSH1 0xA0 SHL SUB AND PUSH32 0x7E7FF29ED04CFB223BC9B02606F69520517C117EE82C9158ED2D96323C1EF385 DUP4 PUSH1 0x40 MLOAD PUSH2 0x26B3 SWAP2 SWAP1 PUSH2 0x3FA8 JUMP JUMPDEST PUSH1 0x40 MLOAD DUP1 SWAP2 SUB SWAP1 LOG3 JUMPDEST DUP12 ISZERO PUSH2 0x271C JUMPI PUSH2 0x26D6 DUP11 DUP6 PUSH1 0x1 PUSH1 0x1 PUSH1 0x70 SHL SUB AND DUP14 PUSH2 0x2D58 JUMP JUMPDEST DUP13 PUSH1 0x1 PUSH1 0x1 PUSH1 0xA0 SHL SUB AND PUSH32 0xE2D155D9D74DECC198A9A9B4F5BDDB24EE0842EE745C9CE57E3573B971E50D9D DUP6 PUSH1 0x40 MLOAD PUSH2 0x270F SWAP2 SWAP1 PUSH2 0x3F4C JUMP JUMPDEST PUSH1 0x40 MLOAD DUP1 SWAP2 SUB SWAP1 LOG2 PUSH2 0x277E JUMP JUMPDEST PUSH1 0x2 SLOAD PUSH2 0x273C SWAP1 PUSH1 0x1 PUSH1 0x1 PUSH1 0xA0 SHL SUB AND DUP12 PUSH1 0x1 PUSH1 0x1 PUSH1 0x70 SHL SUB DUP8 AND PUSH2 0x289C JUMP JUMPDEST DUP13 PUSH1 0x1 PUSH1 0x1 PUSH1 0xA0 SHL SUB AND PUSH32 0x7084F5476618D8E60B11EF0D7D3F06914655ADB8793E28FF7F018D4C76D505D5 DUP6 PUSH1 0x40 MLOAD PUSH2 0x2775 SWAP2 SWAP1 PUSH2 0x3F4C JUMP JUMPDEST PUSH1 0x40 MLOAD DUP1 SWAP2 SUB SWAP1 LOG2 JUMPDEST POP POP POP POP POP POP POP POP POP POP POP POP POP JUMP JUMPDEST CALLER SWAP1 JUMP JUMPDEST PUSH1 0x0 PUSH2 0xB57 TIMESTAMP DUP4 PUSH2 0x346C JUMP JUMPDEST DUP1 ISZERO DUP1 PUSH2 0x2825 JUMPI POP PUSH1 0x40 MLOAD PUSH4 0x6EB1769F PUSH1 0xE1 SHL DUP2 MSTORE PUSH1 0x1 PUSH1 0x1 PUSH1 0xA0 SHL SUB DUP5 AND SWAP1 PUSH4 0xDD62ED3E SWAP1 PUSH2 0x27D3 SWAP1 ADDRESS SWAP1 DUP7 SWAP1 PUSH1 0x4 ADD PUSH2 0x38B4 JUMP JUMPDEST PUSH1 0x20 PUSH1 0x40 MLOAD DUP1 DUP4 SUB DUP2 DUP7 DUP1 EXTCODESIZE ISZERO DUP1 ISZERO PUSH2 0x27EB JUMPI PUSH1 0x0 DUP1 REVERT JUMPDEST POP GAS STATICCALL ISZERO DUP1 ISZERO PUSH2 0x27FF JUMPI RETURNDATASIZE PUSH1 0x0 DUP1 RETURNDATACOPY RETURNDATASIZE PUSH1 0x0 REVERT JUMPDEST POP POP POP POP PUSH1 0x40 MLOAD RETURNDATASIZE PUSH1 0x1F NOT PUSH1 0x1F DUP3 ADD AND DUP3 ADD DUP1 PUSH1 0x40 MSTORE POP DUP2 ADD SWAP1 PUSH2 0x2823 SWAP2 SWAP1 PUSH2 0x37FB JUMP JUMPDEST ISZERO JUMPDEST PUSH2 0x2841 JUMPI PUSH1 0x40 MLOAD PUSH3 0x461BCD PUSH1 0xE5 SHL DUP2 MSTORE PUSH1 0x4 ADD PUSH2 0xBEB SWAP1 PUSH2 0x3E8D JUMP JUMPDEST PUSH2 0x2897 DUP4 PUSH4 0x95EA7B3 PUSH1 0xE0 SHL DUP5 DUP5 PUSH1 0x40 MLOAD PUSH1 0x24 ADD PUSH2 0x2860 SWAP3 SWAP2 SWAP1 PUSH2 0x38F2 JUMP JUMPDEST PUSH1 0x40 DUP1 MLOAD PUSH1 0x1F NOT DUP2 DUP5 SUB ADD DUP2 MSTORE SWAP2 SWAP1 MSTORE PUSH1 0x20 DUP2 ADD DUP1 MLOAD PUSH1 0x1 PUSH1 0x1 PUSH1 0xE0 SHL SUB AND PUSH1 0x1 PUSH1 0x1 PUSH1 0xE0 SHL SUB NOT SWAP1 SWAP4 AND SWAP3 SWAP1 SWAP3 OR SWAP1 SWAP2 MSTORE PUSH2 0x3482 JUMP JUMPDEST POP POP POP JUMP JUMPDEST PUSH2 0x2897 DUP4 PUSH4 0xA9059CBB PUSH1 0xE0 SHL DUP5 DUP5 PUSH1 0x40 MLOAD PUSH1 0x24 ADD PUSH2 0x2860 SWAP3 SWAP2 SWAP1 PUSH2 0x38F2 JUMP JUMPDEST PUSH1 0x0 PUSH1 0xB SLOAD PUSH1 0x0 EQ ISZERO PUSH2 0x28FA JUMPI POP PUSH1 0x1 PUSH1 0x1 PUSH1 0xA0 SHL SUB DUP2 AND PUSH1 0x0 SWAP1 DUP2 MSTORE PUSH1 0x5 PUSH1 0x20 MSTORE PUSH1 0x40 SWAP1 KECCAK256 PUSH1 0x1 ADD SLOAD PUSH1 0x1 PUSH1 0x28 SHL SWAP1 DIV PUSH1 0x1 PUSH1 0x1 PUSH1 0xD0 SHL SUB AND PUSH2 0xBC3 JUMP JUMPDEST PUSH1 0x1 PUSH1 0x1 PUSH1 0xA0 SHL SUB DUP3 AND PUSH1 0x0 SWAP1 DUP2 MSTORE PUSH1 0x5 PUSH1 0x20 MSTORE PUSH1 0x40 SWAP1 KECCAK256 SLOAD PUSH2 0xB57 SWAP1 PUSH2 0x2998 SWAP1 PUSH1 0xFF AND PUSH2 0x292A JUMPI PUSH1 0xA SLOAD PUSH2 0x292E JUMP JUMPDEST PUSH1 0xB SLOAD JUMPDEST PUSH1 0x1 PUSH1 0x1 PUSH1 0xA0 SHL SUB DUP6 AND PUSH1 0x0 SWAP1 DUP2 MSTORE PUSH1 0x5 PUSH1 0x20 MSTORE PUSH1 0x40 SWAP1 KECCAK256 DUP1 SLOAD PUSH1 0x1 SWAP1 SWAP2 ADD SLOAD PUSH2 0x2992 SWAP2 PUSH8 0xDE0B6B3A7640000 SWAP2 PUSH2 0x96F SWAP2 PUSH1 0x1 PUSH1 0x1 PUSH1 0xD0 SHL SUB PUSH1 0x1 PUSH1 0x30 SHL DUP3 DIV AND SWAP2 DUP4 SWAP2 PUSH5 0xFFFFFFFFFF SWAP2 DUP3 AND SWAP2 PUSH2 0x298C SWAP2 PUSH2 0x100 SWAP1 DIV AND PUSH2 0x2791 JUMP JUMPDEST SWAP1 PUSH2 0x21BF JUMP JUMPDEST SWAP1 PUSH2 0x2133 JUMP JUMPDEST PUSH1 0x1 PUSH1 0x1 PUSH1 0xA0 SHL SUB DUP5 AND PUSH1 0x0 SWAP1 DUP2 MSTORE PUSH1 0x5 PUSH1 0x20 MSTORE PUSH1 0x40 SWAP1 KECCAK256 PUSH1 0x1 ADD SLOAD PUSH1 0x1 PUSH1 0x28 SHL SWAP1 DIV PUSH1 0x1 PUSH1 0x1 PUSH1 0xD0 SHL SUB AND SWAP1 PUSH2 0x219C JUMP JUMPDEST PUSH1 0x0 PUSH1 0x1 PUSH1 0x1 PUSH1 0xD0 SHL SUB DUP3 GT ISZERO PUSH2 0x29F3 JUMPI PUSH1 0x40 MLOAD PUSH3 0x461BCD PUSH1 0xE5 SHL DUP2 MSTORE PUSH1 0x4 ADD PUSH2 0xBEB SWAP1 PUSH2 0x3A27 JUMP JUMPDEST POP SWAP1 JUMP JUMPDEST PUSH1 0x0 PUSH5 0xFFFFFFFFFF DUP3 GT ISZERO PUSH2 0x29F3 JUMPI PUSH1 0x40 MLOAD PUSH3 0x461BCD PUSH1 0xE5 SHL DUP2 MSTORE PUSH1 0x4 ADD PUSH2 0xBEB SWAP1 PUSH2 0x3F15 JUMP JUMPDEST PUSH1 0x1 PUSH1 0x1 PUSH1 0xA0 SHL SUB DUP1 DUP5 AND PUSH1 0x0 DUP2 DUP2 MSTORE PUSH1 0x9 PUSH1 0x20 SWAP1 DUP2 MSTORE PUSH1 0x40 DUP1 DUP4 KECCAK256 SWAP5 DUP8 AND DUP1 DUP5 MSTORE SWAP5 DUP3 MSTORE DUP1 DUP4 KECCAK256 SLOAD SWAP4 DUP4 MSTORE PUSH1 0x8 DUP3 MSTORE DUP1 DUP4 KECCAK256 SWAP5 DUP4 MSTORE SWAP4 SWAP1 MSTORE SWAP2 DUP3 KECCAK256 SLOAD PUSH2 0x2A8C SWAP2 SWAP1 PUSH2 0x2A86 SWAP1 PUSH8 0xDE0B6B3A7640000 SWAP1 PUSH2 0x2992 SWAP1 PUSH2 0x2A7F SWAP1 PUSH2 0x298C DUP11 PUSH2 0x28BB JUMP JUMPDEST DUP8 SWAP1 PUSH2 0x2165 JUMP JUMPDEST SWAP1 PUSH2 0x219C JUMP JUMPDEST SWAP1 POP JUMPDEST SWAP4 SWAP3 POP POP POP JUMP JUMPDEST PUSH1 0x1 PUSH1 0x1 PUSH1 0xA0 SHL SUB DUP3 AND PUSH1 0x0 SWAP1 DUP2 MSTORE PUSH1 0x5 PUSH1 0x20 MSTORE PUSH1 0x40 SWAP1 KECCAK256 DUP1 SLOAD PUSH2 0x100 SWAP1 DIV PUSH5 0xFFFFFFFFFF AND TIMESTAMP LT PUSH2 0x2AF8 JUMPI PUSH2 0x2AD2 PUSH2 0x1604 DUP4 PUSH3 0x93A80 PUSH2 0x2133 JUMP JUMPDEST DUP2 SLOAD PUSH1 0x1 PUSH1 0x1 PUSH1 0xD0 SHL SUB SWAP2 SWAP1 SWAP2 AND PUSH1 0x1 PUSH1 0x30 SHL MUL PUSH6 0xFFFFFFFFFFFF SWAP1 SWAP2 AND OR DUP2 SSTORE PUSH2 0x2B70 JUMP JUMPDEST DUP1 SLOAD PUSH1 0x0 SWAP1 PUSH2 0x2B13 SWAP1 PUSH2 0x100 SWAP1 DIV PUSH5 0xFFFFFFFFFF AND TIMESTAMP PUSH2 0x21BF JUMP JUMPDEST DUP3 SLOAD SWAP1 SWAP2 POP PUSH1 0x0 SWAP1 PUSH2 0x2B36 SWAP1 DUP4 SWAP1 PUSH1 0x1 PUSH1 0x30 SHL SWAP1 DIV PUSH1 0x1 PUSH1 0x1 PUSH1 0xD0 SHL SUB AND PUSH2 0x2165 JUMP JUMPDEST SWAP1 POP PUSH2 0x2B4C PUSH2 0x1604 PUSH3 0x93A80 PUSH2 0x2992 DUP8 DUP6 PUSH2 0x219C JUMP JUMPDEST DUP4 SLOAD PUSH1 0x1 PUSH1 0x1 PUSH1 0xD0 SHL SUB SWAP2 SWAP1 SWAP2 AND PUSH1 0x1 PUSH1 0x30 SHL MUL PUSH6 0xFFFFFFFFFFFF SWAP1 SWAP2 AND OR DUP4 SSTORE POP POP JUMPDEST PUSH2 0x2B79 TIMESTAMP PUSH2 0x29F7 JUMP JUMPDEST PUSH1 0x1 DUP3 ADD DUP1 SLOAD PUSH5 0xFFFFFFFFFF NOT AND PUSH5 0xFFFFFFFFFF SWAP3 SWAP1 SWAP3 AND SWAP2 SWAP1 SWAP2 OR SWAP1 SSTORE PUSH2 0x2BA7 PUSH2 0x166A TIMESTAMP PUSH3 0x93A80 PUSH2 0x219C JUMP JUMPDEST DUP2 SLOAD PUSH5 0xFFFFFFFFFF SWAP2 SWAP1 SWAP2 AND PUSH2 0x100 MUL PUSH6 0xFFFFFFFFFF00 NOT SWAP1 SWAP2 AND OR SWAP1 SSTORE POP POP JUMP JUMPDEST PUSH2 0x2BEA DUP5 PUSH4 0x23B872DD PUSH1 0xE0 SHL DUP6 DUP6 DUP6 PUSH1 0x40 MLOAD PUSH1 0x24 ADD PUSH2 0x2860 SWAP4 SWAP3 SWAP2 SWAP1 PUSH2 0x38CE JUMP JUMPDEST POP POP POP POP JUMP JUMPDEST PUSH1 0x0 PUSH2 0x2C03 PUSH3 0x93A80 PUSH2 0x96F TIMESTAMP DUP3 PUSH2 0x2133 JUMP JUMPDEST PUSH1 0xC DUP1 SLOAD SWAP2 SWAP3 POP DUP3 SWAP1 PUSH1 0x0 NOT DUP4 ADD DUP4 DUP2 LT PUSH2 0x2C1A JUMPI INVALID JUMPDEST PUSH1 0x0 SWAP2 DUP3 MSTORE PUSH1 0x20 SWAP1 SWAP2 KECCAK256 ADD SLOAD PUSH1 0x1 PUSH1 0xE0 SHL SWAP1 DIV PUSH4 0xFFFFFFFF AND LT ISZERO PUSH2 0x2D54 JUMPI JUMPDEST PUSH1 0xC DUP1 SLOAD DUP4 SWAP2 SWAP1 PUSH1 0x0 NOT DUP2 ADD SWAP1 DUP2 LT PUSH2 0x2C4F JUMPI INVALID JUMPDEST PUSH1 0x0 SWAP2 DUP3 MSTORE PUSH1 0x20 SWAP1 SWAP2 KECCAK256 ADD SLOAD PUSH1 0x1 PUSH1 0xE0 SHL SWAP1 DIV PUSH4 0xFFFFFFFF AND EQ PUSH2 0x2D30 JUMPI PUSH1 0x0 PUSH2 0x2CAE PUSH3 0x93A80 PUSH1 0xC PUSH1 0x1 PUSH1 0xC DUP1 SLOAD SWAP1 POP SUB DUP2 SLOAD DUP2 LT PUSH2 0x2C8B JUMPI INVALID JUMPDEST PUSH1 0x0 SWAP2 DUP3 MSTORE PUSH1 0x20 SWAP1 SWAP2 KECCAK256 ADD SLOAD PUSH4 0xFFFFFFFF PUSH1 0x1 PUSH1 0xE0 SHL SWAP1 SWAP2 DIV DUP2 AND SWAP2 SWAP1 PUSH2 0x219C AND JUMP JUMPDEST PUSH1 0x40 DUP1 MLOAD DUP1 DUP3 ADD SWAP1 SWAP2 MSTORE PUSH1 0x0 DUP1 DUP3 MSTORE PUSH4 0xFFFFFFFF SWAP3 DUP4 AND PUSH1 0x20 DUP4 ADD SWAP1 DUP2 MSTORE PUSH1 0xC DUP1 SLOAD PUSH1 0x1 DUP2 ADD DUP3 SSTORE SWAP3 MSTORE SWAP2 MLOAD PUSH32 0xDF6966C971051C3D54EC59162606531493A51404A002842F56009D7E5CF4A8C7 SWAP1 SWAP2 ADD DUP1 SLOAD SWAP3 MLOAD SWAP1 SWAP4 AND PUSH1 0x1 PUSH1 0xE0 SHL MUL PUSH1 0x1 PUSH1 0x1 PUSH1 0xE0 SHL SUB SWAP2 DUP3 AND PUSH1 0x1 PUSH1 0x1 PUSH1 0xE0 SHL SUB NOT SWAP1 SWAP4 AND SWAP3 SWAP1 SWAP3 OR AND OR SWAP1 SSTORE POP PUSH2 0x2C3A JUMP JUMPDEST PUSH1 0x13 SLOAD PUSH1 0x11 SLOAD EQ PUSH2 0x2D42 JUMPI PUSH1 0x13 SLOAD PUSH1 0x11 SSTORE JUMPDEST PUSH1 0x12 SLOAD PUSH1 0x10 SLOAD EQ PUSH2 0x2D54 JUMPI PUSH1 0x12 SLOAD PUSH1 0x10 SSTORE JUMPDEST POP POP JUMP JUMPDEST PUSH1 0x1 PUSH1 0x1 PUSH1 0xA0 SHL SUB DUP4 AND PUSH1 0x0 SWAP1 DUP2 MSTORE PUSH1 0xD PUSH1 0x20 MSTORE PUSH1 0x40 DUP2 KECCAK256 DUP1 SLOAD DUP6 SWAP3 PUSH1 0x1 PUSH1 0x70 SHL SWAP1 SWAP2 DIV PUSH1 0x1 PUSH1 0x1 PUSH1 0x70 SHL SUB AND SWAP1 JUMPDEST PUSH1 0x4 SLOAD DUP2 LT ISZERO PUSH2 0x2F02 JUMPI PUSH1 0x0 PUSH1 0x4 DUP3 DUP2 SLOAD DUP2 LT PUSH2 0x2DA0 JUMPI INVALID JUMPDEST PUSH1 0x0 SWAP2 DUP3 MSTORE PUSH1 0x20 SWAP1 SWAP2 KECCAK256 ADD SLOAD PUSH1 0x1 PUSH1 0x1 PUSH1 0xA0 SHL SUB AND SWAP1 POP PUSH2 0x2DC3 PUSH2 0x1604 DUP3 PUSH2 0x28BB JUMP JUMPDEST PUSH1 0x1 PUSH1 0x1 PUSH1 0xA0 SHL SUB DUP3 AND PUSH1 0x0 SWAP1 DUP2 MSTORE PUSH1 0x5 PUSH1 0x20 MSTORE PUSH1 0x40 SWAP1 KECCAK256 PUSH1 0x1 DUP2 ADD DUP1 SLOAD PUSH1 0x1 PUSH1 0x1 PUSH1 0xD0 SHL SUB SWAP4 SWAP1 SWAP4 AND PUSH1 0x1 PUSH1 0x28 SHL MUL PUSH1 0x1 PUSH1 0x28 SHL PUSH1 0x1 PUSH1 0xF8 SHL SUB NOT SWAP1 SWAP4 AND SWAP3 SWAP1 SWAP3 OR SWAP1 SWAP2 SSTORE SLOAD PUSH2 0x2E24 SWAP1 PUSH2 0x166A SWAP1 PUSH5 0xFFFFFFFFFF PUSH2 0x100 SWAP1 SWAP2 DIV AND PUSH2 0x2791 JUMP JUMPDEST PUSH1 0x1 PUSH1 0x1 PUSH1 0xA0 SHL SUB DUP3 DUP2 AND PUSH1 0x0 SWAP1 DUP2 MSTORE PUSH1 0x5 PUSH1 0x20 MSTORE PUSH1 0x40 SWAP1 KECCAK256 PUSH1 0x1 ADD DUP1 SLOAD PUSH5 0xFFFFFFFFFF NOT AND PUSH5 0xFFFFFFFFFF SWAP4 SWAP1 SWAP4 AND SWAP3 SWAP1 SWAP3 OR SWAP1 SWAP2 SSTORE DUP6 AND ISZERO PUSH2 0x2EF9 JUMPI PUSH1 0x1 PUSH1 0x1 PUSH1 0xA0 SHL SUB DUP2 AND PUSH1 0x0 SWAP1 DUP2 MSTORE PUSH1 0x5 PUSH1 0x20 MSTORE PUSH1 0x40 SWAP1 KECCAK256 SLOAD PUSH2 0x2E9A SWAP1 DUP7 SWAP1 DUP4 SWAP1 PUSH1 0xFF AND PUSH2 0x16E5 JUMPI DUP7 SLOAD PUSH1 0x1 PUSH1 0x1 PUSH1 0x70 SHL SUB AND PUSH2 0x16E7 JUMP JUMPDEST PUSH1 0x1 PUSH1 0x1 PUSH1 0xA0 SHL SUB DUP7 DUP2 AND PUSH1 0x0 DUP2 DUP2 MSTORE PUSH1 0x9 PUSH1 0x20 SWAP1 DUP2 MSTORE PUSH1 0x40 DUP1 DUP4 KECCAK256 SWAP5 DUP8 AND DUP1 DUP5 MSTORE SWAP5 DUP3 MSTORE DUP1 DUP4 KECCAK256 SWAP6 SWAP1 SWAP6 SSTORE PUSH1 0x5 DUP2 MSTORE DUP5 DUP3 KECCAK256 PUSH1 0x1 ADD SLOAD SWAP3 DUP3 MSTORE PUSH1 0x8 DUP2 MSTORE DUP5 DUP3 KECCAK256 SWAP4 DUP3 MSTORE SWAP3 SWAP1 SWAP3 MSTORE SWAP2 SWAP1 KECCAK256 PUSH1 0x1 PUSH1 0x28 SHL SWAP1 SWAP2 DIV PUSH1 0x1 PUSH1 0x1 PUSH1 0xD0 SHL SUB AND SWAP1 SSTORE JUMPDEST POP PUSH1 0x1 ADD PUSH2 0x2D87 JUMP JUMPDEST POP POP POP PUSH1 0x0 DUP4 GT PUSH2 0x2F25 JUMPI PUSH1 0x40 MLOAD PUSH3 0x461BCD PUSH1 0xE5 SHL DUP2 MSTORE PUSH1 0x4 ADD PUSH2 0xBEB SWAP1 PUSH2 0x3ADB JUMP JUMPDEST PUSH1 0x10 SLOAD DUP3 GT ISZERO PUSH2 0x2F47 JUMPI PUSH1 0x40 MLOAD PUSH3 0x461BCD PUSH1 0xE5 SHL DUP2 MSTORE PUSH1 0x4 ADD PUSH2 0xBEB SWAP1 PUSH2 0x3B03 JUMP JUMPDEST PUSH1 0x16 SLOAD PUSH1 0xFF AND ISZERO PUSH2 0x2F6A JUMPI PUSH1 0x40 MLOAD PUSH3 0x461BCD PUSH1 0xE5 SHL DUP2 MSTORE PUSH1 0x4 ADD PUSH2 0xBEB SWAP1 PUSH2 0x3D45 JUMP JUMPDEST PUSH1 0x1 PUSH1 0x1 PUSH1 0xA0 SHL SUB DUP5 AND PUSH1 0x0 SWAP1 DUP2 MSTORE PUSH1 0xD PUSH1 0x20 MSTORE PUSH1 0x40 SWAP1 KECCAK256 PUSH2 0x2F8A PUSH2 0x2BF0 JUMP JUMPDEST PUSH1 0x0 PUSH2 0x2F9C PUSH2 0x2710 PUSH2 0x2992 DUP8 DUP8 PUSH2 0x2165 JUMP JUMPDEST SWAP1 POP PUSH1 0x0 PUSH2 0x2FC5 PUSH1 0x10 SLOAD PUSH1 0x0 EQ PUSH2 0x2FB5 JUMPI PUSH1 0x10 SLOAD PUSH2 0x2FB8 JUMP JUMPDEST PUSH1 0x1 JUMPDEST PUSH1 0x11 SLOAD PUSH2 0x2992 SWAP1 DUP9 PUSH2 0x2165 JUMP JUMPDEST SWAP1 POP PUSH1 0x0 PUSH2 0x2FDB PUSH2 0x2FD6 DUP9 DUP6 PUSH2 0x21BF JUMP JUMPDEST PUSH2 0x3443 JUMP JUMPDEST SWAP1 POP PUSH1 0x0 PUSH2 0x2FFC PUSH2 0x2FD6 PUSH2 0x2FF5 PUSH2 0x2710 PUSH2 0x2992 DUP13 DUP9 PUSH2 0x2165 JUMP JUMPDEST DUP11 SWAP1 PUSH2 0x219C JUMP JUMPDEST DUP6 SLOAD SWAP1 SWAP2 POP PUSH2 0x3014 SWAP1 PUSH1 0x1 PUSH1 0x1 PUSH1 0x70 SHL SUB AND DUP4 PUSH2 0x33E5 JUMP JUMPDEST DUP6 SLOAD PUSH1 0x1 PUSH1 0x1 PUSH1 0x70 SHL SUB NOT AND PUSH1 0x1 PUSH1 0x1 PUSH1 0x70 SHL SUB SWAP2 DUP3 AND OR DUP1 DUP8 SSTORE PUSH2 0x3042 SWAP2 PUSH1 0x1 PUSH1 0x70 SHL SWAP1 SWAP2 DIV AND DUP3 PUSH2 0x33E5 JUMP JUMPDEST DUP6 SLOAD PUSH1 0x1 PUSH1 0x70 SHL PUSH1 0x1 PUSH1 0xE0 SHL SUB NOT AND PUSH1 0x1 PUSH1 0x70 SHL PUSH1 0x1 PUSH1 0x1 PUSH1 0x70 SHL SUB SWAP3 DUP4 AND MUL OR DUP7 SSTORE PUSH1 0xA SLOAD PUSH2 0x3073 SWAP2 DUP5 AND PUSH2 0x219C JUMP JUMPDEST PUSH1 0xA SSTORE PUSH1 0xB SLOAD PUSH2 0x308C SWAP1 PUSH1 0x1 PUSH1 0x1 PUSH1 0x70 SHL SUB DUP4 AND PUSH2 0x219C JUMP JUMPDEST PUSH1 0xB SSTORE PUSH1 0x0 PUSH2 0x30A2 PUSH3 0x93A80 PUSH2 0x96F TIMESTAMP DUP3 PUSH2 0x2133 JUMP JUMPDEST SWAP1 POP PUSH1 0x0 PUSH2 0x30B3 DUP3 PUSH3 0x6EBE00 PUSH2 0x219C JUMP JUMPDEST PUSH1 0x1 PUSH1 0x1 PUSH1 0xA0 SHL SUB DUP13 AND PUSH1 0x0 SWAP1 DUP2 MSTORE PUSH1 0xE PUSH1 0x20 MSTORE PUSH1 0x40 SWAP1 KECCAK256 SLOAD SWAP1 SWAP2 POP DUP1 ISZERO DUP1 PUSH2 0x311D JUMPI POP PUSH1 0x1 PUSH1 0x1 PUSH1 0xA0 SHL SUB DUP13 AND PUSH1 0x0 SWAP1 DUP2 MSTORE PUSH1 0xE PUSH1 0x20 MSTORE PUSH1 0x40 SWAP1 KECCAK256 DUP1 SLOAD DUP4 SWAP2 SWAP1 PUSH1 0x0 NOT DUP5 ADD SWAP1 DUP2 LT PUSH2 0x3102 JUMPI INVALID JUMPDEST PUSH1 0x0 SWAP2 DUP3 MSTORE PUSH1 0x20 SWAP1 SWAP2 KECCAK256 ADD SLOAD PUSH1 0x1 PUSH1 0xE0 SHL SWAP1 DIV PUSH4 0xFFFFFFFF AND LT JUMPDEST ISZERO PUSH2 0x31CC JUMPI PUSH1 0x1 PUSH1 0x1 PUSH1 0xA0 SHL SUB DUP13 AND PUSH1 0x0 SWAP1 DUP2 MSTORE PUSH1 0xE PUSH1 0x20 SWAP1 DUP2 MSTORE PUSH1 0x40 DUP1 DUP4 KECCAK256 DUP2 MLOAD PUSH1 0x60 DUP2 ADD DUP4 MSTORE PUSH1 0x1 PUSH1 0x1 PUSH1 0x70 SHL SUB DUP1 DUP12 AND DUP3 MSTORE DUP10 DUP2 AND DUP3 DUP7 ADD SWAP1 DUP2 MSTORE PUSH4 0xFFFFFFFF DUP1 DUP11 AND SWAP6 DUP5 ADD SWAP6 DUP7 MSTORE DUP5 SLOAD PUSH1 0x1 DUP2 ADD DUP7 SSTORE SWAP5 DUP9 MSTORE SWAP6 SWAP1 SWAP7 KECCAK256 SWAP2 MLOAD SWAP2 SWAP1 SWAP3 ADD DUP1 SLOAD SWAP6 MLOAD SWAP4 MLOAD SWAP1 SWAP5 AND PUSH1 0x1 PUSH1 0xE0 SHL MUL PUSH1 0x1 PUSH1 0x1 PUSH1 0xE0 SHL SUB SWAP4 DUP4 AND PUSH1 0x1 PUSH1 0x70 SHL MUL PUSH1 0x1 PUSH1 0x70 SHL PUSH1 0x1 PUSH1 0xE0 SHL SUB NOT SWAP3 SWAP1 SWAP4 AND PUSH1 0x1 PUSH1 0x1 PUSH1 0x70 SHL SUB NOT SWAP1 SWAP7 AND SWAP6 SWAP1 SWAP6 OR AND OR AND SWAP2 SWAP1 SWAP2 OR SWAP1 SSTORE PUSH2 0x326C JUMP JUMPDEST PUSH1 0x1 PUSH1 0x1 PUSH1 0xA0 SHL SUB DUP13 AND PUSH1 0x0 SWAP1 DUP2 MSTORE PUSH1 0xE PUSH1 0x20 MSTORE PUSH1 0x40 DUP2 KECCAK256 DUP1 SLOAD PUSH1 0x0 NOT DUP5 ADD SWAP1 DUP2 LT PUSH2 0x31F4 JUMPI INVALID JUMPDEST PUSH1 0x0 SWAP2 DUP3 MSTORE PUSH1 0x20 SWAP1 SWAP2 KECCAK256 ADD DUP1 SLOAD SWAP1 SWAP2 POP PUSH2 0x3217 SWAP1 PUSH1 0x1 PUSH1 0x1 PUSH1 0x70 SHL SUB AND DUP8 PUSH2 0x33E5 JUMP JUMPDEST DUP2 SLOAD PUSH1 0x1 PUSH1 0x1 PUSH1 0x70 SHL SUB NOT AND PUSH1 0x1 PUSH1 0x1 PUSH1 0x70 SHL SUB SWAP2 DUP3 AND OR DUP1 DUP4 SSTORE PUSH2 0x3245 SWAP2 PUSH1 0x1 PUSH1 0x70 SHL SWAP1 SWAP2 DIV AND DUP7 PUSH2 0x33E5 JUMP JUMPDEST DUP2 SLOAD PUSH1 0x1 PUSH1 0x1 PUSH1 0x70 SHL SUB SWAP2 SWAP1 SWAP2 AND PUSH1 0x1 PUSH1 0x70 SHL MUL PUSH1 0x1 PUSH1 0x70 SHL PUSH1 0x1 PUSH1 0xE0 SHL SUB NOT SWAP1 SWAP2 AND OR SWAP1 SSTORE JUMPDEST PUSH1 0xC DUP1 SLOAD PUSH1 0x0 SWAP2 SWAP1 PUSH1 0x0 NOT DUP2 ADD SWAP1 DUP2 LT PUSH2 0x3282 JUMPI INVALID JUMPDEST PUSH1 0x0 SWAP2 DUP3 MSTORE PUSH1 0x20 SWAP1 SWAP2 KECCAK256 ADD DUP1 SLOAD SWAP1 SWAP2 POP PUSH2 0x32AE SWAP1 PUSH1 0x1 PUSH1 0x1 PUSH1 0xE0 SHL SUB AND PUSH1 0x1 PUSH1 0x1 PUSH1 0x70 SHL SUB DUP8 AND PUSH2 0x3511 JUMP JUMPDEST DUP2 SLOAD PUSH1 0x1 PUSH1 0x1 PUSH1 0xE0 SHL SUB NOT AND PUSH1 0x1 PUSH1 0x1 PUSH1 0xE0 SHL SUB SWAP2 SWAP1 SWAP2 AND OR DUP2 SSTORE DUP8 ISZERO PUSH2 0x32EC JUMPI PUSH1 0xF SLOAD PUSH1 0x2 SLOAD PUSH2 0x32EC SWAP2 PUSH1 0x1 PUSH1 0x1 PUSH1 0xA0 SHL SUB SWAP2 DUP3 AND SWAP2 AND DUP11 PUSH2 0x289C JUMP JUMPDEST DUP13 PUSH1 0x1 PUSH1 0x1 PUSH1 0xA0 SHL SUB AND PUSH32 0xB4CAAF29ADDA3EEFEE3AD552A8E85058589BF834C7466CAE4EE58787F70589ED DUP14 DUP9 DUP9 PUSH1 0x40 MLOAD PUSH2 0x2775 SWAP4 SWAP3 SWAP2 SWAP1 PUSH2 0x3FB1 JUMP JUMPDEST PUSH1 0x0 PUSH4 0xFFFFFFFF DUP3 GT ISZERO PUSH2 0x29F3 JUMPI PUSH1 0x40 MLOAD PUSH3 0x461BCD PUSH1 0xE5 SHL DUP2 MSTORE PUSH1 0x4 ADD PUSH2 0xBEB SWAP1 PUSH2 0x3D9E JUMP JUMPDEST PUSH1 0x0 DUP1 PUSH2 0x3367 PUSH3 0x93A80 PUSH2 0x96F DUP2 PUSH2 0x2992 TIMESTAMP DUP10 PUSH2 0x21BF JUMP JUMPDEST DUP4 SLOAD SWAP1 SWAP2 POP PUSH1 0x0 SWAP1 PUSH2 0x3394 SWAP1 PUSH3 0x93A80 SWAP1 PUSH2 0x2992 SWAP1 DUP6 SWAP1 PUSH4 0xFFFFFFFF PUSH1 0x1 PUSH1 0xE0 SHL SWAP1 SWAP2 DIV DUP2 AND SWAP1 PUSH2 0x21BF AND JUMP JUMPDEST SWAP1 POP PUSH1 0x0 PUSH2 0x33BB PUSH2 0x33B3 DUP4 PUSH1 0x1 ADD PUSH1 0x14 SLOAD PUSH2 0x2165 SWAP1 SWAP2 SWAP1 PUSH4 0xFFFFFFFF AND JUMP JUMPDEST PUSH2 0x2710 PUSH2 0x346C JUMP JUMPDEST DUP6 SLOAD SWAP1 SWAP2 POP PUSH2 0x33DB SWAP1 PUSH2 0x2710 SWAP1 PUSH2 0x2992 SWAP1 PUSH1 0x1 PUSH1 0x1 PUSH1 0x70 SHL SUB AND DUP5 PUSH2 0x2165 JUMP JUMPDEST SWAP7 SWAP6 POP POP POP POP POP POP JUMP JUMPDEST DUP2 DUP2 ADD PUSH1 0x1 PUSH1 0x1 PUSH1 0x70 SHL SUB DUP1 DUP4 AND SWAP1 DUP3 AND LT ISZERO PUSH2 0xB57 JUMPI PUSH1 0x40 MLOAD PUSH3 0x461BCD PUSH1 0xE5 SHL DUP2 MSTORE PUSH1 0x4 ADD PUSH2 0xBEB SWAP1 PUSH2 0x3BCB JUMP JUMPDEST DUP1 DUP3 SUB PUSH1 0x1 PUSH1 0x1 PUSH1 0x70 SHL SUB DUP1 DUP5 AND SWAP1 DUP3 AND GT ISZERO PUSH2 0xB57 JUMPI PUSH1 0x40 MLOAD PUSH3 0x461BCD PUSH1 0xE5 SHL DUP2 MSTORE PUSH1 0x4 ADD PUSH2 0xBEB SWAP1 PUSH2 0x39F8 JUMP JUMPDEST PUSH1 0x0 PUSH1 0x1 PUSH1 0x1 PUSH1 0x70 SHL SUB DUP3 GT ISZERO PUSH2 0x29F3 JUMPI PUSH1 0x40 MLOAD PUSH3 0x461BCD PUSH1 0xE5 SHL DUP2 MSTORE PUSH1 0x4 ADD PUSH2 0xBEB SWAP1 PUSH2 0x3BFD JUMP JUMPDEST PUSH1 0x0 DUP2 DUP4 LT PUSH2 0x347B JUMPI DUP2 PUSH2 0x2A8F JUMP JUMPDEST POP SWAP1 SWAP2 SWAP1 POP JUMP JUMPDEST PUSH1 0x60 PUSH2 0x34D7 DUP3 PUSH1 0x40 MLOAD DUP1 PUSH1 0x40 ADD PUSH1 0x40 MSTORE DUP1 PUSH1 0x20 DUP2 MSTORE PUSH1 0x20 ADD PUSH32 0x5361666545524332303A206C6F772D6C6576656C2063616C6C206661696C6564 DUP2 MSTORE POP DUP6 PUSH1 0x1 PUSH1 0x1 PUSH1 0xA0 SHL SUB AND PUSH2 0x3540 SWAP1 SWAP3 SWAP2 SWAP1 PUSH4 0xFFFFFFFF AND JUMP JUMPDEST DUP1 MLOAD SWAP1 SWAP2 POP ISZERO PUSH2 0x2897 JUMPI DUP1 DUP1 PUSH1 0x20 ADD SWAP1 MLOAD DUP2 ADD SWAP1 PUSH2 0x34F5 SWAP2 SWAP1 PUSH2 0x3789 JUMP JUMPDEST PUSH2 0x2897 JUMPI PUSH1 0x40 MLOAD PUSH3 0x461BCD PUSH1 0xE5 SHL DUP2 MSTORE PUSH1 0x4 ADD PUSH2 0xBEB SWAP1 PUSH2 0x3DD5 JUMP JUMPDEST DUP2 DUP2 ADD PUSH1 0x1 PUSH1 0x1 PUSH1 0xE0 SHL SUB DUP1 DUP4 AND SWAP1 DUP3 AND LT ISZERO PUSH2 0xB57 JUMPI PUSH1 0x40 MLOAD PUSH3 0x461BCD PUSH1 0xE5 SHL DUP2 MSTORE PUSH1 0x4 ADD PUSH2 0xBEB SWAP1 PUSH2 0x3BCB JUMP JUMPDEST PUSH1 0x60 PUSH2 0x2A8C DUP5 DUP5 PUSH1 0x0 DUP6 DUP6 PUSH2 0x3554 DUP6 PUSH2 0x35EA JUMP JUMPDEST PUSH2 0x3570 JUMPI PUSH1 0x40 MLOAD PUSH3 0x461BCD PUSH1 0xE5 SHL DUP2 MSTORE PUSH1 0x4 ADD PUSH2 0xBEB SWAP1 PUSH2 0x3D67 JUMP JUMPDEST PUSH1 0x0 PUSH1 0x60 DUP7 PUSH1 0x1 PUSH1 0x1 PUSH1 0xA0 SHL SUB AND DUP6 DUP8 PUSH1 0x40 MLOAD PUSH2 0x358D SWAP2 SWAP1 PUSH2 0x3884 JUMP JUMPDEST PUSH1 0x0 PUSH1 0x40 MLOAD DUP1 DUP4 SUB DUP2 DUP6 DUP8 GAS CALL SWAP3 POP POP POP RETURNDATASIZE DUP1 PUSH1 0x0 DUP2 EQ PUSH2 0x35CA JUMPI PUSH1 0x40 MLOAD SWAP2 POP PUSH1 0x1F NOT PUSH1 0x3F RETURNDATASIZE ADD AND DUP3 ADD PUSH1 0x40 MSTORE RETURNDATASIZE DUP3 MSTORE RETURNDATASIZE PUSH1 0x0 PUSH1 0x20 DUP5 ADD RETURNDATACOPY PUSH2 0x35CF JUMP JUMPDEST PUSH1 0x60 SWAP2 POP JUMPDEST POP SWAP2 POP SWAP2 POP PUSH2 0x35DF DUP3 DUP3 DUP7 PUSH2 0x35F0 JUMP JUMPDEST SWAP8 SWAP7 POP POP POP POP POP POP POP JUMP JUMPDEST EXTCODESIZE ISZERO ISZERO SWAP1 JUMP JUMPDEST PUSH1 0x60 DUP4 ISZERO PUSH2 0x35FF JUMPI POP DUP2 PUSH2 0x2A8F JUMP JUMPDEST DUP3 MLOAD ISZERO PUSH2 0x360F JUMPI DUP3 MLOAD DUP1 DUP5 PUSH1 0x20 ADD REVERT JUMPDEST DUP2 PUSH1 0x40 MLOAD PUSH3 0x461BCD PUSH1 0xE5 SHL DUP2 MSTORE PUSH1 0x4 ADD PUSH2 0xBEB SWAP2 SWAP1 PUSH2 0x39C5 JUMP JUMPDEST PUSH1 0x40 DUP1 MLOAD PUSH1 0x60 DUP2 ADD DUP3 MSTORE PUSH1 0x0 DUP1 DUP3 MSTORE PUSH1 0x20 DUP3 ADD DUP2 SWAP1 MSTORE SWAP2 DUP2 ADD SWAP2 SWAP1 SWAP2 MSTORE SWAP1 JUMP JUMPDEST PUSH1 0x40 DUP1 MLOAD DUP1 DUP3 ADD SWAP1 SWAP2 MSTORE PUSH1 0x0 DUP1 DUP3 MSTORE PUSH1 0x20 DUP3 ADD MSTORE SWAP1 JUMP JUMPDEST DUP1 CALLDATALOAD PUSH1 0x1 PUSH1 0x1 PUSH1 0xA0 SHL SUB DUP2 AND DUP2 EQ PUSH2 0xB57 JUMPI PUSH1 0x0 DUP1 REVERT JUMPDEST PUSH1 0x0 PUSH1 0x20 DUP3 DUP5 SUB SLT ISZERO PUSH2 0x3688 JUMPI DUP1 DUP2 REVERT JUMPDEST PUSH2 0x2A8F DUP4 DUP4 PUSH2 0x3660 JUMP JUMPDEST PUSH1 0x0 DUP1 PUSH1 0x40 DUP4 DUP6 SUB SLT ISZERO PUSH2 0x36A4 JUMPI DUP1 DUP2 REVERT JUMPDEST PUSH2 0x36AE DUP5 DUP5 PUSH2 0x3660 JUMP JUMPDEST SWAP2 POP PUSH2 0x36BD DUP5 PUSH1 0x20 DUP6 ADD PUSH2 0x3660 JUMP JUMPDEST SWAP1 POP SWAP3 POP SWAP3 SWAP1 POP JUMP JUMPDEST PUSH1 0x0 DUP1 PUSH1 0x0 PUSH1 0x60 DUP5 DUP7 SUB SLT ISZERO PUSH2 0x36DA JUMPI DUP1 DUP2 REVERT JUMPDEST DUP4 CALLDATALOAD PUSH2 0x36E5 DUP2 PUSH2 0x409A JUMP JUMPDEST SWAP3 POP PUSH1 0x20 DUP5 ADD CALLDATALOAD PUSH2 0x36F5 DUP2 PUSH2 0x409A JUMP JUMPDEST SWAP2 POP PUSH1 0x40 DUP5 ADD CALLDATALOAD PUSH2 0x3705 DUP2 PUSH2 0x40B2 JUMP JUMPDEST DUP1 SWAP2 POP POP SWAP3 POP SWAP3 POP SWAP3 JUMP JUMPDEST PUSH1 0x0 DUP1 PUSH1 0x40 DUP4 DUP6 SUB SLT ISZERO PUSH2 0x3722 JUMPI DUP2 DUP3 REVERT JUMPDEST PUSH2 0x372C DUP5 DUP5 PUSH2 0x3660 JUMP JUMPDEST SWAP5 PUSH1 0x20 SWAP4 SWAP1 SWAP4 ADD CALLDATALOAD SWAP4 POP POP POP JUMP JUMPDEST PUSH1 0x0 DUP1 PUSH1 0x0 PUSH1 0x60 DUP5 DUP7 SUB SLT ISZERO PUSH2 0x374E JUMPI DUP3 DUP4 REVERT JUMPDEST PUSH2 0x3758 DUP6 DUP6 PUSH2 0x3660 JUMP JUMPDEST SWAP6 PUSH1 0x20 DUP6 ADD CALLDATALOAD SWAP6 POP PUSH1 0x40 SWAP1 SWAP5 ADD CALLDATALOAD SWAP4 SWAP3 POP POP POP JUMP JUMPDEST PUSH1 0x0 PUSH1 0x20 DUP3 DUP5 SUB SLT ISZERO PUSH2 0x377E JUMPI DUP1 DUP2 REVERT JUMPDEST DUP2 CALLDATALOAD PUSH2 0x2A8F DUP2 PUSH2 0x40B2 JUMP JUMPDEST PUSH1 0x0 PUSH1 0x20 DUP3 DUP5 SUB SLT ISZERO PUSH2 0x379A JUMPI DUP1 DUP2 REVERT JUMPDEST DUP2 MLOAD PUSH2 0x2A8F DUP2 PUSH2 0x40B2 JUMP JUMPDEST PUSH1 0x0 DUP1 PUSH1 0x0 PUSH1 0x60 DUP5 DUP7 SUB SLT ISZERO PUSH2 0x37B9 JUMPI DUP3 DUP4 REVERT JUMPDEST DUP4 CALLDATALOAD PUSH2 0x37C4 DUP2 PUSH2 0x40B2 JUMP JUMPDEST SWAP3 POP PUSH1 0x20 DUP5 ADD CALLDATALOAD SWAP2 POP PUSH2 0x37DA DUP6 PUSH1 0x40 DUP7 ADD PUSH2 0x3660 JUMP JUMPDEST SWAP1 POP SWAP3 POP SWAP3 POP SWAP3 JUMP JUMPDEST PUSH1 0x0 PUSH1 0x20 DUP3 DUP5 SUB SLT ISZERO PUSH2 0x37F4 JUMPI DUP1 DUP2 REVERT JUMPDEST POP CALLDATALOAD SWAP2 SWAP1 POP JUMP JUMPDEST PUSH1 0x0 PUSH1 0x20 DUP3 DUP5 SUB SLT ISZERO PUSH2 0x380C JUMPI DUP1 DUP2 REVERT JUMPDEST POP MLOAD SWAP2 SWAP1 POP JUMP JUMPDEST PUSH1 0x0 DUP1 PUSH1 0x40 DUP4 DUP6 SUB SLT ISZERO PUSH2 0x3825 JUMPI DUP2 DUP3 REVERT JUMPDEST DUP3 CALLDATALOAD SWAP2 POP PUSH2 0x36BD DUP5 PUSH1 0x20 DUP6 ADD PUSH2 0x3660 JUMP JUMPDEST PUSH1 0x0 DUP1 PUSH1 0x40 DUP4 DUP6 SUB SLT ISZERO PUSH2 0x3848 JUMPI DUP2 DUP3 REVERT JUMPDEST POP POP DUP1 CALLDATALOAD SWAP3 PUSH1 0x20 SWAP1 SWAP2 ADD CALLDATALOAD SWAP2 POP JUMP JUMPDEST PUSH1 0x0 DUP1 PUSH1 0x0 PUSH1 0x60 DUP5 DUP7 SUB SLT ISZERO PUSH2 0x386B JUMPI DUP3 DUP4 REVERT JUMPDEST DUP4 CALLDATALOAD SWAP3 POP PUSH1 0x20 DUP5 ADD CALLDATALOAD SWAP2 POP PUSH1 0x40 DUP5 ADD CALLDATALOAD PUSH2 0x3705 DUP2 PUSH2 0x409A JUMP JUMPDEST PUSH1 0x0 DUP3 MLOAD PUSH2 0x3896 DUP2 DUP5 PUSH1 0x20 DUP8 ADD PUSH2 0x406E JUMP JUMPDEST SWAP2 SWAP1 SWAP2 ADD SWAP3 SWAP2 POP POP JUMP JUMPDEST PUSH1 0x1 PUSH1 0x1 PUSH1 0xA0 SHL SUB SWAP2 SWAP1 SWAP2 AND DUP2 MSTORE PUSH1 0x20 ADD SWAP1 JUMP JUMPDEST PUSH1 0x1 PUSH1 0x1 PUSH1 0xA0 SHL SUB SWAP3 DUP4 AND DUP2 MSTORE SWAP2 AND PUSH1 0x20 DUP3 ADD MSTORE PUSH1 0x40 ADD SWAP1 JUMP JUMPDEST PUSH1 0x1 PUSH1 0x1 PUSH1 0xA0 SHL SUB SWAP4 DUP5 AND DUP2 MSTORE SWAP2 SWAP1 SWAP3 AND PUSH1 0x20 DUP3 ADD MSTORE PUSH1 0x40 DUP2 ADD SWAP2 SWAP1 SWAP2 MSTORE PUSH1 0x60 ADD SWAP1 JUMP JUMPDEST PUSH1 0x1 PUSH1 0x1 PUSH1 0xA0 SHL SUB SWAP3 SWAP1 SWAP3 AND DUP3 MSTORE PUSH1 0x20 DUP3 ADD MSTORE PUSH1 0x40 ADD SWAP1 JUMP JUMPDEST PUSH1 0x1 PUSH1 0x1 PUSH1 0xA0 SHL SUB SWAP4 SWAP1 SWAP4 AND DUP4 MSTORE PUSH1 0x20 DUP4 ADD SWAP2 SWAP1 SWAP2 MSTORE PUSH1 0x40 DUP3 ADD MSTORE PUSH1 0x60 ADD SWAP1 JUMP JUMPDEST PUSH1 0x20 DUP1 DUP3 MSTORE DUP3 MLOAD DUP3 DUP3 ADD DUP2 SWAP1 MSTORE PUSH1 0x0 SWAP2 SWAP1 PUSH1 0x40 SWAP1 DUP2 DUP6 ADD SWAP1 DUP7 DUP5 ADD DUP6 JUMPDEST DUP3 DUP2 LT ISZERO PUSH2 0x3977 JUMPI DUP2 MLOAD DUP1 MLOAD PUSH1 0x1 PUSH1 0x1 PUSH1 0xA0 SHL SUB AND DUP6 MSTORE DUP7 ADD MLOAD DUP7 DUP6 ADD MSTORE SWAP3 DUP5 ADD SWAP3 SWAP1 DUP6 ADD SWAP1 PUSH1 0x1 ADD PUSH2 0x3949 JUMP JUMPDEST POP SWAP2 SWAP8 SWAP7 POP POP POP POP POP POP POP JUMP JUMPDEST SWAP1 ISZERO ISZERO DUP2 MSTORE PUSH1 0x20 ADD SWAP1 JUMP JUMPDEST SWAP5 ISZERO ISZERO DUP6 MSTORE PUSH5 0xFFFFFFFFFF SWAP4 DUP5 AND PUSH1 0x20 DUP7 ADD MSTORE PUSH1 0x1 PUSH1 0x1 PUSH1 0xD0 SHL SUB SWAP3 DUP4 AND PUSH1 0x40 DUP7 ADD MSTORE SWAP3 AND PUSH1 0x60 DUP5 ADD MSTORE AND PUSH1 0x80 DUP3 ADD MSTORE PUSH1 0xA0 ADD SWAP1 JUMP JUMPDEST PUSH1 0x0 PUSH1 0x20 DUP3 MSTORE DUP3 MLOAD DUP1 PUSH1 0x20 DUP5 ADD MSTORE PUSH2 0x39E4 DUP2 PUSH1 0x40 DUP6 ADD PUSH1 0x20 DUP8 ADD PUSH2 0x406E JUMP JUMPDEST PUSH1 0x1F ADD PUSH1 0x1F NOT AND SWAP2 SWAP1 SWAP2 ADD PUSH1 0x40 ADD SWAP3 SWAP2 POP POP JUMP JUMPDEST PUSH1 0x20 DUP1 DUP3 MSTORE PUSH1 0x15 SWAP1 DUP3 ADD MSTORE PUSH21 0x426F72696E674D6174683A20556E646572666C6F77 PUSH1 0x58 SHL PUSH1 0x40 DUP3 ADD MSTORE PUSH1 0x60 ADD SWAP1 JUMP JUMPDEST PUSH1 0x20 DUP1 DUP3 MSTORE PUSH1 0x1C SWAP1 DUP3 ADD MSTORE PUSH32 0x426F72696E674D6174683A2075696E74323038204F766572666C6F7700000000 PUSH1 0x40 DUP3 ADD MSTORE PUSH1 0x60 ADD SWAP1 JUMP JUMPDEST PUSH1 0x20 DUP1 DUP3 MSTORE PUSH1 0x1C SWAP1 DUP3 ADD MSTORE PUSH32 0x426F72696E674D6174683A206469766973696F6E206279207A65726F00000000 PUSH1 0x40 DUP3 ADD MSTORE PUSH1 0x60 ADD SWAP1 JUMP JUMPDEST PUSH1 0x20 DUP1 DUP3 MSTORE PUSH1 0x26 SWAP1 DUP3 ADD MSTORE PUSH32 0x4F776E61626C653A206E6577206F776E657220697320746865207A65726F2061 PUSH1 0x40 DUP3 ADD MSTORE PUSH6 0x646472657373 PUSH1 0xD0 SHL PUSH1 0x60 DUP3 ADD MSTORE PUSH1 0x80 ADD SWAP1 JUMP JUMPDEST PUSH1 0x20 DUP1 DUP3 MSTORE PUSH1 0xE SWAP1 DUP3 ADD MSTORE PUSH14 0x43616E6E6F74207374616B65203 PUSH1 0x94 SHL PUSH1 0x40 DUP3 ADD MSTORE PUSH1 0x60 ADD SWAP1 JUMP JUMPDEST PUSH1 0x20 DUP1 DUP3 MSTORE PUSH1 0xE SWAP1 DUP3 ADD MSTORE PUSH14 0x1BDD995C881B585E081CDC195B99 PUSH1 0x92 SHL PUSH1 0x40 DUP3 ADD MSTORE PUSH1 0x60 ADD SWAP1 JUMP JUMPDEST PUSH1 0x20 DUP1 DUP3 MSTORE PUSH1 0x10 SWAP1 DUP3 ADD MSTORE PUSH16 0x1BDD995C881B585E081C185E5B595B9D PUSH1 0x82 SHL PUSH1 0x40 DUP3 ADD MSTORE PUSH1 0x60 ADD SWAP1 JUMP JUMPDEST PUSH1 0x20 DUP1 DUP3 MSTORE PUSH1 0xD SWAP1 DUP3 ADD MSTORE PUSH13 0x6F766572206D61782072617465 PUSH1 0x98 SHL PUSH1 0x40 DUP3 ADD MSTORE PUSH1 0x60 ADD SWAP1 JUMP JUMPDEST PUSH1 0x20 DUP1 DUP3 MSTORE PUSH1 0xC SWAP1 DUP3 ADD MSTORE PUSH12 0x6E6F20657870206C6F636B73 PUSH1 0xA0 SHL PUSH1 0x40 DUP3 ADD MSTORE PUSH1 0x60 ADD SWAP1 JUMP JUMPDEST PUSH1 0x20 DUP1 DUP3 MSTORE PUSH1 0xF SWAP1 DUP3 ADD MSTORE PUSH15 0x696E76616C69642061646472657373 PUSH1 0x88 SHL PUSH1 0x40 DUP3 ADD MSTORE PUSH1 0x60 ADD SWAP1 JUMP JUMPDEST PUSH1 0x20 DUP1 DUP3 MSTORE PUSH1 0x18 SWAP1 DUP3 ADD MSTORE PUSH24 0x426F72696E674D6174683A20416464204F766572666C6F77 PUSH1 0x40 SHL PUSH1 0x40 DUP3 ADD MSTORE PUSH1 0x60 ADD SWAP1 JUMP JUMPDEST PUSH1 0x20 DUP1 DUP3 MSTORE PUSH1 0x1C SWAP1 DUP3 ADD MSTORE PUSH32 0x426F72696E674D6174683A2075696E74313132204F766572666C6F7700000000 PUSH1 0x40 DUP3 ADD MSTORE PUSH1 0x60 ADD SWAP1 JUMP JUMPDEST PUSH1 0x20 DUP1 DUP3 MSTORE PUSH1 0x9 SWAP1 DUP3 ADD MSTORE PUSH9 0x139BC81C995DD85C99 PUSH1 0xBA SHL PUSH1 0x40 DUP3 ADD MSTORE PUSH1 0x60 ADD SWAP1 JUMP JUMPDEST PUSH1 0x20 DUP1 DUP3 MSTORE PUSH1 0xE SWAP1 DUP3 ADD MSTORE PUSH14 0x1B9BDD08185D5D1A1BDC9A5E9959 PUSH1 0x92 SHL PUSH1 0x40 DUP3 ADD MSTORE PUSH1 0x60 ADD SWAP1 JUMP JUMPDEST PUSH1 0x20 DUP1 DUP3 MSTORE DUP2 DUP2 ADD MSTORE PUSH32 0x4F776E61626C653A2063616C6C6572206973206E6F7420746865206F776E6572 PUSH1 0x40 DUP3 ADD MSTORE PUSH1 0x60 ADD SWAP1 JUMP JUMPDEST PUSH1 0x20 DUP1 DUP3 MSTORE PUSH1 0x1C SWAP1 DUP3 ADD MSTORE PUSH32 0x7265776172647320746F6B656E20646F6573206E6F7420657869737400000000 PUSH1 0x40 DUP3 ADD MSTORE PUSH1 0x60 ADD SWAP1 JUMP JUMPDEST PUSH1 0x20 DUP1 DUP3 MSTORE PUSH1 0x1D SWAP1 DUP3 ADD MSTORE PUSH32 0x43616E6E6F74207769746864726177207374616B696E6720746F6B656E000000 PUSH1 0x40 DUP3 ADD MSTORE PUSH1 0x60 ADD SWAP1 JUMP JUMPDEST PUSH1 0x20 DUP1 DUP3 MSTORE PUSH1 0x9 SWAP1 DUP3 ADD MSTORE PUSH9 0x6D696E2064656C6179 PUSH1 0xB8 SHL PUSH1 0x40 DUP3 ADD MSTORE PUSH1 0x60 ADD SWAP1 JUMP JUMPDEST PUSH1 0x20 DUP1 DUP3 MSTORE PUSH1 0x8 SWAP1 DUP3 ADD MSTORE PUSH8 0x39B43ABA3237BBB7 PUSH1 0xC1 SHL PUSH1 0x40 DUP3 ADD MSTORE PUSH1 0x60 ADD SWAP1 JUMP JUMPDEST PUSH1 0x20 DUP1 DUP3 MSTORE PUSH1 0x1D SWAP1 DUP3 ADD MSTORE PUSH32 0x416464726573733A2063616C6C20746F206E6F6E2D636F6E7472616374000000 PUSH1 0x40 DUP3 ADD MSTORE PUSH1 0x60 ADD SWAP1 JUMP JUMPDEST PUSH1 0x20 DUP1 DUP3 MSTORE PUSH1 0x1B SWAP1 DUP3 ADD MSTORE PUSH32 0x426F72696E674D6174683A2075696E743332204F766572666C6F770000000000 PUSH1 0x40 DUP3 ADD MSTORE PUSH1 0x60 ADD SWAP1 JUMP JUMPDEST PUSH1 0x20 DUP1 DUP3 MSTORE PUSH1 0x2A SWAP1 DUP3 ADD MSTORE PUSH32 0x5361666545524332303A204552433230206F7065726174696F6E20646964206E PUSH1 0x40 DUP3 ADD MSTORE PUSH10 0x1BDD081CDD58D8D95959 PUSH1 0xB2 SHL PUSH1 0x60 DUP3 ADD MSTORE PUSH1 0x80 ADD SWAP1 JUMP JUMPDEST PUSH1 0x20 DUP1 DUP3 MSTORE PUSH1 0x1C SWAP1 DUP3 ADD MSTORE PUSH32 0x43616E6E6F742077697468647261772072657761726420746F6B656E00000000 PUSH1 0x40 DUP3 ADD MSTORE PUSH1 0x60 ADD SWAP1 JUMP JUMPDEST PUSH1 0x20 DUP1 DUP3 MSTORE PUSH1 0x1F SWAP1 DUP3 ADD MSTORE PUSH32 0x5265656E7472616E637947756172643A207265656E7472616E742063616C6C00 PUSH1 0x40 DUP3 ADD MSTORE PUSH1 0x60 ADD SWAP1 JUMP JUMPDEST PUSH1 0x20 DUP1 DUP3 MSTORE PUSH1 0x36 SWAP1 DUP3 ADD MSTORE PUSH32 0x5361666545524332303A20617070726F76652066726F6D206E6F6E2D7A65726F PUSH1 0x40 DUP3 ADD MSTORE PUSH22 0x20746F206E6F6E2D7A65726F20616C6C6F77616E6365 PUSH1 0x50 SHL PUSH1 0x60 DUP3 ADD MSTORE PUSH1 0x80 ADD SWAP1 JUMP JUMPDEST PUSH1 0x20 DUP1 DUP3 MSTORE PUSH1 0x18 SWAP1 DUP3 ADD MSTORE PUSH24 0x426F72696E674D6174683A204D756C204F766572666C6F77 PUSH1 0x40 SHL PUSH1 0x40 DUP3 ADD MSTORE PUSH1 0x60 ADD SWAP1 JUMP JUMPDEST PUSH1 0x20 DUP1 DUP3 MSTORE PUSH1 0x1B SWAP1 DUP3 ADD MSTORE PUSH32 0x426F72696E674D6174683A2075696E743430204F766572666C6F770000000000 PUSH1 0x40 DUP3 ADD MSTORE PUSH1 0x60 ADD SWAP1 JUMP JUMPDEST PUSH1 0x1 PUSH1 0x1 PUSH1 0x70 SHL SUB SWAP2 SWAP1 SWAP2 AND DUP2 MSTORE PUSH1 0x20 ADD SWAP1 JUMP JUMPDEST PUSH1 0x1 PUSH1 0x1 PUSH1 0x70 SHL SUB SWAP4 DUP5 AND DUP2 MSTORE SWAP2 SWAP1 SWAP3 AND PUSH1 0x20 DUP3 ADD MSTORE PUSH4 0xFFFFFFFF SWAP1 SWAP2 AND PUSH1 0x40 DUP3 ADD MSTORE PUSH1 0x60 ADD SWAP1 JUMP JUMPDEST PUSH1 0x1 PUSH1 0x1 PUSH1 0xE0 SHL SUB SWAP3 SWAP1 SWAP3 AND DUP3 MSTORE PUSH4 0xFFFFFFFF AND PUSH1 0x20 DUP3 ADD MSTORE PUSH1 0x40 ADD SWAP1 JUMP JUMPDEST SWAP1 DUP2 MSTORE PUSH1 0x20 ADD SWAP1 JUMP JUMPDEST SWAP3 DUP4 MSTORE PUSH1 0x1 PUSH1 0x1 PUSH1 0x70 SHL SUB SWAP2 DUP3 AND PUSH1 0x20 DUP5 ADD MSTORE AND PUSH1 0x40 DUP3 ADD MSTORE PUSH1 0x60 ADD SWAP1 JUMP JUMPDEST SWAP2 DUP3 MSTORE PUSH1 0x20 DUP3 ADD MSTORE PUSH1 0x40 ADD SWAP1 JUMP JUMPDEST PUSH1 0x0 PUSH1 0x80 DUP3 ADD DUP7 DUP4 MSTORE PUSH1 0x20 DUP7 DUP2 DUP6 ADD MSTORE PUSH1 0x40 DUP7 DUP2 DUP7 ADD MSTORE PUSH1 0x60 PUSH1 0x80 DUP2 DUP8 ADD MSTORE DUP4 DUP8 MLOAD DUP1 DUP7 MSTORE PUSH1 0xA0 DUP9 ADD SWAP2 POP DUP5 DUP10 ADD SWAP6 POP DUP7 JUMPDEST DUP2 DUP2 LT ISZERO PUSH2 0x404F JUMPI DUP7 MLOAD DUP1 MLOAD PUSH1 0x1 PUSH1 0x1 PUSH1 0x70 SHL SUB SWAP1 DUP2 AND DUP6 MSTORE DUP8 DUP3 ADD MLOAD AND DUP8 DUP6 ADD MSTORE DUP6 ADD MLOAD PUSH4 0xFFFFFFFF AND DUP6 DUP5 ADD MSTORE SWAP6 DUP6 ADD SWAP6 SWAP2 DUP4 ADD SWAP2 PUSH1 0x1 ADD PUSH2 0x4010 JUMP JUMPDEST POP SWAP1 SWAP12 SWAP11 POP POP POP POP POP POP POP POP POP POP POP JUMP JUMPDEST PUSH1 0xFF SWAP2 SWAP1 SWAP2 AND DUP2 MSTORE PUSH1 0x20 ADD SWAP1 JUMP JUMPDEST PUSH1 0x0 JUMPDEST DUP4 DUP2 LT ISZERO PUSH2 0x4089 JUMPI DUP2 DUP2 ADD MLOAD DUP4 DUP3 ADD MSTORE PUSH1 0x20 ADD PUSH2 0x4071 JUMP JUMPDEST DUP4 DUP2 GT ISZERO PUSH2 0x2BEA JUMPI POP POP PUSH1 0x0 SWAP2 ADD MSTORE JUMP JUMPDEST PUSH1 0x1 PUSH1 0x1 PUSH1 0xA0 SHL SUB DUP2 AND DUP2 EQ PUSH2 0x40AF JUMPI PUSH1 0x0 DUP1 REVERT JUMPDEST POP JUMP JUMPDEST DUP1 ISZERO ISZERO DUP2 EQ PUSH2 0x40AF JUMPI PUSH1 0x0 DUP1 REVERT INVALID LOG2 PUSH5 0x6970667358 0x22 SLT KECCAK256 COINBASE PUSH16 0x85E4E8B536D3CE0E4215A41874773C09 PUSH21 0x5124BF1576425660C9CA944EF164736F6C63430006 0xC STOP CALLER "},"gasEstimates":{"creation":{"codeDepositCost":"3326000","executionCost":"infinite","totalCost":"infinite"},"external":{"addReward(address,address,bool)":"infinite","approveRewardDistributor(address,address,bool)":"infinite","balanceAtEpochOf(uint256,address)":"infinite","balanceOf(address)":"infinite","balances(address)":"1574","boostPayment()":"1137","boostRate()":"1207","boostedSupply()":"1161","checkpointEpoch()":"infinite","claimableRewards(address)":"infinite","decimals()":"infinite","denominator()":"384","epochCount()":"1227","epochs(uint256)":"2177","escrowDuration()":"1074","findEpochId(uint256)":"infinite","getReward(address)":"infinite","getRewardForDuration(address)":"infinite","isShutdown()":"1239","kickExpiredLocks(address)":"infinite","kickRewardEpochDelay()":"1072","kickRewardPerEpoch()":"1206","lastTimeRewardApplicable(address)":"infinite","lock(address,uint256,uint256)":"infinite","lockDuration()":"275","lockedBalanceOf(address)":"1361","lockedBalances(address)":"infinite","lockedSupply()":"1139","maximumBoostPayment()":"1139","name()":"infinite","nextBoostRate()":"1161","nextMaximumBoostPayment()":"1205","notifyRewardAmount(address,uint256)":"infinite","owner()":"1182","processExpiredLocks(bool)":"infinite","processExpiredLocks(bool,uint256,address)":"infinite","recoverERC20(address,uint256)":"infinite","renounceOwnership()":"24341","rewardData(address)":"2487","rewardDistributors(address,address)":"infinite","rewardPerToken(address)":"infinite","rewardTokens(uint256)":"2193","rewardWeightOf(address)":"1365","rewards(address,address)":"infinite","rewardsDuration()":"362","rewardsEscrow()":"1202","setApprovals()":"infinite","setBoost(uint256,uint256,address)":"62284","setEscrowDuration(uint256)":"23433","setKickIncentive(uint256,uint256)":"41353","setRewardsEscrow(address)":"24393","shutdown()":"22096","stakingToken()":"1181","symbol()":"infinite","totalSupply()":"infinite","totalSupplyAtEpoch(uint256)":"infinite","transferOwnership(address)":"24649","userLocks(address,uint256)":"2408","userRewardPerTokenPaid(address,address)":"infinite"},"internal":{"_checkpointEpoch()":"infinite","_earned(address,address,uint256)":"infinite","_getDelayAdjustedReward(uint256,struct PopLocker.LockedBalance storage pointer)":"infinite","_lastTimeRewardApplicable(uint256)":"103","_lock(address,uint256,uint256)":"infinite","_notifyReward(address,uint256)":"infinite","_processExpiredLocks(address,bool,uint256,address,address,uint256)":"infinite","_rewardPerToken(address)":"infinite"}},"methodIdentifiers":{"addReward(address,address,bool)":"d3c45c76","approveRewardDistributor(address,address,bool)":"6724c910","balanceAtEpochOf(uint256,address)":"1c607395","balanceOf(address)":"70a08231","balances(address)":"27e235e3","boostPayment()":"a98e05bb","boostRate()":"2e9564e4","boostedSupply()":"75aadf61","checkpointEpoch()":"c1009f4b","claimableRewards(address)":"dc01f60d","decimals()":"313ce567","denominator()":"96ce0795","epochCount()":"829965cc","epochs(uint256)":"c6b61e4c","escrowDuration()":"57c2c2ba","findEpochId(uint256)":"f8261597","getReward(address)":"c00007b0","getRewardForDuration(address)":"bcd11014","isShutdown()":"bf86d690","kickExpiredLocks(address)":"887c7dc5","kickRewardEpochDelay()":"e432488d","kickRewardPerEpoch()":"9bdc7467","lastTimeRewardApplicable(address)":"638634ee","lock(address,uint256,uint256)":"e2ab691d","lockDuration()":"04554443","lockedBalanceOf(address)":"59355736","lockedBalances(address)":"0483a7f6","lockedSupply()":"ca5c7b91","maximumBoostPayment()":"b187bc22","name()":"06fdde03","nextBoostRate()":"b5ed7a66","nextMaximumBoostPayment()":"7bd48c7c","notifyRewardAmount(address,uint256)":"b66503cf","owner()":"8da5cb5b","processExpiredLocks(bool)":"312ff839","processExpiredLocks(bool,uint256,address)":"70e664cd","recoverERC20(address,uint256)":"8980f11f","renounceOwnership()":"715018a6","rewardData(address)":"48e5d9f8","rewardDistributors(address,address)":"39fc9713","rewardPerToken(address)":"f1229777","rewardTokens(uint256)":"7bb7bed1","rewardWeightOf(address)":"2fe87108","rewards(address,address)":"e70b9e27","rewardsDuration()":"386a9525","rewardsEscrow()":"f2157932","setApprovals()":"8757b15b","setBoost(uint256,uint256,address)":"a81653c9","setEscrowDuration(uint256)":"321bc347","setKickIncentive(uint256,uint256)":"63f1c8e2","setRewardsEscrow(address)":"e465fe80","shutdown()":"fc0e74d1","stakingToken()":"72f702f3","symbol()":"95d89b41","totalSupply()":"18160ddd","totalSupplyAtEpoch(uint256)":"70b36d79","transferOwnership(address)":"f2fde38b","userLocks(address,uint256)":"aa33fedb","userRewardPerTokenPaid(address,address)":"7035ab98"}},"storageLayout":{"storage":[{"astId":4432,"contract":"contracts/core/dao/PopLocker.sol:PopLocker","label":"_status","offset":0,"slot":"0","type":"t_uint256"},{"astId":3281,"contract":"contracts/core/dao/PopLocker.sol:PopLocker","label":"_owner","offset":0,"slot":"1","type":"t_address"},{"astId":65,"contract":"contracts/core/dao/PopLocker.sol:PopLocker","label":"stakingToken","offset":0,"slot":"2","type":"t_contract(IERC20)3889"},{"astId":67,"contract":"contracts/core/dao/PopLocker.sol:PopLocker","label":"rewardsEscrow","offset":0,"slot":"3","type":"t_contract(IRewardsEscrow)2591"},{"astId":70,"contract":"contracts/core/dao/PopLocker.sol:PopLocker","label":"rewardTokens","offset":0,"slot":"4","type":"t_array(t_address)dyn_storage"},{"astId":74,"contract":"contracts/core/dao/PopLocker.sol:PopLocker","label":"rewardData","offset":0,"slot":"5","type":"t_mapping(t_address,t_struct(Reward)39_storage)"},{"astId":76,"contract":"contracts/core/dao/PopLocker.sol:PopLocker","label":"escrowDuration","offset":0,"slot":"6","type":"t_uint256"},{"astId":90,"contract":"contracts/core/dao/PopLocker.sol:PopLocker","label":"rewardDistributors","offset":0,"slot":"7","type":"t_mapping(t_address,t_mapping(t_address,t_bool))"},{"astId":96,"contract":"contracts/core/dao/PopLocker.sol:PopLocker","label":"userRewardPerTokenPaid","offset":0,"slot":"8","type":"t_mapping(t_address,t_mapping(t_address,t_uint256))"},{"astId":102,"contract":"contracts/core/dao/PopLocker.sol:PopLocker","label":"rewards","offset":0,"slot":"9","type":"t_mapping(t_address,t_mapping(t_address,t_uint256))"},{"astId":104,"contract":"contracts/core/dao/PopLocker.sol:PopLocker","label":"lockedSupply","offset":0,"slot":"10","type":"t_uint256"},{"astId":106,"contract":"contracts/core/dao/PopLocker.sol:PopLocker","label":"boostedSupply","offset":0,"slot":"11","type":"t_uint256"},{"astId":109,"contract":"contracts/core/dao/PopLocker.sol:PopLocker","label":"epochs","offset":0,"slot":"12","type":"t_array(t_struct(Epoch)63_storage)dyn_storage"},{"astId":113,"contract":"contracts/core/dao/PopLocker.sol:PopLocker","label":"balances","offset":0,"slot":"13","type":"t_mapping(t_address,t_struct(Balances)46_storage)"},{"astId":118,"contract":"contracts/core/dao/PopLocker.sol:PopLocker","label":"userLocks","offset":0,"slot":"14","type":"t_mapping(t_address,t_array(t_struct(LockedBalance)53_storage)dyn_storage)"},{"astId":120,"contract":"contracts/core/dao/PopLocker.sol:PopLocker","label":"boostPayment","offset":0,"slot":"15","type":"t_address"},{"astId":123,"contract":"contracts/core/dao/PopLocker.sol:PopLocker","label":"maximumBoostPayment","offset":0,"slot":"16","type":"t_uint256"},{"astId":126,"contract":"contracts/core/dao/PopLocker.sol:PopLocker","label":"boostRate","offset":0,"slot":"17","type":"t_uint256"},{"astId":129,"contract":"contracts/core/dao/PopLocker.sol:PopLocker","label":"nextMaximumBoostPayment","offset":0,"slot":"18","type":"t_uint256"},{"astId":132,"contract":"contracts/core/dao/PopLocker.sol:PopLocker","label":"nextBoostRate","offset":0,"slot":"19","type":"t_uint256"},{"astId":138,"contract":"contracts/core/dao/PopLocker.sol:PopLocker","label":"kickRewardPerEpoch","offset":0,"slot":"20","type":"t_uint256"},{"astId":141,"contract":"contracts/core/dao/PopLocker.sol:PopLocker","label":"kickRewardEpochDelay","offset":0,"slot":"21","type":"t_uint256"},{"astId":144,"contract":"contracts/core/dao/PopLocker.sol:PopLocker","label":"isShutdown","offset":0,"slot":"22","type":"t_bool"},{"astId":146,"contract":"contracts/core/dao/PopLocker.sol:PopLocker","label":"_name","offset":0,"slot":"23","type":"t_string_storage"},{"astId":148,"contract":"contracts/core/dao/PopLocker.sol:PopLocker","label":"_symbol","offset":0,"slot":"24","type":"t_string_storage"}],"types":{"t_address":{"encoding":"inplace","label":"address","numberOfBytes":"20"},"t_array(t_address)dyn_storage":{"base":"t_address","encoding":"dynamic_array","label":"address[]","numberOfBytes":"32"},"t_array(t_struct(Epoch)63_storage)dyn_storage":{"base":"t_struct(Epoch)63_storage","encoding":"dynamic_array","label":"struct PopLocker.Epoch[]","numberOfBytes":"32"},"t_array(t_struct(LockedBalance)53_storage)dyn_storage":{"base":"t_struct(LockedBalance)53_storage","encoding":"dynamic_array","label":"struct PopLocker.LockedBalance[]","numberOfBytes":"32"},"t_bool":{"encoding":"inplace","label":"bool","numberOfBytes":"1"},"t_contract(IERC20)3889":{"encoding":"inplace","label":"contract IERC20","numberOfBytes":"20"},"t_contract(IRewardsEscrow)2591":{"encoding":"inplace","label":"contract IRewardsEscrow","numberOfBytes":"20"},"t_mapping(t_address,t_array(t_struct(LockedBalance)53_storage)dyn_storage)":{"encoding":"mapping","key":"t_address","label":"mapping(address => struct PopLocker.LockedBalance[])","numberOfBytes":"32","value":"t_array(t_struct(LockedBalance)53_storage)dyn_storage"},"t_mapping(t_address,t_bool)":{"encoding":"mapping","key":"t_address","label":"mapping(address => bool)","numberOfBytes":"32","value":"t_bool"},"t_mapping(t_address,t_mapping(t_address,t_bool))":{"encoding":"mapping","key":"t_address","label":"mapping(address => mapping(address => bool))","numberOfBytes":"32","value":"t_mapping(t_address,t_bool)"},"t_mapping(t_address,t_mapping(t_address,t_uint256))":{"encoding":"mapping","key":"t_address","label":"mapping(address => mapping(address => uint256))","numberOfBytes":"32","value":"t_mapping(t_address,t_uint256)"},"t_mapping(t_address,t_struct(Balances)46_storage)":{"encoding":"mapping","key":"t_address","label":"mapping(address => struct PopLocker.Balances)","numberOfBytes":"32","value":"t_struct(Balances)46_storage"},"t_mapping(t_address,t_struct(Reward)39_storage)":{"encoding":"mapping","key":"t_address","label":"mapping(address => struct PopLocker.Reward)","numberOfBytes":"32","value":"t_struct(Reward)39_storage"},"t_mapping(t_address,t_uint256)":{"encoding":"mapping","key":"t_address","label":"mapping(address => uint256)","numberOfBytes":"32","value":"t_uint256"},"t_string_storage":{"encoding":"bytes","label":"string","numberOfBytes":"32"},"t_struct(Balances)46_storage":{"encoding":"inplace","label":"struct PopLocker.Balances","members":[{"astId":41,"contract":"contracts/core/dao/PopLocker.sol:PopLocker","label":"locked","offset":0,"slot":"0","type":"t_uint112"},{"astId":43,"contract":"contracts/core/dao/PopLocker.sol:PopLocker","label":"boosted","offset":14,"slot":"0","type":"t_uint112"},{"astId":45,"contract":"contracts/core/dao/PopLocker.sol:PopLocker","label":"nextUnlockIndex","offset":28,"slot":"0","type":"t_uint32"}],"numberOfBytes":"32"},"t_struct(Epoch)63_storage":{"encoding":"inplace","label":"struct PopLocker.Epoch","members":[{"astId":60,"contract":"contracts/core/dao/PopLocker.sol:PopLocker","label":"supply","offset":0,"slot":"0","type":"t_uint224"},{"astId":62,"contract":"contracts/core/dao/PopLocker.sol:PopLocker","label":"date","offset":28,"slot":"0","type":"t_uint32"}],"numberOfBytes":"32"},"t_struct(LockedBalance)53_storage":{"encoding":"inplace","label":"struct PopLocker.LockedBalance","members":[{"astId":48,"contract":"contracts/core/dao/PopLocker.sol:PopLocker","label":"amount","offset":0,"slot":"0","type":"t_uint112"},{"astId":50,"contract":"contracts/core/dao/PopLocker.sol:PopLocker","label":"boosted","offset":14,"slot":"0","type":"t_uint112"},{"astId":52,"contract":"contracts/core/dao/PopLocker.sol:PopLocker","label":"unlockTime","offset":28,"slot":"0","type":"t_uint32"}],"numberOfBytes":"32"},"t_struct(Reward)39_storage":{"encoding":"inplace","label":"struct PopLocker.Reward","members":[{"astId":30,"contract":"contracts/core/dao/PopLocker.sol:PopLocker","label":"useBoost","offset":0,"slot":"0","type":"t_bool"},{"astId":32,"contract":"contracts/core/dao/PopLocker.sol:PopLocker","label":"periodFinish","offset":1,"slot":"0","type":"t_uint40"},{"astId":34,"contract":"contracts/core/dao/PopLocker.sol:PopLocker","label":"rewardRate","offset":6,"slot":"0","type":"t_uint208"},{"astId":36,"contract":"contracts/core/dao/PopLocker.sol:PopLocker","label":"lastUpdateTime","offset":0,"slot":"1","type":"t_uint40"},{"astId":38,"contract":"contracts/core/dao/PopLocker.sol:PopLocker","label":"rewardPerTokenStored","offset":5,"slot":"1","type":"t_uint208"}],"numberOfBytes":"64"},"t_uint112":{"encoding":"inplace","label":"uint112","numberOfBytes":"14"},"t_uint208":{"encoding":"inplace","label":"uint208","numberOfBytes":"26"},"t_uint224":{"encoding":"inplace","label":"uint224","numberOfBytes":"28"},"t_uint256":{"encoding":"inplace","label":"uint256","numberOfBytes":"32"},"t_uint32":{"encoding":"inplace","label":"uint32","numberOfBytes":"4"},"t_uint40":{"encoding":"inplace","label":"uint40","numberOfBytes":"5"}}},"userdoc":{"kind":"user","methods":{},"version":1}}}}