{
  "_format": "hh-sol-artifact-1",
  "contractName": "ThreeXZapper",
  "sourceName": "contracts/core/defi/three-x/ThreeXZapper.sol",
  "abi": [
    {
      "inputs": [
        {
          "internalType": "contract IContractRegistry",
          "name": "_contractRegistry",
          "type": "address"
        },
        {
          "internalType": "contract Curve3Pool",
          "name": "_threePool",
          "type": "address"
        },
        {
          "internalType": "contract IERC20[3]",
          "name": "_token",
          "type": "address[3]"
        }
      ],
      "stateMutability": "nonpayable",
      "type": "constructor"
    },
    {
      "anonymous": false,
      "inputs": [
        {
          "indexed": false,
          "internalType": "bytes32",
          "name": "batchId",
          "type": "bytes32"
        },
        {
          "indexed": false,
          "internalType": "int128",
          "name": "stableCoinIndex",
          "type": "int128"
        },
        {
          "indexed": false,
          "internalType": "uint256",
          "name": "inputAmount",
          "type": "uint256"
        },
        {
          "indexed": false,
          "internalType": "uint256",
          "name": "outputAmount",
          "type": "uint256"
        },
        {
          "indexed": false,
          "internalType": "address",
          "name": "account",
          "type": "address"
        }
      ],
      "name": "ClaimedIntoStable",
      "type": "event"
    },
    {
      "anonymous": false,
      "inputs": [
        {
          "indexed": false,
          "internalType": "uint256",
          "name": "outputAmount",
          "type": "uint256"
        },
        {
          "indexed": false,
          "internalType": "address",
          "name": "account",
          "type": "address"
        }
      ],
      "name": "ZappedIntoBatch",
      "type": "event"
    },
    {
      "anonymous": false,
      "inputs": [
        {
          "indexed": false,
          "internalType": "bytes32",
          "name": "batchId",
          "type": "bytes32"
        },
        {
          "indexed": false,
          "internalType": "int128",
          "name": "stableCoinIndex",
          "type": "int128"
        },
        {
          "indexed": false,
          "internalType": "uint256",
          "name": "inputAmount",
          "type": "uint256"
        },
        {
          "indexed": false,
          "internalType": "uint256",
          "name": "outputAmount",
          "type": "uint256"
        },
        {
          "indexed": false,
          "internalType": "address",
          "name": "account",
          "type": "address"
        }
      ],
      "name": "ZappedOutOfBatch",
      "type": "event"
    },
    {
      "inputs": [
        {
          "internalType": "bytes32",
          "name": "_batchId",
          "type": "bytes32"
        },
        {
          "internalType": "int128",
          "name": "_i",
          "type": "int128"
        },
        {
          "internalType": "int128",
          "name": "_j",
          "type": "int128"
        },
        {
          "internalType": "uint256",
          "name": "_min_amount",
          "type": "uint256"
        }
      ],
      "name": "claimAndSwapToStable",
      "outputs": [],
      "stateMutability": "nonpayable",
      "type": "function"
    },
    {
      "inputs": [],
      "name": "setApprovals",
      "outputs": [],
      "stateMutability": "nonpayable",
      "type": "function"
    },
    {
      "inputs": [
        {
          "internalType": "uint256",
          "name": "",
          "type": "uint256"
        }
      ],
      "name": "token",
      "outputs": [
        {
          "internalType": "contract IERC20",
          "name": "",
          "type": "address"
        }
      ],
      "stateMutability": "view",
      "type": "function"
    },
    {
      "inputs": [
        {
          "internalType": "uint256",
          "name": "_amount",
          "type": "uint256"
        },
        {
          "internalType": "int128",
          "name": "_i",
          "type": "int128"
        },
        {
          "internalType": "int128",
          "name": "_j",
          "type": "int128"
        },
        {
          "internalType": "uint256",
          "name": "_min_amount",
          "type": "uint256"
        }
      ],
      "name": "zapIntoBatch",
      "outputs": [],
      "stateMutability": "nonpayable",
      "type": "function"
    },
    {
      "inputs": [
        {
          "internalType": "bytes32",
          "name": "_batchId",
          "type": "bytes32"
        },
        {
          "internalType": "uint256",
          "name": "_amountToWithdraw",
          "type": "uint256"
        },
        {
          "internalType": "int128",
          "name": "_i",
          "type": "int128"
        },
        {
          "internalType": "int128",
          "name": "_j",
          "type": "int128"
        },
        {
          "internalType": "uint256",
          "name": "_min_amount",
          "type": "uint256"
        }
      ],
      "name": "zapOutOfBatch",
      "outputs": [],
      "stateMutability": "nonpayable",
      "type": "function"
    }
  ],
  "bytecode": "0x60806040523480156200001157600080fd5b506040516200131a3803806200131a833981016040819052620000349162000132565b600080546001600160a01b038086166001600160a01b03199283161790925560018054928516929091169190911790556200007360028260036200007d565b50505050620001ed565b8260038101928215620000c8579160200282015b82811115620000c857825182546001600160a01b0319166001600160a01b0390911617825560209092019160019091019062000091565b50620000d6929150620000da565b5090565b5b80821115620000d65760008155600101620000db565b6001600160a01b03811681146200010757600080fd5b50565b634e487b7160e01b600052604160045260246000fd5b80516200012d81620000f1565b919050565b600080600060a084860312156200014857600080fd5b83516200015581620000f1565b809350506020808501516200016a81620000f1565b9250605f850186136200017c57600080fd5b604051606081016001600160401b0381118282101715620001a157620001a16200010a565b6040528060a0870188811115620001b757600080fd5b604088015b81811015620001de57620001d08162000120565b8352918401918401620001bc565b50505080925050509250925092565b61111d80620001fd6000396000f3fe608060405234801561001057600080fd5b50600436106100575760003560e01c8063044215c61461005c5780638757b15b1461008b5780639e7f7c7f14610095578063f2224984146100a8578063f97d7023146100bb575b600080fd5b61006f61006a366004610e39565b6100ce565b6040516001600160a01b03909116815260200160405180910390f35b6100936100ee565b005b6100936100a3366004610e69565b61028f565b6100936100b6366004610eb7565b610559565b6100936100c9366004610eb7565b610800565b600281600381106100de57600080fd5b01546001600160a01b0316905081565b60005b600381101561028c57600154610131906001600160a01b031660006002846003811061011f5761011f610efb565b01546001600160a01b03169190610982565b600154610157906001600160a01b03166000196002846003811061011f5761011f610efb565b600054604051631c2d8fb360e31b81526000805160206110c883398151915260048201526101e8916001600160a01b03169063e16c7d9890602401602060405180830381865afa1580156101af573d6000803e3d6000fd5b505050506040513d601f19601f820116820180604052508101906101d39190610f26565b60006002846003811061011f5761011f610efb565b600054604051631c2d8fb360e31b81526000805160206110c8833981519152600482015261027a916001600160a01b03169063e16c7d9890602401602060405180830381865afa158015610240573d6000803e3d6000fd5b505050506040513d601f19601f820116820180604052508101906102649190610f26565b6000196002846003811061011f5761011f610efb565b8061028481610f4a565b9150506100f1565b50565b60008054604051631c2d8fb360e31b81526000805160206110c883398151915260048201526001600160a01b039091169063e16c7d9890602401602060405180830381865afa1580156102e6573d6000803e3d6000fd5b505050506040513d601f19601f8201168201806040525081019061030a9190610f26565b90506000816001600160a01b031663f1230cb56040518163ffffffff1660e01b81526004016020604051808303816000875af115801561034e573d6000803e3d6000fd5b505050506040513d601f19601f820116820180604052508101906103729190610f26565b90506000604051639db95d0560e01b8152600481018990526001600160a01b03831690639db95d0590602401602060405180830381865afa1580156103bb573d6000803e3d6000fd5b505050506040513d601f19601f820116820180604052508101906103df9190610f87565b60018111156103f0576103f0610f71565b1461042a5760405162461bcd60e51b8152602060048201526005602482015264085b5a5b9d60da1b60448201526064015b60405180910390fd5b60405163620723a960e01b815260048101889052602481018790523360448201523060648201526000906001600160a01b0384169063620723a9906084016020604051808303816000875af1158015610487573d6000803e3d6000fd5b505050506040513d601f19601f820116820180604052508101906104ab9190610fa8565b905060006104ba878784610acf565b9050848110156104dc5760405162461bcd60e51b815260040161042190610fc1565b61050f33826002896001600160801b0316600381106104fd576104fd610efb565b01546001600160a01b03169190610bd6565b7fdd5d550fd0621de41e6ee74ff8b9b5ac91cacec3c869bb5a5edaa1483d50e4ec8987848433604051610546959493929190610fec565b60405180910390a1505050505050505050565b60008054604051631c2d8fb360e31b81526000805160206110c883398151915260048201526001600160a01b039091169063e16c7d9890602401602060405180830381865afa1580156105b0573d6000803e3d6000fd5b505050506040513d601f19601f820116820180604052508101906105d49190610f26565b90506000816001600160a01b031663f1230cb56040518163ffffffff1660e01b81526004016020604051808303816000875af1158015610618573d6000803e3d6000fd5b505050506040513d601f19601f8201168201806040525081019061063c9190610f26565b90506001604051639db95d0560e01b8152600481018890526001600160a01b03831690639db95d0590602401602060405180830381865afa158015610685573d6000803e3d6000fd5b505050506040513d601f19601f820116820180604052508101906106a99190610f87565b60018111156106ba576106ba610f71565b146106f15760405162461bcd60e51b81526020600482015260076024820152662172656465656d60c81b6044820152606401610421565b60405163096c144f60e41b81526000906001600160a01b038416906396c144f090610722908a90339060040161101b565b6020604051808303816000875af1158015610741573d6000803e3d6000fd5b505050506040513d601f19601f820116820180604052508101906107659190610fa8565b90506000610774878784610acf565b9050848110156107965760405162461bcd60e51b815260040161042190610fc1565b6107b733826002896001600160801b0316600381106104fd576104fd610efb565b7fc58ac00e029e1925d27d7bb041ed7b8a9de17c22289b33a06dd7f9424e6f9aa188878484336040516107ee959493929190610fec565b60405180910390a15050505050505050565b60008054604051631c2d8fb360e31b81526000805160206110c883398151915260048201526001600160a01b039091169063e16c7d9890602401602060405180830381865afa158015610857573d6000803e3d6000fd5b505050506040513d601f19601f8201168201806040525081019061087b9190610f26565b90506108b23330876002886001600160801b03166003811061089f5761089f610efb565b01546001600160a01b0316929190610c06565b60006108bf858588610acf565b9050828110156108e15760405162461bcd60e51b815260040161042190610fc1565b604051634b0dbec360e11b81526001600160a01b0383169063961b7d869061090f908490339060040161101b565b600060405180830381600087803b15801561092957600080fd5b505af115801561093d573d6000803e3d6000fd5b505050507fa59c8e0fff5360b5d65a99cba38825db122305108affae79287f0029d5b4b6e3813360405161097292919061101b565b60405180910390a1505050505050565b8015806109fc5750604051636eb1769f60e11b81523060048201526001600160a01b03838116602483015284169063dd62ed3e90604401602060405180830381865afa1580156109d6573d6000803e3d6000fd5b505050506040513d601f19601f820116820180604052508101906109fa9190610fa8565b155b610a675760405162461bcd60e51b815260206004820152603660248201527f5361666545524332303a20617070726f76652066726f6d206e6f6e2d7a65726f60448201527520746f206e6f6e2d7a65726f20616c6c6f77616e636560501b6064820152608401610421565b6040516001600160a01b038316602482015260448101829052610aca90849063095ea7b360e01b906064015b60408051601f198184030181529190526020810180516001600160e01b03166001600160e01b031990931692909217909152610c44565b505050565b600154604051630f7c084960e21b8152600f85810b600483015284900b602482015260448101839052600060648201819052916001600160a01b031690633df0212490608401600060405180830381600087803b158015610b2f57600080fd5b505af1158015610b43573d6000803e3d6000fd5b505050506002836001600160801b031660038110610b6357610b63610efb565b01546040516370a0823160e01b81523060048201526001600160a01b03909116906370a0823190602401602060405180830381865afa158015610baa573d6000803e3d6000fd5b505050506040513d601f19601f82011682018060405250810190610bce9190610fa8565b949350505050565b6040516001600160a01b038316602482015260448101829052610aca90849063a9059cbb60e01b90606401610a93565b6040516001600160a01b0380851660248301528316604482015260648101829052610c3e9085906323b872dd60e01b90608401610a93565b50505050565b6000610c99826040518060400160405280602081526020017f5361666545524332303a206c6f772d6c6576656c2063616c6c206661696c6564815250856001600160a01b0316610d169092919063ffffffff16565b805190915015610aca5780806020019051810190610cb79190611032565b610aca5760405162461bcd60e51b815260206004820152602a60248201527f5361666545524332303a204552433230206f7065726174696f6e20646964206e6044820152691bdd081cdd58d8d9595960b21b6064820152608401610421565b6060610bce848460008585600080866001600160a01b03168587604051610d3d9190611078565b60006040518083038185875af1925050503d8060008114610d7a576040519150601f19603f3d011682016040523d82523d6000602084013e610d7f565b606091505b5091509150610d9087838387610d9b565b979650505050505050565b60608315610e0a578251600003610e03576001600160a01b0385163b610e035760405162461bcd60e51b815260206004820152601d60248201527f416464726573733a2063616c6c20746f206e6f6e2d636f6e74726163740000006044820152606401610421565b5081610bce565b610bce8383815115610e1f5781518083602001fd5b8060405162461bcd60e51b81526004016104219190611094565b600060208284031215610e4b57600080fd5b5035919050565b8035600f81900b8114610e6457600080fd5b919050565b600080600080600060a08688031215610e8157600080fd5b8535945060208601359350610e9860408701610e52565b9250610ea660608701610e52565b949793965091946080013592915050565b60008060008060808587031215610ecd57600080fd5b84359350610edd60208601610e52565b9250610eeb60408601610e52565b9396929550929360600135925050565b634e487b7160e01b600052603260045260246000fd5b6001600160a01b038116811461028c57600080fd5b600060208284031215610f3857600080fd5b8151610f4381610f11565b9392505050565b600060018201610f6a57634e487b7160e01b600052601160045260246000fd5b5060010190565b634e487b7160e01b600052602160045260246000fd5b600060208284031215610f9957600080fd5b815160028110610f4357600080fd5b600060208284031215610fba57600080fd5b5051919050565b6020808252601190820152700e6d8d2e0e0c2ceca40e8dede40d0d2ced607b1b604082015260600190565b948552600f9390930b6020850152604084019190915260608301526001600160a01b0316608082015260a00190565b9182526001600160a01b0316602082015260400190565b60006020828403121561104457600080fd5b81518015158114610f4357600080fd5b60005b8381101561106f578181015183820152602001611057565b50506000910152565b6000825161108a818460208701611054565b9190910192915050565b60208152600082518060208401526110b3816040850160208701611054565b601f01601f1916919091016040019291505056fe704ad3a59be98f184239509fa87569e37a7bbe9669c628d3185d41415cecb988a2646970667358221220f72d624deb23f6bc156901c084eacdaef26d661698be681fee9ae9a20c4a0f9964736f6c63430008110033",
  "linkReferences": {},
  "deployedLinkReferences": {}
}