{
  "_format": "hh-sol-artifact-1",
  "contractName": "MockCurveFactory2Metapool",
  "sourceName": "contracts/mocks/MockCurveFactory2Metapool.sol",
  "abi": [
    {
      "inputs": [
        {
          "internalType": "address",
          "name": "tokenA_",
          "type": "address"
        },
        {
          "internalType": "address",
          "name": "tokenB_",
          "type": "address"
        }
      ],
      "stateMutability": "nonpayable",
      "type": "constructor"
    },
    {
      "anonymous": false,
      "inputs": [
        {
          "indexed": true,
          "internalType": "address",
          "name": "owner",
          "type": "address"
        },
        {
          "indexed": true,
          "internalType": "address",
          "name": "spender",
          "type": "address"
        },
        {
          "indexed": false,
          "internalType": "uint256",
          "name": "value",
          "type": "uint256"
        }
      ],
      "name": "Approval",
      "type": "event"
    },
    {
      "anonymous": false,
      "inputs": [
        {
          "indexed": true,
          "internalType": "address",
          "name": "from",
          "type": "address"
        },
        {
          "indexed": true,
          "internalType": "address",
          "name": "to",
          "type": "address"
        },
        {
          "indexed": false,
          "internalType": "uint256",
          "name": "value",
          "type": "uint256"
        }
      ],
      "name": "Transfer",
      "type": "event"
    },
    {
      "inputs": [],
      "name": "__decimals",
      "outputs": [
        {
          "internalType": "uint8",
          "name": "",
          "type": "uint8"
        }
      ],
      "stateMutability": "view",
      "type": "function"
    },
    {
      "inputs": [
        {
          "internalType": "uint256[2]",
          "name": "amounts",
          "type": "uint256[2]"
        },
        {
          "internalType": "uint256",
          "name": "",
          "type": "uint256"
        }
      ],
      "name": "add_liquidity",
      "outputs": [
        {
          "internalType": "uint256",
          "name": "",
          "type": "uint256"
        }
      ],
      "stateMutability": "nonpayable",
      "type": "function"
    },
    {
      "inputs": [
        {
          "internalType": "address",
          "name": "owner",
          "type": "address"
        },
        {
          "internalType": "address",
          "name": "spender",
          "type": "address"
        }
      ],
      "name": "allowance",
      "outputs": [
        {
          "internalType": "uint256",
          "name": "",
          "type": "uint256"
        }
      ],
      "stateMutability": "view",
      "type": "function"
    },
    {
      "inputs": [
        {
          "internalType": "address",
          "name": "spender",
          "type": "address"
        },
        {
          "internalType": "uint256",
          "name": "amount",
          "type": "uint256"
        }
      ],
      "name": "approve",
      "outputs": [
        {
          "internalType": "bool",
          "name": "",
          "type": "bool"
        }
      ],
      "stateMutability": "nonpayable",
      "type": "function"
    },
    {
      "inputs": [
        {
          "internalType": "address",
          "name": "account",
          "type": "address"
        }
      ],
      "name": "balanceOf",
      "outputs": [
        {
          "internalType": "uint256",
          "name": "",
          "type": "uint256"
        }
      ],
      "stateMutability": "view",
      "type": "function"
    },
    {
      "inputs": [
        {
          "internalType": "address",
          "name": "from_",
          "type": "address"
        },
        {
          "internalType": "uint256",
          "name": "amount_",
          "type": "uint256"
        }
      ],
      "name": "burn",
      "outputs": [],
      "stateMutability": "nonpayable",
      "type": "function"
    },
    {
      "inputs": [
        {
          "internalType": "uint256",
          "name": "_token_amount",
          "type": "uint256"
        },
        {
          "internalType": "int128",
          "name": "",
          "type": "int128"
        }
      ],
      "name": "calc_withdraw_one_coin",
      "outputs": [
        {
          "internalType": "uint256",
          "name": "",
          "type": "uint256"
        }
      ],
      "stateMutability": "pure",
      "type": "function"
    },
    {
      "inputs": [
        {
          "internalType": "uint256",
          "name": "i",
          "type": "uint256"
        }
      ],
      "name": "coins",
      "outputs": [
        {
          "internalType": "address",
          "name": "",
          "type": "address"
        }
      ],
      "stateMutability": "view",
      "type": "function"
    },
    {
      "inputs": [],
      "name": "decimals",
      "outputs": [
        {
          "internalType": "uint8",
          "name": "",
          "type": "uint8"
        }
      ],
      "stateMutability": "view",
      "type": "function"
    },
    {
      "inputs": [
        {
          "internalType": "address",
          "name": "spender",
          "type": "address"
        },
        {
          "internalType": "uint256",
          "name": "subtractedValue",
          "type": "uint256"
        }
      ],
      "name": "decreaseAllowance",
      "outputs": [
        {
          "internalType": "bool",
          "name": "",
          "type": "bool"
        }
      ],
      "stateMutability": "nonpayable",
      "type": "function"
    },
    {
      "inputs": [],
      "name": "get_virtual_price",
      "outputs": [
        {
          "internalType": "uint256",
          "name": "",
          "type": "uint256"
        }
      ],
      "stateMutability": "view",
      "type": "function"
    },
    {
      "inputs": [
        {
          "internalType": "address",
          "name": "spender",
          "type": "address"
        },
        {
          "internalType": "uint256",
          "name": "addedValue",
          "type": "uint256"
        }
      ],
      "name": "increaseAllowance",
      "outputs": [
        {
          "internalType": "bool",
          "name": "",
          "type": "bool"
        }
      ],
      "stateMutability": "nonpayable",
      "type": "function"
    },
    {
      "inputs": [
        {
          "internalType": "address",
          "name": "to_",
          "type": "address"
        },
        {
          "internalType": "uint256",
          "name": "amount_",
          "type": "uint256"
        }
      ],
      "name": "mint",
      "outputs": [],
      "stateMutability": "nonpayable",
      "type": "function"
    },
    {
      "inputs": [],
      "name": "name",
      "outputs": [
        {
          "internalType": "string",
          "name": "",
          "type": "string"
        }
      ],
      "stateMutability": "view",
      "type": "function"
    },
    {
      "inputs": [
        {
          "internalType": "uint256",
          "name": "_token_amount",
          "type": "uint256"
        },
        {
          "internalType": "int128",
          "name": "i",
          "type": "int128"
        },
        {
          "internalType": "uint256",
          "name": "_min_amount",
          "type": "uint256"
        }
      ],
      "name": "remove_liquidity_one_coin",
      "outputs": [
        {
          "internalType": "uint256",
          "name": "",
          "type": "uint256"
        }
      ],
      "stateMutability": "nonpayable",
      "type": "function"
    },
    {
      "inputs": [
        {
          "internalType": "uint256",
          "name": "virtualPrice_",
          "type": "uint256"
        }
      ],
      "name": "setVirtualPrice",
      "outputs": [],
      "stateMutability": "nonpayable",
      "type": "function"
    },
    {
      "inputs": [
        {
          "internalType": "uint256",
          "name": "withdrawalSlippageBps_",
          "type": "uint256"
        }
      ],
      "name": "setWithdrawalSlippage",
      "outputs": [],
      "stateMutability": "nonpayable",
      "type": "function"
    },
    {
      "inputs": [],
      "name": "symbol",
      "outputs": [
        {
          "internalType": "string",
          "name": "",
          "type": "string"
        }
      ],
      "stateMutability": "view",
      "type": "function"
    },
    {
      "inputs": [],
      "name": "tokenA",
      "outputs": [
        {
          "internalType": "contract MockERC20",
          "name": "",
          "type": "address"
        }
      ],
      "stateMutability": "view",
      "type": "function"
    },
    {
      "inputs": [],
      "name": "tokenB",
      "outputs": [
        {
          "internalType": "contract MockERC20",
          "name": "",
          "type": "address"
        }
      ],
      "stateMutability": "view",
      "type": "function"
    },
    {
      "inputs": [],
      "name": "totalSupply",
      "outputs": [
        {
          "internalType": "uint256",
          "name": "",
          "type": "uint256"
        }
      ],
      "stateMutability": "view",
      "type": "function"
    },
    {
      "inputs": [
        {
          "internalType": "address",
          "name": "to",
          "type": "address"
        },
        {
          "internalType": "uint256",
          "name": "amount",
          "type": "uint256"
        }
      ],
      "name": "transfer",
      "outputs": [
        {
          "internalType": "bool",
          "name": "",
          "type": "bool"
        }
      ],
      "stateMutability": "nonpayable",
      "type": "function"
    },
    {
      "inputs": [
        {
          "internalType": "address",
          "name": "from",
          "type": "address"
        },
        {
          "internalType": "address",
          "name": "to",
          "type": "address"
        },
        {
          "internalType": "uint256",
          "name": "amount",
          "type": "uint256"
        }
      ],
      "name": "transferFrom",
      "outputs": [
        {
          "internalType": "bool",
          "name": "",
          "type": "bool"
        }
      ],
      "stateMutability": "nonpayable",
      "type": "function"
    }
  ],
  "bytecode": "0x60806040526005805460ff19166012179055670de0b6b3a7640000600755600a6008556127106009553480156200003557600080fd5b50604051620014f5380380620014f58339810160408190526200005891620001c4565b60408051808201825260058082526406372764c560dc1b602080840182905284518086019095529184529083015290601282826003620000998382620002a1565b506004620000a88282620002a1565b5050600580546001600160a01b038089166101009081026001600160a81b031990931660ff909616959095179190911791829055600680548883166001600160a01b0319909116811790915560408051808201909152949092041683526020830152506200011d9250600a9150600262000126565b5050506200036d565b8280548282559060005260206000209081019282156200017e579160200282015b828111156200017e57825182546001600160a01b0319166001600160a01b0390911617825560209092019160019091019062000147565b506200018c92915062000190565b5090565b5b808211156200018c576000815560010162000191565b80516001600160a01b0381168114620001bf57600080fd5b919050565b60008060408385031215620001d857600080fd5b620001e383620001a7565b9150620001f360208401620001a7565b90509250929050565b634e487b7160e01b600052604160045260246000fd5b600181811c908216806200022757607f821691505b6020821081036200024857634e487b7160e01b600052602260045260246000fd5b50919050565b601f8211156200029c57600081815260208120601f850160051c81016020861015620002775750805b601f850160051c820191505b81811015620002985782815560010162000283565b5050505b505050565b81516001600160401b03811115620002bd57620002bd620001fc565b620002d581620002ce845462000212565b846200024e565b602080601f8311600181146200030d5760008415620002f45750858301515b600019600386901b1c1916600185901b17855562000298565b600085815260208120601f198616915b828110156200033e578886015182559484019460019091019084016200031d565b50858210156200035d5787850151600019600388901b60f8161c191681555b5050505050600190811b01905550565b611178806200037d6000396000f3fe608060405234801561001057600080fd5b506004361061014d5760003560e01c806356878436116100c3578063a457c2d71161007c578063a457c2d7146102dd578063a9059cbb146102f0578063bb7b8b8014610303578063c66106571461030b578063cc2b27d71461031e578063dd62ed3e1461033057600080fd5b806356878436146102665780635f64b55b1461027957806370a082311461028c5780638ea2da7d146102b557806395d89b41146102c25780639dc29fac146102ca57600080fd5b806318160ddd1161011557806318160ddd146101f95780631a4d01d21461020157806323b872dd14610214578063313ce56714610227578063395093511461024057806340c10f191461025357600080fd5b806306fdde0314610152578063095ea7b3146101705780630b4c7e4d146101935780630fc63d10146101b457806313143ecd146101e4575b600080fd5b61015a610343565b6040516101679190610e19565b60405180910390f35b61018361017e366004610e83565b6103d5565b6040519015158152602001610167565b6101a66101a1366004610ead565b6103ef565b604051908152602001610167565b6005546101cc9061010090046001600160a01b031681565b6040516001600160a01b039091168152602001610167565b6101f76101f2366004610edb565b600755565b005b6002546101a6565b6101a661020f366004610f06565b610561565b610183610222366004610f3b565b6107cd565b60055460ff165b60405160ff9091168152602001610167565b61018361024e366004610e83565b6107f1565b6101f7610261366004610e83565b610813565b6101f7610274366004610edb565b600855565b6006546101cc906001600160a01b031681565b6101a661029a366004610f67565b6001600160a01b031660009081526020819052604090205490565b60055461022e9060ff1681565b61015a610821565b6101f76102d8366004610e83565b610830565b6101836102eb366004610e83565b61083a565b6101836102fe366004610e83565b6108ba565b6007546101a6565b6101cc610319366004610edb565b6108c8565b6101a661032c366004610f89565b5090565b6101a661033e366004610fb5565b6108f8565b60606003805461035290610fdf565b80601f016020809104026020016040519081016040528092919081815260200182805461037e90610fdf565b80156103cb5780601f106103a0576101008083540402835291602001916103cb565b820191906000526020600020905b8154815290600101906020018083116103ae57829003601f168201915b5050505050905090565b6000336103e3818585610923565b60019150505b92915050565b60008060005b600a5460ff8216101561055957600a8160ff168154811061041857610418611019565b6000918252602090912001546001600160a01b03166323b872dd33308860ff86166002811061044957610449611019565b60200201356040518463ffffffff1660e01b815260040161046c9392919061102f565b6020604051808303816000875af115801561048b573d6000803e3d6000fd5b505050506040513d601f19601f820116820180604052508101906104af9190611053565b50306340c10f19338760ff8516600281106104cc576104cc611019565b60200201356040518363ffffffff1660e01b81526004016104ee929190611075565b600060405180830381600087803b15801561050857600080fd5b505af115801561051c573d6000803e3d6000fd5b50505050848160ff166002811061053557610535611019565b60200201358261054591906110a4565b915080610551816110b7565b9150506103f5565b509392505050565b6040516323b872dd60e01b815260009030906323b872dd9061058b9033908490899060040161102f565b6020604051808303816000875af11580156105aa573d6000803e3d6000fd5b505050506040513d601f19601f820116820180604052508101906105ce9190611053565b506000612710600854866105e291906110d6565b6105ec91906110ed565b905060006105fa828761110f565b90506000859050600a816001600160801b03168154811061061d5761061d611019565b60009182526020909120015460405163095ea7b360e01b81526001600160a01b039091169063095ea7b3906106589030908690600401611075565b6020604051808303816000875af1158015610677573d6000803e3d6000fd5b505050506040513d601f19601f8201168201806040525081019061069b9190611053565b50600a816001600160801b0316815481106106b8576106b8611019565b6000918252602090912001546040516340c10f1960e01b81526001600160a01b03909116906340c10f19906106f39030908690600401611075565b600060405180830381600087803b15801561070d57600080fd5b505af1158015610721573d6000803e3d6000fd5b50505050600a816001600160801b03168154811061074157610741611019565b6000918252602090912001546040516323b872dd60e01b81526001600160a01b03909116906323b872dd9061077e9030903390879060040161102f565b6020604051808303816000875af115801561079d573d6000803e3d6000fd5b505050506040513d601f19601f820116820180604052508101906107c19190611053565b50909695505050505050565b6000336107db858285610a48565b6107e6858585610ac2565b506001949350505050565b6000336103e381858561080483836108f8565b61080e91906110a4565b610923565b61081d8282610c54565b5050565b60606004805461035290610fdf565b61081d8282610d01565b6000338161084882866108f8565b9050838110156108ad5760405162461bcd60e51b815260206004820152602560248201527f45524332303a2064656372656173656420616c6c6f77616e63652062656c6f77604482015264207a65726f60d81b60648201526084015b60405180910390fd5b6107e68286868403610923565b6000336103e3818585610ac2565b6000600a82815481106108dd576108dd611019565b6000918252602090912001546001600160a01b031692915050565b6001600160a01b03918216600090815260016020908152604080832093909416825291909152205490565b6001600160a01b0383166109855760405162461bcd60e51b8152602060048201526024808201527f45524332303a20617070726f76652066726f6d20746865207a65726f206164646044820152637265737360e01b60648201526084016108a4565b6001600160a01b0382166109e65760405162461bcd60e51b815260206004820152602260248201527f45524332303a20617070726f766520746f20746865207a65726f206164647265604482015261737360f01b60648201526084016108a4565b6001600160a01b0383811660008181526001602090815260408083209487168084529482529182902085905590518481527f8c5be1e5ebec7d5bd14f71427d1e84f3dd0314c0f7b2291e5b200ac8c7c3b92591015b60405180910390a3505050565b6000610a5484846108f8565b90506000198114610abc5781811015610aaf5760405162461bcd60e51b815260206004820152601d60248201527f45524332303a20696e73756666696369656e7420616c6c6f77616e636500000060448201526064016108a4565b610abc8484848403610923565b50505050565b6001600160a01b038316610b265760405162461bcd60e51b815260206004820152602560248201527f45524332303a207472616e736665722066726f6d20746865207a65726f206164604482015264647265737360d81b60648201526084016108a4565b6001600160a01b038216610b885760405162461bcd60e51b815260206004820152602360248201527f45524332303a207472616e7366657220746f20746865207a65726f206164647260448201526265737360e81b60648201526084016108a4565b6001600160a01b03831660009081526020819052604090205481811015610c005760405162461bcd60e51b815260206004820152602660248201527f45524332303a207472616e7366657220616d6f756e7420657863656564732062604482015265616c616e636560d01b60648201526084016108a4565b6001600160a01b0384811660008181526020818152604080832087870390559387168083529184902080548701905592518581529092600080516020611123833981519152910160405180910390a3610abc565b6001600160a01b038216610caa5760405162461bcd60e51b815260206004820152601f60248201527f45524332303a206d696e7420746f20746865207a65726f20616464726573730060448201526064016108a4565b8060026000828254610cbc91906110a4565b90915550506001600160a01b03821660008181526020818152604080832080548601905551848152600080516020611123833981519152910160405180910390a35050565b6001600160a01b038216610d615760405162461bcd60e51b815260206004820152602160248201527f45524332303a206275726e2066726f6d20746865207a65726f206164647265736044820152607360f81b60648201526084016108a4565b6001600160a01b03821660009081526020819052604090205481811015610dd55760405162461bcd60e51b815260206004820152602260248201527f45524332303a206275726e20616d6f756e7420657863656564732062616c616e604482015261636560f01b60648201526084016108a4565b6001600160a01b0383166000818152602081815260408083208686039055600280548790039055518581529192916000805160206111238339815191529101610a3b565b600060208083528351808285015260005b81811015610e4657858101830151858201604001528201610e2a565b506000604082860101526040601f19601f8301168501019250505092915050565b80356001600160a01b0381168114610e7e57600080fd5b919050565b60008060408385031215610e9657600080fd5b610e9f83610e67565b946020939093013593505050565b60008060608385031215610ec057600080fd5b6040830184811115610ed157600080fd5b9294923593505050565b600060208284031215610eed57600080fd5b5035919050565b8035600f81900b8114610e7e57600080fd5b600080600060608486031215610f1b57600080fd5b83359250610f2b60208501610ef4565b9150604084013590509250925092565b600080600060608486031215610f5057600080fd5b610f5984610e67565b9250610f2b60208501610e67565b600060208284031215610f7957600080fd5b610f8282610e67565b9392505050565b60008060408385031215610f9c57600080fd5b82359150610fac60208401610ef4565b90509250929050565b60008060408385031215610fc857600080fd5b610fd183610e67565b9150610fac60208401610e67565b600181811c90821680610ff357607f821691505b60208210810361101357634e487b7160e01b600052602260045260246000fd5b50919050565b634e487b7160e01b600052603260045260246000fd5b6001600160a01b039384168152919092166020820152604081019190915260600190565b60006020828403121561106557600080fd5b81518015158114610f8257600080fd5b6001600160a01b03929092168252602082015260400190565b634e487b7160e01b600052601160045260246000fd5b808201808211156103e9576103e961108e565b600060ff821660ff81036110cd576110cd61108e565b60010192915050565b80820281158282048414176103e9576103e961108e565b60008261110a57634e487b7160e01b600052601260045260246000fd5b500490565b818103818111156103e9576103e961108e56feddf252ad1be2c89b69c2b068fc378daa952ba7f163c4a11628f55a4df523b3efa2646970667358221220bbf5f72ff108dc81d87827e256d258bf408f73c140892aa9081bcc272eb4f23c64736f6c63430008110033",
  "linkReferences": {},
  "deployedLinkReferences": {}
}