{
  "_format": "hh-sol-artifact-1",
  "contractName": "ParticipationRewardHelper",
  "sourceName": "contracts/test_helpers/ParticipationRewardHelper.sol",
  "abi": [
    {
      "inputs": [
        {
          "internalType": "contract ParticipationReward",
          "name": "_participationReward",
          "type": "address"
        }
      ],
      "stateMutability": "nonpayable",
      "type": "constructor"
    },
    {
      "inputs": [
        {
          "internalType": "bytes32",
          "name": "vaultId_",
          "type": "bytes32"
        },
        {
          "internalType": "address",
          "name": "account_",
          "type": "address"
        },
        {
          "internalType": "uint256",
          "name": "shares_",
          "type": "uint256"
        }
      ],
      "name": "addShares",
      "outputs": [],
      "stateMutability": "nonpayable",
      "type": "function"
    },
    {
      "inputs": [],
      "name": "contractName",
      "outputs": [
        {
          "internalType": "bytes32",
          "name": "",
          "type": "bytes32"
        }
      ],
      "stateMutability": "view",
      "type": "function"
    },
    {
      "inputs": [
        {
          "internalType": "bytes32",
          "name": "vaultId_",
          "type": "bytes32"
        },
        {
          "internalType": "uint256",
          "name": "endTime_",
          "type": "uint256"
        }
      ],
      "name": "initializeVault",
      "outputs": [],
      "stateMutability": "nonpayable",
      "type": "function"
    },
    {
      "inputs": [
        {
          "internalType": "bytes32",
          "name": "vaultId_",
          "type": "bytes32"
        }
      ],
      "name": "openVault",
      "outputs": [],
      "stateMutability": "nonpayable",
      "type": "function"
    },
    {
      "inputs": [],
      "name": "participationReward",
      "outputs": [
        {
          "internalType": "contract ParticipationReward",
          "name": "",
          "type": "address"
        }
      ],
      "stateMutability": "view",
      "type": "function"
    }
  ],
  "bytecode": "0x60a06040527f50617274696369706174696f6e52657761726448656c7065720000000000000060805234801561003457600080fd5b5060405161047b38038061047b83398101604081905261005391610078565b600080546001600160a01b0319166001600160a01b03929092169190911790556100a8565b60006020828403121561008a57600080fd5b81516001600160a01b03811681146100a157600080fd5b9392505050565b6080516103a46100d76000396000818160760152818161010e015281816101a6015261024701526103a46000f3fe608060405234801561001057600080fd5b50600436106100575760003560e01c8063255e12611461005c57806375d0c0dc1461007157806389afec6d146100ab578063a7bcc5d6146100d6578063fab9bd5e146100e9575b600080fd5b61006f61006a3660046102bc565b6100fc565b005b6100987f000000000000000000000000000000000000000000000000000000000000000081565b6040519081526020015b60405180910390f35b6000546100be906001600160a01b031681565b6040516001600160a01b0390911681526020016100a2565b61006f6100e4366004610300565b610194565b61006f6100f7366004610322565b610235565b600054604051630db4dc5f60e41b81527f00000000000000000000000000000000000000000000000000000000000000006004820152602481018590526001600160a01b038481166044830152606482018490529091169063db4dc5f090608401600060405180830381600087803b15801561017757600080fd5b505af115801561018b573d6000803e3d6000fd5b50505050505050565b6000546040516366308e1360e01b81527f0000000000000000000000000000000000000000000000000000000000000000600482015260248101849052604481018390526001600160a01b03909116906366308e139060640160408051808303816000875af115801561020b573d6000803e3d6000fd5b505050506040513d601f19601f8201168201806040525081019061022f919061033b565b50505050565b60005460405163efff46dd60e01b81527f00000000000000000000000000000000000000000000000000000000000000006004820152602481018390526001600160a01b039091169063efff46dd90604401600060405180830381600087803b1580156102a157600080fd5b505af11580156102b5573d6000803e3d6000fd5b5050505050565b6000806000606084860312156102d157600080fd5b8335925060208401356001600160a01b03811681146102ef57600080fd5b929592945050506040919091013590565b6000806040838503121561031357600080fd5b50508035926020909101359150565b60006020828403121561033457600080fd5b5035919050565b6000806040838503121561034e57600080fd5b8251801515811461035e57600080fd5b602093909301519294929350505056fea2646970667358221220185c97325394ee0586191cd935ea5ee5b6ca7b2274da894472a1d6a6a0c03af964736f6c63430008110033",
  "linkReferences": {},
  "deployedLinkReferences": {}
}